:020000040000FA
:0600000078EF1AF0120077
:020006000000F8
:0800080009D8FF0804E00A0E0C
:1000100070EC05F003D872D899EF00F0B4EC05F05D
:1000200044E80468A5EC05F082EC05F0E66AA3D884
:1000300041E90F0E70EC05F082EC05F0010E036E45
:10004000110E035C03E2ACEC05F0FAD7110E8BEC59
:1000500005F0020E9DEC05F0500E9DEC05F0840EAF
:100060009DEC05F00101050502E10D0E01D00A0E1F
:100070009DEC05F082EC05F0120E036E190E035C88
:1000800003E2ACEC05F0FAD78C98110E9DEC05F06C
:10009000400E9DEC05F0080E9DEC05F0E66A54EC70
:1000A00012F041E9010105050BE1000E4EEC05F0EF
:1000B000010E4EEC05F0020E4EEC05F0030E0AD0D8
:1000C000040E4EEC05F0050E4EEC05F0060E4EEC5F
:1000D00005F0070E4EEC05F0170E9DEC05F0A10E95
:1000E0008BEC05F0FA0E9DEC05F08C8882EC05F0A7
:1000F000C69A045045E9E7CFD9FF1200B4EC05F0E9
:1001000042E802688A84020EE66E4AEC1AF041E97F
:1001100076EC05F00101050502E11E0E01D01F0E6F
:1001200068EC05F01C0E68EC05F0C69A025087EFEB
:1001300005F0B4EC05F042E8026876EC05F0210E1B
:1001400068EC05F0200E68EC05F0BCDAA2EC05F0D6
:10015000015002161B0EE66E0ED841E9C69A8A942B
:10016000025087EF05F08B84010E70EC05F08B9444
:100170000A0E70EF05F0D9CFE6FFE1CFD9FF82E993
:1001800045E80050110DF3CFF6FFF4CFF7FF740EE2
:10019000F6260B0EF722F6CFCAF1F7CFCBF101010D
:1001A000CC6B0101CA51046ECB51056ECC51066E69
:1001B000D950040FE96EDACFEAFFEFCFF6FFEE2A4F
:1001C000EFCFF7FF000EEE22EFCFF8FF000EEE228A
:1001D0000800F550036E8C98026A0334035002182D
:1001E00002E60350025C1FE200000000D950040F39
:1001F000E96EDACFEAFFEFCFF6FFEE2AEFCFF7FF97
:10020000000EEE22EFCFF8FF000EEE220800F550B0
:10021000C96ED66AC750010B04E1050ED65C01E237
:10022000F9D7022ADAD78C8846E9E7CFD9FF12003E
:10023000D9CFE6FFE1CFD9FF82E946E80050110DA2
:10024000F3CFF6FFF4CFF7FFF50EF626120EF722E6
:10025000F6CFCAF1F7CFCBF10101CC6B0101CA5146
:10026000056ECB51066ECC51076ED950050FE96E65
:10027000DACFEAFFEFCFF6FFEE2AEFCFF7FF000E5F
:10028000EE22EFCFF8FF000EEE220800F550046ECC
:100290008C98026A04340450021802E60450025C8E
:1002A0001FE200000000D950050FE96EDACFEAFF27
:1002B000EFCFF6FFEE2AEFCFF7FF000EEE22EFCFE3
:1002C000F8FF000EEE220800F550C96ED66AC7503E
:1002D000010B04E1050ED65C01E2F9D7022ADAD758
:1002E0008C8847E9E7CFD9FF1200D9CFE6FFE1CFED
:1002F000D9FF82E946E80050110DF3CFF6FFF4CFA5
:10030000F7FFB60EF6260D0EF722F6CFCAF1F7CF9D
:10031000CBF10101CC6B0101CA51056ECB51066EC8
:10032000CC51076ED950050FE96EDACFEAFFEFCF57
:10033000F6FFEE2AEFCFF7FF000EEE22EFCFF8FF29
:10034000000EEE220800F550046E8C98026A043408
:100350000450021802E60450025C1FE20000000094
:10036000D950050FE96EDACFEAFFEFCFF6FFEE2A9C
:10037000EFCFF7FF000EEE22EFCFF8FF000EEE22D8
:100380000800F550C96ED66AC750010B04E1050E8E
:10039000D65C01E2F9D7022ADAD78C8847E9E7CFA1
:1003A000D9FF1200D9CFE6FFE1CFD9FF82E946E8B5
:1003B0000050110DF3CFF6FFF4CFF7FFD60EF6265F
:1003C0000F0EF722F6CFCAF1F7CFCBF10101CC6BBC
:1003D0000101CA51056ECB51066ECC51076ED95042
:1003E000050FE96EDACFEAFFEFCFF6FFEE2AEFCF87
:1003F000F7FF000EEE22EFCFF8FF000EEE2208000E
:10040000F550046E8C98026A04340450021802E617
:100410000450025C1FE200000000D950050FE96E95
:10042000DACFEAFFEFCFF6FFEE2AEFCFF7FF000EAD
:10043000EE22EFCFF8FF000EEE220800F550C96E55
:10044000D66AC750010B04E1050ED65C01E2F9D76C
:10045000022ADAD78C8847E9E7CFD9FF1200D9CF33
:10046000E6FFE1CFD9FF82E946E80050110DF3CF56
:10047000F6FFF4CFF7FFA00EF626120EF722F6CF06
:10048000CAF1F7CFCBF10101CC6B0101CA51056E66
:10049000CB51066ECC51076ED950050FE96EDACFFD
:1004A000EAFFEFCFF6FFEE2AEFCFF7FF000EEE22C6
:1004B000EFCFF8FF000EEE220800F550046E8C9886
:1004C000026A04340450021802E60450025C1FE27F
:1004D00000000000D950050FE96EDACFEAFFEFCF38
:1004E000F6FFEE2AEFCFF7FF000EEE22EFCFF8FF78
:1004F000000EEE220800F550C96ED66AC750010BF7
:1005000004E1050ED65C01E2F9D7022ADAD78C881D
:1005100047E9E7CFD9FF1200F0DA84E942E88C9886
:10052000056A00340050051802E60050055C13E22D
:1005300005EBCAF10101CB6BCABFCB69CA510124DB
:10054000E96ECB510220EA6EEFCFE6FF54EC12F0D9
:1005500041E9052AE6D78C880550D9D205DB42E867
:100560008C98440EEADA3EEC12F0016E8C88015051
:10057000CED2D9CFE6FFE1CFD9FF81E942E8026AC6
:100580008C98440EE66E54EC12F041E900003EEC0B
:1005900012F0016E8C88FF0E015C13E0D8900250BF
:1005A00002E6140E025C0DE28C98440EE66E54ECEA
:1005B00012F041E900003EEC12F0016E8C88022A34
:1005C000EAD7FF0E015C08E08D80140EE66EE66A45
:1005D0006BEC12F042E98D908C98015000D043E909
:1005E000E7CFD9FF1200D9CFE6FFE1CFD9FF81E9EC
:1005F00042E8440EE66E54EC12F041E900003EEC95
:1006000012F0016E026AFF0E015C12E0D8900250F7
:1006100002E60A0E025C0CE2440EE66E54EC12F0A6
:1006200041E900003EEC12F0016E00000000EBD743
:10063000015000D043E9E7CFD9FF1200D9CFE6FF40
:10064000E1CFD9FF82E944E88C98000000003EEC3D
:1006500012F0036E00003EEC12F0046E00008C8875
:1006600045E9E7CFD9FF1200D9CFE6FFE1CFD9FFA7
:1006700082E942E88C9800000000770EE66E54ECA8
:1006800012F041E9026A0050025C16E23EEC12F000
:10069000E66E0101D950030FCA6FDACFCBF10250D9
:1006A0000101EA6ACA25E96ECB51EA22E552E75018
:1006B000EF6E0000022AE7D700008C8843E9E7CFFD
:1006C000D9FF12008C9800000000200EE66E54EC5A
:1006D00012F041E9E66A54EC12F041E9E66A54ECA2
:1006E00012F041E9E66A54EC12F041E900008C880E
:1006F0001200D9CFE6FFE1CFD9FF82E944E8046ACE
:100700008C98150EE66E54EC12F041E900EBE6FF12
:1007100054EC12F041E900008C8800008C98440EE3
:10072000E66E54EC12F041E900003EEC12F0036E6C
:10073000FF0E035C0EE08C8800008C98440EE66E81
:1007400054EC12F041E900003EEC12F0036E0000A0
:10075000EFD7FF0E035C06E13EEC12F0046E3EECB8
:1007600012F0056E8C88045000D045E9E7CFD9FF20
:100770001200D9CFE6FFE1CFD9FF83E944E8036A4D
:100780008C980000000001EBE6FF54EC12F041E908
:10079000E66854EC12F041E9E66854EC12F041E9E5
:1007A000E66854EC12F041E900008C8800008C9857
:1007B000000019DFFF081EE10368200E046E056AC1
:1007C0000050055C17E23EEC12F0E66E0101D950D4
:1007D000060FCA6FDACFCBF104500101EA6ACA25CD
:1007E000E96ECB51EA22E552E750EF6E0000052A90
:1007F000042AE6D700008C88035000D045E9E7CFF3
:10080000D9FF1200B1D941E88A84ADDC6FD99AD9F9
:10081000E66A25DE41E9140E63D994D9010E7FD929
:10082000020E7DD9030EE66E1ADE41E98A94C69A5D
:100830007BD1D9CFE6FFE1CFD9FF85E94DE8066A44
:100840008A848C9803EBE6FF54EC12F041E98C8823
:1008500000008C98440EE66E54EC12F041E93EEC38
:1008600012F0076E056AFF0E075C10E00A0E055CC9
:100870000DE2052A8C8800008C98440EE66E54EC3C
:1008800012F041E93EEC12F0076EEDD7FF0E075C67
:1008900014E1010E066E056A0250055C0EE23EECA4
:1008A00012F0E66E05500024E96E000E0120EA6E9B
:1008B000E552E750EF6E052AEFD78C88065000D03E
:1008C0004EE9E7CFD9FF120018D982E941E8026A60
:1008D0008A848C9800EBE6FF54EC12F041E93EEC80
:1008E00012F0026E8C8802501FD107D982E945E8C8
:1008F000050E005C02E2050E006E0050320802E2B6
:10090000320E006E036A046A026AD890025002E650
:10091000030E025C27E20101D950050FD06FDACF38
:10092000D1F10228D26FD36B800B01E0D369D8904C
:10093000D237D337D051D225E96ED151D321EA6EC7
:10094000EECFCEF1EFCFCFF1BAD8CCBFCD69ADD8D5
:10095000CEC1EEFFCFC1EDFFB2D8CCBFCD6907D974
:10096000022AD3D70050E66E0101A9D8CCBFCD69C9
:100970009CD8E552E750EE6EED6AA1D8CCBFCD69A8
:10098000F6D8036A046A026AD890025002E6040E9E
:10099000025C06E294D8CCBFCD69E9D8022AF4D72C
:1009A000D89004320332D890043203323F0E03163B
:1009B000000E0416010E0326000E0422035046E921
:1009C000E7CFD9FF1200D9CFE6FFE1CFD9FF81E908
:1009D00042E8B3EC00F08A84050EE66EE66A6BEC42
:1009E00012F042E9E66AE66AE66A29EC19F043E9A0
:1009F000C0DD016EE66AD6DC41E90F0EE66EE66AFE
:100A00006BEC12F042E9B5DD016E5CDE010E026EA8
:100A1000240E025C08E202EBE6FFC4DC41E9A9DD3A
:100A2000016E022AF5D7C69A000043E9E7CFD9FF45
:100A3000120063D882E942E888D89BDD026EE66A3C
:100A400018EC01F041E90F0E4BD893DD026E010E58
:100A5000036E1A0E035C09E203EBE6FF18EC01F0EB
:100A600041E987DD026E032AF4D7C69A50D07CD8BC
:100A700041E83CD81F0EE66E18EC01F041E962D85F
:100A8000270EE66E8FDC41E95DD81CDE5BD8280EB0
:100A9000E66E88DC41E9C69A8A9446D0E66EE66A3C
:100AA00088EC12F042E99DEF05F0D890CC37CD37B5
:100AB000CA51CC25E96ECB51CD21EA6E1200D95036
:100AC000050FCA6FDACFCBF102EBCCF1CD6B120080
:100AD000E66EBBEC00F041E935D801500216120079
:100AE000E66EE66A6BEC12F042E91200E66AE66A2C
:100AF000E66A29EC19F043E91200D9CFE6FFE1CF0D
:100B0000D9FF120036DD026E02500416120043E9CE
:100B1000E7CFD9FF120011D8200E9DEF05F0E66E49
:100B20009EDC41E9A2EF05F042E9E7CFD9FF1200D0
:100B3000EE500326EF5004221200E66E54EC12F041
:100B400041E9120016DD016E1200B3EC00F08A8458
:100B5000050EC6DF76EF05F003EBE6FFBBEC00F019
:100B600041E9D0DF032A1200C8DF81E912009DDFCE
:040B700098EF05F005
:0C0B740007020101018CBA8000000000A3
:100B80000000000000081301000303000000000043
:100B9000000000000000061100020000000000003C
:100BA000000000000000000511000103200000000B
:100BB000000000000000000005110101000000001D
:100BC0000000000000000000000811020400000006
:100BD00000000000000000000000051110010421C9
:100BE00000000000000000000000001011200C00B8
:100BF0000800070186A0018CBA80001205112001AF
:100C00000CE80000000000000000000000101120AF
:100C10000C18000008028000302000E800A310112A
:100C2000200C2403269900C90200000012812E071F
:100C300011200330033DA000000000000000000070
:100C40000511200135E00000000000000000000058
:100C5000001011200C38112424801AFFFF00290CE9
:100C6000A42309112005450303120200000000001F
:100C7000000000081120044B06091C400000000081
:100C8000000000000511200250840D00000000004B
:100C9000000000000006112002540A0700000000B6
:100CA00000000000000005112001570000000000B6
:100CB00000000000000000091120055B40041778C7
:100CC00020000000000000001011210C00FFBA0FEE
:100CD00051CFA9C9FC1B1E0F011011210C0CFCFDEA
:100CE00015FF000FFFBA0F51CFA91011210C18C921
:100CF000FC1B1E0F01FCFD15FF000F081122040054
:100D0000184FC01D00000000000000000B11230759
:100D1000002C0E0B040C730300000000000C1140AB
:100D20000800440D89D817A120FA00000000053101
:100D300000000000000000000000000000000002B1
:100D4000340100000000000000000000000000006E
:100D50000234070000000000000000000000000056
:100D60000001200000000000000000000000000062
:100D70000000081301000302000000000000000052
:100D80000000000813010003030000000000000041
:100D90000000000008130100020200000000000033
:100DA000000000000002340300000000000000000A
:100DB00000000000000007020101018CBA80000061
:100DC0000000000000000008130000000000000008
:100DD00000000000000000000611000200000000FA
:100DE00000000000000000000005110001032000C9
:100DF00000000000000000000000051101010000DB
:100E000000000000000000000000000811020400C3
:100E100000000000000000000000000005111001AB
:100E2000042100000000000000000000001011205C
:100E30000C000800070186A0018CBA80000605118D
:100E400020010C4D00000000000000000000001018
:100E500011200C18000008038000201000E800D9C1
:100E60001011200C24025CF3009702000000128095
:100E70006507112003300442A000000000000000BC
:100E800000000511200135E0000000000000000016
:100E90000000001011200C38112F2F801AFFFF00C6
:100EA000290CA423091120054503024E020000006D
:100EB0000000000000081120044B06091C4000003F
:100EC0000000000000000611200150840000000016
:100ED0000000000000000006112002540807000076
:100EE0000000000000000000051120015700000074
:100EF000000000000000000000091120055B400414
:100F0000127820000000000000001011210C00FFEA
:100F1000BA0F51CFA9C9FC1B1E0F011011210C0CD7
:100F2000FCFD15FF000FFFBA0F51CFA91011210CC6
:100F300018C9FC1B1E0F01FCFD15FF000F08112234
:100F40000400181FC01D00000000000000000B116D
:100F50002307002C0E0B040C730300000000000C90
:100F600011400800410CFC8801F820FE0000000040
:100F70000531150000000000000000000000000026
:100F8000000234010000000000000000000000002A
:100F90000000023407000000000000000000000014
:100FA0000000000813010003020000000000000020
:100FB0000000000008130100020200000000000011
:100FC00000000000000234030000000000000000E8
:100FD00000000000000007020101018CBA8000003F
:100FE0000000000000000008130100030227004079
:100FF00000000000000000000611000200000000D8
:1010000000000000000000000005110001032000A6
:1010100000000000000000000000051101010002B6
:1010200000000000000000000000000511010102A6
:101030000B00000000000000000000000811020486
:10104000000000000000000000000000000D111072
:101050000900081400063D000000000000000A110D
:1010600011060006DA91D300000000000000000B1A
:1010700011120700040108FFFF200B000000000010
:101080001011120C08000000302000110580000033
:10109000001011120C1400000000000000000000FD
:1010A00000001011120C20000000000000000000E1
:1010B0000000000D1112092C0000000000000000CB
:1010C00000000000081112043600000000000000BB
:1010D00000000000001011200C00028007005DC01D
:1010E000018CBA800000051120010CC20000000034
:1010F000000000000000001011200C1801800803FF
:10110000800030200CE802A51011200C2400C195AD
:10111000006100C200546280080711200330246976
:10112000800000000000000000000511200135E0F3
:1011300000000000000000000000001011200C382A
:10114000119494801A8000002B0C84220C1120082A
:10115000458F005E02001306010000000007112009
:10116000034C041C400000000000000000000611B9
:10117000200250940A000000000000000000000659
:1011800011200254030700000000000000000000CE
:1011900005112001570000000000000000000000C1
:1011A00000091120055B42040778200000000000C0
:1011B00000001011210C00FFC4307FF5B5B8DE052A
:1011C00017160C1011210C0C030015FF0000FFC4B2
:1011D000307FF5B51011210C18B8DE0517160C0379
:1011E0000015FF000005112201031D000000000092
:1011F0000000000000000B112307002C0E0B040C54
:10120000730300000000001011300C00000000000B
:1012100000000000000000000C11400800410EE733
:101220009407E020FE0000000008110204000506FB
:101230000A09000000000000000008320000004021
:10124000080308000000000000000002340800004D
:101250000000000000000000000000000234020056
:101260000000000000000000000000000002340345
:101270000000000000000000000000000000023438
:101280000100000000000000000000000000000855
:1012900013111401012700400000000000000000AD
:1012A00007020101018CBA8000000000000000006C
:1012B00000081301010101000060000000000000AF
:1012C00000000120000000000000000000000000FD
:1012D00000000002340100000000000000000000D7
:1012E00000000000081102040005060A09000000C1
:1012F000000000000007020101018CBA800000001C
:1013000000000000000008131004030200000000A9
:1013100000000000000000061100020000000000B4
:101320000000000000000000051100010320000083
:101330000000000000000000000511010100000095
:10134000000000000000000000000811020400007E
:101350000000000000000000000000051110010462
:101360002100000000000000000000001011200C0F
:10137000002A0007005DC0018CBA80000005112022
:10138000010C91000000000000000000000010119E
:10139000200C1801800803800030200CE802A51002
:1013A00011200C2400C195006100C200546280AB82
:1013B0000711200330024E800000000000000000F2
:1013C000000511200135E0000000000000000000D1
:1013D00000001011200C38119494801A6000002B2A
:1013E0000C842309112005458F00470200000000EE
:1013F00000000000081120044B06091C40000000FA
:1014000000000000000611200250940A00000000B5
:101410000000000000000611200254030700000035
:10142000000000000000000511200157000000002E
:101430000000000000000000091120055B420406C6
:101440007820000000000000001011210C00FFC4F3
:10145000307FF5B5B8DE0517160C1011210C0C0302
:101460000015FF0000FFC4307FF5B51011210C18E6
:10147000B8DE0517160C030015FF00000811220442
:10148000001801C01D00000000000000000B112327
:1014900007002C0E0B040C730300000000000C115D
:1014A000400800410EE74401F820FE00000000055E
:1014B00031000000000000000000000000000000FB
:1014C00090DB86E90150010600090CE002EBE6FF23
:1014D00003EBE6FF00EBE6FF69DBF4E1CB1DF2E195
:1014E000010E01D0000E41E9E5CFDAFFE7CFD9FFC9
:1014F000120077DB89E97BE80A6A0B6A02EBF6FFE8
:1015000003EBF7FF04EBF8FF0800F550096E0950F4
:1015100001E12DD3250E095C01E01BD30C6A0D6A95
:101520000E6A0F6A106A2DDB2D0E095C0CE02B0E83
:10153000095C09E0200E095C06E0230E095C03E06B
:10154000300E095C15E10950300A10E0130A0CE076
:10155000030A08E00B0A04E0060AE5E10C80E3D781
:101560000C82E1D70C84DFD70C86DDD70C88DBD763
:101570002A0E095C13E1A5DB0DE30C801CEBCAF11C
:101580001DEBCBF10101CA6DCB1F000ECB23CA515D
:101590000D6E02D09CEB0DF0F4DA07D0126A3FDB3F
:1015A00002E06BDBFCD792EB0DF00CB00C982E0E2A
:1015B000095C15E1E6DA2A0E095C08E182DB04E247
:1015C0009CEB0EF0010E0F6EDCDA09D0126A27DBFD
:1015D00002E053DBFCD792EB0EF0010E0F6E680EAB
:1015E000095C07E1CEDA680E095C1DE1030E106E9E
:1015F00019D0740E095C16E07A0E095C13E0480EEF
:10160000095C06E0540E095C03E05A0E095C02E135
:10161000020E07D06C0E095C03E06A0E095C03E160
:10162000010E106EAEDA09506E0A01E16ED21E0A8A
:1016300001E128D1200A01E125D13F0A01E1FDD0D5
:101640001A0A01E1FAD00D0A01E1F7D0200A01E1FE
:10165000F4D03A0A01E1F1D0200A01E1EED0260AE5
:1016600001E1EAD00D0A01E1E7D01A0A01E19ED0BA
:10167000200A3BE0300A1AE0460A0EE0250A01E0A3
:1016800072D2D950020FE96E000EDA20EA6E010E16
:10169000EE5E000EEE5AEE5A0FDB250EE66E86DA8F
:1016A00003E1CB1D01E159D20A2A5BD2116A0D5028
:1016B000010803E20D04116EF5DA115007E0010E86
:1016C0000C1404E16DDA01E048D2116AD3DAEF506C
:1016D000096ECBDA03E1CB1D01E13FD20A2A000EED
:1016E0000B225EDA01E13FD238D2020E105C08E133
:1016F000030E4EDAEE50176EEE50186EEF5007D014
:10170000E7DACC6BCA51176ECB51186ECC51196EFB
:1017100017EBE6FF18EBE6FF19EBE6FFD1EC18F04C
:1017200043E9E6C1CAF1E7C1CBF1E8C1CCF101015F
:10173000CA511C6ECB511D6E0F5006E01C500E5C42
:1017400003E20E501C6E1D6A1C500D5C02E29CEB05
:101750000DF050DA05E00D500E5C02E28EEB0DF05C
:101760000CB004D01DDA01E0F8D1116A126A17EB4F
:10177000F6FF18EBF7FF19EBF8FF0800F550096EBC
:10178000095010E00D50125C0DE26FDA03E1CB1D41
:1017900001E1E3D10A2A000E0B22122AD950170FB9
:1017A00055DAEBD7FDD901E1DED1D7D163DAEE50BE
:1017B0001A6EED501B6E1AEBE6FF1BEBE6FFC3EC57
:1017C00018F042E9F3501C6EF4501D6E0F5006E005
:1017D0001C500E5C03E20E501C6E1D6A1C500D5C0A
:1017E00002E29CEB0DF006DA05E00D500E5C02E221
:1017F0008EEB0DF00CB004D0D3D901E0AED1116A5C
:10180000126A1AEBE9FF1BEBEAFFEF50096E095071
:101810000FE00D50125C0CE228DA03E1CB1D01E170
:101820009CD10A2A000E0B22122A1A2A1B22E9D75F
:10183000B7D901E198D191D10C8E10040AE1040EC0
:10184000A7D9EE50136EEE50146EEE50156EEF5099
:1018500032D0030E105C16E10CAE0CD00BDAEFCFD9
:10186000CAF10101CB6BCC6BCD6BCAAF23D0CB6976
:10187000CC691FD0FFD9EFCFCAF10101CA51136E55
:10188000146A20D0020E105C0CE10CAE06D0030EE0
:101890007FD9B6D9CCAF0ED00CD0030E79D9B0D940
:1018A00009D00CAE0AD014DACC6BCD6BCBAF02D022
:1018B000CC69CD69BCD9166E07D00ADACA51136E4D
:1018C000CB51146E156A166A0F5002E1010E0E6EAE
:1018D0001E6A1F6AD950400FE66E000EDA20E66ECF
:1018E000E552E550436EE750426E416A116A0A0EB6
:1018F000106E0950780A12E0200A10E0280A0CE065
:10190000200A0AE03F0A06E00D0A02E0200A08E188
:10191000020E05D0080E03D0080E0926100E106E18
:101920000CBE02D00C920C94800E0C1417E01634EE
:1019300015E3E668E668E668E66842D975EC14F0F7
:10194000E552E5CFCDF1E5CFCCF1E5CFCBF1E7CF57
:10195000CAF101016CD9166E2D0E07D00CA202D06F
:101960002B0E03D00CA404D0200E206E1E2A01D012
:10197000206A0E5005E1135014101510161061E086
:101980000101240ECA6F350ECB6F000ECC6F83D9C8
:1019900032EC14F0E552E5CFD0F1E5CFCFF1E5CF51
:1019A000CEF1E7CFCDF10101CA51CD25F36ECB5178
:1019B000CE21F46ECC51CF21F86EF4CFF7FFF3CFE8
:1019C000F6FF0800F550126E580E095C05E1610E35
:1019D000125C02E3200E125E5ED92FEC14F0E55289
:1019E000E550166EE550156EE550146EE750136E17
:1019F00042EBE9FF43EBEAFF4206000E435A12EBCB
:101A0000EFFF1E2A1350141015101610B9E10CA682
:101A100019D06F0E095C06E10E501E5C13E31E2800
:101A20000E6E10D0780E095C09E0580E095C06E0D5
:101A3000620E095C03E0420E095C04E1020E1F6EB7
:101A400001D01E6A100E0C1407E00D500E5C04E26B
:101A50000F5002E18DEB0EF00E501E5C03E21E50A3
:101A60000E5E01D00E6A0E501E241F24D8800D5425
:101A700007E20E500D5CD8801E54D8801F54116EA2
:101A8000010E0C1406E1115004E08AD866E10AD96F
:101A9000116A205007E010D920EBE6FF87D802E159
:101AA000CB1D5BE01F500BE007D9300EE66E7ED8F1
:101AB00002E1CB1D52E0D9D802E1CB1D4EE00E5021
:101AC0001F5C02E21F500E5E300EE66E0EEBE6FF6C
:101AD000DCD843E1422A000E432242EBE9FF43EB0C
:101AE000EAFFEF50126E125008E0E6D812EBE6FF64
:101AF0005DD8F0E1CB1DEEE130D052D82EE10E5092
:101B00001E2411241F240A262CD01050030A1CE086
:101B1000010A14E0030A07E0ADD8C9D80AEBEEFFCA
:101B20000BEBEDFF20D08BD8CD6BCBAF02D0CC69C7
:101B3000CD69A0D84ED8CDC1EEFF15D080D8CBBF8F
:101B4000CC6998D846D80FD095D8B1D80AEBEFFF1A
:101B50000AD08BD805E1CB1D03E1F368F4680BD004
:101B60000A2A000E0B22D950020F70D8CDD40AEBEE
:101B7000F3FF0BEBF4FF7CE9E5CFDAFFE7CFD9FF0A
:101B80001200D950020F62D80800F550096E1200F9
:101B9000005E000E015A00EBE9FF01EBEAFF1200C4
:101BA000200EE66E11EBE6FF45EF0EF0F6EC18F0B6
:101BB00043E9F3CFCAF1F4CFCBF10101F31C1200DA
:101BC00013EBE6FF14EBE6FF15EBE6FF16EBE6FF83
:101BD00012006DD8CAC1EEFFCBC1EEFFCCC1EEFF43
:101BE0001200D9CFE6FFDACFE6FFE1CFD9FFE2CF8F
:101BF000DAFF12001C500D5C116E54D80F50120009
:101C0000EECFCAF1EECFCBF1EFCFCCF10101CD6B2E
:101C10001200EECFCAF1EFCFCBF101011200095053
:101C2000E66EE66A38EC1AF042E9F3501200CA5147
:101C3000136ECB51146ECC51156ECD5112000AEBC0
:101C4000CAF10BEBCBF10101CC6B1200E96E000E77
:101C5000DA20EA6EEF2AEECFF6FF000EEF22EECF8B
:101C6000F7FFEF22EECFF8FF120026D809EBE6FFD0
:101C7000D6EF0DF0020EC8EF0DF00A0E1202F3506F
:101C80000924D00F126EC1EF0DF016D860EC0AF0E7
:101C900044E90009120010EBE6FFE66AE66AE66A2C
:101CA000E0EF0DF011500A26000E0B221200EE504C
:101CB000EFCFEAFFE96E120005EBE6FF06EBE6FF69
:101CC0001200D8DFEE501C6EED501D6E1D34120058
:061CD000D1DF09EF0EF068
:0A1CD600D9CFE6FFE1CFD9FF84E982
:101CE00042E8046A056A00040DE171DAEF5017E07A
:101CF0006EDAEFCFE6FF21EC1AF041E9ACA2FED795
:101D00007DDAF3D764DAEF500AE061DAEFCFE6FF6D
:101D10000AEC1AF041E972A2FED770DAF3D743E970
:101D2000E7CFD9FF1200D9CFE6FFE1CFD9FF81E994
:101D300067E8226A236A246A256A43EC11F057ECAB
:101D400011F089808984898A000EE66EE66ADAECF1
:101D500019F042E90101006B016B026B036B9EEC11
:101D600019F07FEC19F0F19E01010693026B006BF4
:101D70000A6B0695036B016BAA6B0C0EE66EE66AA6
:101D80007C0EE66E8DEC18F043E9B886E66A030E29
:101D9000E66E49DA82EC16F0026EC69A0250E66EE2
:101DA000E66AEB0EE66E2A0E01DA0A0E0DDACA0EAC
:101DB000E66E2A0EFFD9226A236A0A0ED89023BE45
:101DC00003D0225C000E23586FE2E66A030EE66E33
:101DD0002ADA8C94A80EE66EBDEC19F041E93EECCF
:101DE00012F0106E3EEC12F0116E3EEC12F0126E1C
:101DF0003EEC12F0136E3EEC12F0146E3EEC12F05C
:101E0000156E8C84C69A11EBE6FF10EBE6FF15DA2F
:101E1000166EF450176E13EBE6FF12EBE6FF0DDAC9
:101E2000186EF450196E15EBE6FF14EBE6FF05DAB9
:101E30001A6EF4501B6E640EE66EE66A16EBE6FF51
:101E400017EBE6FFFFD91D6EE7501C6E640EE66EC1
:101E5000E66A18EBE6FF19EBE6FFF4D91F6EE750D0
:101E60001E6E640EE66EE66A1AEBE6FF1BEBE6FFFB
:101E7000E9D9216EE750206E20EBE6FF21EBE6FF6B
:101E80001EEBE6FF1FEBE6FF1CEBE6FF1DEBE6FF9C
:101E9000990EE66E2A0EE4D94BE9D9D9320E94D9BF
:101EA000222A000E232289D7246A256A320ED8906E
:101EB00025BE03D0245C000E25581FE28150200B64
:101EC00001E0010E226E236A2250231004E17B0EF2
:101ED000E66E2A0E03D06A0EE66E2A0E6BD924EB4C
:101EE000E6FF25EBE6FF5C0EE66E2A0E5FD9320EAA
:101EF0006BD9242A000E2522D9D78A840101010E2C
:101F0000056F04EC00F0440E066E0D0E076EFE0E1B
:101F1000086E1C0E096E410E0A6E0C0E0B6EFC0E46
:101F20000C6E880E0D6E000EE66EE66A06EBE6FF9E
:101F300061D9010EE66EE66A07EBE6FF5BD9020E99
:101F4000E66EE66A08EBE6FF55D9030EE66EE66A32
:101F500009EBE6FF4FD9040EE66EE66A0AEBE6FFF0
:101F600049D9050EE66EE66A0BEBE6FF43D9060E8D
:101F7000E66EE66A0CEBE6FF3DD9070EE66EE66A12
:101F80000DEBE6FF37D954D93B0EE66E2A0E0ED97B
:101F9000899489928D8029D98D904AD91A0EE66E3E
:101FA0002A0E04D989848982898A1FD9899A40D9BD
:101FB000F90EE66E290EFAD8899089928D8015D98E
:101FC0008D90E66AE66A2FD98C9846EC17F0D9EC2A
:101FD00016F0010EE66EBDEC19F041E9D9EC16F0F1
:101FE00046EC17F0026EFF0E025C24E1016A040E5B
:101FF000015C14E23EEC12F0E66E0101D9500F0FC5
:10200000CA6FDACFCBF10150EA6ACA25E96EDA501D
:10201000EA22E552E750EF6E012AE9D71150E66E49
:10202000E66A1050E66EE66AD40EE66E290E18D9FE
:1020300049E90DD98C88C69A226A236A0A0ED8907B
:1020400023BE03D0225C000E23582CE2F1D8A50E4B
:10205000E66E290EABD80A0EB7D80101010E056F46
:102060000EEC00F01E0EE66EE66A58EC19F000D990
:1020700058EC19F0CCD88C0EE66E290E9BD80A0EBF
:10208000A3D80101056B0EEC00F01E0EE66EE66AA9
:102090005FEC19F0EDD85FEC19F0B9D8222A000EE8
:1020A0002322CCD7640E90D8E66AE66ABCD88C8826
:1020B000C69AFAD66BB0FED7640E90D86BB8FED72E
:1020C000220E8CD86BB8FED76B826BB2FED7D40EC3
:1020D00085D86BB8FED7810E81D86BB8FED76B84DC
:1020E0006BB4FED76C9AE66A080EE66EF2EC19F055
:1020F00042E9C580C5B0FED7C750040B01E0010E10
:102100005DD8FAE1D40E89D8C750040B01E0010E66
:1021100055D8FAE1C59AC588C5B8FED7C750040B93
:1021200001E0010E4BD8FAE1220E77D8C750040B1C
:1021300001E0010E43D8FAE1C59AC588C5B8FED7BB
:10214000C750040B01E0010E39D8FAE1C582C5B2CF
:10215000FED7C750040B01E0010E30D8FAE1D50ECE
:102160005CD8C750040B01E0010E28D8FAE1C59AEB
:10217000C588C5B8FED7C750040B01E0010E1ED8B4
:10218000FAE185EC1AF0026EC750040B01E0010E73
:1021900015D8FAE1C58AC588C5B8FED7C584C5B4C7
:1021A000FED7C69A68E9E7CFD9FF120059D847E9A8
:1021B00027EF11F055D845E927EF11F00101CA6F5B
:1021C0001F0EC514CA111200E66EE66A58D00150FF
:1021D0000424E96E02500520EA6E1200E66E16EC49
:1021E00018F041E96B9A6B881200B80EE66E0B0E80
:1021F000E66E45D09CEC12F043E91200050EE66E47
:102200004AEC1AF041E9042A000E0522120042E9C4
:10221000F40EE66E010EE66E32D0E66ED5EC17F0E7
:1022200041E9026E1200E66A29EC19F043E9120056
:1022300022EBE6FF23EBE6FF1200ABEC16F042E9DF
:10224000F350120077EC13F0E552E5501200010E46
:10225000E66E2A0EE66E010EE66E3DDD43E91200E3
:10226000E66EE66A2A0EE66E010EE66E54EF18F090
:1022700042E9320EA9DF1E0EE66EE66A12006BEC32
:0622800012F042E9120019
:0A2286000F01386B396B3A6B3B6BAC
:102290003C6B806A280E896E926A010E946E200E45
:1022A0008B6E956A280E8C6E8D6A966A1200300EBF
:1022B000D36E040ED26E9B6A1200D9CFE6FFE1CF37
:1022C000D9FF87E95AE8076A086A030E096E0A6AA5
:1022D000020E0B6E0C6A050E0D6E0E6A0F6A106A06
:1022E000030E116E126A050E136E146A010E156E3E
:1022F000166A040E176E186A060E196E1A6A020E16
:102300001B6E1C6A040E1D6E1E6A030ED89003BE5F
:1023100003D0025C000E035802E3000E01D0010E50
:10232000F46AE8BEF468045EF450055A070EE66EDF
:10233000E66A040EE66EE66A04EBE6FF05EBE6FFEE
:1023400077EC13F00101FE0EE3500424D26F41E953
:10235000E5500520D36F640EE66EE66A04EBE6FFF7
:1023600005EBE6FF77EC13F0E552E5CFD5F1E7CFCB
:10237000D4F10101D4510101D25D0101D06F0101FD
:10238000D5510101D3590101D16F900EE66E010EB6
:10239000E66E04EBE6FF05EBE6FF77EC13F0E552A3
:1023A000E5CFD7F1E7CFD6F101010101D05101010D
:1023B000D6250101CE6F01010101D1510101D721C3
:1023C0000101CF6F0101D950070FD86FDACFD9F1D2
:1023D00001010204DA6F000E0358DB6F0101D8908F
:1023E000DA37DB3701010101D8510101DA25E96E45
:1023F00001010101D9510101DB21EA6E0101010155
:10240000CE51EE240101CC6F01010101CF51EE202C
:102410000101CD6F00500101CC250101CA6F0150AF
:102420000101CD210101CB6FCAC1E6FFCBC1E6FF9F
:10243000C2EC13F0E552E550206EE7501F6E00002D
:102440001FEBF3FF20EBF4FF00D05BE9E7CFD9FFF0
:1024500012002ED982E941E8F00E0014026E023813
:102460000F0B026E0A0E0202F350026E0F0E0014E2
:102470000226025042E9E7CFD9FF1200C96AD66AA4
:10248000C750010B03E1140ED65CFAE3C9501200E9
:102490000FD982E9C69E00EBC9FFC7A0FED7C9507D
:1024A00041E9E7CFD9FF120003D982E941E800EB07
:1024B000C9FFC6AE02D0FF0E0AD0D66AC750010BC4
:1024C00003E1140ED65CFAE3C950026E025042E9F1
:1024D000E7CFD9FF1200ECD883E944E8036A046A25
:1024E0000050035C015004580FE2056A066A180E9A
:1024F000055C000E065804E2052A000E0622F7D7F6
:10250000032A000E0422ECD745E9E7CFD9FF1200D9
:10251000CFD883E90101000E0014FF0E0114CB6B2C
:10252000AA6EFF0E0014A96EA69EA69CA680A850B7
:1025300041E9E7CFD9FF1200D9CFE6FFE1CFD9FFBC
:1025400084E943E8010E046E056A00000000046A95
:10255000056AF250066EF29E0101ED6B0101000E5C
:102560000014CA6FFF0E0114CB6F0101CBC1CAF179
:10257000CB6BCAC1AAFFFF0E0014A96E02EBA8FF25
:10258000A69EA69CA684550EA76EAA0EA76EA6822E
:10259000A6B2FED7A6940101ED2B00EBE6FF01EBFE
:1025A000E6FFB6DF42E9025C0AE0040E0101E76ED5
:1025B000ED1902E7E73402D0E750ED5DCFE30650B6
:1025C000F21244E9E7CFD9FF120072D881E944E85A
:1025D000D00E016E070E026E320E036E046AAA0E52
:1025E000E66E2B0E4BD8898089928984898A59D8C6
:1025F000899A910EE66E2B0E41D889908992898432
:1026000066D860D8760EE66E2B0E38D8898089821F
:102610008984898AD00EE66E070EE66E5CDF42E999
:10262000899A4BD84AD85B0EE66E2B0E27D8899034
:10263000898289844CD846D845D844D8400EE66E65
:102640002B0E1CD8898089928994898A2AD8899AE4
:1026500034D833D832D831D8250EE66E2B0E0ED8AA
:1026600036D88980898445E9E7CFD9FF120003EB8A
:10267000E6FF04EBE6FF2FDF42E91200E66EE66AB2
:102680002A0EE66E010EE66E54EC18F045E9010ED6
:10269000E66E2A0EE66E010EE66E6BEC0EF043E976
:1026A000120001EBE6FF02EBE6FF15DF42E9120044
:1026B000D9CFE6FFE1CFD9FF1200D9DF898AD7DF72
:1026C000899A1200D4DF8D80D2DF8D9012008D8028
:0626D000E8DF8D9012000E
:0A26D60043E8D9CFE6FFDACFE6FFB4
:1026E000E1CFD9FFE2CFDAFF89E9066A1200F3DF12
:1026F000068001D0F0DF01AE84EF13F0006C011E04
:10270000E86A012206B0067E03AE8CEF13F0026C7D
:10271000031EE86A0322067EC4EC13F003BEAEEF8C
:1027200013F006AE08D0026C031EE86A0322046CA4
:10273000051EE86A052206B006D084EB00F085EBA2
:1027400001F006A004D082EB00F083EB01F0E5522B
:10275000E5CFDAFFE7CFD9FF45E9000C06BE93EFDE
:1027600013F0E9DFFF0C43E8D9CFE6FFDACFE6FF4D
:10277000E1CFD9FFE2CFDAFF89E9066A1200F3DF81
:10278000068003D0F0DF01D00682056A046A100ECD
:10279000E76ED89002360336043605360050045CE6
:1027A0000150055805E30050045E0150055A022A05
:1027B000E72EF0D706B2120006B006D084EB00F088
:1027C00085EB01F006A004D082EB00F083EB01F072
:1027D000E552E5CFDAFFE7CFD9FF45E9120044E83B
:1027E000D9CFE6FFDACFE6FFE1CFD9FFE2CFDAFFBC
:1027F0008AE980EB04F081EB05F082EB06F00250F1
:102800000402F450016EF350006E0350076E05028F
:10281000F450036EF350026E07500402F350012689
:10282000F4500222E86A032206500502F350012602
:10283000F4500222E86A0322E552E5CFDAFFE7CF3F
:10284000D9FF46E9000C45E8D9CFE6FFDACFE6FF2D
:10285000E1CFD9FFE2CFDAFF8FE90C6A1200F3DF94
:102860000C8003D0F0DF01D00C820B6A0A6A096A7F
:10287000086A200EE76ED89004360536063607360D
:10288000083609360A360B360050085C01500958E4
:1028900002500A5803500B5809E30050085E0150DB
:1028A000095A02500A5A03500B5A042AE72EE4D759
:1028B0000CB212000CB00AD088EB00F089EB01F0EA
:1028C0008AEB02F08BEB03F00CA008D084EB00F055
:1028D00085EB01F086EB02F087EB03F0E552E5CFE4
:1028E000DAFFE7CFD9FF49E9120044E8D9CFE6FF84
:1028F000DACFE6FFE1CFD9FFE2CFDAFF8EE980EB56
:1029000008F081EB09F082EB0AF083EB0BF0045046
:102910000802F350006EF450016E04500902F350A7
:102920000126000EF420026E04500A02F350022623
:10293000000EF420036E04500B02F35003260550E2
:102940000802F3500126F4500222000E0322055023
:102950000902F3500226F450032205500A02F350F4
:10296000032606500802F3500226F45003220650B4
:102970000902F350032607500802F3500326E552DC
:0C298000E5CFDAFFE7CFD9FF48E9000CF3
:04298C000C0D0A2004
:102990002D2D20564846205369676E616C202D2DE1
:1029A0000D0A0D0A000C0D0A2056E46E6461202504
:1029B000642061762028313029200D0A0D0A202D4F
:1029C0002D20554846205369676E616C202D2D0DD2
:1029D0000A0D0A000C0D0A20504152545F49445F11
:1029E000524144494F3A202D20253032582530326B
:1029F00058202D200D0A0D0A000C0D0A205370E4FA
:102A00006E6E696E67656E20736174742074696C94
:102A10006C20332E3320560D0A000C0D0A20537003
:102A2000E46E6E696E67656E2073617474207469FC
:102A30006C6C20322E3520560D0A000C0D0A2053E6
:102A400070E46E6E696E67656E20736174742074D5
:102A5000696C6C20322E3120560D0A000C0D0A20B4
:102A6000546573742023256420000C0D0A204176E0
:102A70007374E46E67642E200D0A000C0D0A204862
:102A8000616C6C737769746368656E20E4722061B1
:102A90006B74697621200D0A000C0D0A205820560F
:102AA000414C3A2009202564200D0A205920564126
:102AB0004C3A2009202564200D0A205A2056414C0A
:102AC0003A2009202564200D0A000C0D0A204BF63F
:102AD0007220616163656C65726F6D7465726E20E2
:102AE0003130206767723A200D0A000C0D0A204C25
:102AF0004953324457313220494E4954494552498D
:102B00004E473A0D0A0D0A2057484F5F414D5F4925
:102B10003F20093058253032582028305834342985
:102B20000D0A0D0A000C0D0A2054657374617220A1
:102B30005653454C0D0A20312E382056200D0A00E0
:102B40000C0D0A20546573746172205653454C0D68
:102B50000A20322E312056200D0A000C0D0A205476
:102B60006573746172205653454C0D0A20322E3520
:102B70002056200D0A000C0D0A20546573746172F2
:102B8000205653454C0D0A20322E382056200D0A6F
:102B9000000C0D0A20546573746172205653454C25
:102BA0000D0A20332056200D0A000C0D0A20546512
:102BB00073746172205653454C0D0A20332E332016
:102BC00056200D0A000C0D0A204E554D3A20256462
:102BD000200D0A20524541442046524F4D2052417B
:102BE00044494F3A2009305825303258200D0A0DFB
:022BF0000A00D9
:0E2BF2008C8400000000000000008C94120093
:102C0000D9CFE6FFE1CFD9FF81E947E8010107838A
:102C1000E66A030EE66EE66A29EC19F043E9000065
:102C2000000000008F0EE66E54EC12F041E93EEC1D
:102C300012F0016E3EEC12F0026E3EEC12F0036EEA
:102C4000C69A03EBCAF10101CA51046E056A066A0D
:102C5000076AD950040FE96EDACFEAFFEF50EE6A47
:102C6000EFCFF4FFEE6EEF50F4CFEEFFEF6E02EB1E
:102C7000CAF10101CB6BCC6BCD6BD950040FE96E5F
:102C8000DACFEAFF0101CA51EE120101CB51EE1277
:102C90000101CC51EE120101CD51EE12D950040FB9
:102CA000E96EDACFEAFFEF50EE6AEFCFF4FFEE6E97
:102CB000EF50F4CFEEFFEF6E01EBCAF10101CB6BE9
:102CC000CC6BCD6BD950040FE96EDACFEAFF01016E
:102CD000CA51EE120101CB51EE120101CC51EE129C
:102CE0000101CD51EE120101079304EBE6F105EB72
:102CF000E7F106EBE8F107EBE9F100D048E9E7CFAF
:102D0000D9FF1200D9CFE6FFE1CFD9FF81E941E831
:102D10008C94210EE66E54EC12F041E9C00EE66E82
:102D200054EC12F03DD8200EE66EBDEC19F041E9EE
:102D3000700EE66EBDEC19F033D88F0EE66EBDEC6A
:102D400019F041E93EEC12F0016E8C84015042E929
:102D5000E7CFD9FF1200D9CFE6FFE1CFD9FF83E952
:102D600042E80050036E046A83EB04F0036A0150EA
:102D7000031204340DE3E668E66803EBE6FF04EBB8
:102D8000E6FFEFEC13F0E552E550046EE750036EFA
:102D900003EBF3FF04EBF4FF43E9E7CFD9FF1200A5
:102DA00041E9640EE66EE66A6BEC12F042E9F9EF77
:022DB00015F01C
:0E2DB2008C88010E9ED88C9812008B84010E26
:102DC00099D88B940A0E7AEF17F08C98020E8DD852
:102DD000010E8BD8010E89D8010E87D88C0E85D8AC
:102DE000BA0E83D8800E81D8140E84D88C88120035
:102DF000D9CFE6FFE1CFD9FF83E946E88C9801EB14
:102E0000E6FF54EC12F041E9D4DF7AD8046AFF0EF1
:102E1000035C08E00A0E045C05E28C9871D88C888B
:102E2000042AF5D78C98FF0E035C2AE1010E056E8B
:102E3000066A076A086A8C98046A0050045C20E2FB
:102E40003EEC12F0036E0350E66EE66A0450E66E46
:102E5000E66AC50EE66E2B0EE66EE66A2A0EE66E92
:102E6000010EE66E54EC18F049E9010EE66E2A0EEA
:102E7000E66E010EE66E6BEC0EF043E9042ADDD738
:102E80008C88055047E9E7CFD9FF1200D9CFE6FF7C
:102E9000E1CFD9FF81E942E88C98010EE66EE66A3F
:102EA0006BEC12F042E9440EE66E54EC12F041E98C
:102EB0003EEC12F0016E026AFF0E015C10E00A0E99
:102EC000025C0DE2022A8C8800008C98440EE66EAB
:102ED00054EC12F041E93EEC12F0016EEDD70150D6
:102EE00000D043E9E7CFD9FF1200E66E54EC12F0B0
:102EF00041E91200E66EE66A6BEC12F042E912005C
:0C2F0000440EF3DF3EEC12F0036E1200F2
:042F0C00060EF66E49
:102F1000000EF76E000EF86E01010900F550E16F2A
:102F20000900F550E26F03E1E16701D03DD00900EF
:102F3000F550DC6F0900F550DD6F0900F550DE6FCC
:102F400009000900F550E96E0900F550EA6E090024
:102F500009000900F550DF6F0900F550E06F090026
:102F60000900F6CFE3F1F7CFE4F1F8CFE5F1DCC1EA
:102F7000F6FFDDC1F7FFDEC1F8FF0101DF5302E11B
:102F8000E05307E00900F550EE6EDF07F8E2E007D6
:102F9000F9D7E3C1F6FFE4C1F7FFE5C1F8FF01018E
:0A2FA000E107000EE25BBFD712004C
:062FAA00D9CFE6FFDACFEB
:102FB000E6FFE1CFD9FFE2CFDAFF83E900EBC9FFFB
:102FC000C6AE02D0FF0E2CD00F0EC61408080FE0BC
:102FD0000F0EC6140B080BE0C6889EA6FED7C7507E
:102FE000040B03E1C750010B18E0000E19D00F0EBF
:102FF000C614080804E00F0EC6140B0811E1C7B090
:10300000FED7C750040B01E0010E0101CA6F1F0E6D
:10301000C514CA11F6E1C5AC02D0FE0E01D0000EF7
:0C30200041E9E5CFDAFFE7CFD9FF12004D
:04302C00D9CFE6FF13
:10303000DACFE6FFE1CFD9FFE2CFDAFF83E900EB99
:103040006FFF6CAE02D0FF0E29D00F0E6C14080873
:103050000CE00F0E6C140B0808E06D50040B03E13C
:103060006D50010B18E0000E19D00F0E6C140808FB
:1030700004E00F0E6C140B0811E16DB0FED76D501B
:10308000040B01E0010E0101CA6F1F0E6B14CA117F
:10309000F6E16BAC02D0FE0E01D0000E41E9E5CFA7
:0830A000DAFFE7CFD9FF1200AF
:0830A800D9CFE6FFDACFE6FF05
:1030B000E1CFD9FFE2CFDAFF87E944E8D9CFE6FFD5
:1030C000DACFE6FFE552E5500A6EE750096E09EBEC
:1030D000E6FF0AEBE6FF00EBE6FF01EBE6FF02EBA3
:1030E000E6FFD950030FE66E000EDA20E66E79ECAB
:1030F0000AF047E9F350076EF450086E03EBE9FF5E
:1031000004EBEAFFEF6A07EBF3FF08EBF4FF45E996
:0A311000E5CFDAFFE7CFD9FF120088
:06311A00D9CFE6FFDACF79
:10312000E6FFE1CFD9FFE2CFDAFF85E9AC6AAB6A0F
:1031300002B0AC8802A202D0AC8CAB8C02B4AC8ED4
:1031400002A602D0AB8801D0AB8A02B8AC8402BA26
:10315000AB8602AC02D09D8A01D09D9A02AE02D00D
:103160009D8801D09D9800EBAFFF010101EBCAF1F2
:10317000CB6BCAC1B0FFAC8AAB8E41E9E5CFDAFFB9
:06318000E7CFD9FF1200A9
:0A318600FE0EE3CFE9FFFF0EE3CFDA
:10319000EAFFF36AF46AEE5203E0F34AF42AFBD73B
:1031A0001200FF0EE3CFF8FFE552FF0EE3CFF7FF6B
:1031B000E552FF0EE3CFF6FFE552E66AE66AE66AFD
:1031C0000900F55209E0FD0EE32A05E1FE0EE32AAF
:1031D00002E1FF0EE32AF4D7FD0EE3CFE6F1FE0E87
:0C31E000E3CFE7F1FF0EE3CFE8F11200AF
:0431EC00D9CFE6FF52
:1031F000DACFE6FFE1CFD9FFE2CFDAFF85E901348C
:1032000015E200EBE9FF01EBEAFFEECFF3FFEDCFB4
:10321000F4FFEE2A000EEF22F3CFE9FFF4CFEAFF2E
:1032200002EBEFFFEF50F36EF46A0DD0FE0E005C80
:1032300005E102EBE6FF6AEC1AF004D002EBE6FFD0
:103240009BEC1AF041E941E9E5CFDAFFE7CFD9FF7E
:0232500012006A
:0E325200D9CFE6FFDACFE6FFE1CFD9FFE2CF1A
:10326000DAFF85E93F0EC716C66A0250C612005043
:10327000C7120150030A09E0010A04E0020A06E14C
:10328000C78C04D0C78CC68801D0C6880250050AF6
:1032900003E0010A03E1928A948601D0949694880F
:1032A000949AC68A41E9E5CFDAFFE7CFD9FF120049
:1032B00018D8898A7EEC00F01AD8899A0BD011D8D8
:1032C0008D807EEC00F013D88D9004D00AD87EEC6F
:1032D00000F000D00CD899EC00F041E9E7CFD9FF1D
:1032E0001200D9CFE6FFE1CFD9FF83E9120000EB4E
:0E32F000E6FF01EBE6FF6BEC12F042E9120084
:0232FE00D9CF26
:10330000E6FFDACFE6FFE1CFD9FFE2CFDAFF82E9CD
:1033100041E8F20E0101EB1771AC03D0EB9171B0F3
:10332000EB8171B4EB8571B2EB877450026E025081
:0C33300042E9E5CFDAFFE7CFD9FF120039
:04333C00D9CFE6FF00
:10334000DACFE6FFE1CFD9FFE2CFDAFF82E941E849
:10335000F20E0101EC17ABAC03D0EC91ABB0EC81F9
:10336000ABB4EC85ABB2EC87AE50026E025042E9D2
:0A337000E5CFDAFFE7CFD9FF120026
:06337A00D9CFE6FFDACF17
:10338000E6FFE1CFD9FFE2CFDAFF83E941E8C95098
:10339000036E9E96C69E00EBC9FFC6AE02D0FF0E1E
:1033A00003D09EA6FED7000E42E9E5CFDAFFE7CFB5
:0433B000D9FF12002F
:0C33B400D9CFE6FFDACFE6FFE1CFD9FF6A
:1033C000E2CFDAFF84E942E880EB04F081EB05F01C
:1033D00005EBB3FF04EBB2FF43E9E5CFDAFFE7CF3C
:0433E000D9FF1200FF
:0C33E400D9CFE6FFDACFE6FFE1CFD9FF3A
:1033F000E2CFDAFF84E93F0EC716C66AC56A0150FC
:10340000C6120050C712C68A41E9E5CFDAFFE7CFFE
:04341000D9FF1200CE
:0C341400D9CFE6FFDACFE6FFE1CFD9FF09
:10342000E2CFDAFF83E972AC04D072900101EBB312
:10343000728000EB73FF41E9E5CFDAFFE7CFD9FFF8
:02344000120078
:0E344200D9CFE6FFDACFE6FFE1CFD9FFE2CF28
:10345000DAFF83E9ACAC04D0AC900101ECB3AC80F2
:1034600000EBADFF41E9E5CFDAFFE7CFD9FF12006E
:10347000F36AF46AFF0EE124E96EFF0EE220EA6EC1
:10348000ED6607D02F0EEF6404D03A0EEF6001D046
:04349000F32A120009
:0C349400FF0EE3500101EA6F1A0E00D099
:1034A00000D001D0200EE76EE72EFED7EA2FFAD724
:0434B00000D0120036
:0C34B400380EF36E00EE00F00F0E01D891
:1034C0001200EA6002D0EE6AFCD7F350E960120005
:0434D000EE6AFCD7CD
:0C34D400FF0EE350ACBA04D0AF6AAB8E20
:1034E000AC8A949CACA2FED7AD6EF36EF46A120067
:1034F0001EEE00F02EEE00F0F86A86EC17F09CEC61
:0A3500001AF093EC0EF0FBD7120056
:06350A000F0EC6140808B4
:1035100004E00F0EC6140B0801E1C586C7A0FED754
:04352000C95012007C
:0C352400303132333435363738396162CB
:05353000636465660004
:02353600120081
:0235380012007F
:020000040030CA
:0100010028D6
:01000500BF3B
:0100060045B4
:00000001FF
