:020000040000FA
:0600000000EF18F01200F1
:020006001200E6
:060008009DEF07F012005D
:02000E000100EF
:0C001000463000003E000000020000002E
:04001C008D920000C1
:10002000000000008D82120000010683E66A010EC6
:10003000E66EE66AD3EC16F043E98D82300EF66E7A
:10004000300EF76E000EF86E0800F5CF1CF02E0E85
:10005000F66E300EF76E000EF86E0800F5500001D7
:100060001C110409E66E48EC13F041E9100EE66E2F
:1000700048EC13F041E900008D92F40EE66E010E9B
:10008000E66E5DEC13F042E98D82300EF66E300EB6
:10009000F76E000EF86E0800F5CF1CF02E0EF66E0F
:1000A000300EF76E000EF86E0800F55000011C11BE
:1000B0000309E66E48EC13F041E9E66A48EC13F0F8
:1000C00041E90000ABDF300EF66E300EF76E000E29
:1000D000F86E0800F5CF1CF02E0EF66E300EF76E9F
:1000E000000EF86E0800F55000011C11E66E48EC99
:1000F00013F041E9B80EE66E48EC13F041E91E0E2C
:10010000E66E48EC13F041E9E66A48EC13F041E989
:10011000E66A48EC13F041E981DF330EF66E300EEB
:10012000F76E000EF86E0800F5CF1CF02E0EF66E7E
:10013000300EF76E000EF86E0800F55000011C112D
:10014000E66E48EC13F041E9070EE66E48EC13F05A
:1001500041E9E66A48EC13F041E960DF300EF66EE3
:10016000300EF76E000EF86E0800F5CF1CF02E0E64
:10017000F66E300EF76E000EF86E0800F5500001B6
:100180001C11E66E48EC13F041E9BF0EE66E48EC38
:1001900013F041E943DF300EF66E300EF76E000EBD
:1001A000F86E0800F5CF1CF02E0EF66E300EF76ECE
:1001B000000EF86E0800F55000011C110209E66EF1
:1001C00048EC13F041E9E66A48EC13F041E926DF18
:1001D000320EF66E300EF76E000EF86E0800F5CF98
:1001E0001CF02E0EF66E300EF76E000EF86E080044
:1001F000F55000011C11E66E48EC13F041E9E66A87
:1002000048EC13F041E9E66A48EC13F041E9E66A8C
:1002100048EC13F041E9E66A48EC13F041E9E66A7C
:1002200048EC13F041E9E66A48EC13F041E9E66A6C
:1002300048EC13F041E98D92C69A00010693120032
:10024000D9CFE6FFE1CFD9FF81E94FE8000106836E
:1002500013C01FF014C020F015C021F000011F6B67
:100260000001206B100E1F0B1FC01CF020C01DF0E2
:1002700021C01EF007E00001D8901E331D331C334F
:10028000E806FAE11CC0E6FF2BEC13F041E90A6E28
:100290000B6AD00E0A26070E0B2213C01FF014C0E3
:1002A00020F015C021F000011F6B0001216B080E2A
:1002B0001F0B1FC01CF020C01DF021C01EF007E066
:1002C0000001D8901E331D331C33E806FAE11CC030
:1002D000E6FF2BEC13F041E90C6E0D6A13C01CF025
:1002E00014C01DF015C01EF000011D6B00011E6B37
:1002F0001CC0E6FF2BEC13F041E90E6E0F6A0EEB0B
:10030000E6FF0FEBE6FF0CEBE6FF0DEBE6FF0AEB7B
:10031000E6FF0BEBE6FF62EC12F046E9F350016EEC
:10032000012A10C01CF011C01DF012C01EF0000107
:100330001D6B00011E6B00011C51036E10C01FF0ED
:1003400011C020F012C021F000011F6B0001216BD1
:10035000080E1F0B1FC01CF020C01DF021C01EF096
:1003600007E00001D8901E331D331C33E806FAE184
:1003700000011C51046E10C01FF011C020F012C00B
:1003800021F000011F6B0001206B100E1F0B1FC01E
:100390001CF020C01DF021C01EF007E00001D89025
:1003A0001E331D331C33E806FAE100011C51056EB3
:1003B00013C01CF014C01DF015C01EF000011D6B11
:1003C00000011E6B00011C51066E81EB07F013C08B
:1003D0001FF014C020F015C021F000011F6B0001B8
:1003E000216B080E1F0B1FC01CF020C01DF021C088
:1003F0001EF007E00001D8901E331D331C33E806C1
:10040000FAE100011C51086E13C01FF014C020F067
:1004100015C021F000011F6B0001206B100E1F0B97
:100420001FC01CF020C01DF021C01EF007E000011D
:10043000D8901E331D331C33E806FAE100011C512D
:10044000096EE66A010EE66EE66AD3EC16F043E941
:100450008D82300EF66E300EF76E000EF86E0800CC
:10046000F5CF1CF02E0EF66E300EF76E000EF86E05
:100470000800F55000011C11E66E48EC13F041E94C
:10048000BE0EE66E48EC13F041E9C8DD310EF66EA3
:10049000300EF76E000EF86E0800F5CF1CF02E0E31
:1004A000F66E300EF76E000EF86E0800F550000183
:1004B0001C11E66E48EC13F041E9026A070E025C7B
:1004C00014E20001D950030F1C6FDACF1DF0025067
:1004D0000001EA6A1C25E96E1D51EA22EFCFE6FF12
:1004E00048EC13F041E9022AE9D798DD300EF66EA8
:1004F000300EF76E000EF86E0800F5CF1CF02E0ED1
:10050000F66E300EF76E000EF86E0800F550000122
:100510001C11E66E48EC13F041E9BF0EE66E48ECA4
:1005200013F041E9000000008D920001069350E9AC
:10053000E7CFD9FF1200D9CFE6FFE1CFD9FF82E99B
:1005400000010683E66A010EE66EE66AD3EC16F059
:1005500043E98D820000330EF66E300EF76E000E0A
:10056000F86E0800F5CF1CF02E0EF66E300EF76E0A
:10057000000EF86E0800F55000011C11E66E48EC04
:1005800013F041E900EBE6FF48EC13F041E9E66ABD
:1005900048EC13F041E9000000008D92C69A00017A
:1005A000069341E9E7CFD9FF120000010683E66A0E
:1005B000010EE66EE66AD3EC16F043E98D82300E4A
:1005C000F66E300EF76E000EF86E0800F5CF1CF0D8
:1005D0002E0EF66E300EF76E000EF86E0800F55017
:1005E00000011C11E66E48EC13F041E9260EE66EA0
:1005F00048EC13F041E9020EE66E48EC13F041E9D5
:10060000E66A48EC13F041E9E66A48EC13F041E988
:10061000E66A48EC13F041E900000000FFDC330E0D
:10062000F66E300EF76E000EF86E0800F5CF1CF077
:100630002E0EF66E300EF76E000EF86E0800F550B6
:1006400000011C11E66E48EC13F041E9070EE66E5E
:1006500048EC13F041E9E66A48EC13F041E9000088
:100660000000DCDC300EF66E300EF76E000EF86E19
:100670000800F5CF1CF02E0EF66E300EF76E000E51
:10068000F86E0800F55000011C11E66E48EC13F0FE
:1006900041E9270EE66E48EC13F041E98D92C69AC7
:1006A000000106931200D9CFE6FFE1CFD9FF81E91F
:1006B00042E800010683026A210E025C09E2025050
:1006C000EA6A000FE96E0A0EEA22EF68022AF4D7FE
:1006D000E66A010EE66EE66AD3EC16F043E98D8217
:1006E0002F0EF66E300EF76E000EF86E0800F55005
:1006F000E66E48EC13F041E9026A050E025C10E276
:100700003EEC13F0E66E0250EA6A000FE96E0A0E44
:10071000EA22E552E750EF6E00000000022AEDD712
:100720007DDC2F0EF66E300EF76E000EF86E0800B0
:10073000F5500809E66E48EC13F041E9080E026E28
:100740000F0E025C10E23EEC13F0E66E0250EA6A15
:10075000000FE96E0A0EEA22E552E750EF6E000044
:100760000000022AEDD75ADC2F0EF66E300EF76E1F
:10077000000EF86E0800F5501009E66E48EC13F014
:1007800041E9100E026E170E025C10E23EEC13F00F
:10079000E66E0250EA6A000FE96E0A0EEA22E5529E
:1007A000E750EF6E00000000022AEDD737DC2F0E75
:1007B000F66E300EF76E000EF86E0800F550180950
:1007C000E66E48EC13F041E9180E026E1A0E025C58
:1007D00010E23EEC13F0E66E0250EA6A000FE96E9A
:1007E0000A0EEA22E552E750EF6E00000000022AEE
:1007F000EDD714DC2F0EF66E300EF76E000EF86E8D
:100800000800F5502009E66E48EC13F041E93EEC93
:1008100013F00A01206F8D92C69A000000000000BC
:100820000001069343E9E7CFD9FF1200D9CFE6FFD5
:10083000E1CFD9FF81E952E800010683036A0C6A1F
:100840008C80E66A010EE66EE66AD3EC16F043E9A8
:100850008D82300EF66E300EF76E000EF86E0800C8
:10086000F5CF1CF02F0EF66E300EF76E000EF86E00
:100870000800F55000011C110209E66E48EC13F067
:1008800041E93EEC13F0016E3EEC13F0026E0EEC0B
:1008900000F0300EF66E300EF76E000EF86E0800A7
:1008A000F5CF1CF02E0EF66E300EF76E000EF86EC1
:1008B0000800F55000011C110209E66E48EC13F027
:1008C00041E9E66A48EC13F041E9E66A48EC13F0C6
:1008D00041E90EEC00F0310EF66E300EF76E000EB0
:1008E000F86E0800F5CF1CF02F0EF66E300EF76E86
:1008F000000EF86E0800F55000011C11E66E48EC81
:1009000013F041E93EEC13F0046E3EEC13F0056E7B
:100910003EEC13F0066E3EEC13F0076E3EEC13F067
:10092000086E3EEC13F00A6E3EEC13F00B6E01B451
:100930001ED00EEC00F0340EF66E300EF76E000E88
:10094000F86E0800F5CF1CF02F0EF66E300EF76E25
:10095000000EF86E0800F55000011C11E66E48EC20
:1009600013F041E93EEC13F00C6E3C0E0C5E180ED9
:10097000011403E1200E021402E0010E036E8D92B9
:100980000001010E0F6F0804000104E00F470F91F2
:10099000E806FCE10001096B0A6B0B6B06EB09F042
:1009A00000010A6B0B6B0AC00BF009C00AF009C00A
:1009B0000AF00001096B05EB1CF000011D6B1E6BBA
:1009C00000011C510001091300011D5100010A130F
:1009D00000011E5100010B130AC00BF009C00AF000
:1009E00009C00AF00001096B04EB1CF000011D6B4B
:1009F0001E6B00011C510001091300011D51000173
:100A00000A1300011E5100010B1300010C6B0D6B4A
:100A10000E6B0BEB0CF000010D6B0E6B0DC00EF0AE
:100A20000CC00DF00CC00DF000010C6B0AEB1CF0BB
:100A300000011D6B1E6B00011C5100010C13000115
:100A40001D5100010D1300011E5100010E130DC0B8
:100A50000EF00CC00DF00CC00DF000010C6B07EB9C
:100A60001CF000011D6B1E6B00011C5100010C13DA
:100A700000011D5100010D1300011E5100010E1354
:100A80008C90C69A010E00013E15E66EE66A0CEBEC
:100A90001CF000011D6B1CBF1D691CC0E6FF1DC0C2
:100AA000E6FF00010F51E66EE66A0450E66EE66A64
:100AB0000550E66EE66A0650E66EE66A0750E66E98
:100AC000E66A0A50E66EE66A0B50E66EE66A680E63
:100AD000E66E2A0EE66E000EE66E000EE66E0A0E5A
:100AE000E66E67EC16F057E9010EE66E000EE66E54
:100AF0000A0EE66ECCEC08F043E900013E2B000044
:100B0000000000010693035000D053E9E7CFD9FF5E
:100B10001200D9CFE6FFE1CFD9FF81E954E8016A9D
:100B2000010E026E020E036E040E046E080E056EB8
:100B3000100E066E200E076E400E086E0001068332
:100B40000B6A146AE66A010EE66EE66AD3EC16F0EA
:100B500043E98D82300EF66E300EF76E000EF86EA1
:100B60000800F5CF1CF02F0EF66E300EF76E000E5B
:100B7000F86E0800F55000011C110209E66E48EC01
:100B800013F041E93EEC13F0096E3EEC13F00A6EEF
:100B90000EEC00F0300EF66E300EF76E000EF86EB2
:100BA0000800F5CF1CF02E0EF66E300EF76E000E1C
:100BB000F86E0800F55000011C110209E66E48ECC1
:100BC00013F041E9E66A48EC13F041E9E66A48ECC3
:100BD00013F041E90EEC00F0180E091403E1200EA9
:100BE0000A1403E0010E0B6E4CD0310EF66E300E7F
:100BF000F76E000EF86E0800F5CF1CF02F0EF66EA3
:100C0000300EF76E000EF86E0800F55000011C1152
:100C1000E66E48EC13F041E93EEC13F00C6E3EEC4E
:100C200013F00D6E3EEC13F00E6E3EEC13F00F6EF3
:100C30003EEC13F0106E3EEC13F0126E3EEC13F02F
:100C4000136E09B41ED00EEC00F0340EF66E300EAA
:100C5000F76E000EF86E0800F5CF1CF02F0EF66E42
:100C6000300EF76E000EF86E0800F55000011C11F2
:100C7000E66E48EC13F041E93EEC13F0146E3C0EC6
:100C8000145E8D92C69A0001D950010F1C6FDACF05
:100C90001DF010500001EA6A1C25E96E1D51EA2280
:100CA000EFCF0FF00001096B0A6B0B6B0EEB09F035
:100CB00000010A6B0B6B0AC00BF009C00AF009C0F7
:100CC0000AF00001096B0DEB1CF000011D6B1E6B9F
:100CD00000011C510001091300011D5100010A13FC
:100CE00000011E5100010B130AC00BF009C00AF0ED
:100CF00009C00AF00001096B0CEB1CF000011D6B30
:100D00001E6B00011C510001091300011D5100015F
:100D10000A1300011E5100010B1300010C6B0D6B37
:100D20000E6B13EB0CF000010D6B0E6B0DC00EF093
:100D30000CC00DF00CC00DF000010C6B12EB1CF0A0
:100D400000011D6B1E6B00011C5100010C13000102
:100D50001D5100010D1300011E5100010E130DC0A5
:100D60000EF00CC00DF00CC00DF000010C6B0FEB81
:100D70001CF000011D6B1E6B00011C5100010C13C7
:100D800000011D5100010D1300011E5100010E1341
:100D90008C9014EB1CF000011D6B1CBF1D691CC066
:100DA000E6FF1DC0E6FF00010F51E66EE66A0C503B
:100DB000E66EE66A0D50E66EE66A0E50E66EE66A8C
:100DC0000F50E66EE66A1250E66EE66A1350E66E63
:100DD000E66A340EE66E2A0EE66E000EE66E000E31
:100DE000E66E0A0EE66E67EC16F055E9010EE66E49
:100DF000000EE66E0A0EE66ECCEC08F043E9000148
:100E00003F2B00000000000106930B5000D055E975
:100E1000E7CFD9FF1200D9CFE6FFE1CFD9FF81E9B3
:100E200041E800010683E66A030EE66EE66AD3EC4B
:100E300016F043E98D82300EF66E300EF76E000E1E
:100E4000F86E0800F5CF1CF02F0EF66E300EF76E20
:100E5000000EF86E0800F55000011C110309E66E43
:100E600048EC13F041E93EEC13F0016EC69A000025
:100E700000000001069342E9E7CFD9FF1200D9CF65
:100E8000E6FFE1CFD9FF81E943E800010683E66A86
:100E9000030EE66EE66AD3EC16F043E98D82300E5F
:100EA000F66E300EF76E000EF86E0800F5CF1CF0EF
:100EB0002F0EF66E300EF76E000EF86E0800F5502D
:100EC00000011C110209E66E48EC13F041E93EEC0A
:100ED00013F0026E3EEC13F0036E000000000EEC07
:100EE00000F0300EF66E300EF76E000EF86E080051
:100EF000F5CF1CF02E0EF66E300EF76E000EF86E6B
:100F00000800F55000011C110209E66E48EC13F0D0
:100F100041E9E66A48EC13F041E9E66A48EC13F06F
:100F200041E9000000008D92C69A00000000000117
:0A0F3000069344E9E7CFD9FF120051
:060F3A00DACFE4FFE2CF74
:100F4000DAFFE9CFE4FFEACFE4FF38C0E4FF39C0BD
:100F5000E4FF3AC0E4FF3BC0E4FFF6CFE4FFF7CF85
:100F6000E4FFF8CFE4FFF5CFE4FFF3CFE4FFF4CFE5
:100F7000E4FFFACFE4FFFBCFE4FF00EE1CF0120E1B
:100F8000E80403E3EECFE4FFFBD7E652D9CFE6FF58
:100F9000E1CFD9FF81E943E8ACA202D0AC98AC889C
:100FA000ACA403D041EC17F0026E9D50200B26E05C
:100FB0009E50200B23E041EC17F0036E000105ABBF
:100FC00007D0A8A205D003EBE6FF92EC17F041E9A9
:100FD0001AEC0CF003EBEFFF005100013C6F3D6B8E
:100FE000D8903D5104E6FE0E3C5D010E3D5902E2F3
:100FF0000001002B1AEC0CF0EF6A026B9CA202D0ED
:101000009C989C889CA403D022EC17F0026EA350FD
:10101000200B26E0A450200B23E022EC17F0036EF7
:10102000000105AB07D0ADA205D003EBE6FFA9ECAC
:1010300017F041E922EC0CF003EBEFFF0151000146
:101040003C6F3D6BFE0ED8903DBF03D03C5D000E63
:101050003D5902E20001012B22EC0CF0EF6A036B18
:10106000F050040B07E0F050200B04E08C7C0001F2
:101070000581F094F250020B09E0F250100B06E0EB
:1010800081A0FED700010587F2928C70F250040B0C
:1010900007E0F250200B04E0F2941FEC18F08C7083
:1010A0009E50020B1CE09D50020B19E08150100B6A
:1010B00002E08C8E01D08C9E8C729E920001022BDD
:1010C000032B030E025D04E3005102E00583006B75
:1010D000030E035D04E3015102E00585016BA1509D
:1010E000020B1AE0A050020B17E0A192E66A0C0E68
:1010F000E66E7AEC17F042E90001042B0451040873
:1011000002E28C76046B85AE04D0058D8C888C9AB7
:1011100003D0059D8C988C8AA450080B06E0A35040
:10112000080B03E01CEC18F0A496F250080B09E041
:10113000F250010B06E08150026EF2908C7E0001AD
:10114000058744E9E7CFD9FFE55200EE2DF0120EF6
:10115000E80403E3E5CFEDFFFBD7E5CFFBFFE5CFE9
:10116000FAFFE5CFF4FFE5CFF3FFE5CFF5FFE5CFDD
:10117000F8FFE5CFF7FFE5CFF6FFE5CF3BF0E5CF92
:101180003AF0E5CF39F0E5CF38F0E5CFEAFFE5CF2B
:10119000E9FFE5CFDAFF1100D9CFE6FFE1CFD9FFB4
:1011A00084E942E8046A056A00040DE133DBEF508C
:1011B00017E030DBEFCFE6FFA9EC17F041E9ADA275
:1011C000FED72FDBF3D726DBEF500AE023DBEFCF90
:1011D000E6FF92EC17F041E9A8A2FED722DBF3D795
:1011E00043E9E7CFD9FF1200D9CFE6FFE1CFD9FF1E
:1011F00081E952E89B9C00010591F5EC11F08D808E
:101200008D92640EE66EE66A5DEC13F042E9F29EA2
:10121000948E949C100EE66EE66A7C0EE66E2AECC6
:1012200016F043E97E86030EE66E010EE66E7C0E36
:10123000E66EE8EC15F043E97C86CBEC10F038C0A4
:101240001CF039C01DF03AC01EF03BC01FF0000179
:101250001C510F6E1D51106E1E51116E1F51126EDA
:101260000FEB1CF010EB1DF011EB1EF012EB1FF05A
:1012700000011C510A6ED9500F0FE96EDACFEAFF58
:10128000080EE76ED890030EEB32020EEB32010E21
:10129000EB32EF32E706F6E10FEB1CF010EB1DF03E
:1012A00011EB1EF012EB1FF000011C51096ED9501A
:1012B0000F0FE96EDACFEAFF080EE76ED890030E43
:1012C000EB32020EEB32010EEB32EF32E706F6E1C3
:1012D0000FEB1CF010EB1DF011EB1EF012EB1FF0EA
:1012E00000011C51086ED9500F0FE96EDACFEAFFEA
:1012F000080EE76ED890030EEB32020EEB32010EB1
:10130000EB32EF32E706F6E10FEB1CF010EB1DF0CD
:1013100011EB1EF012EB1FF000011C51076E0000D4
:101320000A50E66EE66A0950E66EE66A0850E66E16
:10133000E66A0750E66EE66AB50EE66E290EE66EC0
:10134000000EE66E000EE66E0A0EE66E67EC16F014
:101350004DE9010EE66E000EE66E0A0EE66E1CDF2B
:1013600043E9000105979C0EE66E290EE66E000E1D
:10137000E66E000EE66E0A0EE66E9CEC15F045E990
:10138000010EE66E000EE66E0A0EE66E05DF43E91C
:10139000F28E8D0EE66E290EE66E000EE66E000EE3
:1013A000E66E0A0EE66E9CEC15F045E9010EE66E5F
:1013B000000EE66E0A0EE66EEFDE43E90001166BE4
:1013C000220E176F110E186F0001140E196F040E04
:1013D0001A6F160E1B6F0BEC07F0036E0000000077
:1013E00003AA10D014EC00F016C010F017C011F0D2
:1013F00018C012F019C013F01AC014F01BC015F079
:1014000020EC01F089EC05F03FEC07F000010591BC
:10141000000105A104D089EC05F000010591000050
:101420000000F6D753EC03F089EC05F0036E03508F
:1014300003E0000014EC00F00000080E0B6E0BEB54
:10144000E6FF9BEC02F041E90001106B470E116FC3
:10145000140E126F0001080E136F040E146F160E97
:10146000156F0000000089EC05F0036EE80EE66ED3
:10147000030EE66E5DEC13F042E989EC05F0036EB5
:1014800000010591016A020E0B6E000105A195D0C5
:101490008C80000105913BEC10F038C01CF039C085
:1014A0001DF03AC01EF03BC01FF000011C510F6E32
:1014B0001D51106E1E51116E1F51126E0FEB1CF05C
:1014C00010EB1DF011EB1EF012EB1FF000011C5190
:1014D0000A6ED9500F0FE96EDACFEAFF080EE76EF9
:1014E000D890030EEB32020EEB32010EEB32EF32EC
:1014F000E706F6E10FEB1CF010EB1DF011EB1EF010
:1015000012EB1FF000011C51096ED9500F0FE96E4C
:10151000DACFEAFF080EE76ED890030EEB32020E28
:10152000EB32010EEB32EF32E706F6E10FEB1CF087
:1015300010EB1DF011EB1EF012EB1FF000011C511F
:10154000086E00010551100B01E0010EE66EE66A1F
:1015500008EB1CF000011D6B1CBF1D691CC0E6FFE1
:101560001DC0E6FF09EB1EF000011F6B1EBF1F69C7
:101570001EC0E6FF1FC0E6FF0AEB20F00001216B52
:1015800020BF216920C0E6FF21C0E6FF790EE66E8C
:10159000290EE66E000EE66E000EE66E0A0EE66E90
:1015A00067EC16F04DE9010EE66E000EE66E0A0ECF
:1015B000E66EF2DD43E9000105790000000065D721
:1015C000E80EE66E030EE66E5DEC13F042E90001F4
:1015D000056B066B076B086B0001059B0001059D01
:1015E000000106910001059F0001046B000105A7A1
:1015F00094D0000105973BEC10F038C01CF039C0C6
:101600001DF03AC01EF03BC01FF000011C510F6ED0
:101610001D51106E1E51116E1F51126E0FEB1CF0FA
:1016200010EB1DF011EB1EF012EB1FF000011C512E
:101630000A6ED9500F0FE96EDACFEAFF080EE76E97
:10164000D890030EEB32020EEB32010EEB32EF328A
:10165000E706F6E10FEB1CF010EB1DF011EB1EF0AE
:1016600012EB1FF000011C51096ED9500F0FE96EEB
:10167000DACFEAFF080EE76ED890030EEB32020EC7
:10168000EB32010EEB32EF32E706F6E10FEB1CF026
:1016900010EB1DF011EB1EF012EB1FF000011C51BE
:1016A000086E00010551100B01E0010EE66EE66ABE
:1016B00008EB1CF000011D6B1CBF1D691CC0E6FF80
:1016C0001DC0E6FF09EB1EF000011F6B1EBF1F6966
:1016D0001EC0E6FF1FC0E6FF0AEB20F00001216BF1
:1016E00020BF216920C0E6FF21C0E6FF690EE66E3B
:1016F000290EE66E000EE66E000EE66E0A0EE66E2F
:1017000067EC16F04DE9010EE66E000EE66E0A0E6D
:10171000E66E42DD43E900010579000105A314D01E
:10172000000105930001006B000105AD0BD09C8EFC
:101730009892020EE66E000EE66E080EE66E2CDD46
:1017400043E902D09C9E9882000105A504D00001C7
:1017500005950001016B000100010551400B27E0D8
:10176000000100010551800B22E10001058F0001FD
:1017700006919C8E9892600EE66E290EE66E000E23
:10178000E66E000EE66E0A0EE66E9CEC15F045E97C
:10179000010EE66E000EE66E0A0EE66EFDDC43E913
:1017A000F40EE66E010EE66E5DEC13F042E9000108
:1017B00000010551400B27E1000100010651010B1A
:1017C00022E1000106810001059F9C9E9882560E31
:1017D000E66E290EE66E000EE66E000EE66E0A0E4E
:1017E000E66E9CEC15F045E9010EE66E000EE66E25
:1017F0000A0EE66ED1DC43E9F40EE66E010EE66EEB
:101800005DEC13F042E900000000F0D653E9E7CFA9
:10181000D9FF120001500424E96E02500520EA6E3F
:101820001200050EE66ED2EC17F041E9042A000E14
:101830000522120000010051EA6A000FE96E080E4D
:10184000EA22120000010151EA6A000FE96E0C0E53
:04185000EA22120076
:0C18540090DB86E90150010600090CE061
:1018600002EBE6FF03EBE6FF00EBE6FF69DBF4E1EA
:101870001D1DF2E1010E01D0000E41E9E5CFDAFFB6
:10188000E7CFD9FF120077DB89E97BE80A6A0B6AA8
:1018900002EBF6FF03EBF7FF04EBF8FF0800F5504F
:1018A000096E095001E12DD3250E095C01E01BD31F
:1018B0000C6A0D6A0E6A0F6A106A2DDB2D0E095C28
:1018C0000CE02B0E095C09E0200E095C06E0230EFB
:1018D000095C03E0300E095C15E10950300A10E0A4
:1018E000130A0CE0030A08E00B0A04E0060AE5E12B
:1018F0000C80E3D70C82E1D70C84DFD70C86DDD7D0
:101900000C88DBD72A0E095C13E1A5DB0DE30C8004
:101910001CEB1CF01DEB1DF000011C6D1D1F000ECB
:101920001D231C510D6E02D09CEB0DF0F4DA07D094
:10193000126A3FDB02E06BDBFCD792EB0DF00CB0E0
:101940000C982E0E095C15E1E6DA2A0E095C08E116
:1019500082DB04E29CEB0EF0010E0F6EDCDA09D0A4
:10196000126A27DB02E053DBFCD792EB0EF0010E8C
:101970000F6E680E095C07E1CEDA680E095C1DE1A6
:10198000030E106E19D0740E095C16E07A0E095C15
:1019900013E0480E095C06E0540E095C03E05A0EA1
:1019A000095C02E1020E07D06C0E095C03E06A0ECE
:1019B000095C03E1010E106EAEDA09506E0A01E116
:1019C0006ED21E0A01E128D1200A01E125D13F0A89
:1019D00001E1FDD01A0A01E1FAD00D0A01E1F7D0C8
:1019E000200A01E1F4D03A0A01E1F1D0200A01E134
:1019F000EED0260A01E1EAD00D0A01E1E7D01A0A89
:101A000001E19ED0200A3BE0300A1AE0460A0EE0CF
:101A1000250A01E072D2D950020FE96E000EDA20D9
:101A2000EA6E010EEE5E000EEE5AEE5A0FDB250E48
:101A3000E66E86DA03E11D1D01E159D20A2A5BD266
:101A4000116A0D50010803E20D04116EF5DA115010
:101A500007E0010E0C1404E16DDA01E048D2116ACE
:101A6000D3DAEF50096ECBDA03E11D1D01E13FD25D
:101A70000A2A000E0B225EDA01E13FD238D2020EB2
:101A8000105C08E1030E4EDAEE50176EEE50186E41
:101A9000EF5007D0E7DA1E6B1C51176E1D51186E00
:101AA0001E51196E17EBE6FF18EBE6FF19EBE6FF88
:101AB000C3EC15F043E938C01CF039C01DF03AC042
:101AC0001EF000011C511C6E1D511D6E0F5006E0D2
:101AD0001C500E5C03E20E501C6E1D6A1C500D5C07
:101AE00002E29CEB0DF050DA05E00D500E5C02E2D4
:101AF0008EEB0DF00CB004D01DDA01E0F8D1116AC4
:101B0000126A17EBF6FF18EBF7FF19EBF8FF080066
:101B1000F550096E095010E00D50125C0DE26FDABD
:101B200003E11D1D01E1E3D10A2A000E0B22122A56
:101B3000D950170F55DAEBD7FDD901E1DED1D7D156
:101B400063DAEE501A6EED501B6E1AEBE6FF1BEBDC
:101B5000E6FFB5EC15F042E9F3501C6EF4501D6E33
:101B60000F5006E01C500E5C03E20E501C6E1D6A06
:101B70001C500D5C02E29CEB0DF006DA05E00D5006
:101B80000E5C02E28EEB0DF00CB004D0D3D901E074
:101B9000AED1116A126A1AEBE9FF1BEBEAFFEF50B4
:101BA000096E09500FE00D50125C0CE228DA03E1D7
:101BB0001D1D01E19CD10A2A000E0B22122A1A2AAD
:101BC0001B22E9D7B7D901E198D191D10C8E10042D
:101BD0000AE1040EA7D9EE50136EEE50146EEE50CB
:101BE000156EEF5032D0030E105C16E10CAE0CD027
:101BF0000BDAEFCF1CF000011D6B1E6B1F6B1CAFCF
:101C000023D01D691E691FD0FFD9EFCF1CF0000142
:101C10001C51136E146A20D0020E105C0CE10CAE45
:101C200006D0030E7FD9B6D91EAF0ED00CD0030E4E
:101C300079D9B0D909D00CAE0AD014DA1E6B1F6B5B
:101C40001DAF02D01E691F69BCD9166E07D00ADA13
:101C50001C51136E1D51146E156A166A0F5002E165
:101C6000010E0E6E1E6A1F6AD950400FE66E000EFE
:101C7000DA20E66EE552E550436EE750426E416A67
:101C8000116A0A0E106E0950780A12E0200A10E05C
:101C9000280A0CE0200A0AE03F0A06E00D0A02E0EA
:101CA000200A08E1020E05D0080E03D0080E09260E
:101CB000100E106E0CBE02D00C920C94800E0C1400
:101CC00017E0163415E3E668E668E668E66842D988
:101CD0005AEC14F0E552E5CF1FF0E5CF1EF0E5CF4A
:101CE0001DF0E7CF1CF000016CD9166E2D0E07D049
:101CF0000CA202D02B0E03D00CA404D0200E206E18
:101D00001E2A01D0206A0E5005E113501410151040
:101D1000161061E000011A0E1C6F300E1D6F000ED0
:101D20001E6F83D917EC14F0E552E5CF22F0E5CF12
:101D300021F0E5CF20F0E7CF1FF000011C511F2557
:101D4000F36E1D512021F46E1E512121F86EF4CF47
:101D5000F7FFF3CFF6FF0800F550126E580E095C3E
:101D600005E1610E125C02E3200E125E5ED914ECF6
:101D700014F0E552E550166EE550156EE550146E00
:101D8000E750136E42EBE9FF43EBEAFF4206000E19
:101D9000435A12EBEFFF1E2A1350141015101610A1
:101DA000B9E10CA619D06F0E095C06E10E501E5C5D
:101DB00013E31E280E6E10D0780E095C09E0580E51
:101DC000095C06E0620E095C03E0420E095C04E176
:101DD000020E1F6E01D01E6A100E0C1407E00D508B
:101DE0000E5C04E20F5002E18DEB0EF00E501E5C13
:101DF00003E21E500E5E01D00E6A0E501E241F24F8
:101E0000D8800D5407E20E500D5CD8801E54D88047
:101E10001F54116E010E0C1406E1115004E08AD813
:101E200066E10AD9116A205007E010D920EBE6FFDD
:101E300087D802E11D1D5BE01F500BE007D9300E73
:101E4000E66E7ED802E11D1D52E0D9D802E11D1DCB
:101E50004EE00E501F5C02E21F500E5E300EE66E2A
:101E60000EEBE6FFDCD843E1422A000E432242EBB0
:101E7000E9FF43EBEAFFEF50126E125008E0E6D89C
:101E800012EBE6FF5DD8F0E11D1DEEE130D052D837
:101E90002EE10E501E2411241F240A262CD010508F
:101EA000030A1CE0010A14E0030A07E0ADD8C9D810
:101EB0000AEBEEFF0BEBEDFF20D08BD81F6B1DAFB5
:101EC00002D01E691F69A0D84ED81FC0EEFF15D0E2
:101ED00080D81DBF1E6998D846D80FD095D8B1D8E4
:101EE0000AEBEFFF0AD08BD805E11D1D03E1F36873
:101EF000F4680BD00A2A000E0B22D950020F70D8BA
:101F0000CDD40AEBF3FF0BEBF4FF7CE9E5CFDAFF6E
:101F1000E7CFD9FF1200D950020F62D80800F55060
:101F2000096E1200005E000E015A00EBE9FF01EBA2
:101F3000EAFF1200200EE66E11EBE6FF0FEF10F045
:101F4000A0EC16F043E9F3CF1CF0F4CF1DF0000134
:101F5000F31C120013EBE6FF14EBE6FF15EBE6FFB4
:101F600016EBE6FF12006DD81CC0EEFF1DC0EEFFA1
:101F70001EC0EEFF1200D9CFE6FFDACFE6FFE1CFB9
:101F8000D9FFE2CFDAFF12001C500D5C116E54D85D
:101F90000F501200EECF1CF0EECF1DF0EFCF1EF071
:101FA00000011F6B1200EECF1CF0EFCF1DF00001FF
:101FB00012000950E66EE66AC0EC17F042E9F350F1
:101FC00012001C51136E1D51146E1E51156E1F51BF
:101FD00012000AEB1CF00BEB1DF000011E6B12004F
:101FE000E96E000EDA20EA6EEF2AEECFF6FF000E61
:101FF000EF22EECFF7FFEF22EECFF8FF120026D848
:1020000009EBE6FFA0EF0FF0020E92EF0FF00A0EC1
:102010001202F3500924D00F126E8BEF0FF016D876
:102020002AEC0CF044E90009120010EBE6FFE66A26
:10203000E66AE66AAAEF0FF011500A26000E0B229C
:102040001200EE50EFCFEAFFE96E120005EBE6FF5B
:1020500006EBE6FF1200D8DFEE501C6EED501D6E51
:0A2060001D341200D1DFD3EF0FF0A2
:06206A008D800000000063
:1020700000008D901200D9CFE6FFE1CFD9FF81E9B2
:1020800047E800010683E66A030EE66EE66AD3ECD3
:1020900016F043E98D900000000000002C0EF66E53
:1020A000300EF76E000EF86E0800F5CFE6FF48EC34
:1020B00013F041E9080EE66E48EC13F041E93EECFE
:1020C00013F0016E3EEC13F0026E3EEC13F0036E63
:1020D0008D80C69A03EB1CF000011C51046E056A4A
:1020E000066A076AD950040FE96EDACFEAFFEF50AB
:1020F000EE6AEFCFF4FFEE6EEF50F4CFEEFFEF6E2F
:1021000002EB1CF000011D6B1E6B1F6BD950040FFE
:10211000E96EDACFEAFF00011C51EE1200011D51F9
:10212000EE1200011E51EE1200011F51EE12D950A5
:10213000040FE96EDACFEAFFEF50EE6AEFCFF4FF5B
:10214000EE6EEF50F4CFEEFFEF6E01EB1CF00001EE
:102150001D6B1E6B1F6BD950040FE96EDACFEAFFBF
:1021600000011C51EE1200011D51EE1200011E5122
:10217000EE1200011F51EE120001069304EB38F03D
:1021800005EB39F006EB3AF007EB3BF000D048E9FD
:10219000E7CFD9FF1200D9CFE6FFE1CFD9FF81E920
:1021A00048E800010683E66A030EE66EE66AD3ECB1
:1021B00016F043E98D902B0EF66E300EF76E000E82
:1021C000F86E0800F5CFE6FF48EC13F041E91F0E6A
:1021D000E66E48EC13F041E9520EE66E48EC13F05F
:1021E00041E9010EE66EE66A5DEC13F042E93DDF7F
:1021F000010EE66EE66A5DEC13F042E92B0EF66E18
:10220000300EF76E000EF86E0800F5CFE6FF48ECD2
:1022100013F041E9200EE66E48EC13F041E97A0E26
:10222000E66E48EC13F041E9E66A48EC13F041E948
:10223000010EE66E48EC13F041E9960EE66E48ECAE
:1022400013F041E9E66A48EC13F041E9E66A48EC2C
:1022500013F041E9E66A48EC13F041E93F0EE66EFF
:1022600048EC13F041E9E66A48EC13F041E9800ECE
:10227000E66E48EC13F041E9900EE66E48EC13F080
:1022800041E9E66A48EC13F041E9500EE66E48EC8D
:1022900013F041E90A0EE66E48EC13F041E9E5DE81
:1022A0002C0EF66E300EF76E000EF86E0800F5CFAD
:1022B000E6FF48EC13F041E9E66A48EC13F041E927
:1022C0003EEC13F0016E3EEC13F0026E3EEC13F0A8
:1022D000036E3EEC13F0046E8D80C69A01EB1CF089
:1022E00000011C51056E066A076A086AD950050F7D
:1022F000E96EDACFEAFFEF50EE6AEFCFF4FFEE6E51
:10230000EF50F4CFEEFFEF6E02EB1CF000011D6BFF
:102310001E6B1F6BD950050FE96EDACFEAFF000183
:102320001C51EE1200011D51EE1200011E51EE1261
:1023300000011F51EE12D950050FE96EDACFEAFF06
:10234000EF50EE6AEFCFF4FFEE6EEF50F4CFEEFFFA
:10235000EF6E03EB1CF000011D6B1E6B1F6BD95061
:10236000050FE96EDACFEAFF00011C51EE12000101
:102370001D51EE1200011E51EE1200011F51EE120E
:10238000D950050FE96EDACFEAFFEF50EE6AEFCFD2
:10239000F4FFEE6EEF50F4CFEEFFEF6E04EB1CF0A7
:1023A00000011D6B1E6B1F6BD950050FE96EDACF54
:1023B000EAFF00011C51EE1200011D51EE12000156
:1023C0001E51EE1200011F51EE1200000001069393
:1023D00005EB38F006EB39F007EB3AF008EB3BF091
:0A23E00000D049E9E7CFD9FF120051
:0623EA00C168C268806AB0
:1023F000E30E926E180E896E816A1B0E936E8C6AC4
:10240000956A010E8D6E966A800E976E040E8E6E22
:10241000050E986E020E8F6E040E996E020E906E6F
:10242000886AF00E9A6E916ACB8EC168C268C29EAD
:10243000C29CC290C18EC19CC18AC198C196C18400
:10244000C192C180D09EF290F286F292F288F1960B
:10245000F08AF094F19CF098F092F090F096F28E61
:10246000F28CFE0EE66E60EC17F041E9CC6ACB68A8
:102470009E92FD0EE66E02EC17F041E9000EE66E4C
:10248000E66A7AEC17F042E90001006B0001016B8B
:102490000001026B0001036B41EC17F022EC17F016
:1024A000F19E000105930001026B0001006B080121
:1024B000006B000105950001036B0001016B0C012D
:1024C000006B1200D9CFE6FFE1CFD9FF87E95AE8C8
:1024D000076A086A030E096E0A6A020E0B6E0C6A1E
:1024E000050E0D6E0E6A0F6A106A030E116E126AE7
:1024F000050E136E146A010E156E166A040E176E21
:10250000186A060E196E1A6A020E1B6E1C6A040EF9
:102510001D6E1E6A030ED89003BE03D0025C000E2F
:10252000035802E3000E01D0010E045E000E055AAE
:10253000070EE66EE66A040EE66EE66A04EBE6FF58
:1025400005EBE6FF90EC13F00001FE0EE3500424CF
:10255000246F41E9E5500520256F640EE66EE66ABA
:1025600004EBE6FF05EBE6FF90EC13F0E552E5CF58
:1025700027F0E7CF26F0000126510001245D00017D
:10258000226F00012751000125590001236F900E91
:10259000E66E010EE66E04EBE6FF05EBE6FF90EC5F
:1025A00013F0E552E5CF29F0E7CF28F00001000154
:1025B0002251000128250001206F00010001235154
:1025C000000129210001216F0001D950070F2A6F56
:1025D000DACF2BF0000102042C6F000E03582D6F90
:1025E0000001D8902C372D37000100012A5100013D
:1025F0002C25E96E000100012B5100012D21EA6E0E
:10260000000100012051EE2400011E6F00010001B5
:102610002151EE2000011F6F005000011E25000116
:102620001C6F015000011F2100011D6F1CC0E6FF3F
:102630001DC0E6FFDBEC13F0E552E550206EE750DD
:102640001F6E00001FEBF3FF20EBF4FF00D05BE9EF
:10265000E7CFD9FF120051D8F00E0014026E0238F5
:102660000F0B026E0A0E0202F350026E0F0E0014E0
:102670000226025042E9E7CFD9FF1200C96AD66AA2
:10268000C750010B03E1140ED65CFAE3C9501200E7
:1026900034D800EBC9FFC6AE02D0FF0E0AD0D66A0E
:1026A000C750010B03E1140ED65CFAE3C950026E69
:1026B000025042E9E7CFD9FF1200D9CFE6FFE1CFC0
:1026C000D9FF83E944E8036A046A0050035C0150BF
:1026D00004580FE2056A066A630E055C000E065890
:1026E00004E2052A000E0622F7D7032A000E042270
:1026F000ECD745E9E7CFD9FF1200D9CFE6FFE1CF0C
:08270000D9FF82E941E8120053
:0827080043E8D9CFE6FFDACF68
:10271000E6FFE1CFD9FFE2CFDAFF89E9066A1200CE
:10272000F3DF068001D0F0DF01AE9DEF13F0006C07
:10273000011EE86A012206B0067E03AEA5EF13F083
:10274000026C031EE86A0322067EDDEC13F003BE72
:10275000C7EF13F006AE08D0026C031EE86A03222E
:10276000046C051EE86A052206B006D084EB00F072
:1027700085EB01F006A004D082EB00F083EB01F0C2
:10278000E552E5CFDAFFE7CFD9FF45E9000C06BEF9
:10279000ACEF13F0E9DFFF0C43E8D9CFE6FFDACF67
:1027A000E6FFE1CFD9FFE2CFDAFF89E9066A12003E
:1027B000F3DF068003D0F0DF01D00682056A046AE9
:1027C000100EE76ED89002360336043605360050F8
:1027D000045C0150055805E30050045E0150055AA1
:1027E000022AE72EF0D706B2120006B006D084EB1C
:1027F00000F085EB01F006A004D082EB00F083EB43
:1028000001F0E552E5CFDAFFE7CFD9FF45E9120045
:1028100045E8D9CFE6FFDACFE6FFE1CFD9FFE2CF37
:10282000DAFF8FE90C6A1200F3DF0C8003D0F0DFCF
:1028300001D00C820B6A0A6A096A086A200EE76EE8
:10284000D8900436053606360736083609360A3675
:102850000B360050085C0150095802500A580350CA
:102860000B5809E30050085E0150095A02500A5AF9
:1028700003500B5A042AE72EE4D70CB212000CB016
:102880000AD088EB00F089EB01F08AEB02F08BEBC9
:1028900003F00CA008D084EB00F085EB01F086EB90
:1028A00002F087EB03F0E552E5CFDAFFE7CFD9FF7F
:1028B00049E9120044E8D9CFE6FFDACFE6FFE1CFDD
:1028C000D9FFE2CFDAFF8EE980EB08F081EB09F067
:1028D00082EB0AF083EB0BF004500802F350006E19
:1028E000F450016E04500902F3500126000EF4204A
:1028F000026E04500A02F3500226000EF420036E0A
:1029000004500B02F350032605500802F350012631
:10291000F4500222000E032205500902F350022651
:10292000F450032205500A02F35003260650080211
:10293000F3500226F450032206500902F3500326F6
:1029400007500802F3500326E552E5CFDAFFE7CF40
:06295000D9FF48E9000C6C
:0A29560020574149540D0A0D0A00F4
:102960002052554E0D0A0D0A0025336409253364A3
:1029700009253364092564090020253364092533BA
:1029800064092533640925640D0A0D0A000D0A2027
:102990005256333034393A0D0A0D0A00204E4D4557
:1029A000412047656E657261746F72200D0A0D0AD1
:1029B0000D0A0D0A000C0D0A204144584C333632E2
:1029C00020496E69743A0D0A0D0A2044455649445F
:1029D0005F4144093078253032582028307841440E
:1029E000290D0A2044455649445F4D535409307817
:1029F00025303258202830783144290D0A205041A2
:102A0000525449440909307825303258202830780A
:102A10004632290D0A205245564944090930782585
:102A20003032582028307830312F30783032290D2C
:102A30000A0D0A000C0D0A20253032582D2530329F
:102A4000582D2530325820253032583A253032580A
:102A50003A25303258203078253032582020252B26
:102A60006427430D0A0D0A0009253032582D253000
:102A700032582D2530325820253032583A25303200
:102A8000583A2530325820307825303258202025C9
:092A90002B6427430925640900A9
:062A9A000E0EF66E000EA8
:102AA000F76E000EF86E00010900F550336F090053
:102AB000F550346F03E1336701D03DD00900F55084
:102AC0002E6F0900F5502F6F0900F550306F090087
:102AD0000900F550E96E0900F550EA6E0900090099
:102AE0000900F550316F0900F550326F09000900F7
:102AF000F6CF35F0F7CF36F0F8CF37F02EC0F6FF2F
:102B00002FC0F7FF30C0F8FF0001315302E132530C
:102B100007E00900F550EE6E3107F8E23207F9D709
:102B200035C0F6FF36C0F7FF37C0F8FF00013307A6
:082B3000000E345BBFD7120058
:082B3800FB0EE3CFF6FFFC0EDB
:102B4000E3CFF7FFFD0EE3CFF8FFFE0EE3CFE9FF83
:102B5000FF0EE3CFEAFFE9CFF3FFEACFF4FF09006E
:102B6000F5CFEFFFEE66FBD71200FE0EE3CFE9FFD5
:102B7000FF0EE3CFEAFFF36AF46AEE5203E0F34A92
:102B8000F42AFBD71200FF0EE3CFF8FFE552FF0E49
:102B9000E3CFF7FFE552FF0EE3CFF6FFE552E66A1B
:102BA000E66AE66A0900F55209E0FD0EE32A05E14E
:102BB000FE0EE32A02E1FF0EE32AF4D7FD0EE3CF77
:102BC00038F0FE0EE3CF39F0FF0EE3CF3AF01200FB
:102BD000D9CFE6FFDACFE6FFE1CFD9FFE2CFDAFFC8
:102BE00085E9A86A9C6A02B0A88802A202D0A88CD3
:102BF0009C8C02B4A88E02A602D09C8801D09C8A2C
:102C000002A802D0A88401D0A89402BA9C8602AC83
:102C100002D0A38A01D0A39A02AE02D0A38801D029
:102C2000A39800EBABFF000101EB1CF01D6B1CC077
:102C30007DFFA88A9C8E98929884A850100B04E07F
:102C4000A850800B01E1988241E9E5CFDAFFE7CF98
:042C5000D9FF120096
:0C2C5400D9CFE6FFDACFE6FFE1CFD9FFD1
:102C6000E2CFDAFF85E9AD6AAC6A02B0AD8802A2B4
:102C700002D0AD8CAC8C02B4AD8E02A602D0AC8872
:102C800001D0AC8A02B8AD8402BAAC8602AC02D0E4
:102C90009D8A01D09D9A02AE02D09D8801D09D9858
:102CA00000EBB0FF01EB1CF01CC07FFFAD8AAC8EC7
:102CB000949C948EAD50100B04E0AD50800B01E15C
:0E2CC000948C41E9E5CFDAFFE7CFD9FF12008F
:022CCE00D9CF5C
:102CD000E6FFDACFE6FFE1CFD9FFE2CFDAFF87E9FF
:102CE00044E8D9CFE6FFDACFE6FFE552E5500A6EB9
:102CF000E750096E09EBE6FF0AEBE6FF00EBE6FFA3
:102D000001EBE6FF02EBE6FFD950030FE66E000E83
:102D1000DA20E66E43EC0CF047E9F350076EF4500E
:102D2000086E03EBE9FF04EBEAFFEF6A07EBF3FF42
:102D300008EBF4FF45E9E5CFDAFFE7CFD9FF120052
:102D4000D9CFE6FFDACFE6FFE1CFD9FFE2CFDAFF56
:102D500085E9013415E200EBE9FF01EBEAFFEECF74
:102D6000F3FFEDCFF4FFEE2A000EEF22F3CFE9FFE1
:102D7000F4CFEAFF02EBEFFFEF50F36EF46A0DD0F1
:102D8000FE0E005C05E102EBE6FFF2EC17F004D06A
:102D900002EBE6FF03EC00F041E941E9E5CFDAFFA1
:062DA000E7CFD9FF12008D
:0A2DA600D9CFE6FFDACFE6FFE1CF58
:102DB000D9FFE2CFDAFF85E93F0EC716C66A025097
:102DC000C6120050C7120150030A09E0010A04E0CC
:102DD000020A06E1C78C04D0C78CC68801D0C68819
:102DE0000250050A03E0010A03E1978E948601D0A0
:102DF00094969488949AC68A41E9E5CFDAFFE7CFA2
:042E0000D9FF1200E4
:0C2E0400D9CFE6FFDACFE6FFE1CFD9FF1F
:102E1000E2CFDAFF83E9360E0014796E7B6A7A6AB4
:102E2000A19200AE02D0A08201D0A09200A002D058
:102E3000798E01D0799E798041E9E5CFDAFFE7CF3D
:042E4000D9FF1200A4
:0C2E4400D9CFE6FFDACFE6FFE1CFD9FFDF
:102E5000E2CFDAFF82E941E8F20E000141179CACB3
:102E600003D041919CB041819CB441859CB2418783
:102E7000AA50026E025042E9E5CFDAFFE7CFD9FF50
:022E800012003E
:0E2E8200D9CFE6FFDACFE6FFE1CFD9FFE2CFEE
:102E9000DAFF82E941E8F20E00014217ACAC03D040
:102EA0004291ACB04281ACB44285ACB24287AF50E3
:102EB000026E025042E9E5CFDAFFE7CFD9FF1200F8
:102EC000D9CFE6FFDACFE6FFE1CFD9FFE2CFDAFFD5
:102ED00083E9FB0E0014CA6ECC6A9E9200AE02D04B
:102EE0009D8201D09D92CA8441E9E5CFDAFFE7CF08
:042EF000D9FF1200F4
:0C2EF400D9CFE6FFDACFE6FFE1CFD9FF2F
:102F0000E2CFDAFF84E942E880EB04F081EB05F0E0
:102F100005EB7BFF04EB7AFF43E9E5CFDAFFE7CF70
:042F2000D9FF1200C3
:0C2F2400D9CFE6FFDACFE6FFE1CFD9FFFE
:102F3000E2CFDAFF83E9A8AC04D0A890000141B346
:102F4000A88000EBA9FF41E9E5CFDAFFE7CFD9FF81
:022F500012006D
:0E2F5200D9CFE6FFDACFE6FFE1CFD9FFE2CF1D
:102F6000DAFF83E9ADAC04D0AD90000142B3AD808F
:102F700000EBAEFF41E9E5CFDAFFE7CFD9FF120062
:102F8000F36AF46AFF0EE124E96EFF0EE220EA6EB6
:102F9000ED6607D02F0EEF6404D03A0EEF6001D03B
:042FA000F32A1200FE
:0C2FA400FF0EE3500001406F1A0E00D039
:102FB00000D001D0200EE76EE72EFED7402FFAD7C3
:042FC00000D012002B
:0C2FC400400EF36E00EE00F00F0E01D87E
:102FD0001200EA6002D0EE6AFCD7F350E9601200FA
:042FE000EE6AFCD7C2
:0C2FE400FF0EE350ADBA04D0B06AAC8E12
:102FF000AD8A949CADA2FED7AE6EF36EF46A120059
:103000001EEE00F02EEE00F0F86A4DEC15F022EC0A
:0A30100018F0F4EC08F0FBD71200F2
:06301A0030313233343581
:0B302000363738396162636465660072
:05302B000A0B0D0080FE
:083030000008101820283038B8
:063038007694A39612003D
:02303E00D59E1D
:04304000F29A1200EE
:02304400120078
:02304600000088
:020000040001F9
:01FFF800E028
:01FFF900F413
:01FFFA000006
:01FFFB00F510
:01FFFC00B84C
:00000001FF
