:020000040000FA
:0600000090EF14F0120065
:0A00060001005C290000FC0100006D
:0400100002000000EA
:0C0014008D920000000000008D821200A0
:1000200001010683E66A010EE66EE66A83EC13F0D0
:1000300043E98D82500EF66E290EF76E0800F5CF5B
:10004000DCF14E0EF66E290EF76E0800F550010138
:10005000DC110409E66E0FEC0FF041E9100EE66EBC
:100060000FEC0FF041E900008D92F40EE66E010EE8
:10007000E66E2CEC0FF042E98D82500EF66E290EE2
:10008000F76E0800F5CFDCF14E0EF66E290EF76E16
:100090000800F5500101DC110309E66E0FEC0FF0CA
:1000A00041E9E66A0FEC0FF041E90000B3DF500EC2
:1000B000F66E290EF76E0800F5CFDCF14E0EF66EE7
:1000C000290EF76E0800F5500101DC11E66E0FEC09
:1000D0000FF041E9B80EE66E0FEC0FF041E91E0E8D
:1000E000E66E0FEC0FF041E9E66A0FEC0FF041E924
:1000F000E66A0FEC0FF041E98DDF530EF66E290E24
:10010000F76E0800F5CFDCF14E0EF66E290EF76E95
:100110000800F5500101DC11E66E0FEC0FF041E92B
:10012000070EE66E0FEC0FF041E9E66A0FEC0FF0F8
:1001300041E970DF500EF66E290EF76E0800F5CF1C
:10014000DCF14E0EF66E290EF76E0800F550010137
:10015000DC11E66E0FEC0FF041E9BF0EE66E0FEC1E
:100160000FF041E957DF500EF66E290EF76E0800CA
:10017000F5CFDCF14E0EF66E290EF76E0800F55045
:100180000101DC110209E66E0FEC0FF041E9E66AAD
:100190000FEC0FF041E93EDF520EF66E290EF76EBE
:1001A0000800F5CFDCF14E0EF66E290EF76E080052
:1001B000F5500101DC11E66E0FEC0FF041E9E66A43
:1001C0000FEC0FF041E9E66A0FEC0FF041E9E66A47
:1001D0000FEC0FF041E9E66A0FEC0FF041E9E66A37
:1001E0000FEC0FF041E9E66A0FEC0FF041E9E66A27
:1001F0000FEC0FF041E98D92C69A010106931200AF
:10020000D9CFE6FFE1CFD9FF81E94FE801010683AD
:10021000D3C1DFF1D4C1E0F1D5C1E1F10101DF6B60
:100220000101E06B100E1F0BDFC1DCF1E0C1DDF15D
:10023000E1C1DEF107E00101D890DE33DD33DC33CC
:10024000E806FAE1DCC1E6FFDAEC0EF041E90A6EFD
:100250000B6AD00E0A26070E0B22D3C1DFF1D4C1E0
:10026000E0F1D5C1E1F10101DF6B0101E16B080EA5
:100270001F0BDFC1DCF1E0C1DDF1E1C1DEF107E020
:100280000101D890DE33DD33DC33E806FAE1DCC16E
:10029000E6FFDAEC0EF041E90C6E0D6AD3C1DCF139
:1002A000D4C1DDF1D5C1DEF10101DD6B0101DE6BF1
:1002B000DCC1E6FFDAEC0EF041E90E6E0F6A0EEBE0
:1002C000E6FF0FEBE6FF0CEBE6FF0DEBE6FF0AEBBC
:1002D000E6FF0BEBE6FF11EC0EF046E9F350016E82
:1002E000012AD0C1DCF1D1C1DDF1D2C1DEF10101C1
:1002F000DD6B0101DE6B0101DC51036ED0C1DFF16A
:10030000D1C1E0F1D2C1E1F10101DF6B0101E16B8B
:10031000080E1F0BDFC1DCF1E0C1DDF1E1C1DEF150
:1003200007E00101D890DE33DD33DC33E806FAE183
:100330000101DC51046ED0C1DFF1D1C1E0F1D2C1C5
:10034000E1F10101DF6B0101E06B100E1F0BDFC15A
:10035000DCF1E0C1DDF1E1C1DEF107E00101D8909F
:10036000DE33DD33DC33E806FAE10101DC51056EF2
:10037000D3C1DCF1D4C1DDF1D5C1DEF10101DD6B0A
:100380000101DE6B0101DC51066E81EB07F0D3C188
:10039000DFF1D4C1E0F1D5C1E1F10101DF6B010171
:1003A000E16B080E1F0BDFC1DCF1E0C1DDF1E1C143
:1003B000DEF107E00101D890DE33DD33DC33E806FF
:1003C000FAE10101DC51086ED3C1DFF1D4C1E0F1E3
:1003D000D5C1E1F10101DF6B0101E06B100E1F0BD4
:1003E000DFC1DCF1E0C1DDF1E1C1DEF107E00101D7
:1003F000D890DE33DD33DC33E806FAE10101DC516D
:10040000096EE66A010EE66EE66A83EC13F043E9D4
:100410008D82500EF66E290EF76E0800F5CFDCF1D6
:100420004E0EF66E290EF76E0800F5500101DC1134
:10043000E66E0FEC0FF041E9BE0EE66E0FEC0FF02A
:1004400041E9E8DD510EF66E290EF76E0800F5CF92
:10045000DCF14E0EF66E290EF76E0800F550010124
:10046000DC11E66E0FEC0FF041E9026A070E025C48
:1004700014E20101D950030FDC6FDACFDDF1025035
:100480000101EA6ADC25E96EDD51EA22EFCFE6FFE1
:100490000FEC0FF041E9022AE9D7BCDD500EF66EF1
:1004A000290EF76E0800F5CFDCF14E0EF66E290E20
:1004B000F76E0800F5500101DC11E66E0FEC0FF04D
:1004C00041E9BF0EE66E0FEC0FF041E900000000BD
:1004D0008D920101069350E9E7CFD9FF1200D9CFE1
:1004E000E6FFE1CFD9FF82E901010683E66A010E4A
:1004F000E66EE66A83EC13F043E98D820000530E4A
:10050000F66E290EF76E0800F5CFDCF14E0EF66E92
:10051000290EF76E0800F5500101DC11E66E0FECB4
:100520000FF041E900EBE6FF0FEC0FF041E9E66A5E
:100530000FEC0FF041E9000000008D92C69A010116
:10054000069341E9E7CFD9FF120001010683E66A6D
:10055000010EE66EE66A83EC13F043E98D82500EDD
:10056000F66E290EF76E0800F5CFDCF14E0EF66E32
:10057000290EF76E0800F5500101DC11E66E0FEC54
:100580000FF041E9260EE66E0FEC0FF041E9020E86
:10059000E66E0FEC0FF041E9E66A0FEC0FF041E96F
:1005A000E66A0FEC0FF041E9E66A0FEC0FF041E963
:1005B000000000002FDD530EF66E290EF76E0800C6
:1005C000F5CFDCF14E0EF66E290EF76E0800F550F1
:1005D0000101DC11E66E0FEC0FF041E9070EE66E4B
:1005E0000FEC0FF041E9E66A0FEC0FF041E9000073
:1005F000000010DD500EF66E290EF76E0800F5CFE4
:10060000DCF14E0EF66E290EF76E0800F550010172
:10061000DC11E66E0FEC0FF041E9270EE66E0FECF1
:100620000FF041E98D92C69A010106931200D9CFCD
:10063000E6FFE1CFD9FF81E942E801010683026AC2
:10064000210E025C09E20250EA6A290FE96E010EEE
:10065000EA22EF68022AF4D7E66A010EE66EE66A3D
:1006600083EC13F043E98D824F0EF66E290EF76E80
:100670000800F550E66E0FEC0FF041E9026A050E36
:10068000025C10E2F3EC0EF0E66E0250EA6A290F0B
:10069000E96E010EEA22E552E750EF6E000000001D
:1006A000022AEDD7B7DC4F0EF66E290EF76E080062
:1006B000F5500809E66E0FEC0FF041E9080E026EE6
:1006C0000F0E025C10E2F3EC0EF0E66E0250EA6AE6
:1006D000290FE96E010EEA22E552E750EF6E0000A5
:1006E0000000022AEDD796DC4F0EF66E290EF76E4B
:1006F0000800F5501009E66E0FEC0FF041E9100EFE
:10070000026E170E025C10E2F3EC0EF0E66E025081
:10071000EA6A290FE96E010EEA22E552E750EF6E10
:1007200000000000022AEDD775DC4F0EF66E290E90
:10073000F76E0800F5501809E66E0FEC0FF041E96E
:10074000180E026E1A0E025C10E2F3EC0EF0E66E6A
:100750000250EA6A290FE96E010EEA22E552E750DB
:10076000EF6E00000000022AEDD754DC4F0EF66E4B
:10077000290EF76E0800F5502009E66E0FEC0FF019
:1007800041E9F3EC0EF00101496F8D92C69A000029
:10079000000000000101069343E9E7CFD9FF1200F2
:1007A000D9CFE6FFE1CFD9FF81E952E80101068305
:1007B000036A0C6A8C80E66A010EE66EE66A83ECD8
:1007C00013F043E98D82500EF66E290EF76E080085
:1007D000F5CFDCF14F0EF66E290EF76E0800F550DE
:1007E0000101DC110209E66E0FEC0FF041E9F3ECB8
:1007F0000EF0016EF3EC0EF0026E0CDC500EF66E95
:10080000290EF76E0800F5CFDCF14E0EF66E290EBC
:10081000F76E0800F5500101DC110209E66E0FECDD
:100820000FF041E9E66A0FEC0FF041E9E66A0FECE0
:100830000FF041E90AEC00F0510EF66E290EF76E4A
:100840000800F5CFDCF14F0EF66E290EF76E0800AA
:10085000F5500101DC11E66E0FEC0FF041E9F3EC0D
:100860000EF0046EF3EC0EF0056EF3EC0EF0066E77
:10087000F3EC0EF0076EF3EC0EF0086EF3EC0EF0F6
:100880000A6EF3EC0EF00B6E01B41AD00AEC00F015
:10089000540EF66E290EF76E0800F5CFDCF14F0E00
:1008A000F66E290EF76E0800F5500101DC11E66EB8
:1008B0000FEC0FF041E9F3EC0EF00C6E3C0E0C5E09
:1008C000180E011403E1200E021402E0010E036E63
:1008D0008D920101010ECF6F0804010104E0CF47A2
:1008E000CF91E806FCE10101C96BCA6BCB6B06EB4B
:1008F000C9F10101CA6BCB6BCAC1CBF1C9C1CAF145
:10090000C9C1CAF10101C96B05EBDCF10101DD6B65
:10091000DE6B0101DC510101C9130101DD5101014F
:10092000CA130101DE510101CB13CAC1CBF1C9C108
:10093000CAF1C9C1CAF10101C96B04EBDCF10101C3
:10094000DD6BDE6B0101DC510101C9130101DD51D9
:100950000101CA130101DE510101CB130101CC6B6E
:10096000CD6BCE6B0BEBCCF10101CD6BCE6BCDC162
:10097000CEF1CCC1CDF1CCC1CDF10101CC6B0AEBF4
:10098000DCF10101DD6BDE6B0101DC510101CC13F7
:100990000101DD510101CD130101DE510101CE1331
:1009A000CDC1CEF1CCC1CDF1CCC1CDF10101CC6B2B
:1009B00007EBDCF10101DD6BDE6B0101DC510101B4
:1009C000CC130101DD510101CD130101DE51010103
:1009D000CE138C90C69A010E0101FC15E66EE66AF4
:1009E0000CEBDCF10101DD6BDCBFDD69DCC1E6FF96
:1009F000DDC1E6FF0101CF51E66EE66A0450E66E06
:100A0000E66A0550E66EE66A0650E66EE66A07504C
:100A1000E66EE66A0A50E66EE66A0B50E66EE66A35
:100A20008D0EE66E240EE66EE66A290EE66E010E67
:100A3000E66EAEEC12F057E9010EE66E290EE66E98
:100A4000010EE66E33EC0BF043E90101FC2B0000D4
:100A5000000001010693035000D053E9E7CFD9FF0E
:100A60001200D9CFE6FFE1CFD9FF81E953E8016A4F
:100A7000010E026E020E036E040E046E080E056E69
:100A8000100E066E200E076E400E086E01010683E2
:100A90000B6A136AE66A030EE66EE66A83EC13F0ED
:100AA00043E98D82500EF66E290EF76E0800F5CFE1
:100AB000DCF14F0EF66E290EF76E0800F5500101BD
:100AC000DC110209E66E0FEC0FF041E9F3EC0EF0D9
:100AD000096EF3EC0EF00A6E0AEC00F0500EF66EA2
:100AE000290EF76E0800F5CFDCF14E0EF66E290EDA
:100AF000F76E0800F5500101DC110209E66E0FECFB
:100B00000FF041E9E66A0FEC0FF041E9E66A0FECFD
:100B10000FF041E90AEC00F0180E091403E1200E71
:100B20000A1403E0010E0B6E44D0510EF66E290E2E
:100B3000F76E0800F5CFDCF14F0EF66E290EF76E5A
:100B40000800F5500101DC11E66E0FEC0FF041E9F1
:100B5000F3EC0EF00C6EF3EC0EF00D6EF3EC0EF009
:100B60000E6EF3EC0EF00F6EF3EC0EF0106EF3EC75
:100B70000EF0116EF3EC0EF0126E09B41AD00AECFE
:100B800000F0540EF66E290EF76E0800F5CFDCF17A
:100B90004F0EF66E290EF76E0800F5500101DC11BC
:100BA000E66E0FEC0FF041E9F3EC0EF0136E3C0E25
:100BB000135E8D92C69A0101D950010FDC6FDACF16
:100BC000DDF110500101EA6ADC25E96EDD51EA220F
:100BD000EFCFCFF10101C96BCA6BCB6B0EEBC9F143
:100BE0000101CA6BCB6BCAC1CBF1C9C1CAF1C9C182
:100BF000CAF10101C96B0DEBDCF10101DD6BDE6BAC
:100C00000101DC510101C9130101DD510101CA13C8
:100C10000101DE510101CB13CAC1CBF1C9C1CAF137
:100C2000C9C1CAF10101C96B0CEBDCF10101DD6B3B
:100C3000DE6B0101DC510101C9130101DD5101012C
:100C4000CA130101DE510101CB130101CC6BCD6B45
:100C5000CE6B12EBCCF10101CD6BCE6BCDC1CEF1E1
:100C6000CCC1CDF1CCC1CDF10101CC6B11EBDCF1EC
:100C70000101DD6BDE6B0101DC510101CC130101CF
:100C8000DD510101CD130101DE510101CE13CDC1B2
:100C9000CEF1CCC1CDF1CCC1CDF10101CC6B0FEBCC
:100CA000DCF10101DD6BDE6B0101DC510101CC13D4
:100CB0000101DD510101CD130101DE510101CE130E
:100CC0008C9013EBDCF10101DD6BDCBFDD69DCC175
:100CD000E6FFDDC1E6FF0101CF51E66EE66A0C508A
:100CE000E66EE66A0D50E66EE66A0E50E66EE66A5D
:100CF0000F50E66EE66A1150E66EE66A1250E66E36
:100D0000E66A580EE66E240EE66EE66A290EE66E78
:100D1000010EE66EAEEC12F055E9010EE66E290EFC
:100D2000E66E010EE66E33EC0BF043E90101FD2B9C
:100D300000000000010106930B5000D054E9E7CFFA
:100D4000D9FF1200D9CFE6FFE1CFD9FF81E941E811
:100D500001010683E66A030EE66EE66A83EC13F091
:100D600043E98D82500EF66E290EF76E0800F5CF1E
:100D7000DCF14F0EF66E290EF76E0800F5500101FA
:100D8000DC110309E66E0FEC0FF041E9F3EC0EF015
:100D9000016EC69A000000000101069342E9E7CF08
:100DA000D9FF1200D9CFE6FFE1CFD9FF81E943E8AF
:100DB00001010683E66A030EE66EE66A83EC13F031
:100DC00043E98D82500EF66E290EF76E0800F5CFBE
:100DD000DCF14F0EF66E290EF76E0800F55001019A
:100DE000DC110209E66E0FEC0FF041E9F3EC0EF0B6
:100DF000026EF3EC0EF0036E000000000AEC00F04F
:100E0000500EF66E290EF76E0800F5CFDCF14E0E8F
:100E1000F66E290EF76E0800F5500101DC1102098B
:100E2000E66E0FEC0FF041E9E66A0FEC0FF041E9D6
:100E3000E66A0FEC0FF041E9000000008D92C69ABF
:100E4000000000000101069344E9E7CFD9FF12003A
:100E500090DB86E90150010600090CE002EBE6FF99
:100E600003EBE6FF00EBE6FF69DBF4E1DD1DF2E1F9
:100E7000010E01D0000E41E9E5CFDAFFE7CFD9FF3F
:100E8000120077DB89E97BE80A6A0B6A02EBF6FF5E
:100E900003EBF7FF04EBF8FF0800F550096E09506B
:100EA00001E12DD3250E095C01E01BD30C6A0D6A0C
:100EB0000E6A0F6A106A2DDB2D0E095C0CE02B0EFA
:100EC000095C09E0200E095C06E0230E095C03E0E2
:100ED000300E095C15E10950300A10E0130A0CE0ED
:100EE000030A08E00B0A04E0060AE5E10C80E3D7F8
:100EF0000C82E1D70C84DFD70C86DDD70C88DBD7DA
:100F00002A0E095C13E1A5DB0DE30C801CEBDCF180
:100F10001DEBDDF10101DC6DDD1F000EDD23DC5179
:100F20000D6E02D09CEB0DF0F4DA07D0126A3FDBB5
:100F300002E06BDBFCD792EB0DF00CB00C982E0EA0
:100F4000095C15E1E6DA2A0E095C08E182DB04E2BD
:100F50009CEB0EF0010E0F6EDCDA09D0126A27DB73
:100F600002E053DBFCD792EB0EF0010E0F6E680E21
:100F7000095C07E1CEDA680E095C1DE1030E106E14
:100F800019D0740E095C16E07A0E095C13E0480E65
:100F9000095C06E0540E095C03E05A0E095C02E1AC
:100FA000020E07D06C0E095C03E06A0E095C03E1D7
:100FB000010E106EAEDA09506E0A01E16ED21E0A01
:100FC00001E128D1200A01E125D13F0A01E1FDD04C
:100FD0001A0A01E1FAD00D0A01E1F7D0200A01E175
:100FE000F4D03A0A01E1F1D0200A01E1EED0260A5C
:100FF00001E1EAD00D0A01E1E7D01A0A01E19ED031
:10100000200A3BE0300A1AE0460A0EE0250A01E019
:1010100072D2D950020FE96E000EDA20EA6E010E8C
:10102000EE5E000EEE5AEE5A0FDB250EE66E86DA05
:1010300003E1DD1D01E159D20A2A5BD2116A0D508C
:10104000010803E20D04116EF5DA115007E0010EFC
:101050000C1404E16DDA01E048D2116AD3DAEF50E2
:10106000096ECBDA03E1DD1D01E13FD20A2A000E51
:101070000B225EDA01E13FD238D2020E105C08E1A9
:10108000030E4EDAEE50176EEE50186EEF5007D08A
:10109000E7DADE6BDC51176EDD51186EDE51196E2A
:1010A00017EBE6FF18EBE6FF19EBE6FF2BEC13F06E
:1010B00043E9F8C1DCF1F9C1DDF1FAC1DEF101016A
:1010C000DC511C6EDD511D6E0F5006E01C500E5C95
:1010D00003E20E501C6E1D6A1C500D5C02E29CEB7C
:1010E0000DF050DA05E00D500E5C02E28EEB0DF0D3
:1010F0000CB004D01DDA01E0F8D1116A126A17EBC6
:10110000F6FF18EBF7FF19EBF8FF0800F550096E32
:10111000095010E00D50125C0DE26FDA03E1DD1DA5
:1011200001E1E3D10A2A000E0B22122AD950170F2F
:1011300055DAEBD7FDD901E1DED1D7D163DAEE5034
:101140001A6EED501B6E1AEBE6FF1BEBE6FF1DEC73
:1011500013F042E9F3501C6EF4501D6E0F5006E080
:101160001C500E5C03E20E501C6E1D6A1C500D5C80
:1011700002E29CEB0DF006DA05E00D500E5C02E297
:101180008EEB0DF00CB004D0D3D901E0AED1116AD2
:10119000126A1AEBE9FF1BEBEAFFEF50096E0950E8
:1011A0000FE00D50125C0CE228DA03E1DD1D01E1D5
:1011B0009CD10A2A000E0B22122A1A2A1B22E9D7D6
:1011C000B7D901E198D191D10C8E10040AE1040E37
:1011D000A7D9EE50136EEE50146EEE50156EEF5010
:1011E00032D0030E105C16E10CAE0CD00BDAEFCF50
:1011F000DCF10101DD6BDE6BDF6BDCAF23D0DD6981
:10120000DE691FD0FFD9EFCFDCF10101DC51136E95
:10121000146A20D0020E105C0CE10CAE06D0030E56
:101220007FD9B6D9DEAF0ED00CD0030E79D9B0D9A4
:1012300009D00CAE0AD014DADE6BDF6BDDAF02D062
:10124000DE69DF69BCD9166E07D00ADADC51136E8D
:10125000DD51146E156A166A0F5002E1010E0E6E12
:101260001E6A1F6AD950400FE66E000EDA20E66E45
:10127000E552E550436EE750426E416A116A0A0E2C
:10128000106E0950780A12E0200A10E0280A0CE0DB
:10129000200A0AE03F0A06E00D0A02E0200A08E1FF
:1012A000020E05D0080E03D0080E0926100E106E8F
:1012B0000CBE02D00C920C94800E0C1417E0163465
:1012C00015E3E668E668E668E66842D9D3EC10F014
:1012D000E552E5CFDFF1E5CFDEF1E5CFDDF1E7CF98
:1012E000DCF101016CD9166E2D0E07D00CA202D0D4
:1012F0002B0E03D00CA404D0200E206E1E2A01D089
:10130000206A0E5005E1135014101510161061E0FC
:1013100001013A0EDC6F290EDD6F000EDE6F83D9FE
:1013200090EC10F0E552E5CFE2F1E5CFE1F1E5CF49
:10133000E0F1E7CFDFF10101DC51DF25F36EDD5194
:10134000E021F46EDE51E121F86EF4CFF7FFF3CF28
:10135000F6FF0800F550126E580E095C05E1610EAB
:10136000125C02E3200E125E5ED98DEC10F0E552A5
:10137000E550166EE550156EE550146EE750136E8D
:1013800042EBE9FF43EBEAFF4206000E435A12EB41
:10139000EFFF1E2A1350141015101610B9E10CA6F9
:1013A00019D06F0E095C06E10E501E5C13E31E2877
:1013B0000E6E10D0780E095C09E0580E095C06E04C
:1013C000620E095C03E0420E095C04E1020E1F6E2E
:1013D00001D01E6A100E0C1407E00D500E5C04E2E2
:1013E0000F5002E18DEB0EF00E501E5C03E21E501A
:1013F0000E5E01D00E6A0E501E241F24D8800D549C
:1014000007E20E500D5CD8801E54D8801F54116E18
:10141000010E0C1406E1115004E08AD866E10AD9E5
:10142000116A205007E010D920EBE6FF87D802E1CF
:10143000DD1D5BE01F500BE007D9300EE66E7ED855
:1014400002E1DD1D52E0D9D802E1DD1D4EE00E5073
:101450001F5C02E21F500E5E300EE66E0EEBE6FFE2
:10146000DCD843E1422A000E432242EBE9FF43EB82
:10147000EAFFEF50126E125008E0E6D812EBE6FFDA
:101480005DD8F0E1DD1DEEE130D052D82EE10E50F6
:101490001E2411241F240A262CD01050030A1CE0FD
:1014A000010A14E0030A07E0ADD8C9D80AEBEEFF41
:1014B0000BEBEDFF20D08BD8DF6BDDAF02D0DE6908
:1014C000DF69A0D84ED8DFC1EEFF15D080D8DDBFD0
:1014D000DE6998D846D80FD095D8B1D80AEBEFFF7F
:1014E0000AD08BD805E1DD1D03E1F368F4680BD069
:1014F0000A2A000E0B22D950020F70D8CDD40AEB65
:10150000F3FF0BEBF4FF7CE9E5CFDAFFE7CFD9FF80
:101510001200D950020F62D80800F550096E12006F
:10152000005E000E015A00EBE9FF01EBEAFF12003A
:10153000200EE66E11EBE6FF0DEF0BF050EC13F012
:1015400043E9F3CFDCF1F4CFDDF10101F31C12002C
:1015500013EBE6FF14EBE6FF15EBE6FF16EBE6FFF9
:1015600012006DD8DCC1EEFFDDC1EEFFDEC1EEFF83
:101570001200D9CFE6FFDACFE6FFE1CFD9FFE2CF05
:10158000DAFF12001C500D5C116E54D80F5012007F
:10159000EECFDCF1EECFDDF1EFCFDEF10101DF6B5D
:1015A0001200EECFDCF1EFCFDDF1010112000950A6
:1015B000E66EE66A50EC14F042E9F3501200DC519A
:1015C000136EDD51146EDE51156EDF5112000AEB01
:1015D000DCF10BEBDDF10101DE6B1200E96E000EB8
:1015E000DA20EA6EEF2AEECFF6FF000EEF22EECF02
:1015F000F7FFEF22EECFF8FF120026D809EBE6FF47
:101600009EEF0AF0020E90EF0AF00A0E1202F3505B
:101610000924D00F126E89EF0AF016D828EC07F0D3
:1016200044E90009120010EBE6FFE66AE66AE66AA2
:10163000A8EF0AF011500A26000E0B221200EE50FD
:10164000EFCFEAFFE96E120005EBE6FF06EBE6FFDF
:101650001200D8DFEE501C6EED501D6E1D341200CE
:06166000D1DFD1EF0AF01A
:0A166600D9CFE6FFE1CFD9FF84E9F8
:1016700042E8046A056A00041FE101500424E96E8F
:1016800002500520EA6EEF5016E001500424E96E86
:1016900002500520EA6EEFCFE6FF39EC14F041E985
:1016A000ACA2FED7050EE66E62EC14F041E9042A06
:1016B000000E0522E2D71ED001500424E96E02502C
:1016C0000520EA6EEF5016E001500424E96E025046
:1016D0000520EA6EEFCFE6FF22EC14F041E972A29A
:1016E000FED7050EE66E62EC14F041E9042A000E06
:1016F0000522E2D743E9E7CFD9FF1200D9CFE6FFB1
:10170000E1CFD9FF81E964E801010591CFEC0DF04B
:101710008D92640EE66EE66A2CEC0FF042E9F29EC2
:10172000948E949C2A0EE66EE66A7C0EE66EE7ECDA
:1017300012F043E9B886AFEC11F0246E000024509B
:10174000E66EE66A1F0EE66E240EE66EE66A290E67
:10175000E66E010EE66EAEEC12F047E9010EE66EA3
:10176000290EE66E010EE66E7EDF43E90101059764
:101770000000E66A030EE66E010EE66E83EC13F0DF
:1017800043E98D90A80EE66E0FEC0FF041E9F3EC03
:101790000EF00F6EF3EC0EF0106EF3EC0EF0116E17
:1017A000F3EC0EF0126EF3EC0EF0136EF3EC0EF0A1
:1017B000146E8D80C69A1050186E196A98EB19F045
:1017C000186A0F50181212501A6E1B6A9AEB1BF00F
:1017D0001A6A11501A1214501C6E1D6A9CEB1DF0EF
:1017E0001C6A13501C121CEBE6FF1DEBE6FF1AEB04
:1017F000E6FF1BEBE6FF18EBE6FF19EBE6FFF50E45
:10180000E66E230EE66EE66A290EE66E010EE66EC1
:10181000AEEC12F04BE9010EE66E290EE66E010EFB
:10182000E66E21DF43E919340DE3E668E66818EB5C
:10183000E6FF19EBE6FF4DEC10F0E552E550196EAE
:10184000E750186E1B340DE3E668E6681AEBE6FF16
:101850001BEBE6FF4DEC10F0E552E5501B6EE75038
:101860001A6E1D340DE3E668E6681CEBE6FF1DEB1F
:10187000E6FF4DEC10F0E552E5501D6EE7501C6E92
:10188000640EE66EE66A18EBE6FF19EBE6FFA7ECDE
:101890000FF0E552E5501F6EE7501E6E640EE66EC7
:1018A000E66A1AEBE6FF1BEBE6FFA7EC0FF0E5524A
:1018B000E550216EE750206E640EE66EE66A1CEB82
:1018C000E6FF1DEBE6FFA7EC0FF0E552E550236EB7
:1018D000E750226E193404E218500008000E195423
:1018E00020E2086A0850F36E1F3404E21E50F35CD5
:1018F000000E1F5416E2F30EE66E230EE66EE66A45
:10190000290EE66E010EE66EAEEC12F045E9010E10
:10191000E66E290EE66E010EE66EA5DE43E9082AA4
:10192000E1D7F00EE66E230EE66EE66A290EE66E4D
:10193000010EE66EAEEC12F045E9010EE66E290EE0
:10194000E66E010EE66E8FDE43E91B3404E21A50A8
:101950000008000E1B5420E2086A0850F36E213480
:1019600004E22050F35C000E215416E2EE0EE66E07
:10197000230EE66EE66A290EE66E010EE66EAEEC0A
:1019800012F045E9010EE66E290EE66E010EE66ED6
:101990006ADE43E9082AE1D7F00EE66E230EE66E12
:1019A000E66A290EE66E010EE66EAEEC12F045E92F
:1019B000010EE66E290EE66E010EE66E54DE43E978
:1019C0001D3404E21C500008000E1D5420E2086A79
:1019D0000850F36E233404E22250F35C000E2354CB
:1019E00016E2EC0EE66E230EE66EE66A290EE66E51
:1019F000010EE66EAEEC12F045E9010EE66E290E20
:101A0000E66E010EE66E2FDE43E9082AE1D7E80E06
:101A1000E66E030EE66E2CEC0FF042E9AAD68C803F
:101A2000E80EE66E030EE66E2CEC0FF042E98C92A7
:101A3000E80EE66E030EE66E2CEC0FF042E917ECB2
:101A400003F031EC05F0036E035003E0000010ECEE
:101A500000F00000080E0C6E0CEBE6FF6FEC02F0DD
:101A600041E90101300ED06F300ED16F130ED26FED
:101A70000101080ED36F030ED46F180ED56F00004E
:101A8000000000EC01F031EC05F0036EE80EE66EAC
:101A9000030EE66E2CEC0FF042E931EC05F0036E1C
:101AA00001010591016A020E0C6E010105A169D0C8
:101AB0008C8001010591012A050EE66E01EBE6FF1F
:101AC000F2EC0FF041E9E75000090DE1016A0CEB7F
:101AD000E6FF6FEC02F041E9020E0C260C500C08F8
:101AE00002E2020E0C6E2AEC11F0F8C1DCF1F9C131
:101AF000DDF1FAC1DEF1FBC1DFF10101DC51246E41
:101B0000A4EB0BF0A4EB0AF0A4EB09F001010551E2
:101B1000100B01E0010EE66EE66A09EBDCF1010153
:101B2000DD6BDCBFDD69DCC1E6FFDDC1E6FF0AEB92
:101B3000DEF10101DF6BDEBFDF69DEC1E6FFDFC181
:101B4000E6FF0BEBE0F10101E16BE0BFE169E0C111
:101B5000E6FFE1C1E6FFD80EE66E230EE66EE66A0A
:101B6000290EE66E010EE66EAEEC12F04DE9010EA6
:101B7000E66E290EE66E010EE66E75DD43E90101A3
:101B8000057900000000E80EE66E030EE66E2CEC10
:0E1B90000FF042E98C8865E9E7CFD9FF12001B
:021B9E000F0135
:101BA000386B396B3A6B3B6B8B908B929490949221
:101BB000806AE30E926E180E896E816A1B0E936E18
:101BC000030E8D6E966A8C6A956AFE0EE66EF0ECD8
:101BD00013F041E9BC6ABB689E92000EE66EE66AAD
:101BE0000AEC14F042E90101006B0101016B0101F3
:101BF000026B0101036BD1EC13F0B2EC13F0F19E18
:101C0000010105930101026B0101006B0101096BE8
:101C1000010105950101036B0101016B0101A96B34
:101C20001200D9CFE6FFE1CFD9FF87E95AE8076A6A
:101C3000086A030E096E0A6A020E0B6E0C6A050E24
:101C40000D6E0E6A0F6A106A030E116E126A050E8F
:101C5000136E146A010E156E166A040E176E186A5A
:101C6000060E196E1A6A020E1B6E1C6A040E1D6E99
:101C70001E6A030ED89003BE03D0025C000E035808
:101C800002E3000E01D0010E045E000E055A070E9D
:101C9000E66EE66A040EE66EE66A04EBE6FF05EB26
:101CA000E6FFA7EC0FF00101FE0EE3500424E46F01
:101CB00041E9E5500520E56F640EE66EE66A04EB47
:101CC000E6FF05EBE6FFA7EC0FF0E552E5CFE7F105
:101CD000E7CFE6F10101E6510101E45D0101E26FA8
:101CE0000101E7510101E5590101E36F900EE66E34
:101CF000010EE66E04EBE6FF05EBE6FFA7EC0FF046
:101D0000E552E5CFE9F1E7CFE8F101010101E25148
:101D10000101E8250101E06F01010101E351010129
:101D2000E9210101E16F0101D950070FEA6FDACF14
:101D3000EBF101010204EC6F000E0358ED6F01019D
:101D4000D890EC37ED3701010101EA510101EC2592
:101D5000E96E01010101EB510101ED21EA6E010182
:101D60000101E051EE240101DE6F01010101E151A9
:101D7000EE200101DF6F00500101DE250101DC6F63
:101D800001500101DF210101DD6FDCC1E6FFDDC192
:101D9000E6FF20EC10F0E552E550206EE7501F6E94
:101DA00000001FEBF3FF20EBF4FF00D05BE9E7CF6F
:101DB000D9FF1200D9CFE6FFE1CFD9FF82E941E890
:101DC000F00E0014026E02380F0B026E0A0E0202B1
:101DD000F350026E0F0E00140226025000D042E9AA
:101DE000E7CFD9FF1200C96AD66AC750010B04E1D8
:101DF000140ED65C01E2F9D7C95000D01200D9CF39
:101E0000E6FFE1CFD9FF82E9C69E00EBC9FFC7A07C
:101E1000FED7C95000D041E9E7CFD9FF1200D9CF92
:101E2000E6FFE1CFD9FF82E941E800EBC9FFC6AE8A
:101E300003D0FF0E0DD008D0D66AC750010B04E1C5
:101E4000140ED65C01E2F9D7C950026E025000D0E0
:101E500042E9E7CFD9FF1200D9CFE6FFE1CFD9FFA2
:101E600083E944E8036A046A0050035C01500458A3
:101E70000FE2056A066A630E055C000E065804E26E
:101E8000052A000E0622F7D7032A000E0422ECD7FB
:101E900045E9E7CFD9FF12008C80F40EE66E010E03
:101EA000E66EDADF42E98C82F40EE66E010EE66E33
:101EB000D3DF42E98C84F40EE66E010EE66ECCDFD1
:101EC00042E98C86F40EE66E010EE66EC5DF42E94D
:101ED0008C88F40EE66E010EE66EBEDF42E98C8A57
:101EE000F40EE66E010EE66EB7DF42E98C90F40E5A
:101EF000E66E010EE66EB0DF42E98C92F40EE66EFD
:101F0000010EE66EA9DF42E98C94F40EE66E010E36
:101F1000E66EA2DF42E98C96F40EE66E010EE66EE6
:101F20009BDF42E98C98F40EE66E010EE66E94DFBC
:061F300042E98C9A120048
:0A1F360043E8D9CFE6FFDACFE6FF5B
:101F4000E1CFD9FFE2CFDAFF89E9066A1200F3DFB9
:101F5000068001D0F0DF01AEB4EF0FF0006C011E7F
:101F6000E86A012206B0067E03AEBCEF0FF0026CF9
:101F7000031EE86A0322067E22EC10F003BEDEEFA9
:101F80000FF006AE08D0026C031EE86A0322046C50
:101F9000051EE86A052206B006D084EB00F085EB4A
:101FA00001F006A004D082EB00F083EB01F0E552D3
:101FB000E5CFDAFFE7CFD9FF45E9000C06BEC3EF56
:101FC0000FF0E9DFFF0C42E8D9CFE6FFDACFE6FFFA
:101FD000E1CFD9FFE2CFDAFF86E9036A1200F3DF2F
:101FE000038003D0F0DF01D00382026A080EE76E9F
:101FF000D890013602360050025C02E3026E012ADC
:10200000E72EF7D703B2120003B081EB00F003A074
:1020100082EB00F0E552E5CFDAFFE7CFD9FF43E9E5
:10202000120043E8D9CFE6FFDACFE6FFE1CFD9FFD0
:10203000E2CFDAFF89E9066A1200F3DF068003D0F7
:10204000F0DF01D00682056A046A100EE76ED890B0
:1020500002360336043605360050045C015005583C
:1020600005E30050045E0150055A022AE72EF0D71E
:1020700006B2120006B006D084EB00F085EB01F04A
:1020800006A004D082EB00F083EB01F0E552E5CF2F
:10209000DAFFE7CFD9FF45E9120044E8D9CFE6FFE0
:1020A000DACFE6FFE1CFD9FFE2CFDAFF8AE980EBB2
:1020B00004F081EB05F082EB06F002500402F450CC
:1020C000016EF350006E0350076E0502F450036E6C
:1020D000F350026E07500402F3500126F45002221E
:1020E000E86A032206500502F3500126F45002224A
:1020F000E86A0322E552E5CFDAFFE7CFD9FF46E9E8
:10210000000C45E8D9CFE6FFDACFE6FFE1CFD9FFF3
:10211000E2CFDAFF8FE90C6A1200F3DF0C8003D004
:10212000F0DF01D00C820B6A0A6A096A086A200E85
:10213000E76ED89004360536063607360836093677
:102140000A360B360050085C0150095802500A58F4
:1021500003500B5809E30050085E0150095A025021
:102160000A5A03500B5A042AE72EE4D70CB2120085
:102170000CB00AD088EB00F089EB01F08AEB02F09A
:102180008BEB03F00CA008D084EB00F085EB01F0A2
:1021900086EB02F087EB03F0E552E5CFDAFFE7CFFD
:1021A000D9FF49E9120044E8D9CFE6FFDACFE6FFCC
:1021B000E1CFD9FFE2CFDAFF8EE980EB08F081EBC7
:1021C00009F082EB0AF083EB0BF004500802F350A5
:1021D000006EF450016E04500902F3500126000E07
:1021E000F420026E04500A02F3500226000EF4207E
:1021F000036E04500B02F350032605500802F350FF
:102200000126F4500222000E032205500902F35069
:102210000226F450032205500A02F350032606500A
:102220000802F3500226F450032206500902F3502C
:10223000032607500802F3500326E552E5CFDAFFE4
:08224000E7CFD9FF48E9000CCB
:082248008D8000000000000081
:102250008D901200D9CFE6FFE1CFD9FF81E947E8A1
:1022600001010683E66A030EE66E010EE66E83EC5C
:1022700013F043E98D900000000000008F0EE66E21
:102280000FEC0FF041E9F3EC0EF0016EF3EC0EF001
:10229000026EF3EC0EF0036E8D80C69A03EBDCF158
:1022A0000101DC51046E056A066A076AD950040F01
:1022B000E96EDACFEAFFEF50EE6AEFCFF4FFEE6E91
:1022C000EF50F4CFEEFFEF6E02EBDCF10101DD6BBE
:1022D000DE6BDF6BD950040FE96EDACFEAFF010144
:1022E000DC51EE120101DD51EE120101DE51EE1260
:1022F0000101DF51EE12D950040FE96EDACFEAFF87
:10230000EF50EE6AEFCFF4FFEE6EEF50F4CFEEFF3A
:10231000EF6E01EBDCF10101DD6BDE6BDF6BD950A1
:10232000040FE96EDACFEAFF0101DC51EE12010180
:10233000DD51EE120101DE51EE120101DF51EE120C
:102340000101069304EBF8F105EBF9F106EBFAF164
:1023500007EBFBF100D048E9E7CFD9FF1200D9CF56
:10236000E6FFE1CFD9FF81E941E8010106838B82D5
:10237000010EE66EE66A2CEC0FF042E98B80E80E67
:10238000E66E030EE66E2CEC0FF042E9E66A030EF1
:10239000E66EE66A83EC13F043E98D90200EE66E5C
:1023A0000FEC0FF041E9980EE66E0FEC0FF041E9EB
:1023B0004BDF8F0EE66E0FEC0FF041E9F3EC0EF001
:1023C000016E8D80C69A000001010693015000D075
:0823D00042E9E7CFD9FF12003A
:0823D80020253364092533645C
:1023E000092533640925640D0A0D0A005A005900B5
:1023F0000D0A0058000C0D0A205820092025303401
:1024000064200D0A205920092025303464200A0D4B
:10241000205A20092025303464200D0A0D0A000CB2
:102420000D0A204C534D3944533120496E6974696B
:102430006572696E673A0D0A0D0A2057484F2041B0
:102440004D20493F200930782530325820283078F7
:102450003638290D0A0D0A000C0D0A202530325895
:102460002D253032582D2530325820202530325835
:102470003A253032583A25303258203078253032DB
:10248000582020252B6427430D0A0D0A000925300A
:1024900032582D253032582D2530325820253032F3
:1024A000583A253032583A25303258203078253085
:0E24B00032582020252B64274309256409009B
:0224BE00060E08
:1024C000F66E000EF76E000EF86E01010900F55071
:1024D000F36F0900F550F46F03E1F36701D03DD0CD
:1024E0000900F550EE6F0900F550EF6F0900F55047
:1024F000F06F09000900F550E96E0900F550EA6E29
:10250000090009000900F550F16F0900F550F26F5C
:1025100009000900F6CFF5F1F7CFF6F1F8CFF7F1A2
:10252000EEC1F6FFEFC1F7FFF0C1F8FF0101F15373
:1025300002E1F25307E00900F550EE6EF107F8E210
:10254000F207F9D7F5C1F6FFF6C1F7FFF7C1F8FFBB
:0C2550000101F307000EF45BBFD712007E
:04255C00D9CFE6FFEE
:10256000DACFE6FFE1CFD9FFE2CFDAFF87E944E82F
:10257000D9CFE6FFDACFE6FFE552E5500A6EE75025
:10258000096E09EBE6FF0AEBE6FF00EBE6FF01EB65
:10259000E6FF02EBE6FFD950030FE66E000EDA20ED
:1025A000E66E41EC07F047E9F350076EF450086E11
:1025B00003EBE9FF04EBEAFFEF6A07EBF3FF08EB3D
:0E25C000F4FF45E9E5CFDAFFE7CFD9FF1200BF
:0225CE00D9CF63
:1025D000E6FFDACFE6FFE1CFD9FFE2CFDAFF85E908
:1025E000AC6AAB6A02B0AC8802A202D0AC8CAB8CF5
:1025F00002B4AC8E02A602D0AB8801D0AB8A02B87E
:10260000AC8402BAAB8602AC02D09D8A01D09D9AFE
:1026100002AE02D09D8801D09D9800EBAFFF010172
:1026200001EBDCF1DD6BDCC1B0FFAC8AAB8E41E9C4
:0A263000E5CFDAFFE7CFD9FF120073
:06263A00FE0EE3CFE9FFF4
:10264000FF0EE3CFEAFFF36AF46AEE5203E0F34AC7
:10265000F42AFBD71200FF0EE3CFF8FFE552FF0E7E
:10266000E3CFF7FFE552FF0EE3CFF6FFE552E66A50
:10267000E66AE66A0900F55209E0FD0EE32A05E183
:10268000FE0EE32A02E1FF0EE32AF4D7FD0EE3CFAC
:10269000F8F1FE0EE3CFF9F1FF0EE3CFFAF11200ED
:1026A000D9CFE6FFDACFE6FFE1CFD9FFE2CFDAFFFD
:1026B00085E9013415E200EBE9FF01EBEAFFEECF1B
:1026C000F3FFEDCFF4FFEE2A000EEF22F3CFE9FF88
:1026D000F4CFEAFF02EBEFFFEF50F36EF46A0DD098
:1026E000FE0E005C05E102EBE6FF82EC14F004D084
:1026F00002EBE6FFACEC14F041E941E9E5CFDAFF8B
:06270000E7CFD9FF120033
:0A270600D9CFE6FFDACFE6FFE1CFFE
:10271000D9FFE2CFDAFF85E93F0EC716C66A02503D
:10272000C6120050C7120150030A09E0010A04E072
:10273000020A06E1C78C04D0C78CC68801D0C688BF
:102740000250050A03E0010A03E1928A948601D04F
:1027500094969488949AC68A41E9E5CFDAFFE7CF48
:04276000D9FF12008B
:0C276400D9CFE6FFDACFE6FFE1CFD9FFC6
:10277000E2CFDAFF82E941E8F20E0101FF1771AC06
:1027800003D0FF9171B0FF8171B4FF8571B2FF87F3
:102790007450026E025042E9E5CFDAFFE7CFD9FF6D
:0227A000120025
:0E27A200D9CFE6FFDACFE6FFE1CFD9FFE2CFD5
:1027B000DAFF82E941E8F20E00010017ABAC03D06A
:1027C0000091ABB00081ABB40085ABB20087AE50D6
:1027D000026E025042E9E5CFDAFFE7CFD9FF1200DF
:1027E000D9CFE6FFDACFE6FFE1CFD9FFE2CFDAFFBC
:1027F00083E9FB0E0014BA6EBC6A9E9200AE02D052
:102800009D8201D09D92BA8441E9E5CFDAFFE7CFFE
:04281000D9FF1200DA
:0C281400D9CFE6FFDACFE6FFE1CFD9FF15
:10282000E2CFDAFF84E942E880EB04F081EB05F0C7
:1028300005EBB3FF04EBB2FF43E9E5CFDAFFE7CFE7
:04284000D9FF1200AA
:0C284400D9CFE6FFDACFE6FFE1CFD9FFE5
:10285000E2CFDAFF83E972AC04D072900101FFB3DA
:10286000728000EB73FF41E9E5CFDAFFE7CFD9FFD4
:02287000120054
:0E287200D9CFE6FFDACFE6FFE1CFD9FFE2CF04
:10288000DAFF83E9ACAC04D0AC90000100B3AC80BB
:1028900000EBADFF41E9E5CFDAFFE7CFD9FF12004A
:1028A000F36AF46AFF0EE124E96EFF0EE220EA6E9D
:1028B000ED6607D02F0EEF6404D03A0EEF6001D022
:0428C000F32A1200E5
:0C28C400FF0EE3500101FE6F1A0E00D061
:1028D00000D001D0200EE76EE72EFED7FE2FFAD7EC
:0428E00000D0120012
:0C28E400000EF36E00EE00F0060E01D8AE
:1028F0001200EA6002D0EE6AFCD7F350E9601200E1
:04290000EE6AFCD7A8
:0C290400FF0EE350ACBA04D0AF6AAB8EFB
:10291000AC8A949CACA2FED7AD6EF36EF46A120042
:1029200015EE00F025EE00F0F86A5FEC12F0ADEC69
:0A29300014F07EEC0BF0FBD7120050
:06293A0030313233343568
:0B294000363738396162636465660059
:05294B000A0B0D0080E5
:0829500000081018202830389F
:0229580012006B
:02295A00120069
:02295C00000079
:020000040030CA
:0100010021DD
:0100030014E8
:0100060045B4
:010008000FE8
:00000001FF
