:020000040000FA
:0600000063EF1CF012008A
:020006000000F8
:080008000CD8FF0807E00A0E06
:10001000E66EE66A00EC14F042E903D8F9D83AEF4C
:1000200001F0D9CFE6FFE1CFD9FF81E944E80468C8
:100030004FD98B8E050EE66EE66A00EC14F042E9AD
:10004000E66AE66AE66A09EC1BF043E942DB026E07
:1000500002500416E66A4BD941E90F0EE66EE66AD5
:1000600000EC14F042E935DB026E02500416010E7A
:10007000036E100E035C0AE203EBE6FF38D941E998
:1000800028DB026E02500416032AF3D7110EE66E27
:10009000E3EC13F041E9200EE66EE3EC13F041E9E6
:1000A000020EE66EE3EC13F041E9500EE66EE3EC6F
:1000B00013F041E9840EE66EE3EC13F041E901012F
:1000C000050506E10D0EE66EE3EC13F041E905D0FF
:1000D0000A0EE66EE3EC13F041E9FBDA026E025021
:1000E0000416110E036E190E035C0AE203EBE6FF21
:1000F000FED841E9EEDA026E02500416032AF3D765
:100100008C98110EE66EE3EC13F041E9400EE66EBA
:10011000E3EC13F041E9080EE66EE3EC13F041E97D
:10012000E66AE3EC13F041E90101050529E1000E5F
:10013000E66EE66A20EC14F042E9E66EE3EC13F0BA
:1001400041E9010EE66EE66A20EC14F042E9E66E43
:10015000E3EC13F041E9020EE66EE66A20EC14F0DF
:1001600042E9E66EE3EC13F041E9030EE66EE66A5F
:1001700020EC14F042E9E66EE3EC13F041E928D0FC
:10018000040EE66EE66A20EC14F042E9E66EE3EC5B
:1001900013F041E9050EE66EE66A20EC14F042E940
:1001A000E66EE3EC13F041E9060EE66EE66A20EC3B
:1001B00014F042E9E66EE3EC13F041E9070EE66E57
:1001C000E66A20EC14F042E9E66EE3EC13F041E954
:1001D000170EE66EE3EC13F041E9A10EE66EE3ECD8
:1001E00013F041E9200EE66EE3EC13F041E9FA0E5C
:1001F000E66EE3EC13F041E98C886BDA026E025094
:100200000416C69A045000D045E9E7CFD9FF120082
:10021000D9CFE6FFE1CFD9FF81E942E802688B8EB2
:10022000020EE66E35EC1CF041E9E66AE66AE66A23
:1002300009EC1BF043E90101050505E11E0EE66E20
:1002400056D841E904D01F0EE66E51D841E941DA93
:10025000016E015002161C0EE66E49D841E939DAEA
:10026000016E01500216C69A025000D043E9E7CF52
:10027000D9FF1200D9CFE6FFE1CFD9FF81E942E8EB
:100280000268E66AE66AE66A09EC1BF043E9210EB9
:10029000E66E2DD841E91DDA016E01500216200EDE
:1002A000E66E25D841E915DA016E01500216B4DA7E
:1002B00010DA016E015002161B0EE66E18D841E9E5
:1002C000C69A8B9E025000D043E9E7CFD9FF1200B7
:1002D0008B84010EE66EE66A00EC14F042E98B9422
:1002E0000A0EE66EE66A00EC14F042E91200D9CF7D
:1002F000E6FFE1CFD9FF82E945E80050110DF3CFC9
:10030000F6FFF4CFF7FFE00EF6260C0EF722F6CF3D
:10031000CAF1F7CFCBF10101CC6B0101CA51046ED8
:10032000CB51056ECC51066ED950040FE96EDACF71
:10033000EAFFEFCFF6FFEE2AEFCFF7FF000EEE2237
:10034000EFCFF8FF000EEE220800F550036E8C98F8
:10035000026A0350025C1FE200000000D950040F43
:10036000E96EDACFEAFFEFCFF6FFEE2AEFCFF7FF25
:10037000000EEE22EFCFF8FF000EEE220800F5503F
:10038000C96ED66AC750010B04E1050ED65C01E2C6
:10039000F9D7022ADED78C8846E9E7CFD9FF1200C9
:1003A000D9CFE6FFE1CFD9FF82E946E80050110D31
:1003B000F3CFF6FFF4CFF7FF610EF626140EF72207
:1003C000F6CFCAF1F7CFCBF10101CC6B0101CA51D5
:1003D000056ECB51066ECC51076ED950050FE96EF4
:1003E000DACFEAFFEFCFF6FFEE2AEFCFF7FF000EEE
:1003F000EE22EFCFF8FF000EEE220800F550046E5B
:100400008C98026A0450025C1FE200000000D95080
:10041000050FE96EDACFEAFFEFCFF6FFEE2AEFCF56
:10042000F7FF000EEE22EFCFF8FF000EEE220800DD
:10043000F550C96ED66AC750010B04E1050ED65CB3
:1004400001E2F9D7022ADED78C8847E9E7CFD9FF46
:100450001200D9CFE6FFE1CFD9FF82E946E800508C
:10046000110DF3CFF6FFF4CFF7FF220EF6260F0E95
:10047000F722F6CFCAF1F7CFCBF10101CC6B010126
:10048000CA51056ECB51066ECC51076ED950050F7F
:10049000E96EDACFEAFFEFCFF6FFEE2AEFCFF7FFF4
:1004A000000EEE22EFCFF8FF000EEE220800F5500E
:1004B000046E8C98026A0450025C1FE20000000087
:1004C000D950050FE96EDACFEAFFEFCFF6FFEE2A3B
:1004D000EFCFF7FF000EEE22EFCFF8FF000EEE2277
:1004E0000800F550C96ED66AC750010B04E1050E2D
:1004F000D65C01E2F9D7022ADED78C8847E9E7CF3C
:10050000D9FF1200D9CFE6FFE1CFD9FF82E946E853
:100510000050110DF3CFF6FFF4CFF7FF420EF62691
:10052000110EF722F6CFCAF1F7CFCBF10101CC6B58
:100530000101CA51056ECB51066ECC51076ED950E0
:10054000050FE96EDACFEAFFEFCFF6FFEE2AEFCF25
:10055000F7FF000EEE22EFCFF8FF000EEE220800AC
:10056000F550046E8C98026A0450025C1FE2000091
:100570000000D950050FE96EDACFEAFFEFCFF6FFA2
:10058000EE2AEFCFF7FF000EEE22EFCFF8FF000EBE
:10059000EE220800F550C96ED66AC750010B04E17F
:1005A000050ED65C01E2F9D7022ADED78C8847E92E
:1005B000E7CFD9FF1200D9CFE6FFE1CFD9FF82E91B
:1005C00046E80050110DF3CFF6FFF4CFF7FF0C0E05
:1005D000F626140EF722F6CFCAF1F7CFCBF10101C0
:1005E000CC6B0101CA51056ECB51066ECC51076E22
:1005F000D950050FE96EDACFEAFFEFCFF6FFEE2A0A
:10060000EFCFF7FF000EEE22EFCFF8FF000EEE2245
:100610000800F550046E8C98026A0450025C1FE2D8
:1006200000000000D950050FE96EDACFEAFFEFCFE6
:10063000F6FFEE2AEFCFF7FF000EEE22EFCFF8FF26
:10064000000EEE220800F550C96ED66AC750010BA5
:1006500004E1050ED65C01E2F9D7022ADED78C88C8
:1006600047E9E7CFD9FF1200D9CFE6FFE1CFD9FFA5
:1006700084E942E88C98056A0050055C0DE205505B
:100680000124E96E000E0220EA6EEFCFE6FFE3ECF4
:1006900013F041E9052AF0D78C88055000D043E9D2
:1006A000E7CFD9FF1200D9CFE6FFE1CFD9FF81E92B
:1006B00042E88C98440EE66EE3EC13F041E9C7EC97
:1006C00013F0016E8C88015000D043E9E7CFD9FFC9
:1006D0001200D9CFE6FFE1CFD9FF81E942E8026AF3
:1006E0008C98440EE66EE3EC13F041E90000C7EC91
:1006F00013F0016E8C88FF0E015C10E0140E025C9A
:100700000DE28C98440EE66EE3EC13F041E9000034
:10071000C7EC13F0016E8C88022AEDD7FF0E015C46
:1007200008E08D80140EE66EE66A00EC14F042E9F3
:100730008D908C98015000D043E9E7CFD9FF12008B
:10074000D9CFE6FFE1CFD9FF81E942E8440EE66E5A
:10075000E3EC13F041E90000C7EC13F0016E026A0C
:10076000FF0E015C0FE00A0E025C0CE2440EE66E26
:10077000E3EC13F041E90000C7EC13F0016E000058
:100780000000EED7015000D043E9E7CFD9FF1200B7
:10079000D9CFE6FFE1CFD9FF82E944E88C98000089
:1007A0000000C7EC13F0036E0000C7EC13F0046EFA
:1007B00000008C8845E9E7CFD9FF1200D9CFE6FFCA
:1007C000E1CFD9FF82E942E88C9800000000770E63
:1007D000E66EE3EC13F041E9026A0050025C16E2B7
:1007E000C7EC13F0E66E0101D950030FCA6FDACFE0
:1007F000CBF102500101EA6ACA25E96ECB51EA2227
:10080000E552E750EF6E0000022AE7D700008C881F
:1008100043E9E7CFD9FF12008C9800000000200EBA
:10082000E66EE3EC13F041E9E66AE3EC13F041E92C
:10083000E66AE3EC13F041E9E66AE3EC13F041E920
:1008400000008C881200D9CFE6FFE1CFD9FF82E902
:1008500044E8046A8C98150EE66EE3EC13F041E967
:1008600000EBE6FFE3EC13F041E900008C880000A8
:100870008C98440EE66EE3EC13F041E90000C7ECFF
:1008800013F0036EFF0E035C0EE08C8800008C9862
:10089000440EE66EE3EC13F041E90000C7EC13F000
:1008A000036E0000EFD7FF0E035C06E1C7EC13F008
:1008B000046EC7EC13F0056E8C88045000D045E937
:1008C000E7CFD9FF1200D9CFE6FFE1CFD9FF83E907
:1008D00044E8036A8C980000000001EBE6FFE3ECBB
:1008E00013F041E9E668E3EC13F041E9E668E3EC74
:1008F00013F041E9E668E3EC13F041E900008C886D
:1009000000008C9800001CDFFF081EE10368200E29
:10091000046E056A0050055C17E2C7EC13F0E66E42
:100920000101D950060FCA6FDACFCBF10450010193
:10093000EA6ACA25E96ECB51EA22E552E750EF6E2A
:100940000000052A042AE6D700008C88035000D056
:1009500045E9E7CFD9FF1200D9CFE6FFE1CFD9FFB4
:1009600081E941E88B8EB4DCE66AE66AE66A09EC66
:100970001BF043E9AEDE016EE66A1DDE41E9140EAE
:10098000E66EE66A00EC14F042E9A3DE016E010EA9
:10099000E66E11DE41E99DDE016E020EE66E0BDEB3
:1009A00041E997DE016E030EE66E05DE41E98B9E9E
:1009B000C69A42E9E7CFD9FF1200D9CFE6FFE1CFCF
:1009C000D9FF85E94DE8066A8B8E8C9803EBE6FF2C
:1009D000E3EC13F041E98C8800008C98440EE66E3D
:1009E000E3EC13F041E9C7EC13F0076E056AFF0E64
:1009F000075C10E00A0E055C0DE2052A8C880000F9
:100A00008C98440EE66EE3EC13F041E9C7EC13F06A
:100A1000076EEDD7FF0E075C14E1010E066E056A46
:100A20000250055C0EE2C7EC13F0E66E05500024A0
:100A3000E96E000E0120EA6EE552E750EF6E052ADE
:100A4000EFD78C88065000D04EE9E7CFD9FF1200CF
:100A5000D9CFE6FFE1CFD9FF82E941E8026A8B8E68
:100A60008C9800EBE6FFE3EC13F041E9C7EC13F0E0
:100A7000026E8C88025000D042E9E7CFD9FF120005
:100A8000D9CFE6FFE1CFD9FF82E945E8050E005C4A
:100A900002E2050E006E0050320802E2320E006ED5
:100AA000036A046A026A030E025C36E20101D9504D
:100AB000050FCE6FDACFCFF10228020DCE51F3240D
:100AC000E96ECF51F420EA6EEECFCCF1EFCFCDF14D
:100AD000D950050FCA6FDACFCBF10250020DCA51BF
:100AE000F324E96ECB51F420EA6ECCC1EEFFCDC108
:100AF000EDFFD950050FCA6FDACFCBF10250020DCE
:100B0000CA51F324E96ECB51F420EA6EEE5003266D
:100B1000EF500422022AC7D70050E66E0101D950D7
:100B2000050FCA6FDACFCBF10250020DCA51F32480
:100B3000E96ECB51F420EA6EE552E750EE6EED6AB5
:100B4000D950050FCA6FDACFCBF10250020DCA514E
:100B5000F324E96ECB51F420EA6EEE500326EF50F9
:100B60000422036A046A026A040E025C13E2D9508A
:100B7000050FCA6FDACFCBF10250020DCA51F32430
:100B8000E96ECB51F420EA6EEE500326EF500422BA
:100B9000022AEAD7D89004320332D89004320332C2
:100BA0003F0E0316000E0416010E0326000E04224B
:100BB000035000D046E9E7CFD9FF1200D9CFE6FFB6
:100BC000E1CFD9FF81E942E868EC01F08B8E050E98
:100BD000E66EE66A00EC14F042E9E66AE66AE66A66
:100BE00009EC1BF043E975DD016EE66A8BDC41E937
:100BF0000F0EE66EE66A00EC14F042E96ADD016E63
:100C00000BDE010E026E240E025C08E202EBE6FF30
:100C100079DC41E95EDD016E022AF5D7C69A000053
:100C200043E9E7CFD9FF1200D9CFE6FFE1CFD9FFE3
:100C300082E942E868EC01F08B8E050EE66EE66A0A
:100C400000EC14F042E9E66AE66AE66A09EC1BF099
:100C500043E93FDD026EE66AD0EC01F041E90F0E98
:100C6000E66EE66A00EC14F042E933DD026E010E36
:100C7000036E1A0E035C09E203EBE6FFD0EC01F011
:100C800041E927DD026E032AF4D7C69A43E9E7CF8C
:100C9000D9FF1200D9CFE6FFE1CFD9FF81E941E8C2
:100CA000E66AE66AE66A09EC1BF043E91F0EE66EA7
:100CB000D0EC01F041E90DDD016E270EE66E22DC7D
:100CC00041E907DD016EA8DD04DD016E280EE66E48
:100CD00019DC41E9C69A8B9E42E9E7CFD9FF1200A1
:100CE00007020101018CBA80000000000000000032
:100CF00000081301000303000000000000000000D2
:100D000000000611000200000000000000000000CA
:100D10000000000511000103200000000000000099
:100D200000000000051101010000000000000000AB
:100D30000000000000081102040000000000000094
:100D40000000000000000511100104210000000057
:100D5000000000000000001011200C000800070136
:100D600086A0018CBA800012051120010CE8000059
:100D70000000000000000000001011200C1800000E
:100D800008028000302000E800A31011200C24038A
:100D9000269900C90200000012812E07112003309D
:100DA000033DA0000000000000000000051120012C
:100DB00035E00000000000000000000000101120DD
:100DC0000C38112424801AFFFF00290CA4230911D8
:100DD0002005450303120200000000000000000887
:100DE0001120044B06091C40000000000000000018
:100DF0000511200250840D000000000000000000DA
:100E00000006112002540A07000000000000000044
:100E10000000051120015700000000000000000044
:100E2000000000091120055B400417782000000035
:100E3000000000001011210C00FFBA0F51CFA9C90A
:100E4000FC1B1E0F011011210C0CFCFD15FF000FE7
:100E5000FFBA0F51CFA91011210C18C9FC1B1E0F8E
:100E600001FCFD15FF000F0811220400184FC01DE2
:100E700000000000000000000B112307002C0E0BE7
:100E8000040C730300000000000C11400800440D26
:100E900089D817A120FA00000000053100000000E9
:100EA000000000000000000000000002340100000B
:100EB00000000000000000000000000002340700F5
:100EC0000000000000000000000000000001200001
:100ED00000000000000000000000000000000813F7
:100EE00001000303000000000000000000000008F3
:100EF00013010002030000000000000000000000D9
:100F000008130100020200000000000000000000C1
:100F10000002340300000000000000000000000098
:100F2000000007020101018CBA80000000000000EF
:100F30000000000813000000000000000000000096
:100F40000000000006110002000000000000000088
:100F50000000000000051100010320000000000057
:100F60000000000000000511010100000000000069
:100F70000000000000000008110204000000000052
:100F80000000000000000000051110010421000015
:100F90000000000000000000001011200C000800FC
:100FA000070186A0018CBA800006051120010C4DB6
:100FB00000000000000000000000001011200C18CC
:100FC000000008038000201000E800D91011200C58
:100FD00024025CF3009702000000128065071120D4
:100FE00003300442A00000000000000000000511D2
:100FF000200135E0000000000000000000000010AB
:1010000011200C38112F2F801AFFFF00290CA42368
:10101000091120054503024E0200000000000000F7
:1010200000081120044B06091C40000000000000CD
:1010300000000611200150840000000000000000A4
:101040000000000611200254080700000000000004
:101050000000000005112001570000000000000002
:101060000000000000091120055B400412782000F8
:101070000000000000001011210C00FFBA0F51CF3A
:10108000A9C9FC1B1E0F011011210C0CFCFD15FF42
:10109000000FFFBA0F51CFA91011210C18C9FC1B6A
:1010A0001E0F01FCFD15FF000F0811220400181F80
:1010B000C01D00000000000000000B112307002CE1
:1010C0000E0B040C730300000000000C114008001C
:1010D000410CFC8801F820FE0000000005311500DD
:1010E00000000000000000000000000000023401C9
:1010F00000000000000000000000000000000234BA
:1011000007000000000000000000000000000008D0
:1011100013010003020000000000000000000000B6
:10112000081301000202000000000000000000009F
:101130000002340300000000000000000000000076
:10114000000007020101018CBA80000000000000CD
:101150000000000813010003022700400000000007
:101160000000000006110002000000000000000066
:101170000000000000051100010320000000000035
:101180000000000000000511010100020000000045
:101190000000000000000005110101020B0000002A
:1011A0000000000000000000081102040000000020
:1011B0000000000000000000000D111009000814DC
:1011C00000063D000000000000000A1111060006A4
:1011D000DA91D300000000000000000B111207009C
:1011E000040108FFFF200B00000000001011120C8A
:1011F00008000000302000110580000000101112CE
:101200000C1400000000000000000000000010119D
:10121000120C200000000000000000000000000D83
:101220001112092C00000000000000000000000066
:101230000811120436000000000000000000000049
:10124000001011200C00028007005DC0018CBA80E4
:101250000000051120010CC2000000000000000089
:101260000000001011200C180180080380003020BD
:101270000CE802A51011200C2400C195006100C2E9
:1012800000546280080711200330246980000000A8
:101290000000000000000511200135E00000000002
:1012A000000000000000001011200C381194948000
:1012B0001A8000002B0C84220C112008458F005E40
:1012C000020013060100000000071120034C041C5B
:1012D00040000000000000000000061120025094B1
:1012E0000A00000000000000000000061120025467
:1012F00003070000000000000000000005112001AD
:10130000570000000000000000000000000911204C
:10131000055B420407782000000000000000101167
:10132000210C00FFC4307FF5B5B8DE0517160C1090
:1013300011210C0C030015FF0000FFC4307FF5B530
:101340001011210C18B8DE0517160C030015FF004C
:101350000005112201031D00000000000000000034
:1013600000000B112307002C0E0B040C730300006C
:101370000000001011300C00000000000000000010
:10138000000000000C11400800410EE79407E02027
:10139000FE00000000081102040005060A09000012
:1013A00000000000000008320000004008030800B0
:1013B00000000000000000023408000000000000EF
:1013C00000000000000000000234020000000000E5
:1013D00000000000000000000002340300000000D4
:1013E00000000000000000000000023401000000C6
:1013F00000000000000000000000000813111401AC
:101400000127004000000000000000000702010169
:10141000018CBA80000000000000000000081301E9
:101420000101010000600000000000000000012038
:1014300000000000000000000000000000000002AA
:101440003401000000000000000000000000000067
:10145000081102040005060A09000000000000004F
:101460000007020101018CBA8000000000000000AA
:101470000000081310040302000000000000000038
:101480000000000611000200000000000000000043
:101490000000000005110001032000000000000012
:1014A0000000000000051101010000000000000024
:1014B000000000000000081102040000000000000D
:1014C00000000000000000051110010421000000D0
:1014D00000000000000000001011200C002A00078E
:1014E000005DC0018CBA800000051120010C910044
:1014F000000000000000000000001011200C180186
:10150000800803800030200CE802A51011200C2474
:1015100000C195006100C200546280AB0711200336
:1015200030024E8000000000000000000005112085
:101530000135E00000000000000000000000101174
:10154000200C38119494801A6000002B0C8423091D
:10155000112005458F004702000000000000000038
:10156000081120044B06091C400000000000000088
:10157000000611200250940A000000000000000044
:1015800000000611200254030700000000000000C4
:1015900000000005112001570000000000000000BD
:1015A00000000000091120055B42040678200000BD
:1015B00000000000001011210C00FFC4307FF5B5C1
:1015C000B8DE0517160C1011210C0C030015FF00D6
:1015D00000FFC4307FF5B51011210C18B8DE0517D7
:1015E000160C030015FF000008112204001801C0AA
:1015F0001D00000000000000000B112307002C0E4E
:101600000B040C730300000000000C1140080041A3
:101610000EE74401F820FE00000000053100000044
:0C162000000000000000000000000000BE
:04162C0090DB86E9E0
:101630000150010600090CE002EBE6FF03EBE6FFB8
:1016400000EBE6FF69DBF4E1CB1DF2E1010E01D016
:10165000000E41E9E5CFDAFFE7CFD9FF120077DBD3
:1016600089E97BE80A6A0B6A02EBF6FF03EBF7FFF6
:1016700004EBF8FF0800F550096E095001E12DD385
:10168000250E095C01E01BD30C6A0D6A0E6A0F6A15
:10169000106A2DDB2D0E095C0CE02B0E095C09E0B5
:1016A000200E095C06E0230E095C03E0300E095CA5
:1016B00015E10950300A10E0130A0CE0030A08E0B3
:1016C0000B0A04E0060AE5E10C80E3D70C82E1D7BF
:1016D0000C84DFD70C86DDD70C88DBD72A0E095C9B
:1016E00013E1A5DB0DE30C801CEBCAF11DEBCBF184
:1016F0000101CA6DCB1F000ECB23CA510D6E02D063
:101700009CEB0DF0F4DA07D0126A3FDB02E06BDBF2
:10171000FCD792EB0DF00CB00C982E0E095C15E185
:10172000E6DA2A0E095C08E182DB04E29CEB0EF0AB
:10173000010E0F6EDCDA09D0126A27DB02E053DB00
:10174000FCD792EB0EF0010E0F6E680E095C07E1FC
:10175000CEDA680E095C1DE1030E106E19D0740E0E
:10176000095C16E07A0E095C13E0480E095C06E09D
:10177000540E095C03E05A0E095C02E1020E07D028
:101780006C0E095C03E06A0E095C03E1010E106E49
:10179000AEDA09506E0A01E16ED21E0A01E128D1CB
:1017A000200A01E125D13F0A01E1FDD01A0A01E139
:1017B000FAD00D0A01E1F7D0200A01E1F4D03A0A8B
:1017C00001E1F1D0200A01E1EED0260A01E1EAD0E0
:1017D0000D0A01E1E7D01A0A01E19ED0200A3BE0A0
:1017E000300A1AE0460A0EE0250A01E072D2D9500A
:1017F000020FE96E000EDA20EA6E010EEE5E000EB8
:10180000EE5AEE5A0FDB250EE66E86DA03E1CB1DAB
:1018100001E159D20A2A5BD2116A0D50010803E294
:101820000D04116EF5DA115007E0010E0C1404E1FD
:101830006DDA01E048D2116AD3DAEF50096ECBDAE3
:1018400003E1CB1D01E13FD20A2A000E0B225EDA32
:1018500001E13FD238D2020E105C08E1030E4EDAED
:10186000EE50176EEE50186EEF5007D0E7DACC6BE3
:10187000CA51176ECB51186ECC51196E17EBE6FF9B
:1018800018EBE6FF19EBE6FFB1EC1AF043E9E6C10D
:10189000CAF1E7C1CBF1E8C1CCF10101CA511C6E1C
:1018A000CB511D6E0F5006E01C500E5C03E20E5033
:1018B0001C6E1D6A1C500D5C02E29CEB0DF050DAB0
:1018C00005E00D500E5C02E28EEB0DF00CB004D082
:1018D0001DDA01E0F8D1116A126A17EBF6FF18EB76
:1018E000F7FF19EBF8FF0800F550096E095010E0FA
:1018F0000D50125C0DE26FDA03E1CB1D01E1E3D183
:101900000A2A000E0B22122AD950170F55DAEBD7EC
:10191000FDD901E1DED1D7D163DAEE501A6EED5078
:101920001B6E1AEBE6FF1BEBE6FFA3EC1AF042E995
:10193000F3501C6EF4501D6E0F5006E01C500E5CF0
:1019400003E20E501C6E1D6A1C500D5C02E29CEB03
:101950000DF006DA05E00D500E5C02E28EEB0DF0A4
:101960000CB004D0D3D901E0AED1116A126A1AEBDF
:10197000E9FF1BEBEAFFEF50096E09500FE00D5035
:10198000125C0CE228DA03E1CB1D01E19CD10A2AAA
:10199000000E0B22122A1A2A1B22E9D7B7D901E11D
:1019A00098D191D10C8E10040AE1040EA7D9EE5003
:1019B000136EEE50146EEE50156EEF5032D0030ED3
:1019C000105C16E10CAE0CD00BDAEFCFCAF10101BE
:1019D000CB6BCC6BCD6BCAAF23D0CB69CC691FD09E
:1019E000FFD9EFCFCAF10101CA51136E146A20D09A
:1019F000020E105C0CE10CAE06D0030E7FD9B6D9F6
:101A0000CCAF0ED00CD0030E79D9B0D909D00CAE22
:101A10000AD014DACC6BCD6BCBAF02D0CC69CD69D8
:101A2000BCD9166E07D00ADACA51136ECB51146EA8
:101A3000156A166A0F5002E1010E0E6E1E6A1F6AC9
:101A4000D950400FE66E000EDA20E66EE552E55002
:101A5000436EE750426E416A116A0A0E106E0950D9
:101A6000780A12E0200A10E0280A0CE0200A0AE0B6
:101A70003F0A06E00D0A02E0200A08E1020E05D046
:101A8000080E03D0080E0926100E106E0CBE02D0F0
:101A90000C920C94800E0C1417E0163415E3E668D3
:101AA000E668E668E66842D9A6EC16F0E552E5CFAE
:101AB000CDF1E5CFCCF1E5CFCBF1E7CFCAF1010114
:101AC0006CD9166E2D0E07D00CA202D02B0E03D0AF
:101AD0000CA404D0200E206E1E2A01D0206A0E50C5
:101AE00005E1135014101510161061E00101FA0EF3
:101AF000CA6F380ECB6F000ECC6F83D963EC16F033
:101B0000E552E5CFD0F1E5CFCFF1E5CFCEF1E7CF8C
:101B1000CDF10101CA51CD25F36ECB51CE21F46E2A
:101B2000CC51CF21F86EF4CFF7FFF3CFF6FF0800CA
:101B3000F550126E580E095C05E1610E125C02E36D
:101B4000200E125E5ED960EC16F0E552E550166E7E
:101B5000E550156EE550146EE750136E42EBE9FF49
:101B600043EBEAFF4206000E435A12EBEFFF1E2A38
:101B70001350141015101610B9E10CA619D06F0EE1
:101B8000095C06E10E501E5C13E31E280E6E10D099
:101B9000780E095C09E0580E095C06E0620E095CEB
:101BA00003E0420E095C04E1020E1F6E01D01E6AC2
:101BB000100E0C1407E00D500E5C04E20F5002E111
:101BC0008DEB0EF00E501E5C03E21E500E5E01D037
:101BD0000E6A0E501E241F24D8800D5407E20E50AA
:101BE0000D5CD8801E54D8801F54116E010E0C1449
:101BF00006E1115004E08AD866E10AD9116A205042
:101C000007E010D920EBE6FF87D802E1CB1D5BE0AF
:101C10001F500BE007D9300EE66E7ED802E1CB1DD7
:101C200052E0D9D802E1CB1D4EE00E501F5C02E21B
:101C30001F500E5E300EE66E0EEBE6FFDCD843E181
:101C4000422A000E432242EBE9FF43EBEAFFEF504A
:101C5000126E125008E0E6D812EBE6FF5DD8F0E114
:101C6000CB1DEEE130D052D82EE10E501E241124AF
:101C70001F240A262CD01050030A1CE0010A14E08D
:101C8000030A07E0ADD8C9D80AEBEEFF0BEBEDFF76
:101C900020D08BD8CD6BCBAF02D0CC69CD69A0D88A
:101CA0004ED8CDC1EEFF15D080D8CBBFCC6998D827
:101CB00046D80FD095D8B1D80AEBEFFF0AD08BD811
:101CC00005E1CB1D03E1F368F4680BD00A2A000E8E
:101CD0000B22D950020F70D8CDD40AEBF3FF0BEBD7
:101CE000F4FF7CE9E5CFDAFFE7CFD9FF1200D95046
:101CF000020F62D80800F550096E1200005E000E57
:101D0000015A00EBE9FF01EBEAFF1200200EE66E3C
:101D100011EBE6FFFBEF0EF0D6EC1AF043E9F3CF40
:101D2000CAF1F4CFCBF10101F31C120013EBE6FF73
:101D300014EBE6FF15EBE6FF16EBE6FF12006DD89D
:101D4000CAC1EEFFCBC1EEFFCCC1EEFF1200D9CF6E
:101D5000E6FFDACFE6FFE1CFD9FFE2CFDAFF1200EC
:101D60001C500D5C116E54D80F501200EECFCAF10A
:101D7000EECFCBF1EFCFCCF10101CD6B1200EECF66
:101D8000CAF1EFCFCBF1010112000950E66EE66A0D
:101D900023EC1CF042E9F3501200CA51136ECB51F0
:101DA000146ECC51156ECD5112000AEBCAF10BEB3B
:101DB000CBF10101CC6B1200E96E000EDA20EA6E65
:101DC000EF2AEECFF6FF000EEF22EECFF7FFEF2265
:101DD000EECFF8FF120026D809EBE6FF8CEF0EF0ED
:101DE000020E7EEF0EF00A0E1202F3500924D00FFD
:101DF000126E77EF0EF016D816EC0BF044E90009DE
:101E0000120010EBE6FFE66AE66AE66A96EF0EF06D
:101E100011500A26000E0B221200EE50EFCFEAFFFF
:101E2000E96E120005EBE6FF06EBE6FF1200D8DFD5
:101E3000EE501C6EED501D6E1D341200D1DFBFEF51
:021E40000EF0A2
:0E1E4200D9CFE6FFE1CFD9FF84E942E8046A78
:101E5000056A00041FE101500424E96E02500520C8
:101E6000EA6EEF5016E001500424E96E025005209E
:101E7000EA6EEFCFE6FF0CEC1CF041E9ACA2FED716
:101E8000050EE66E35EC1CF041E9042A000E052231
:101E9000E2D71ED001500424E96E02500520EA6EFC
:101EA000EF5016E001500424E96E02500520EA6E5E
:101EB000EFCFE6FFF5EC1BF041E972A2FED7050E6D
:101EC000E66E35EC1CF041E9042A000E0522E2D74B
:101ED00043E9E7CFD9FF1200D9CFE6FFE1CFD9FF21
:101EE00081E965E8226A236AC3EC12F0DFEC12F0A4
:101EF000000EE66EE66AADEC1BF042E90101006BF4
:101F0000016B026B036B57EC1BF038EC1BF0F19E7E
:101F100001010693026B006B0A6B0695036B016B64
:101F2000AA6B948E948C0C0EE66EE66A7C0EE66EBE
:101F30006DEC1AF043E9B886708689908984898AA5
:101F4000E80EE66E030EE66E00EC14F042E9899AA4
:101F50008D80E80EE66E030EE66E00EC14F042E9AA
:101F60008D90E66A030EE66EE66A09EC1BF043E923
:101F700080EC17F0026EC69A0250E66EE66AF40E26
:101F8000E66E310EE66EE66A2A0EE66E010EE66E2B
:101F9000FCEC19F047E9010EE66E2A0EE66E010E22
:101FA000E66E4FDF43E90A0EE66EE66A00EC14F0D7
:101FB00042E9898A0A0EE66EE66A00EC14F042E90C
:101FC000899AE66A030EE66EE66A09EC1BF043E9BD
:101FD0000250E66EE66AF40EE66E310EE66EE66AD2
:101FE0002A0EE66E010EE66EFCEC19F047E9010ED2
:101FF000E66E2A0EE66E010EE66E23DF43E989984F
:10200000A80EE66E76EC1BF041E9C7EC13F0106EFB
:10201000C7EC13F0116EC7EC13F0126EC7EC13F09F
:10202000136EC7EC13F0146EC7EC13F0156E8988AD
:10203000C69A11EBE6FF10EBE6FFB8EC17F042E9A9
:10204000F350166EF450176E13EBE6FF12EBE6FF3B
:10205000B8EC17F042E9F350186EF450196E15EB16
:10206000E6FF14EBE6FFB8EC17F042E9F3501A6E06
:10207000F4501B6E640EE66EE66A16EBE6FF17EB95
:10208000E6FFA8EC15F0E552E5501D6EE7501C6E1A
:10209000640EE66EE66A18EBE6FF19EBE6FFA8ECC5
:1020A00015F0E552E5501F6EE7501E6E640EE66EA9
:1020B000E66A1AEBE6FF1BEBE6FFA8EC15F0E5522B
:1020C000E550216EE750206E20EBE6FF21EBE6FFA6
:1020D0001EEBE6FF1FEBE6FF1CEBE6FF1DEBE6FF4A
:1020E000C30EE66E310EE66EE66A2A0EE66E010E4D
:1020F000E66EFCEC19F04BE9010EE66E2A0EE66E78
:10210000010EE66E9EDE43E9010EE66EE66A00EC25
:1021100014F042E9246A256A1D3425501D1804E68E
:102120001C50245C1D5025580CE2898A0A0EE66E6C
:10213000E66A00EC14F042E9899A242A000E25226E
:10214000EBD7640EE66EE66A00EC14F042E9246A0E
:10215000256A1F3425501F1804E61E50245C1F50AA
:1021600025580CE28D800A0EE66EE66A00EC14F04B
:1021700042E98D90242A000E2522EBD7640EE66EEC
:10218000E66A00EC14F042E9246A256A21342550FD
:10219000211804E62050245C215025580CE2898A3D
:1021A0000A0EE66EE66A00EC14F042E9899A242AE7
:1021B000000E2522EBD78150200B01E0010E226E8C
:1021C000236A2250231018E122EBE6FF23EBE6FFFF
:1021D0009E0EE66E310EE66EE66A2A0EE66E010E81
:1021E000E66EFCEC19F047E9010EE66E2A0EE66E8B
:1021F000010EE66E26DE43E98B8E8B820101010E15
:10220000056F04EC00F0440E066E0D0E076EFE0E18
:10221000086E1C0E096E410E0A6E0C0E0B6EFC0E43
:102220000C6E880E0D6E000EE66EE66A06EBE6FF9B
:102230003DEC14F043E9010EE66EE66A07EBE6FFBB
:102240003DEC14F043E9020EE66EE66A08EBE6FFA9
:102250003DEC14F043E9030EE66EE66A09EBE6FF97
:102260003DEC14F043E9040EE66EE66A0AEBE6FF85
:102270003DEC14F043E9050EE66EE66A0BEBE6FF73
:102280003DEC14F043E9060EE66EE66A0CEBE6FF61
:102290003DEC14F043E9070EE66EE66A0DEBE6FF4F
:1022A0003DEC14F043E9E66AE66AE66A09EC1BF0E5
:1022B00043E98C987FEC18F0DEEC17F0010EE66E27
:1022C00076EC1BF041E9DEEC17F07FEC18F0026EC3
:1022D000FF0E025C32E1016A040E015C14E2C7ECFD
:1022E00013F0E66E0101D9500F0FCA6FDACFCBF1B0
:1022F0000150EA6ACA25E96ECB51EA22E552E7505D
:10230000EF6E012AE9D71150E66EE66A1050E66ECC
:10231000E66A790EE66E310EE66EE66A2A0EE66E23
:10232000010EE66EFCEC19F049E9010EE66E2A0E8C
:10233000E66E010EE66E85DD43E98C88010EE66EE1
:10234000E66A00EC14F042E9C69A0101056B11EC53
:1023500000F035EC1AF0E80EE66E030EE66E00ECC7
:1023600014F042E935EC1AF0E80EE66E030EE66E64
:1023700000EC14F042E90101010E056F11EC00F0D0
:1023800047EC1AF0E80EE66E030EE66E00EC14F071
:1023900042E947EC1AF0E80EE66E030EE66E00EC3A
:1023A00014F042E901010551E66EE66A5C0EE66E44
:1023B000310EE66EE66A2A0EE66E010EE66EFCEC63
:1023C00019F047E9010EE66E2A0EE66E010EE66E82
:1023D00038DD43E9BAD7D3D0180E6E6EE66A080E20
:1023E000E66EC5EC1BF042E96B806BB0FED7640E65
:1023F000E66EBEEC19F041E96B9A6B886BB8FED7BC
:1024000080EC14F0220EE66EBEEC19F041E96B9AF6
:102410006B886BB8FED76B826BB2FED7D40EE66EBC
:10242000BEEC19F041E96B9A6B886BB8FED7810E50
:10243000E66EBEEC19F041E96B9A6B886BB8FED77B
:102440006B846BB4FED76C9AE66A080EE66EDDEC20
:102450001BF042E9C580C5B0FED7C750040B01E0B0
:10246000010E0101CA6F1F0EC514CA1101E0F5D794
:10247000D40EE66E7DEC19F041E9026EC750040BF4
:1024800001E0010E0101CA6F1F0EC514CA1101E05F
:10249000F5D7C59AC588C5B8FED7C750040B01E06B
:1024A000010E0101CA6F1F0EC514CA1101E0F5D754
:1024B000220EE66E7DEC19F041E9026EC750040B66
:1024C00001E0010E0101CA6F1F0EC514CA1101E01F
:1024D000F5D7C59AC588C5B8FED7C750040B01E02B
:1024E000010E0101CA6F1F0EC514CA1101E0F5D714
:1024F000C582C5B2FED7C750040B01E0010E010131
:10250000CA6F1F0EC514CA1101E0F5D7D50EE66ECD
:102510007DEC19F041E9026EC750040B01E0010E99
:102520000101CA6F1F0EC514CA1101E0F5D7C59A83
:10253000C588C5B8FED7C750040B01E0010E0101E4
:10254000CA6F1F0EC514CA1101E0F5D770EC1CF05C
:10255000026EC750040B01E0010E0101CA6F1F0E8D
:10256000C514CA1101E0F5D7C58AC588C5B8FED71C
:10257000C584C5B4FED7C69A80EC14F02CD766E9A2
:06258000E7CFD9FF1200B5
:0A2586000F01386B396B3A6B3B6BA9
:102590003C6B926A896A816A9368946A210E8B6E99
:1025A000C80E8C6E956A800E8D6E966AFE0EE66E73
:1025B00093EC1BF041E9BC6ABB689E921200300E9E
:1025C000D36E040ED26E9B6A1200D9CFE6FFE1CF24
:1025D000D9FF87E95AE8076A086A030E096E0A6A92
:1025E000020E0B6E0C6A050E0D6E0E6A0F6A106AF3
:1025F000030E116E126A050E136E146A010E156E2B
:10260000166A040E176E186A060E196E1A6A020E02
:102610001B6E1C6A040E1D6E1E6A030ED89003BE4C
:1026200003D0025C000E035802E3000E01D0010E3D
:10263000045E000E055A070EE66EE66A040EE66EAC
:10264000E66A04EBE6FF05EBE6FFA8EC15F00101F6
:10265000FE0EE3500424D26F41E9E5500520D36F0C
:10266000640EE66EE66A04EBE6FF05EBE6FFA8EC17
:1026700015F0E552E5CFD5F1E7CFD4F10101D45102
:102680000101D25D0101D06F0101D5510101D35982
:102690000101D16F900EE66E010EE66E04EBE6FFCF
:1026A00005EBE6FFA8EC15F0E552E5CFD7F1E7CF53
:1026B000D6F101010101D0510101D6250101CE6FF2
:1026C00001010101D1510101D7210101CF6F0101A8
:1026D000D950070FD86FDACFD9F101010204DA6FB0
:1026E000000E0358DB6F0101D890DA37DB370101A8
:1026F0000101D8510101DA25E96E01010101D95129
:102700000101DB21EA6E01010101CE51EE2401013C
:10271000CC6F01010101CF51EE200101CD6F0050BE
:102720000101CC250101CA6F01500101CD21010138
:10273000CB6FCAC1E6FFCBC1E6FFF3EC15F0E55263
:10274000E550206EE7501F6E00001FEBF3FF20EBFB
:10275000F4FF00D05BE9E7CFD9FF1200D9CFE6FF45
:10276000E1CFD9FF82E941E8F00E0014026E023891
:102770000F0B026E0A0E0202F350026E0F0E0014CF
:102780000226025000D042E9E7CFD9FF1200C96A01
:10279000D66AC750010B04E1140ED65C01E2F9D7EA
:1027A000C95000D01200D9CFE6FFE1CFD9FF82E9AE
:1027B000C69E00EBC9FFC7A0FED7C95000D041E9B3
:1027C000E7CFD9FF1200D9CFE6FFE1CFD9FF82E9E9
:1027D00041E800EBC9FFC6AE03D0FF0E0DD008D014
:1027E000D66AC750010B04E1140ED65C01E2F9D79A
:1027F000C950026E025000D042E9E7CFD9FF120063
:10280000D9CFE6FFE1CFD9FF83E944E8036A046A40
:102810000050035C015004580FE2056A066A180E66
:10282000055C000E065804E2052A000E0622F7D7C2
:10283000032A000E0422ECD745E9E7CFD9FF1200A6
:10284000D9CFE6FFE1CFD9FF83E90101000E0014E3
:10285000CA6FFF0E0114CB6FCBC1CAF1CB6BCAC1DB
:10286000AAFFFF0E0014A96EA69EA69CA680A850E3
:1028700000D041E9E7CFD9FF1200D9CFE6FFE1CF81
:10288000D9FF84E943E8010E046E056A00000000E8
:10289000046A056AF250066EF29E0101ED6B0101B9
:1028A000000E0014CA6FFF0E0114CB6F0101CBC1E3
:1028B000CAF1CB6BCAC1AAFFFF0E0014A96E02EBCE
:1028C000A8FFA69EA69CA684550EA76EAA0EA76E6C
:1028D000A682A6B2FED7A6940101ED2B00EBE6FF7F
:1028E00001EBE6FFADDF42E9025C04E0040E01010A
:1028F000ED5DD5E30650F21244E9E7CFD9FF1200AF
:10290000898A2A0EE66EE66A7BDF42E98D802A0E0E
:10291000E66EE66A75DF42E9899A2A0EE66EE66A95
:102920006FDF42E98D90520EE66EE66A69DF42E99A
:102930008D802A0EE66EE66A63DF42E9898A2A0EF6
:10294000E66EE66A5DDF42E98D902A0EE66EE66A83
:1029500057DF42E9899A820EE66EE66A51DF42E964
:10296000898A2A0EE66EE66A4BDF42E98D802A0EDE
:10297000E66EE66A45DF42E9899A2A0EE66EE66A65
:102980003FDF42E98D90520EE66EE66A39DF42E99A
:102990008D802A0EE66EE66A33DF42E9898A2A0EC6
:1029A000E66EE66A2DDF42E98D902A0EE66EE66A53
:1029B00027DF42E9899A480EE66EE66A21DF42E99E
:1029C0001200898089928984898AD00EE66E070E6A
:1029D000E66E16DF42E9899A8990899289848D8012
:1029E000D00EE66E070EE66E0BDF42E98D90320EDA
:1029F000E66EE66A05DF42E98D80320EE66EE66A33
:102A0000FFDE42E98D90898089828984898AD00E8F
:102A1000E66E070EE66EF4DE42E9899A320EE66E45
:102A2000E66AEEDE42E9898A320EE66EE66AE8DEA2
:102A300042E9899A320EE66EE66AE2DE42E9898A66
:102A4000320EE66EE66ADCDE42E9899A8990898276
:102A500089848D80D00EE66E070EE66ED1DE42E9E7
:102A60008D90320EE66EE66ACBDE42E98D80320E44
:102A7000E66EE66AC5DE42E98D90320EE66EE66AE3
:102A8000BFDE42E98D80320EE66EE66AB9DE42E9CB
:102A90008D90320EE66EE66AB3DE42E98D80320E2C
:102AA000E66EE66AADDE42E98D908980899289946E
:102AB000898AD00EE66E070EE66EA2DE42E9899A9A
:102AC000320EE66EE66A9CDE42E9898A320EE66ED6
:102AD000E66A96DE42E9899A320EE66EE66A90DE92
:102AE00042E9898A320EE66EE66A8ADE42E9899A0E
:102AF000320EE66EE66A84DE42E9898A320EE66EBE
:102B0000E66A7EDE42E9899A320EE66EE66A78DE91
:102B100042E9898A320EE66EE66A72DE42E9899AF5
:102B20008990899289948D80D00EE66E070EE66EAC
:082B300067DE42E98D901200FE
:082B380043E8D9CFE6FFDACF34
:102B4000E6FFE1CFD9FFE2CFDAFF89E9066A12009A
:102B5000F3DF068001D0F0DF01AEB5EF15F0006CB9
:102B6000011EE86A012206B0067E03AEBDEF15F035
:102B7000026C031EE86A0322067EF5EC15F003BE24
:102B8000DFEF15F006AE08D0026C031EE86A0322E0
:102B9000046C051EE86A052206B006D084EB00F03E
:102BA00085EB01F006A004D082EB00F083EB01F08E
:102BB000E552E5CFDAFFE7CFD9FF45E9000C06BEC5
:102BC000C4EF15F0E9DFFF0C43E8D9CFE6FFDACF19
:102BD000E6FFE1CFD9FFE2CFDAFF89E9066A12000A
:102BE000F3DF068003D0F0DF01D00682056A046AB5
:102BF000100EE76ED89002360336043605360050C4
:102C0000045C0150055805E30050045E0150055A6C
:102C1000022AE72EF0D706B2120006B006D084EBE7
:102C200000F085EB01F006A004D082EB00F083EB0E
:102C300001F0E552E5CFDAFFE7CFD9FF45E9120011
:102C400044E8D9CFE6FFDACFE6FFE1CFD9FFE2CF04
:102C5000DAFF8AE980EB04F081EB05F082EB06F005
:102C600002500402F450016EF350006E0350076EE0
:102C70000502F450036EF350026E07500402F35045
:102C80000126F4500222E86A032206500502F3509E
:102C90000126F4500222E86A0322E552E5CFDAFF6A
:102CA000E7CFD9FF46E9000C45E8D9CFE6FFDACFF8
:102CB000E6FFE1CFD9FFE2CFDAFF8FE90C6A12001D
:102CC000F3DF0C8003D0F0DF01D00C820B6A0A6ABC
:102CD000096A086A200EE76ED89004360536063673
:102CE0000736083609360A360B360050085C0150A4
:102CF000095802500A5803500B5809E30050085E67
:102D00000150095A02500A5A03500B5A042AE72E5E
:102D1000E4D70CB212000CB00AD088EB00F089EBBB
:102D200001F08AEB02F08BEB03F00CA008D084EBEF
:102D300000F085EB01F086EB02F087EB03F0E55243
:102D4000E5CFDAFFE7CFD9FF49E9120044E8D9CF50
:102D5000E6FFDACFE6FFE1CFD9FFE2CFDAFF8EE977
:102D600080EB08F081EB09F082EB0AF083EB0BF0CB
:102D700004500802F350006EF450016E0450090232
:102D8000F3500126000EF420026E04500A02F350A4
:102D90000226000EF420036E04500B02F3500326AB
:102DA00005500802F3500126F4500222000E0322BF
:102DB00005500902F3500226F450032205500A027E
:102DC000F350032606500802F3500226F450032263
:102DD00006500902F350032607500802F350032659
:0E2DE000E552E5CFDAFFE7CFD9FF48E9000C56
:022DEE008988D2
:102DF000000000000000000089981200D9CFE6FF13
:102E0000E1CFD9FF81E947E801010783E66A030EB4
:102E1000E66EE66A09EC1BF043E9000000000000E2
:102E20008F0EE66EE3EC13F041E9C7EC13F0016E90
:102E3000C7EC13F0026EC7EC13F0036EC69A03EBF7
:102E4000CAF10101CA51046E056A066A076AD950BF
:102E5000040FE96EDACFEAFFEF50EE6AEFCFF4FF2E
:102E6000EE6EEF50F4CFEEFFEF6E02EBCAF1010110
:102E7000CB6BCC6BCD6BD950040FE96EDACFEAFF88
:102E80000101CA51EE120101CB51EE120101CC51E8
:102E9000EE120101CD51EE12D950040FE96EDACFD6
:102EA000EAFFEF50EE6AEFCFF4FFEE6EEF50F4CF93
:102EB000EEFFEF6E01EBCAF10101CB6BCC6BCD6B7A
:102EC000D950040FE96EDACFEAFF0101CA51EE12C0
:102ED0000101CB51EE120101CC51EE120101CD5195
:102EE000EE120101079304EBE6F105EBE7F106EBC7
:102EF000E8F107EBE9F100D048E9E7CFD9FF12008C
:102F0000D9CFE6FFE1CFD9FF81E941E88998240EC6
:102F1000E66EE3EC13F041E9800EE66EE3EC13F0AD
:102F200041E9640EE66EE66A00EC14F042E95FDF08
:102F3000200EE66E76EC1BF041E9770EE66E76EC3D
:102F40001BF041E9640EE66EE66A00EC14F042E91B
:102F50004EDF8F0EE66E76EC1BF041E9C7EC13F006
:102F6000016E8988015000D042E9E7CFD9FF1200F5
:102F7000D9CFE6FFE1CFD9FF83E942E80050036EE5
:102F8000046A83EB04F0036A0150031204340DE376
:102F9000E668E66803EBE6FF04EBE6FF20EC16F0DC
:102FA000E552E550046EE750036E03EBF3FF04EBCC
:0C2FB000F4FF00D043E9E7CFD9FF120086
:042FBC008C88010EEE
:102FC000E66EE66A00EC14F042E98C9812008B84FD
:102FD000010EE66EE66A00EC14F042E98B940A0EEC
:102FE000E66EE66A00EC14F042E912008C98020EDC
:102FF000E66EE3EC13F041E9010EE66EE3EC13F04C
:1030000041E9010EE66EE3EC13F041E9010EE66ED4
:10301000E3EC13F041E98C0EE66EE3EC13F041E9CA
:10302000BA0EE66EE3EC13F041E9800EE66EE3ECD7
:1030300013F041E9140EE66EE66A00EC14F042E982
:103040008C881200D9CFE6FFE1CFD9FF83E946E8AB
:103050008C9801EBE6FFE3EC13F041E9AFDF440E9F
:10306000E66EE3EC13F041E9C7EC13F0036E046A7B
:10307000FF0E035C0FE00A0E045C0CE28C98440E19
:10308000E66EE3EC13F041E9C7EC13F0036E8C88B5
:10309000042AEED78C98FF0E035C2AE1010E056E20
:1030A000066A076A086A8C98046A0050045C20E289
:1030B000C7EC13F0036E0350E66EE66A0450E66E4A
:1030C000E66A2E0EE66E320EE66EE66A2A0EE66EB0
:1030D000010EE66EFCEC19F049E9010EE66E2A0ECF
:1030E000E66E010EE66E21EC0FF043E9042ADDD70F
:1030F0008C88055000D047E9E7CFD9FF1200D9CF1F
:10310000E6FFE1CFD9FF81E942E88C98010EE66E37
:10311000E66A00EC14F042E9440EE66EE3EC13F0CC
:1031200041E9C7EC13F0016E026AFF0E015C10E08A
:103130000A0E025C0DE2022A8C8800008C98440E74
:10314000E66EE3EC13F041E9C7EC13F0016EEDD746
:0C315000015000D043E9E7CFD9FF120086
:04315C000C0D0A202C
:1031600046696C74657276E47264653A202D202598
:1031700064202D200D0A0D0A000C0D0A205041522A
:10318000545F49445F524144494F3A202D20253035
:10319000325825303258202D200D0A0D0A000C0D12
:1031A0000A2048616C6C737769746368656E20E40B
:1031B0007220616B7469763A2009202564200D0A1B
:1031C0000D0A000C0D0A20582056414C3A200920C7
:1031D0002564200D0A20592056414C3A200920250B
:1031E00064200D0A205A2056414C3A2009202564BB
:1031F000200D0A000C0D0A204C495332445731323D
:1032000020494E4954494552494E473A0D0A0D0A44
:103210002057484F5F414D5F493F200930582530C6
:103220003258202830583434290D0A0D0A000C0D6C
:103230000A204E554D3A202564200D0A2052454162
:10324000442046524F4D20524144494F3A200930C4
:0B3250005825303258200D0A0D0A00EE
:04325C00060EF66EF6
:10326000000EF76E000EF86E01010900F550E16FD7
:103270000900F550E26F03E1E16701D03DD009009C
:10328000F550DC6F0900F550DD6F0900F550DE6F79
:1032900009000900F550E96E0900F550EA6E0900D1
:1032A00009000900F550DF6F0900F550E06F0900D3
:1032B0000900F6CFE3F1F7CFE4F1F8CFE5F1DCC197
:1032C000F6FFDDC1F7FFDEC1F8FF0101DF5302E1C8
:1032D000E05307E00900F550EE6EDF07F8E2E00783
:1032E000F9D7E3C1F6FFE4C1F7FFE5C1F8FF01013B
:0A32F000E107000EE25BBFD71200F9
:0632FA00D9CFE6FFDACF98
:10330000E6FFE1CFD9FFE2CFDAFF83E900EBC9FFA7
:10331000C6AE02D0FF0E2CD00F0EC61408080FE068
:103320000F0EC6140B080BE0C6889EA6FED7C7502A
:10333000040B03E1C750010B18E0000E19D00F0E6B
:10334000C614080804E00F0EC6140B0811E1C7B03C
:10335000FED7C750040B01E0010E0101CA6F1F0E1A
:10336000C514CA11F6E1C5AC02D0FE0E01D0000EA4
:0C33700041E9E5CFDAFFE7CFD9FF1200FA
:04337C00D9CFE6FFC0
:10338000DACFE6FFE1CFD9FFE2CFDAFF83E900EB46
:103390006FFF6CAE02D0FF0E29D00F0E6C14080820
:1033A0000CE00F0E6C140B0808E06D50040B03E1E9
:1033B0006D50010B18E0000E19D00F0E6C140808A8
:1033C00004E00F0E6C140B0811E16DB0FED76D50C8
:1033D000040B01E0010E0101CA6F1F0E6B14CA112C
:1033E000F6E16BAC02D0FE0E01D0000E41E9E5CF54
:0833F000DAFFE7CFD9FF12005C
:0833F800D9CFE6FFDACFE6FFB2
:10340000E1CFD9FFE2CFDAFF87E944E8D9CFE6FF81
:10341000DACFE6FFE552E5500A6EE750096E09EB98
:10342000E6FF0AEBE6FF00EBE6FF01EBE6FF02EB4F
:10343000E6FFD950030FE66E000EDA20E66E2FECA1
:103440000BF047E9F350076EF450086E03EBE9FF09
:1034500004EBEAFFEF6A07EBF3FF08EBF4FF45E943
:0A346000E5CFDAFFE7CFD9FF120035
:06346A00898A08EC01F064
:10347000640EE66EE66A00EC14F042E9899A640E86
:10348000E66EE66A00EC14F042E93AEF01F08D8056
:1034900008EC01F0640EE66EE66A00EC14F042E916
:1034A0008D90640EE66EE66A00EC14F042E93AEFA5
:1034B00001F0D9CFE6FFE1CFD9FF83E908EC01F0B5
:1034C00000EBE6FF01EBE6FF00EC14F042E93AEC1A
:0A34D00001F041E9E7CFD9FF120037
:0634DA00D9CFE6FFDACFB6
:1034E000E6FFE1CFD9FFE2CFDAFF85E9AC6AAB6A4C
:1034F00002B0AC8802A202D0AC8CAB8C02B4AC8E11
:1035000002A602D0AB8801D0AB8A02B8AC8402BA62
:10351000AB8602AC02D09D8A01D09D9A02AE02D049
:103520009D8801D09D9800EBAFFF010101EBCAF12E
:10353000CB6BCAC1B0FFAC8AAB8E41E9E5CFDAFFF5
:06354000E7CFD9FF1200E5
:0A354600FE0EE3CFE9FFFF0EE3CF16
:10355000EAFFF36AF46AEE5203E0F34AF42AFBD777
:103560001200FF0EE3CFF8FFE552FF0EE3CFF7FFA7
:10357000E552FF0EE3CFF6FFE552E66AE66AE66A39
:103580000900F55209E0FD0EE32A05E1FE0EE32AEB
:1035900002E1FF0EE32AF4D7FD0EE3CFE6F1FE0EC3
:0C35A000E3CFE7F1FF0EE3CFE8F11200EB
:0435AC00D9CFE6FF8E
:1035B000DACFE6FFE1CFD9FFE2CFDAFF85E90134C8
:1035C00015E200EBE9FF01EBEAFFEECFF3FFEDCFF1
:1035D000F4FFEE2A000EEF22F3CFE9FFF4CFEAFF6B
:1035E00002EBEFFFEF50F36EF46A0DD0FE0E005CBD
:1035F00005E102EBE6FF55EC1CF004D002EBE6FF20
:1036000086EC1CF041E941E9E5CFDAFFE7CFD9FFCD
:023610001200A6
:0E361200D9CFE6FFDACFE6FFE1CFD9FFE2CF56
:10362000DAFF85E93F0EC716C66A0250C61200507F
:10363000C7120150030A09E0010A04E0020A06E188
:10364000C78C04D0C78CC68801D0C6880250050A32
:1036500003E0010A03E1928A948601D0949694884B
:10366000949AC68A41E9E5CFDAFFE7CFD9FF120085
:10367000D9CFE6FFDACFE6FFE1CFD9FFE2CFDAFF1D
:1036800082E941E8F20E0101EB1771AC03D0EB9136
:1036900071B0EB8171B4EB8571B2EB877450026E3F
:0E36A000025042E9E5CFDAFFE7CFD9FF120072
:0236AE00D9CF72
:1036B000E6FFDACFE6FFE1CFD9FFE2CFDAFF82E91A
:1036C00041E8F20E0101EC17ABAC03D0EC91ABB0CA
:1036D000EC81ABB4EC85ABB2EC87AE50026E02501D
:0C36E00042E9E5CFDAFFE7CFD9FF120086
:0436EC00D9CFE6FF4D
:1036F000DACFE6FFE1CFD9FFE2CFDAFF83E941E895
:10370000C950036E9E96C69E00EBC9FFC6AE02D09E
:10371000FF0E03D09EA6FED7000E42E9E5CFDAFFEA
:06372000E7CFD9FF120003
:0A372600D9CFE6FFDACFE6FFE1CFCE
:10373000D9FFE2CFDAFF83E9FB0E0014BA6EBC6A50
:103740009E9200AE02D09D8201D09D92BA8441E942
:0A375000E5CFDAFFE7CFD9FF120042
:06375A00D9CFE6FFDACF33
:10376000E6FFE1CFD9FFE2CFDAFF84E942E880EB60
:1037700004F081EB05F005EBB3FF04EBB2FF43E986
:0A378000E5CFDAFFE7CFD9FF120012
:06378A00D9CFE6FFDACF03
:10379000E6FFE1CFD9FFE2CFDAFF84E93F0E6D16F5
:1037A0006C6A6B6A01506C1200506D126C8A41E9B0
:0A37B000E5CFDAFFE7CFD9FF1200E2
:0637BA00D9CFE6FFDACFD3
:1037C000E6FFE1CFD9FFE2CFDAFF84E93F0EC7166B
:1037D000C66AC56A0150C6120050C712C68A41E9BE
:0A37E000E5CFDAFFE7CFD9FF1200B2
:0637EA00D9CFE6FFDACFA3
:1037F000E6FFE1CFD9FFE2CFDAFF83E972AC04D074
:1038000072900101EBB3728000EB73FF41E9E5CFE9
:08381000DAFFE7CFD9FF120037
:08381800D9CFE6FFDACFE6FF8D
:10382000E1CFD9FFE2CFDAFF83E9ACAC04D0AC90B2
:103830000101ECB3AC8000EBADFF41E9E5CFDAFF6D
:06384000E7CFD9FF1200E2
:0A384600F36AF46AFF0EE124E96E54
:10385000FF0EE220EA6EED6607D02F0EEF6404D073
:0A3860003A0EEF6001D0F32A1200C7
:06386A00FF0EE350010116
:10387000EA6F1A0E00D000D001D0200EE76EE72EBE
:0A388000FED7EA2FFAD700D012009D
:06388A00380EF36E00EEA3
:1038900000F00F0E01D81200EA6002D0EE6AFCD7E9
:0A38A000F350E9601200EE6AFCD755
:0638AA00FF0EE350ACBA72
:1038B00004D0AF6AAB8EAC8A949CACA2FED7AD6E3E
:0638C000F36EF46A120031
:0A38C6001EEE00F02EEE00F0F86A8E
:1038D0002EEC19F087EC1CF06CEC0FF0FBD712000B
:1038E0000F0EC614080804E00F0EC6140B0801E101
:0A38F000C586C7A0FED7C95012001C
:0638FA0030313233343599
:0B390000363738396162636465660089
:02390C001200A7
:02390E001200A5
:020000040030CA
:0100010028D6
:01000500BF3B
:0100060045B4
:00000001FF
