:020000040000FA
:0600000088EF1CF0120065
:0A000600010055390000ED01000073
:0400100001000000EB
:0C0014000CD8FF0807E00A0EE66EE66A52
:10002000D8EC13F042E903D8FAD841EF01F0D9CF68
:10003000E6FFE1CFD9FF81E944E8046850D98B8E0F
:10004000050EE66EE66AD8EC13F042E9E66AE66A67
:10005000E66A2EEC1BF043E943DB026E0250041605
:10006000E66A4CD941E90F0EE66EE66AD8EC13F069
:1000700042E936DB026E02500416010E036E100ECA
:10008000035C0AE203EBE6FF39D941E929DB026EA2
:1000900002500416032AF3D78C98110EE66EBBECBF
:1000A00013F041E9200EE66EBBEC13F041E9020EBD
:1000B000E66EBBEC13F041E9500EE66EBBEC13F0BC
:1000C00041E9840EE66EBBEC13F041E90101ED0558
:1000D00006E10D0EE66EBBEC13F041E905D00A0E09
:1000E000E66EBBEC13F041E9FBDA026E0250041637
:1000F000110E036E190E035C0AE203EBE6FFFED855
:1001000041E9EEDA026E02500416032AF3D78C9806
:10011000110EE66EBBEC13F041E9400EE66EBBEC4F
:1001200013F041E9080EE66EBBEC13F041E9E66A14
:10013000BBEC13F041E90101ED0529E1000EE66E8B
:10014000E66AF8EC13F042E9E66EBBEC13F041E925
:10015000010EE66EE66AF8EC13F042E9E66EBBECDF
:1001600013F041E9020EE66EE66AF8EC13F042E99C
:10017000E66EBBEC13F041E9030EE66EE66AF8ECBE
:1001800013F042E9E66EBBEC13F041E928D0040E0F
:10019000E66EE66AF8EC13F042E9E66EBBEC13F0AB
:1001A00041E9050EE66EE66AF8EC13F042E9E66E08
:1001B000BBEC13F041E9060EE66EE66AF8EC13F0CC
:1001C00042E9E66EBBEC13F041E9070EE66EE66A23
:1001D000F8EC13F042E9E66EBBEC13F041E9170EC0
:1001E000E66EBBEC13F041E9A10EE66EBBEC13F03A
:1001F00041E9200EE66EBBEC13F041E9FA0EE66E23
:10020000BBEC13F041E98C886BDA026E02500416E5
:10021000C69A045000D045E9E7CFD9FF1200D9CFE4
:10022000E6FFE1CFD9FF81E942E802688B8E020E3A
:10023000E66E5AEC1CF041E9E66AE66AE66A2EECE4
:100240001BF043E90101ED0505E11E0EE66E56D8EF
:1002500041E904D01F0EE66E51D841E941DA016E42
:10026000015002161C0EE66E49D841E939DA016EDA
:1002700001500216C69A025000D043E9E7CFD9FFD9
:100280001200D9CFE6FFE1CFD9FF81E942E8026849
:10029000E66AE66AE66A2EEC1BF043E9210EE66E9A
:1002A0002DD841E91DDA016E01500216200EE66ECE
:1002B00025D841E915DA016E01500216B4DA10DAD8
:1002C000016E015002161B0EE66E18D841E9C69A5F
:1002D0008B9E025000D043E9E7CFD9FF12008B84F8
:1002E000010EE66EE66AD8EC13F042E98B940A0E32
:1002F000E66EE66AD8EC13F042E91200D9CFE6FFC9
:10030000E1CFD9FF82E945E80050110DF3CFF6FFA8
:10031000F4CFF7FFEE0EF6260C0EF722F6CFC9F15A
:10032000F7CFCAF10101CB6B0101C951046ECA516B
:10033000056ECB51066ED950040FE96EDACFEAFF95
:10034000EFCFF6FFEE2AEFCFF7FF000EEE22EFCF52
:10035000F8FF000EEE220800F550036E8C98026A3A
:100360000350025C1FE200000000D950040FE96E48
:10037000DACFEAFFEFCFF6FFEE2AEFCFF7FF000E5E
:10038000EE22EFCFF8FF000EEE220800F550C96E06
:10039000D66AC750010B04E1050ED65C01E2F9D71D
:1003A000022ADED78C8846E9E7CFD9FF1200D9CFE1
:1003B000E6FFE1CFD9FF82E946E80050110DF3CF07
:1003C000F6FFF4CFF7FF6F0EF626140EF722F6CFE6
:1003D000C9F1F7CFCAF10101CB6B0101C951056E1B
:1003E000CA51066ECB51076ED950050FE96EDACFB0
:1003F000EAFFEFCFF6FFEE2AEFCFF7FF000EEE2277
:10040000EFCFF8FF000EEE220800F550046E8C9836
:10041000026A0450025C1FE200000000D950050F80
:10042000E96EDACFEAFFEFCFF6FFEE2AEFCFF7FF64
:10043000000EEE22EFCFF8FF000EEE220800F5507E
:10044000C96ED66AC750010B04E1050ED65C01E205
:10045000F9D7022ADED78C8847E9E7CFD9FF120007
:10046000D9CFE6FFE1CFD9FF82E946E80050110D70
:10047000F3CFF6FFF4CFF7FF300EF6260F0EF7227C
:10048000F6CFC9F1F7CFCAF10101CB6B0101C95118
:10049000056ECA51066ECB51076ED950050FE96E35
:1004A000DACFEAFFEFCFF6FFEE2AEFCFF7FF000E2D
:1004B000EE22EFCFF8FF000EEE220800F550046E9A
:1004C0008C98026A0450025C1FE200000000D950C0
:1004D000050FE96EDACFEAFFEFCFF6FFEE2AEFCF96
:1004E000F7FF000EEE22EFCFF8FF000EEE2208001D
:1004F000F550C96ED66AC750010B04E1050ED65CF3
:1005000001E2F9D7022ADED78C8847E9E7CFD9FF85
:100510001200D9CFE6FFE1CFD9FF82E946E80050CB
:10052000110DF3CFF6FFF4CFF7FF500EF626110EA4
:10053000F722F6CFC9F1F7CFCAF10101CB6B010168
:10054000C951056ECA51066ECB51076ED950050FC1
:10055000E96EDACFEAFFEFCFF6FFEE2AEFCFF7FF33
:10056000000EEE22EFCFF8FF000EEE220800F5504D
:10057000046E8C98026A0450025C1FE200000000C6
:10058000D950050FE96EDACFEAFFEFCFF6FFEE2A7A
:10059000EFCFF7FF000EEE22EFCFF8FF000EEE22B6
:1005A0000800F550C96ED66AC750010B04E1050E6C
:1005B000D65C01E2F9D7022ADED78C8847E9E7CF7B
:1005C000D9FF1200D9CFE6FFE1CFD9FF82E946E893
:1005D0000050110DF3CFF6FFF4CFF7FF1A0EF626F9
:1005E000140EF722F6CFC9F1F7CFCAF10101CB6B98
:1005F0000101C951056ECA51066ECB51076ED95023
:10060000050FE96EDACFEAFFEFCFF6FFEE2AEFCF64
:10061000F7FF000EEE22EFCFF8FF000EEE220800EB
:10062000F550046E8C98026A0450025C1FE20000D0
:100630000000D950050FE96EDACFEAFFEFCFF6FFE1
:10064000EE2AEFCFF7FF000EEE22EFCFF8FF000EFD
:10065000EE220800F550C96ED66AC750010B04E1BE
:10066000050ED65C01E2F9D7022ADED78C8847E96D
:10067000E7CFD9FF1200D9CFE6FFE1CFD9FF84E958
:1006800042E88C98056A0050055C0DE20550012493
:10069000E96E000E0220EA6EEFCFE6FFBBEC13F02E
:1006A00041E9052AF0D78C88055000D043E9E7CF0F
:1006B000D9FF1200D9CFE6FFE1CFD9FF81E942E8A7
:1006C0008C98440EE66EBBEC13F041E99FEC13F0FE
:1006D000016E8C88015000D043E9E7CFD9FF1200AA
:1006E000D9CFE6FFE1CFD9FF81E942E8026A8C98D1
:1006F000440EE66EBBEC13F041E900009FEC13F0F2
:10070000016E8C88FF0E015C10E0140E025C0DE29D
:100710008C98440EE66EBBEC13F041E900009FECB0
:1007200013F0016E8C88022AEDD7FF0E015C08E001
:100730008D80140EE66EE66AD8EC13F042E98D90D7
:100740008C98015000D043E9E7CFD9FF1200D9CFF0
:10075000E6FFE1CFD9FF81E942E8440EE66EBBEC4B
:1007600013F041E900009FEC13F0016E026AFF0EE6
:10077000015C0FE00A0E025C0CE2440EE66EBBEC7C
:1007800013F041E900009FEC13F0016E000000003F
:10079000EED7015000D043E9E7CFD9FF1200D9CFFF
:1007A000E6FFE1CFD9FF82E944E88C980000000021
:1007B0009FEC13F0036E00009FEC13F0046E00003A
:1007C0008C8845E9E7CFD9FF1200D9CFE6FFE1CF0A
:1007D000D9FF82E942E88C9800000000770EE66EAF
:1007E000BBEC13F041E9026A0050025C16E29FEC98
:1007F00013F0E66E0101D950030FC96FDACFCAF1C9
:1008000002500101EA6AC925E96ECA51EA22E5529D
:10081000E750EF6E0000022AE7D700008C8843E91A
:10082000E7CFD9FF12008C9800000000200EE66E82
:10083000BBEC13F041E9E66ABBEC13F041E9E66A70
:10084000BBEC13F041E9E66ABBEC13F041E90000B0
:100850008C881200D9CFE6FFE1CFD9FF82E944E8C6
:10086000046A8C98150EE66EBBEC13F041E900EBC0
:10087000E6FFBBEC13F041E900008C8800008C9887
:10088000440EE66EBBEC13F041E900009FEC13F060
:10089000036EFF0E035C0EE08C8800008C98440E03
:1008A000E66EBBEC13F041E900009FEC13F0036E21
:1008B0000000EFD7FF0E035C06E19FEC13F0046E1F
:1008C0009FEC13F0056E8C88045000D045E9E7CF0B
:1008D000D9FF1200D9CFE6FFE1CFD9FF83E944E881
:1008E000036A8C980000000001EBE6FFBBEC13F0FC
:1008F00041E9E668BBEC13F041E9E668BBEC13F0B4
:1009000041E9E668BBEC13F041E900008C88000087
:100910008C9800001CDFFF081EE10368200E046EA7
:10092000056A0050055C17E29FEC13F0E66E0101CA
:10093000D950060FC96FDACFCAF104500101EA6A33
:10094000C925E96ECA51EA22E552E750EF6E000070
:10095000052A042AE6D700008C88035000D045E918
:10096000E7CFD9FF1200D9CFE6FFE1CFD9FF81E968
:1009700041E88B8EB4DCE66AE66AE66A2EEC1BF090
:1009800043E9AEDE016EE66A1DDE41E9140EE66E55
:10099000E66AD8EC13F042E9A3DE016E010EE66EC2
:1009A00011DE41E99DDE016E020EE66E0BDE41E9CD
:1009B00097DE016E030EE66E05DE41E98B9EC69A58
:1009C00042E9E7CFD9FF1200D9CFE6FFE1CFD9FF47
:1009D00085E94DE8066A8B8E8C9803EBE6FFBBEC4D
:1009E00013F041E98C8800008C98440EE66EBBEC55
:1009F00013F041E99FEC13F0076E056AFF0E075CE8
:100A000010E00A0E055C0DE2052A8C8800008C9827
:100A1000440EE66EBBEC13F041E99FEC13F0076E59
:100A2000EDD7FF0E075C14E1010E066E056A025059
:100A3000055C0EE29FEC13F0E66E05500024E96EB3
:100A4000000E0120EA6EE552E750EF6E052AEFD75F
:100A50008C88065000D04EE9E7CFD9FF1200D9CFDD
:100A6000E6FFE1CFD9FF82E941E8026A8B8E8C98DC
:100A700000EBE6FFBBEC13F041E99FEC13F0026ED4
:100A80008C88025000D042E9E7CFD9FF1200D9CFBD
:100A9000E6FFE1CFD9FF82E945E8050E005C02E2FE
:100AA000050E006E0050320802E2320E006E036A3C
:100AB000046A026A030E025C36E20101D950050F96
:100AC000CD6FDACFCEF10228020DCD51F324E96EBD
:100AD000CE51F420EA6EEECFCBF1EFCFCCF1D9506E
:100AE000050FC96FDACFCAF10250020DC951F324C4
:100AF000E96ECA51F420EA6ECBC1EEFFCCC1EDFF26
:100B0000D950050FC96FDACFCAF10250020DC95191
:100B1000F324E96ECA51F420EA6EEE500326EF503A
:100B20000422022AC7D70050E66E0101D950050FF2
:100B3000C96FDACFCAF10250020DC951F324E96E30
:100B4000CA51F420EA6EE552E750EE6EED6AD950D4
:100B5000050FC96FDACFCAF10250020DC951F32453
:100B6000E96ECA51F420EA6EEE500326EF500422DB
:100B7000036A046A026A040E025C13E2D950050F8C
:100B8000C96FDACFCAF10250020DC951F324E96EE0
:100B9000CA51F420EA6EEE500326EF500422022AD6
:100BA000EAD7D89004320332D890043203323F0E91
:100BB0000316000E0416010E0326000E0422035035
:100BC00000D046E9E7CFD9FF1200D9CFE6FFE1CF49
:100BD000D9FF81E942E86FEC01F08B8E050EE66EDD
:100BE000E66AD8EC13F042E9E66AE66AE66A2EECB9
:100BF0001BF043E975DD016EE66A8BDC41E90F0EFF
:100C0000E66EE66AD8EC13F042E96ADD016E0BDEAF
:100C1000010E026E240E025C08E202EBE6FF79DCB4
:100C200041E95EDD016E022AF5D7C69A000043E96C
:100C3000E7CFD9FF1200D9CFE6FFE1CFD9FF82E994
:100C400042E86FEC01F08B8E050EE66EE66AD8EC9A
:100C500013F042E9E66AE66AE66A2EEC1BF043E925
:100C60003FDD026EE66AD7EC01F041E90F0EE66E59
:100C7000E66AD8EC13F042E933DD026E010E036E32
:100C80001A0E035C09E203EBE6FFD7EC01F041E941
:100C900027DD026E032AF4D7C69A43E9E7CFD9FFCE
:100CA0001200D9CFE6FFE1CFD9FF81E941E8E66A3A
:100CB000E66AE66A2EEC1BF043E91F0EE66ED7ECFF
:100CC00001F041E90DDD016E270EE66E22DC41E9FF
:100CD00007DD016EA8DD04DD016E280EE66E19DC6D
:0E0CE00041E9C69A8B9E42E9E7CFD9FF120088
:020CEE000702FB
:100CF0000101018CBA800000000000000000000823
:100D000013010003030000000000000000000000C9
:100D100006110002000000000000000000000000BA
:100D20000005110001032000000000000000000089
:100D3000000005110101000000000000000000009B
:100D40000000000811020400000000000000000084
:100D50000000000005111001042100000000000047
:100D600000000000001011200C000800070186A000
:100D7000018CBA800012051120010CE8000000006F
:100D8000000000000000001011200C1800000802F4
:100D90008000302000E800A31011200C24032699C5
:100DA00000C90200000012812E0711200330033D0C
:100DB000A00000000000000000000511200135E047
:100DC00000000000000000000000001011200C389E
:100DD000112424801AFFFF00290CA42309112005E7
:100DE000450303120200000000000000000811206B
:100DF000044B06091C400000000000000000051123
:100E0000200250840D0000000000000000000006D9
:100E1000112002540A07000000000000000000003A
:100E20000511200157000000000000000000000034
:100E300000091120055B4004177820000000000025
:100E400000001011210C00FFBA0F51CFA9C9FC1BE3
:100E50001E0F011011210C0CFCFD15FF000FFFBA35
:100E60000F51CFA91011210C18C9FC1B1E0F01FC3A
:100E7000FD15FF000F0811220400184FC01D0000CF
:100E80000000000000000B112307002C0E0B040CC7
:100E9000730300000000000C11400800440D89D8C5
:100EA00017A120FA0000000005310000000000003A
:100EB00000000000000000000002340100000000FB
:100EC00000000000000000000000023407000000E5
:100ED00000000000000000000000000120000000F1
:100EE00000000000000000000000000008130100E6
:100EF00003030000000000000000000000081301D0
:100F000000030200000000000000000000000813C1
:100F100001000202000000000000000000000002CA
:100F2000340300000000000000000000000000008A
:100F300007020101018CBA800000000000000000DF
:100F40000008130000000000000000000000000086
:100F50000000061100020000000000000000000078
:100F60000000000511000103200000000000000047
:100F70000000000005110101000000000000000059
:100F80000000000000081102040000000000000042
:100F90000000000000000511100104210000000005
:100FA000000000000000001011200C0008000701E4
:100FB00086A0018CBA800006051120010C4D0000AE
:100FC0000000000000000000001011200C180000BC
:100FD00008038000201000E800D91011200C240222
:100FE0005CF30097020000001280650711200330B7
:100FF0000442A000000000000000000005112001D4
:1010000035E000000000000000000000001011208A
:101010000C38112F2F801AFFFF00290CA42309116F
:1010200020054503024E02000000000000000008F9
:101030001120044B06091C400000000000000000C5
:101040000611200150840000000000000000000094
:1010500000061120025408070000000000000000F4
:1010600000000511200157000000000000000000F2
:10107000000000091120055B4004127820000000E8
:10108000000000001011210C00FFBA0F51CFA9C9B8
:10109000FC1B1E0F011011210C0CFCFD15FF000F95
:1010A000FFBA0F51CFA91011210C18C9FC1B1E0F3C
:1010B00001FCFD15FF000F0811220400181FC01DC0
:1010C00000000000000000000B112307002C0E0B95
:1010D000040C730300000000000C11400800410CD8
:1010E000FC8801F820FE000000000531150000001A
:1010F00000000000000000000000000234010000B9
:1011000000000000000000000000000002340700A2
:1011100000000000000000000000000000081301B3
:10112000000302000000000000000000000008139F
:1011300001000202000000000000000000000002A8
:101140003403000000000000000000000000000068
:1011500007020101018CBA800000000000000000BD
:1011600000081301000302270040000000000000F7
:101170000000061100020000000000000000000056
:101180000000000511000103200000000000000025
:101190000000000005110101000200000000000035
:1011A000000000000005110101020B00000000001A
:1011B0000000000000000811020400000000000010
:1011C000000000000000000D1110090008140006C6
:1011D0003D000000000000000A1111060006DA912F
:1011E000D300000000000000000B111207000401F2
:1011F00008FFFF200B00000000001011120C080077
:1012000000003020001105800000001011120C14A5
:101210000000000000000000000000001011120C8F
:10122000200000000000000000000000000D11126E
:10123000092C000000000000000000000000081160
:101240001204360000000000000000000000001042
:1012500011200C00028007005DC0018CBA800000E4
:10126000051120010CC20000000000000000000079
:10127000001011200C1801800803800030200CE8B9
:1012800002A51011200C2400C195006100C2005479
:1012900062800807112003302469800000000000EC
:1012A000000000000511200135E0000000000000F2
:1012B00000000000001011200C38119494801A8056
:1012C00000002B0C84220C112008458F005E0200C8
:1012D00013060100000000071120034C041C40000D
:1012E00000000000000000000611200250940A00D7
:1012F0000000000000000000000611200254030757
:10130000000000000000000000000511200157004F
:101310000000000000000000000000091120055B33
:101320004204077820000000000000001011210C8A
:1013300000FFC4307FF5B5B8DE0517160C1011217B
:101340000C0C030015FF0000FFC4307FF5B5101131
:10135000210C18B8DE0517160C030015FF00000558
:10136000112201031D000000000000000000000029
:101370000B112307002C0E0B040C7303000000005C
:10138000001011300C000000000000000000000000
:1013900000000C11400800410EE79407E020FE0019
:1013A000000000081102040005060A090000000000
:1013B00000000000083200000040080308000000A0
:1013C00000000000000234080000000000000000DF
:1013D00000000000000002340200000000000000D5
:1013E00000000000000000023403000000000000C4
:1013F00000000000000000000234010000000000B6
:101400000000000000000000000813111401012773
:101410000040000000000000000007020101018CF4
:10142000BA80000000000000000000081301010164
:10143000010000600000000000000000012000002A
:101440000000000000000000000000000002340165
:101450000000000000000000000000000000081173
:1014600002040005060A0900000000000000000751
:10147000020101018CBA80000000000000000000A1
:101480000813100403020000000000000000000028
:101490000006110002000000000000000000000033
:1014A0000000051100010320000000000000000002
:1014B0000000000511010100000000000000000014
:1014C00000000000081102040000000000000000FD
:1014D00000000000000511100104210000000000C0
:1014E0000000000000001011200C002A0007005D21
:1014F000C0018CBA800000051120010C9100000091
:1015000000000000000000001011200C18018008ED
:1015100003800030200CE802A51011200C2400C12B
:1015200095006100C200546280AB071120033002B5
:101530004E80000000000000000000051120013571
:10154000E000000000000000000000001011200C6E
:1015500038119494801A6000002B0C842309112008
:1015600005458F0047020000000000000000081140
:1015700020044B06091C400000000000000000068B
:1015800011200250940A000000000000000000003A
:1015900006112002540307000000000000000000B4
:1015A00000051120015700000000000000000000AD
:1015B0000000091120055B420406782000000000AD
:1015C0000000001011210C00FFC4307FF5B5B8DE1B
:1015D0000517160C1011210C0C030015FF0000FF5D
:1015E000C4307FF5B51011210C18B8DE0517160CA4
:1015F000030015FF000008112204001801C01D009F
:10160000000000000000000B112307002C0E0B044B
:101610000C730300000000000C11400800410EE7AD
:101620004401F820FE000000000531000000000029
:0A16300000000000000000000000B0
:06163A0090DB86E901507F
:10164000010600090CE002EBE6FF03EBE6FF00EB0E
:10165000E6FF69DBF4E1CA1DF2E1010E01D0000EE4
:1016600041E9E5CFDAFFE7CFD9FF120077DB89E95F
:101670007BE80A6A0B6A02EBF6FF03EBF7FF04EB69
:10168000F8FF0800F550096E095001E12DD3250E31
:10169000095C01E01BD30C6A0D6A0E6A0F6A106ABE
:1016A0002DDB2D0E095C0CE02B0E095C09E0200EF1
:1016B000095C06E0230E095C03E0300E095C15E1CD
:1016C0000950300A10E0130A0CE0030A08E00B0A84
:1016D00004E0060AE5E10C80E3D70C82E1D70C8434
:1016E000DFD70C86DDD70C88DBD72A0E095C13E127
:1016F000A5DB0DE30C801CEBC9F11DEBCAF1010168
:10170000C96DCA1F000ECA23C9510D6E02D09CEBD1
:101710000DF0F4DA07D0126A3FDB02E06BDBFCD796
:1017200092EB0DF00CB00C982E0E095C15E1E6DA88
:101730002A0E095C08E182DB04E29CEB0EF0010E4C
:101740000F6EDCDA09D0126A27DB02E053DBFCD72C
:1017500092EB0EF0010E0F6E680E095C07E1CEDA17
:10176000680E095C1DE1030E106E19D0740E095C41
:1017700016E07A0E095C13E0480E095C06E0540E90
:10178000095C03E05A0E095C02E1020E07D06C0E00
:10179000095C03E06A0E095C03E1010E106EAEDA2B
:1017A00009506E0A01E16ED21E0A01E128D1200A19
:1017B00001E125D13F0A01E1FDD01A0A01E1FAD089
:1017C0000D0A01E1F7D0200A01E1F4D03A0A01E163
:1017D000F1D0200A01E1EED0260A01E1EAD00D0A9B
:1017E00001E1E7D01A0A01E19ED0200A3BE0300A6D
:1017F0001AE0460A0EE0250A01E072D2D950020F23
:10180000E96E000EDA20EA6E010EEE5E000EEE5A70
:10181000EE5A0FDB250EE66E86DA03E1CA1D01E102
:1018200059D20A2A5BD2116A0D50010803E20D0455
:10183000116EF5DA115007E0010E0C1404E16DDAB7
:1018400001E048D2116AD3DAEF50096ECBDA03E136
:10185000CA1D01E13FD20A2A000E0B225EDA01E125
:101860003FD238D2020E105C08E1030E4EDAEE5081
:10187000176EEE50186EEF5007D0E7DACB6BC951F8
:10188000176ECA51186ECB51196E17EBE6FF18EBA5
:10189000E6FF19EBE6FFD6EC1AF043E9E5C1C9F122
:1018A000E6C1CAF1E7C1CBF10101C9511C6ECA51B1
:1018B0001D6E0F5006E01C500E5C03E20E501C6EB5
:1018C0001D6A1C500D5C02E29CEB0DF050DA05E045
:1018D0000D500E5C02E28EEB0DF00CB004D01DDA60
:1018E00001E0F8D1116A126A17EBF6FF18EBF7FF67
:1018F00019EBF8FF0800F550096E095010E00D5083
:10190000125C0DE26FDA03E1CA1D01E1E3D10A2A9C
:10191000000E0B22122AD950170F55DAEBD7FDD93A
:1019200001E1DED1D7D163DAEE501A6EED501B6EB5
:101930001AEBE6FF1BEBE6FFC8EC1AF042E9F350A6
:101940001C6EF4501D6E0F5006E01C500E5C03E23E
:101950000E501C6E1D6A1C500D5C02E29CEB0DF0DB
:1019600006DA05E00D500E5C02E28EEB0DF00CB0D5
:1019700004D0D3D901E0AED1116A126A1AEBE9FFA3
:101980001BEBEAFFEF50096E09500FE00D50125C9F
:101990000CE228DA03E1CA1D01E19CD10A2A000EFB
:1019A0000B22122A1A2A1B22E9D7B7D901E198D1B2
:1019B00091D10C8E10040AE1040EA7D9EE50136EDB
:1019C000EE50146EEE50156EEF5032D0030E105CD8
:1019D00016E10CAE0CD00BDAEFCFC9F10101CA6BE6
:1019E000CB6BCC6BC9AF23D0CA69CB691FD0FFD9F1
:1019F000EFCFC9F10101C951136E146A20D0020E54
:101A0000105C0CE10CAE06D0030E7FD9B6D9CBAF7B
:101A10000ED00CD0030E79D9B0D909D00CAE0AD0B3
:101A200014DACB6BCC6BCAAF02D0CB69CC69BCD912
:101A3000166E07D00ADAC951136ECA51146E156AB0
:101A4000166A0F5002E1010E0E6E1E6A1F6AD9500F
:101A5000400FE66E000EDA20E66EE552E550436E6A
:101A6000E750426E416A116A0A0E106E0950780AF8
:101A700012E0200A10E0280A0CE0200A0AE03F0ADF
:101A800006E00D0A02E0200A08E1020E05D0080E69
:101A900003D0080E0926100E106E0CBE02D00C9258
:101AA0000C94800E0C1417E0163415E3E668E66813
:101AB000E668E66842D9DAEC16F0E552E5CFCCF1FB
:101AC000E5CFCBF1E5CFCAF1E7CFC9F101016CD980
:101AD000166E2D0E07D00CA202D02B0E03D00CA434
:101AE00004D0200E206E1E2A01D0206A0E5005E17F
:101AF000135014101510161061E00101440EC96F47
:101B0000390ECA6F000ECB6F83D997EC16F0E552F1
:101B1000E5CFCFF1E5CFCEF1E5CFCDF1E7CFCCF1F9
:101B20000101C951CC25F36ECA51CD21F46ECB51C0
:101B3000CE21F86EF4CFF7FFF3CFF6FF0800F55093
:101B4000126E580E095C05E1610E125C02E3200E74
:101B5000125E5ED994EC16F0E552E550166EE55033
:101B6000156EE550146EE750136E42EBE9FF43EB40
:101B7000EAFF4206000E435A12EBEFFF1E2A1350F3
:101B8000141015101610B9E10CA619D06F0E095CCF
:101B900006E10E501E5C13E31E280E6E10D0780E68
:101BA000095C09E0580E095C06E0620E095C03E07E
:101BB000420E095C04E1020E1F6E01D01E6A100E77
:101BC0000C1407E00D500E5C04E20F5002E18DEBA7
:101BD0000EF00E501E5C03E21E500E5E01D00E6A27
:101BE0000E501E241F24D8800D5407E20E500D5CA9
:101BF000D8801E54D8801F54116E010E0C1406E1BB
:101C0000115004E08AD866E10AD9116A205007E031
:101C100010D920EBE6FF87D802E1CA1D5BE01F5018
:101C20000BE007D9300EE66E7ED802E1CA1D52E005
:101C3000D9D802E1CA1D4EE00E501F5C02E21F50CF
:101C40000E5E300EE66E0EEBE6FFDCD843E1422A74
:101C5000000E432242EBE9FF43EBEAFFEF50126E26
:101C6000125008E0E6D812EBE6FF5DD8F0E1CA1D9D
:101C7000EEE130D052D82EE10E501E2411241F2444
:101C80000A262CD01050030A1CE0010A14E0030AB3
:101C900007E0ADD8C9D80AEBEEFF0BEBEDFF20D083
:101CA0008BD8CC6BCAAF02D0CB69CC69A0D84ED848
:101CB000CCC1EEFF15D080D8CABFCB6998D846D822
:101CC0000FD095D8B1D80AEBEFFF0AD08BD805E139
:101CD000CA1D03E1F368F4680BD00A2A000E0B2238
:101CE000D950020F70D8CDD40AEBF3FF0BEBF4FF01
:101CF0007CE9E5CFDAFFE7CFD9FF1200D950020F18
:101D000062D80800F550096E1200005E000E015AFC
:101D100000EBE9FF01EBEAFF1200200EE66E11EB8B
:101D2000E6FF02EF0FF0FBEC1AF043E9F3CFC9F145
:101D3000F4CFCAF10101F31C120013EBE6FF14EB20
:101D4000E6FF15EBE6FF16EBE6FF12006DD8C9C102
:101D5000EEFFCAC1EEFFCBC1EEFF1200D9CFE6FF06
:101D6000DACFE6FFE1CFD9FFE2CFDAFF12001C5055
:101D70000D5C116E54D80F501200EECFC9F1EECFAA
:101D8000CAF1EFCFCBF10101CC6B1200EECFC9F15C
:101D9000EFCFCAF1010112000950E66EE66A48EC85
:101DA0001CF042E9F3501200C951136ECA51146E6F
:101DB000CB51156ECC5112000AEBC9F10BEBCAF1F5
:101DC0000101CB6B1200E96E000EDA20EA6EEF2AF9
:101DD000EECFF6FF000EEF22EECFF7FFEF22EECFB1
:101DE000F8FF120026D809EBE6FF93EF0EF0020E83
:101DF00085EF0EF00A0E1202F3500924D00F126E76
:101E00007EEF0EF016D81DEC0BF044E9000912002D
:101E100010EBE6FFE66AE66AE66A9DEF0EF0115007
:101E20000A26000E0B221200EE50EFCFEAFFE96EF9
:101E3000120005EBE6FF06EBE6FF1200D8DFEE50DE
:101E40001C6EED501D6E1D341200D1DFC6EF0EF07A
:101E5000D9CFE6FFE1CFD9FF84E942E8046A056AF9
:101E600000041FE101500424E96E02500520EA6ECF
:101E7000EF5016E001500424E96E02500520EA6E8E
:101E8000EFCFE6FF31EC1CF041E9ACA2FED7050E26
:101E9000E66E5AEC1CF041E9042A000E0522E2D756
:101EA0001ED001500424E96E02500520EA6EEF5066
:101EB00016E001500424E96E02500520EA6EEFCFCF
:101EC000E6FF1AEC1CF041E972A2FED7050EE66EA1
:101ED0005AEC1CF041E9042A000E0522E2D743E93E
:101EE000E7CFD9FF1200D9CFE6FFE1CFD9FF81E9D3
:101EF00065E8226A236A9BEC12F0B7EC12F0000E40
:101F0000E66EE66AD2EC1BF042E90101006B016B60
:101F1000026B036B7CEC1BF05DEC1BF0F19E01018E
:101F20000593026B006B096B0595036B016BA96B45
:101F3000948E948C0C0EE66EE66A7C0EE66E92EC45
:101F40001AF043E9B886708689908984898AE80EF8
:101F5000E66E030EE66ED8EC13F042E9899A8D80A6
:101F6000E80EE66E030EE66ED8EC13F042E98D90B3
:101F7000E66A030EE66EE66A2EEC1BF043E9B4EC6B
:101F800017F0026EC69A0250E66EE66A3F0EE66EE3
:101F9000320EE66EE66A290EE66E010EE66E21EC62
:101FA0001AF047E9010EE66E290EE66E010EE66EA6
:101FB0004FDF43E90A0EE66EE66AD8EC13F042E919
:101FC000898A0A0EE66EE66AD8EC13F042E9899A2D
:101FD000E66A030EE66EE66A2EEC1BF043E9025059
:101FE000E66EE66A3F0EE66E320EE66EE66A290E91
:101FF000E66E010EE66E21EC1AF047E9010EE66E80
:10200000290EE66E010EE66E23DF43E98998A80EDD
:10201000E66E9BEC1BF041E99FEC13F0106E9FEC19
:1020200013F0116E9FEC13F0126E9FEC13F0136E11
:102030009FEC13F0146E9FEC13F0156E8988C69A0E
:1020400011EBE6FF10EBE6FFECEC17F042E9F35082
:10205000166EF450176E13EBE6FF12EBE6FFECEC96
:1020600017F042E9F350186EF450196E15EBE6FFC5
:1020700014EBE6FFECEC17F042E9F3501A6EF45063
:102080001B6E640EE66EE66A16EBE6FF17EBE6FFE4
:10209000DCEC15F0E552E5501D6EE7501C6E640E49
:1020A000E66EE66A18EBE6FF19EBE6FFDCEC15F0EE
:1020B000E552E5501F6EE7501E6E640EE66EE66A4E
:1020C0001AEBE6FF1BEBE6FFDCEC15F0E552E55002
:1020D000216EE750206E20EBE6FF21EBE6FF1EEBC2
:1020E000E6FF1FEBE6FF1CEBE6FF1DEBE6FF0E0E27
:1020F000E66E320EE66EE66A290EE66E010EE66EBA
:1021000021EC1AF04BE9010EE66E290EE66E010E87
:10211000E66E9EDE43E9010EE66EE66AD8EC13F049
:1021200042E9246A256A1D3425501D1804E61C5016
:10213000245C1D5025580CE2898A0A0EE66EE66A78
:10214000D8EC13F042E9899A242A000E2522EBD715
:10215000640EE66EE66AD8EC13F042E9246A256A5A
:102160001F3425501F1804E61E50245C1F502558AC
:102170000CE28D800A0EE66EE66AD8EC13F042E9B6
:102180008D90242A000E2522EBD7640EE66EE66AB7
:10219000D8EC13F042E9246A256A2134255021182D
:1021A00004E62050245C215025580CE2898A0A0E4E
:1021B000E66EE66AD8EC13F042E9899A242A000E0A
:1021C0002522EBD78150200B01E0010E226E236AFD
:1021D0002250231018E122EBE6FF23EBE6FFE90E85
:1021E000E66E310EE66EE66A290EE66E010EE66ECA
:1021F00021EC1AF047E9010EE66E290EE66E010E9B
:10220000E66E26DE43E98B8E8B82440E066E0D0E43
:10221000076EFE0E086E1C0E096E410E0A6E0C0E45
:102220000B6EFC0E0C6E880E0D6E000EE66EE66AEE
:1022300006EBE6FF15EC14F043E9010EE66EE66AE4
:1022400007EBE6FF15EC14F043E9020EE66EE66AD2
:1022500008EBE6FF15EC14F043E9030EE66EE66AC0
:1022600009EBE6FF15EC14F043E9040EE66EE66AAE
:102270000AEBE6FF15EC14F043E9050EE66EE66A9C
:102280000BEBE6FF15EC14F043E9060EE66EE66A8A
:102290000CEBE6FF15EC14F043E9070EE66EE66A78
:1022A0000DEBE6FF15EC14F043E90AEC00F017EC37
:1022B00000F00FEC01F041EC01F0E66AE66AE66A34
:1022C0002EEC1BF043E98C98B3EC18F012EC18F0EC
:1022D000010EE66E9BEC1BF041E912EC18F0B3EC3A
:1022E00018F0026EFF0E025C32E1016A040E015C1E
:1022F00014E29FEC13F0E66E0101D9500F0FC96F85
:10230000DACFCAF10150EA6AC925E96ECA51EA2258
:10231000E552E750EF6E012AE9D71150E66EE66A02
:102320001050E66EE66AC40EE66E310EE66EE66AA0
:10233000290EE66E010EE66E21EC1AF049E9010E57
:10234000E66E290EE66E010EE66E82DD43E98C88AC
:10235000010EE66EE66AD8EC13F042E9C69A898A65
:102360000FEC01F0140EE66EE66AD8EC13F042E9C9
:1023700041EC01F0899AE80EE66E030EE66ED8ECA9
:1023800013F042E99AD7D3D0180E6E6EE66A080EA3
:10239000E66EEAEC1BF042E96B806BB0FED7640E90
:1023A000E66EE3EC19F041E96B9A6B886BB8FED7E7
:1023B000B4EC14F0220EE66EE3EC19F041E96B9AEE
:1023C0006B886BB8FED76B826BB2FED7D40EE66E0D
:1023D000E3EC19F041E96B9A6B886BB8FED7810E7C
:1023E000E66EE3EC19F041E96B9A6B886BB8FED7A7
:1023F0006B846BB4FED76C9AE66A080EE66E02EC4C
:102400001CF042E9C580C5B0FED7C750040B01E0FF
:10241000010E0101C96F1F0EC514C91101E0F5D7E6
:10242000D40EE66EA2EC19F041E9026EC750040B1F
:1024300001E0010E0101C96F1F0EC514C91101E0B1
:10244000F5D7C59AC588C5B8FED7C750040B01E0BB
:10245000010E0101C96F1F0EC514C91101E0F5D7A6
:10246000220EE66EA2EC19F041E9026EC750040B91
:1024700001E0010E0101C96F1F0EC514C91101E071
:10248000F5D7C59AC588C5B8FED7C750040B01E07B
:10249000010E0101C96F1F0EC514C91101E0F5D766
:1024A000C582C5B2FED7C750040B01E0010E010181
:1024B000C96F1F0EC514C91101E0F5D7D50EE66E20
:1024C000A2EC19F041E9026EC750040B01E0010EC5
:1024D0000101C96F1F0EC514C91101E0F5D7C59AD6
:1024E000C588C5B8FED7C750040B01E0010E010135
:1024F000C96F1F0EC514C91101E0F5D795EC1CF08A
:10250000026EC750040B01E0010E0101C96F1F0EDE
:10251000C514C91101E0F5D7C58AC588C5B8FED76D
:10252000C584C5B4FED7C69AB4EC14F02CD766E9BE
:06253000E7CFD9FF120005
:0A2536000F01386B396B3A6B3B6BF9
:102540003C6B926A896A816A9368946A210E8B6EE9
:10255000C80E8C6E956A800E8D6E966AFE0EE66EC3
:10256000B8EC1BF041E9BC6ABB689E921200300EC9
:10257000D36E040ED26E9B6A1200D9CFE6FFE1CF74
:10258000D9FF87E95AE8076A086A030E096E0A6AE2
:10259000020E0B6E0C6A050E0D6E0E6A0F6A106A43
:1025A000030E116E126A050E136E146A010E156E7B
:1025B000166A040E176E186A060E196E1A6A020E53
:1025C0001B6E1C6A040E1D6E1E6A030ED89003BE9D
:1025D00003D0025C000E035802E3000E01D0010E8E
:1025E000045E000E055A070EE66EE66A040EE66EFD
:1025F000E66A04EBE6FF05EBE6FFDCEC15F0010113
:10260000FE0EE3500424D16F41E9E5500520D26F5E
:10261000640EE66EE66A04EBE6FF05EBE6FFDCEC33
:1026200015F0E552E5CFD4F1E7CFD3F10101D35155
:102630000101D15D0101CF6F0101D4510101D259D6
:102640000101D06F900EE66E010EE66E04EBE6FF20
:1026500005EBE6FFDCEC15F0E552E5CFD6F1E7CF70
:10266000D5F101010101CF510101D5250101CD6F46
:1026700001010101D0510101D6210101CE6F0101FB
:10268000D950070FD76FDACFD8F101010204D96F03
:10269000000E0358DA6F0101D890D937DA370101FB
:1026A0000101D7510101D925E96E01010101D8517C
:1026B0000101DA21EA6E01010101CD51EE2401018F
:1026C000CB6F01010101CE51EE200101CC6F005012
:1026D0000101CB250101C96F01500101CC2101018C
:1026E000CA6FC9C1E6FFCAC1E6FF27EC16F0E55282
:1026F000E550206EE7501F6E00001FEBF3FF20EB4C
:10270000F4FF00D05BE9E7CFD9FF1200D9CFE6FF95
:10271000E1CFD9FF82E941E8F00E0014026E0238E1
:102720000F0B026E0A0E0202F350026E0F0E00141F
:102730000226025000D042E9E7CFD9FF1200C96A51
:10274000D66AC750010B04E1140ED65C01E2F9D73A
:10275000C95000D01200D9CFE6FFE1CFD9FF82E9FE
:10276000C69E00EBC9FFC7A0FED7C95000D041E903
:10277000E7CFD9FF1200D9CFE6FFE1CFD9FF82E939
:1027800041E800EBC9FFC6AE03D0FF0E0DD008D064
:10279000D66AC750010B04E1140ED65C01E2F9D7EA
:1027A000C950026E025000D042E9E7CFD9FF1200B3
:1027B000D9CFE6FFE1CFD9FF83E944E8036A046A91
:1027C0000050035C015004580FE2056A066A180EB7
:1027D000055C000E065804E2052A000E0622F7D713
:1027E000032A000E0422ECD745E9E7CFD9FF1200F7
:1027F000D9CFE6FFE1CFD9FF83E90101000E001434
:10280000C96FFF0E0114CA6FCAC1C9F1CA6BC9C131
:10281000AAFFFF0E0014A96EA69EA69CA680A85033
:1028200000D041E9E7CFD9FF1200D9CFE6FFE1CFD1
:10283000D9FF84E943E8010E046E056A0000000038
:10284000046A056AF250066EF29E0101EC6B01010A
:10285000000E0014C96FFF0E0114CA6F0101CAC136
:10286000C9F1CA6BC9C1AAFFFF0E0014A96E02EB21
:10287000A8FFA69EA69CA684550EA76EAA0EA76EBC
:10288000A682A6B2FED7A6940101EC2B00EBE6FFD0
:1028900001EBE6FFADDF42E9025C04E0040E01015A
:1028A000EC5DD5E30650F21244E9E7CFD9FF120000
:1028B0008C80640EE66EE66A7BDF42E98C82640EF1
:1028C000E66EE66A75DF42E98C84640EE66EE66ABF
:1028D0006FDF42E98C86640EE66EE66A69DF42E9E4
:1028E0008C88640EE66EE66A63DF42E98C8A640EC9
:1028F000E66EE66A5DDF42E98C8C640EE66EE66A9F
:1029000057DF42E98C8E640EE66EE66A51DF42E9DB
:102910008C90640EE66EE66A4BDF42E98C92640EA0
:10292000E66EE66A45DF42E98C94640EE66EE66A7E
:102930003FDF42E98C96640EE66EE66A39DF42E9D3
:102940008C98640EE66EE66A33DF42E98C9A640E78
:10295000E66EE66A2DDF42E98C9C640EE66EE66A5E
:1029600027DF42E98C9E1200898A2A0EE66EE66A0B
:102970001FDF42E98D802A0EE66EE66A19DF42E922
:10298000899A2A0EE66EE66A13DF42E98D90520EAE
:10299000E66EE66A0DDF42E98D802A0EE66EE66A93
:1029A00007DF42E9898A2A0EE66EE66A01DF42E91C
:1029B0008D902A0EE66EE66AFBDE42E9899A820E67
:1029C000E66EE66AF5DE42E9898A2A0EE66EE66A76
:1029D000EFDE42E98D802A0EE66EE66AE9DE42E924
:1029E000899A2A0EE66EE66AE3DE42E98D90520E7F
:1029F000E66EE66ADDDE42E98D802A0EE66EE66A64
:102A0000D7DE42E9898A2A0EE66EE66AD1DE42E91D
:102A10008D902A0EE66EE66ACBDE42E9899A480E70
:102A2000E66EE66AC5DE42E91200898089928984F1
:102A3000898AD00EE66E070EE66EBADE42E9899A02
:102A40008990899289848D80D00EE66E070EE66E9D
:102A5000AFDE42E98D90320EE66EE66AA9DE42E90B
:102A60008D80320EE66EE66AA3DE42E98D908980A3
:102A700089828984898AD00EE66E070EE66E98DE1A
:102A800042E9899A320EE66EE66A92DE42E9898A66
:102A9000320EE66EE66A8CDE42E9899A320EE66E06
:102AA000E66A86DE42E9898A320EE66EE66A80DEF2
:102AB00042E9899A8990898289848D80D00EE66E58
:102AC000070EE66E75DE42E98D90320EE66EE66A1E
:102AD0006FDE42E98D80320EE66EE66A69DE42E91B
:102AE0008D90320EE66EE66A63DE42E98D80320E2C
:102AF000E66EE66A5DDE42E98D90320EE66EE66ACB
:102B000057DE42E98D80320EE66EE66A51DE42E91A
:102B10008D90898089928994898AD00EE66E070EFD
:102B2000E66E46DE42E9899A320EE66EE66A40DEDD
:102B300042E9898A320EE66EE66A3ADE42E9899A0D
:102B4000320EE66EE66A34DE42E9898A320EE66EBD
:102B5000E66A2EDE42E9899A320EE66EE66A28DEE1
:102B600042E9898A320EE66EE66A22DE42E9899AF5
:102B7000320EE66EE66A1CDE42E9898A320EE66EA5
:102B8000E66A16DE42E9899A8990899289948D8055
:102B9000D00EE66E070EE66E0BDE42E98D90120057
:102BA00043E8D9CFE6FFDACFE6FFE1CFD9FFE2CFA6
:102BB000DAFF89E9066A1200F3DF068001D0F0DF50
:102BC00001AEE9EF15F0006C011EE86A012206B0C3
:102BD000067E03AEF1EF15F0026C031EE86A0322D5
:102BE000067E29EC16F003BE13EF16F006AE08D0F1
:102BF000026C031EE86A0322046C051EE86A0522C3
:102C000006B006D084EB00F085EB01F006A004D0FE
:102C100082EB00F083EB01F0E552E5CFDAFFE7CF7E
:102C2000D9FF45E9000C06BEF8EF15F0E9DFFF0C0F
:102C300043E8D9CFE6FFDACFE6FFE1CFD9FFE2CF15
:102C4000DAFF89E9066A1200F3DF068003D0F0DFBD
:102C500001D00682056A046A100EE76ED89002362B
:102C60000336043605360050045C0150055805E370
:102C70000050045E0150055A022AE72EF0D706B232
:102C8000120006B006D084EB00F085EB01F006A040
:102C900004D082EB00F083EB01F0E552E5CFDAFFE0
:102CA000E7CFD9FF45E9120044E8D9CFE6FFDACFF4
:102CB000E6FFE1CFD9FFE2CFDAFF8AE980EB04F04B
:102CC00081EB05F082EB06F002500402F450016E35
:102CD000F350006E0350076E0502F450036EF3507C
:102CE000026E07500402F3500126F4500222E86AF3
:102CF000032206500502F3500126F4500222E86A2E
:102D00000322E552E5CFDAFFE7CFD9FF46E9000C11
:102D100045E8D9CFE6FFDACFE6FFE1CFD9FFE2CF32
:102D2000DAFF8FE90C6A1200F3DF0C8003D0F0DFCA
:102D300001D00C820B6A0A6A096A086A200EE76EE3
:102D4000D8900436053606360736083609360A3670
:102D50000B360050085C0150095802500A580350C5
:102D60000B5809E30050085E0150095A02500A5AF4
:102D700003500B5A042AE72EE4D70CB212000CB011
:102D80000AD088EB00F089EB01F08AEB02F08BEBC4
:102D900003F00CA008D084EB00F085EB01F086EB8B
:102DA00002F087EB03F0E552E5CFDAFFE7CFD9FF7A
:102DB00049E9120044E8D9CFE6FFDACFE6FFE1CFD8
:102DC000D9FFE2CFDAFF8EE980EB08F081EB09F062
:102DD00082EB0AF083EB0BF004500802F350006E14
:102DE000F450016E04500902F3500126000EF42045
:102DF000026E04500A02F3500226000EF420036E05
:102E000004500B02F350032605500802F35001262C
:102E1000F4500222000E032205500902F35002264C
:102E2000F450032205500A02F3500326065008020C
:102E3000F3500226F450032206500902F3500326F1
:102E400007500802F3500326E552E5CFDAFFE7CF3B
:062E5000D9FF48E9000C67
:0A2E56008988000000000000000061
:102E600089981200D9CFE6FFE1CFD9FF81E947E881
:102E700001010683E66A030EE66EE66A2EEC1BF09D
:102E800043E90000000000008F0EE66EBBEC13F07B
:102E900041E99FEC13F0016E9FEC13F0026E9FEC82
:102EA00013F0036EC69A03EBC9F10101C951046E18
:102EB000056A066A076AD950040FE96EDACFEAFF9D
:102EC000EF50EE6AEFCFF4FFEE6EEF50F4CFEEFF6F
:102ED000EF6E02EBC9F10101CA6BCB6BCC6BD95021
:102EE000040FE96EDACFEAFF0101C951EE120101C8
:102EF000CA51EE120101CB51EE120101CC51EE127A
:102F0000D950040FE96EDACFEAFFEF50EE6AEFCF47
:102F1000F4FFEE6EEF50F4CFEEFFEF6E01EBC9F170
:102F20000101CA6BCB6BCC6BD950040FE96EDACFC1
:102F3000EAFF0101C951EE120101CA51EE1201016D
:102F4000CB51EE120101CC51EE120101069304EBBC
:102F5000E5F105EBE6F106EBE7F107EBE8F100D070
:102F600048E9E7CFD9FF1200D9CFE6FFE1CFD9FF7B
:102F700081E941E88998240EE66EBBEC13F041E943
:102F8000800EE66EBBEC13F041E9640EE66EE66A75
:102F9000D8EC13F042E95FDF200EE66E9BEC1BF0ED
:102FA00041E9770EE66E9BEC1BF041E9640EE66E9C
:102FB000E66AD8EC13F042E94EDF8F0EE66E9BEC2A
:102FC0001BF041E99FEC13F0016E8988015000D09D
:102FD00042E9E7CFD9FF1200D9CFE6FFE1CFD9FF11
:102FE00083E942E80050036E046A83EB04F0036A4D
:102FF0000150031204340DE3E668E66803EBE6FFD4
:1030000004EBE6FF54EC16F0E552E550046EE75091
:10301000036E03EBF3FF04EBF4FF00D043E9E7CFCB
:04302000D9FF1200C2
:0C3024008C88010EE66EE66AD8EC13F012
:1030300042E98C9812008B84010EE66EE66AD8ECA9
:1030400013F042E98B940A0EE66EE66AD8EC13F0B0
:1030500042E912008C98020EE66EBBEC13F041E9D7
:10306000010EE66EBBEC13F041E9010EE66EBBEC1F
:1030700013F041E9010EE66EBBEC13F041E98C0E52
:10308000E66EBBEC13F041E9BA0EE66EBBEC13F052
:1030900041E9800EE66EBBEC13F041E9140EE66EDA
:1030A000E66AD8EC13F042E98C881200D9CFE6FF2B
:1030B000E1CFD9FF83E946E88C9801EBE6FFBBEC52
:1030C00013F041E9AFDF440EE66EBBEC13F041E9CB
:1030D0009FEC13F0036E046AFF0E035C0FE00A0E10
:1030E000045C0CE28C98440EE66EBBEC13F041E9F4
:1030F0009FEC13F0036E8C88042AEED78C98FF0E99
:10310000035C2AE1010E056E066A076A086A8C985C
:10311000046A0050045C20E29FEC13F0036E03503D
:10312000E66EE66A0450E66EE66A790EE66E320EE8
:10313000E66EE66A290EE66E010EE66E21EC1AF0E6
:1031400049E9010EE66E290EE66E010EE66E28ECE8
:103150000FF043E9042ADDD78C88055000D047E9F9
:10316000E7CFD9FF1200D9CFE6FFE1CFD9FF81E940
:1031700042E88C98010EE66EE66AD8EC13F042E95C
:10318000440EE66EBBEC13F041E99FEC13F0016EC8
:10319000026AFF0E015C10E00A0E025C0DE2022AD8
:1031A0008C8800008C98440EE66EBBEC13F041E96D
:1031B0009FEC13F0016EEDD7015000D043E9E7CF4B
:0431C000D9FF120021
:0C31C4000C0D0A20504152545F49445F3A
:1031D000524144494F3A202D202530325825303273
:1031E00058202D200D0A0D0A000C0D0A2048616C94
:1031F0006C737769746368656E20E47220616B7428
:1032000069763A2009202564200D0A0D0A000C0D6C
:103210000A20582056414C3A2009202564200D0AE6
:1032200020592056414C3A2009202564200D0A20BF
:103230005A2056414C3A2009202564200D0A000CE2
:103240000D0A204C4953324457313220494E4954DB
:10325000494552494E473A0D0A0D0A2057484F5FDB
:10326000414D5F493F2009305825303258202830E1
:10327000583434290D0A0D0A000C0D0A204E554D04
:103280003A202564200D0A20524541442046524FE1
:103290004D20524144494F3A200930582530325888
:0632A000200D0A0D0A00DA
:0A32A600060EF66E000EF76E000E25
:1032B000F86E01010900F550E06F0900F550E16F6B
:1032C00003E1E06701D03DD00900F550DB6F090054
:1032D000F550DC6F0900F550DD6F09000900F5506D
:1032E000E96E0900F550EA6E090009000900F55081
:1032F000DE6F0900F550DF6F09000900F6CFE2F13B
:10330000F7CFE3F1F8CFE4F1DBC1F6FFDCC1F7FF63
:10331000DDC1F8FF0101DE5302E1DF5307E00900E0
:10332000F550EE6EDE07F8E2DF07F9D7E2C1F6FFEF
:10333000E3C1F7FFE4C1F8FF0101E007000EE15B24
:04334000BFD71200E1
:0C334400D9CFE6FFDACFE6FFE1CFD9FFDA
:10335000E2CFDAFF83E900EBC9FFC6AE02D0FF0E71
:103360002CD00F0EC61408080FE00F0EC6140B0861
:103370000BE0C6889EA6FED7C750040B03E1C750DA
:10338000010B18E0000E19D00F0EC614080804E057
:103390000F0EC6140B0811E1C7B0FED7C750040BBF
:1033A00001E0010E0101C96F1F0EC514C911F6E13C
:1033B000C5AC02D0FE0E01D0000E41E9E5CFDAFF28
:0633C000E7CFD9FF120067
:0A33C600D9CFE6FFDACFE6FFE1CF32
:1033D000D9FFE2CFDAFF83E900EB6FFF6CAE02D0DA
:1033E000FF0E29D00F0E6C1408080CE00F0E6C14A1
:1033F0000B0808E06D50040B03E16D50010B18E061
:10340000000E19D00F0E6C14080804E00F0E6C1497
:103410000B0811E16DB0FED76D50040B01E0010EF9
:103420000101C96F1F0E6B14C911F6E16BAC02D01C
:10343000FE0E01D0000E41E9E5CFDAFFE7CFD9FF5C
:02344000120078
:0E344200D9CFE6FFDACFE6FFE1CFD9FFE2CF28
:10345000DAFF87E944E8D9CFE6FFDACFE6FFE552A5
:10346000E5500A6EE750096E09EBE6FF0AEBE6FF4E
:1034700000EBE6FF01EBE6FF02EBE6FFD950030F9E
:10348000E66E000EDA20E66E36EC0BF047E9F350FC
:10349000076EF450086E03EBE9FF04EBEAFFEF6AF6
:1034A00007EBF3FF08EBF4FF45E9E5CFDAFFE7CFE1
:0434B000D9FF12002E
:0C34B400898A0FEC01F0640EE66EE66AF7
:1034C000D8EC13F042E9899A640EE66EE66AD8EC0D
:1034D00013F042E941EF01F08D800FEC01F0140E82
:1034E000E66EE66AD8EC13F042E98D90140EE66EB3
:1034F000E66AD8EC13F042E941EF01F0D9CFE6FFDC
:10350000E1CFD9FF83E90FEC01F000EBE6FF01EB1F
:10351000E6FFD8EC13F042E941EC01F041E9E7CFD6
:04352000D9FF1200BD
:0C352400D9CFE6FFDACFE6FFE1CFD9FFF8
:10353000E2CFDAFF85E9AC6AAB6A02B0AC8802A2DE
:1035400002D0AC8CAB8C02B4AC8E02A602D0AB889D
:1035500001D0AB8A02B8AC8402BAAB8602AC02D00E
:103560009D8A01D09D9A02AE02D09D8801D09D987F
:1035700000EBAFFF010101EBC9F1CA6BC9C1B0FF9C
:10358000AC8AAB8E41E9E5CFDAFFE7CFD9FF120075
:10359000FE0EE3CFE9FFFF0EE3CFEAFFF36AF46A22
:1035A000EE5203E0F34AF42AFBD71200FF0EE3CFFA
:1035B000F8FFE552FF0EE3CFF7FFE552FF0EE3CF32
:1035C000F6FFE552E66AE66AE66A0900F55209E0A6
:1035D000FD0EE32A05E1FE0EE32A02E1FF0EE32AD7
:1035E000F4D7FD0EE3CFE5F1FE0EE3CFE6F1FF0EDB
:0635F000E3CFE7F1120039
:0A35F600D9CFE6FFDACFE6FFE1CF00
:10360000D9FFE2CFDAFF85E9013415E200EBE9FFEB
:1036100001EBEAFFEECFF3FFEDCFF4FFEE2A000E51
:10362000EF22F3CFE9FFF4CFEAFF02EBEFFFEF5019
:10363000F36EF46A0DD0FE0E005C05E102EBE6FFCE
:103640007AEC1CF004D002EBE6FFABEC1CF041E995
:0C36500041E9E5CFDAFFE7CFD9FF120017
:04365C00D9CFE6FFDD
:10366000DACFE6FFE1CFD9FFE2CFDAFF85E93F0EFF
:10367000C716C66A0250C6120050C7120150030A8C
:1036800009E0010A04E0020A06E1C78C04D0C78CF5
:10369000C68801D0C6880250050A03E0010A03E18A
:1036A000928A948601D094969488949AC68A41E925
:0A36B000E5CFDAFFE7CFD9FF1200E3
:0636BA00D9CFE6FFDACFD4
:1036C000E6FFE1CFD9FFE2CFDAFF82E941E8F20E6F
:1036D0000101EA1771AC03D0EA9171B0EA8171B4CB
:1036E000EA8571B2EA877450026E025042E9E5CF72
:0836F000DAFFE7CFD9FF120059
:0836F800D9CFE6FFDACFE6FFAF
:10370000E1CFD9FFE2CFDAFF82E941E8F20E010111
:10371000EB17ABAC03D0EB91ABB0EB81ABB4EB856B
:10372000ABB2EB87AE50026E025042E9E5CFDAFF52
:06373000E7CFD9FF1200F3
:0A373600D9CFE6FFDACFE6FFE1CFBE
:10374000D9FFE2CFDAFF83E941E8C950036E9E96C4
:10375000C69E00EBC9FFC6AE02D0FF0E03D09EA6E8
:10376000FED7000E42E9E5CFDAFFE7CFD9FF12001E
:10377000D9CFE6FFDACFE6FFE1CFD9FFE2CFDAFF1C
:1037800083E9FB0E0014BA6EBC6A9E9200AE02D0B2
:103790009D8201D09D92BA8441E9E5CFDAFFE7CF5F
:0437A000D9FF12003B
:0C37A400D9CFE6FFDACFE6FFE1CFD9FF76
:1037B000E2CFDAFF84E942E880EB04F081EB05F028
:1037C00005EBB3FF04EBB2FF43E9E5CFDAFFE7CF48
:0437D000D9FF12000B
:0C37D400D9CFE6FFDACFE6FFE1CFD9FF46
:1037E000E2CFDAFF84E93F0E6D166C6A6B6A015016
:1037F0006C1200506D126C8A41E9E5CFDAFFE7CF19
:04380000D9FF1200DA
:0C380400D9CFE6FFDACFE6FFE1CFD9FF15
:10381000E2CFDAFF84E93F0EC716C66AC56A0150D7
:10382000C6120050C712C68A41E9E5CFDAFFE7CFDA
:04383000D9FF1200AA
:0C383400D9CFE6FFDACFE6FFE1CFD9FFE5
:10384000E2CFDAFF83E972AC04D072900101EAB3EF
:10385000728000EB73FF41E9E5CFDAFFE7CFD9FFD4
:02386000120054
:0E386200D9CFE6FFDACFE6FFE1CFD9FFE2CF04
:10387000DAFF83E9ACAC04D0AC900101EBB3AC80CF
:1038800000EBADFF41E9E5CFDAFFE7CFD9FF12004A
:10389000F36AF46AFF0EE124E96EFF0EE220EA6E9D
:1038A000ED6607D02F0EEF6404D03A0EEF6001D022
:0438B000F32A1200E5
:0C38B400FF0EE3500101E96F1A0E00D076
:1038C00000D001D0200EE76EE72EFED7E92FFAD701
:0438D00000D0120012
:0C38D400380EF36E00EE00F00F0E01D86D
:1038E0001200EA6002D0EE6AFCD7F350E9601200E1
:0438F000EE6AFCD7A9
:0C38F400FF0EE350ACBA04D0AF6AAB8EFC
:10390000AC8A949CACA2FED7AD6EF36EF46A120042
:103910001EEE00F02EEE00F0F86A53EC19F0ACEC5D
:0A3920001CF073EC0FF0FBD712004F
:06392A000F0EC614080890
:1039300004E00F0EC6140B0801E1C586C7A0FED730
:04394000C950120058
:0C394400303132333435363738396162A7
:053950006364656600E0
:013955000170
:0239560012005D
:0239580012005B
:020000040030CA
:0100010028D6
:01000500BF3B
:0100060045B4
:00000001FF
