:020000040000FA
:06000000B7EF13F012003F
:0A0006000100AA270000FC01000021
:0400100002000000EA
:0C0014008D920000000000008D821200A0
:1000200001010683E66A010EE66EE66AAAEC12F0AA
:1000300043E98D829E0EF66E270EF76E0800F5CF0F
:10004000DCF19C0EF66E270EF76E0800F5500101EC
:10005000DC110409E66E86EC0EF041E9100EE66E46
:1000600086EC0EF041E900008D92F40EE66E010E72
:10007000E66EA3EC0EF042E98D829E0EF66E270E20
:10008000F76E0800F5CFDCF19C0EF66E270EF76ECA
:100090000800F5500101DC110309E66E86EC0EF054
:1000A00041E9E66A86EC0EF041E90000B3DF9E0EFE
:1000B000F66E270EF76E0800F5CFDCF19C0EF66E9B
:1000C000270EF76E0800F5500101DC11E66E86EC94
:1000D0000EF041E9B80EE66E86EC0EF041E91E0E18
:1000E000E66E86EC0EF041E9E66A86EC0EF041E938
:1000F000E66A86EC0EF041E98DDFA10EF66E270E62
:10010000F76E0800F5CFDCF19C0EF66E270EF76E49
:100110000800F5500101DC11E66E86EC0EF041E9B5
:10012000070EE66E86EC0EF041E9E66A86EC0EF00C
:1001300041E970DF9E0EF66E270EF76E0800F5CFD0
:10014000DCF19C0EF66E270EF76E0800F5500101EB
:10015000DC11E66E86EC0EF041E9BF0EE66E86EC31
:100160000EF041E957DF9E0EF66E270EF76E08007F
:10017000F5CFDCF19C0EF66E270EF76E0800F550F9
:100180000101DC110209E66E86EC0EF041E9E66A37
:1001900086EC0EF041E93EDFA00EF66E270EF76EFC
:1001A0000800F5CFDCF19C0EF66E270EF76E080006
:1001B000F5500101DC11E66E86EC0EF041E9E66ACD
:1001C00086EC0EF041E9E66A86EC0EF041E9E66A5B
:1001D00086EC0EF041E9E66A86EC0EF041E9E66A4B
:1001E00086EC0EF041E9E66A86EC0EF041E9E66A3B
:1001F00086EC0EF041E98D92C69A01010693120039
:10020000D9CFE6FFE1CFD9FF81E94FE801010683AD
:10021000D3C1DFF1D4C1E0F1D5C1E1F10101DF6B60
:100220000101E06B100E1F0BDFC1DCF1E0C1DDF15D
:10023000E1C1DEF107E00101D890DE33DD33DC33CC
:10024000E806FAE1DCC1E6FF51EC0EF041E90A6E86
:100250000B6AD00E0A26070E0B22D3C1DFF1D4C1E0
:10026000E0F1D5C1E1F10101DF6B0101E16B080EA5
:100270001F0BDFC1DCF1E0C1DDF1E1C1DEF107E020
:100280000101D890DE33DD33DC33E806FAE1DCC16E
:10029000E6FF51EC0EF041E90C6E0D6AD3C1DCF1C2
:1002A000D4C1DDF1D5C1DEF10101DD6B0101DE6BF1
:1002B000DCC1E6FF51EC0EF041E90E6E0F6A0EEB69
:1002C000E6FF0FEBE6FF0CEBE6FF0DEBE6FF0AEBBC
:1002D000E6FF0BEBE6FF88EC0DF046E9F350016E0C
:1002E000012AD0C1DCF1D1C1DDF1D2C1DEF10101C1
:1002F000DD6B0101DE6B0101DC51036ED0C1DFF16A
:10030000D1C1E0F1D2C1E1F10101DF6B0101E16B8B
:10031000080E1F0BDFC1DCF1E0C1DDF1E1C1DEF150
:1003200007E00101D890DE33DD33DC33E806FAE183
:100330000101DC51046ED0C1DFF1D1C1E0F1D2C1C5
:10034000E1F10101DF6B0101E06B100E1F0BDFC15A
:10035000DCF1E0C1DDF1E1C1DEF107E00101D8909F
:10036000DE33DD33DC33E806FAE10101DC51056EF2
:10037000D3C1DCF1D4C1DDF1D5C1DEF10101DD6B0A
:100380000101DE6B0101DC51066E81EB07F0D3C188
:10039000DFF1D4C1E0F1D5C1E1F10101DF6B010171
:1003A000E16B080E1F0BDFC1DCF1E0C1DDF1E1C143
:1003B000DEF107E00101D890DE33DD33DC33E806FF
:1003C000FAE10101DC51086ED3C1DFF1D4C1E0F1E3
:1003D000D5C1E1F10101DF6B0101E06B100E1F0BD4
:1003E000DFC1DCF1E0C1DDF1E1C1DEF107E00101D7
:1003F000D890DE33DD33DC33E806FAE10101DC516D
:10040000096EE66A010EE66EE66AAAEC12F043E9AE
:100410008D829E0EF66E270EF76E0800F5CFDCF18A
:100420009C0EF66E270EF76E0800F5500101DC11E8
:10043000E66E86EC0EF041E9BE0EE66E86EC0EF03E
:1004400041E9E8DD9F0EF66E270EF76E0800F5CF46
:10045000DCF19C0EF66E270EF76E0800F5500101D8
:10046000DC11E66E86EC0EF041E9026A070E025CD2
:1004700014E20101D950030FDC6FDACFDDF1025035
:100480000101EA6ADC25E96EDD51EA22EFCFE6FFE1
:1004900086EC0EF041E9022AE9D7BCDD9E0EF66E2D
:1004A000270EF76E0800F5CFDCF19C0EF66E270ED6
:1004B000F76E0800F5500101DC11E66E86EC0EF0D7
:1004C00041E9BF0EE66E86EC0EF041E90000000047
:1004D0008D920101069350E9E7CFD9FF1200D9CFE1
:1004E000E6FFE1CFD9FF82E901010683E66A010E4A
:1004F000E66EE66AAAEC12F043E98D820000A10ED6
:10050000F66E270EF76E0800F5CFDCF19C0EF66E46
:10051000270EF76E0800F5500101DC11E66E86EC3F
:100520000EF041E900EBE6FF86EC0EF041E9E66AE9
:1005300086EC0EF041E9000000008D92C69A0101A0
:10054000069341E9E7CFD9FF120001010683E66A6D
:10055000010EE66EE66AAAEC12F043E98D829E0E69
:10056000F66E270EF76E0800F5CFDCF19C0EF66EE6
:10057000270EF76E0800F5500101DC11E66E86ECDF
:100580000EF041E9260EE66E86EC0EF041E9020E11
:10059000E66E86EC0EF041E9E66A86EC0EF041E983
:1005A000E66A86EC0EF041E9E66A86EC0EF041E977
:1005B000000000002FDDA10EF66E270EF76E08007A
:1005C000F5CFDCF19C0EF66E270EF76E0800F550A5
:1005D0000101DC11E66E86EC0EF041E9070EE66ED5
:1005E00086EC0EF041E9E66A86EC0EF041E9000087
:1005F000000010DD9E0EF66E270EF76E0800F5CF98
:10060000DCF19C0EF66E270EF76E0800F550010126
:10061000DC11E66E86EC0EF041E9270EE66E86EC04
:100620000EF041E98D92C69A010106931200D9CFCE
:10063000E6FFE1CFD9FF81E942E801010683026AC2
:10064000210E025C09E20250EA6A290FE96E010EEE
:10065000EA22EF68022AF4D7E66A010EE66EE66A3D
:10066000AAEC12F043E98D829D0EF66E270EF76E0E
:100670000800F550E66E86EC0EF041E9026A050EC0
:10068000025C10E26AEC0EF0E66E0250EA6A290F94
:10069000E96E010EEA22E552E750EF6E000000001D
:1006A000022AEDD7B7DC9D0EF66E270EF76E080016
:1006B000F5500809E66E86EC0EF041E9080E026E70
:1006C0000F0E025C10E26AEC0EF0E66E0250EA6A6F
:1006D000290FE96E010EEA22E552E750EF6E0000A5
:1006E0000000022AEDD796DC9D0EF66E270EF76EFF
:1006F0000800F5501009E66E86EC0EF041E9100E88
:10070000026E170E025C10E26AEC0EF0E66E02500A
:10071000EA6A290FE96E010EEA22E552E750EF6E10
:1007200000000000022AEDD775DC9D0EF66E270E44
:10073000F76E0800F5501809E66E86EC0EF041E9F8
:10074000180E026E1A0E025C10E26AEC0EF0E66EF3
:100750000250EA6A290FE96E010EEA22E552E750DB
:10076000EF6E00000000022AEDD754DC9D0EF66EFD
:10077000270EF76E0800F5502009E66E86EC0EF0A5
:1007800041E96AEC0EF00101496F8D92C69A0000B2
:10079000000000000101069343E9E7CFD9FF1200F2
:1007A000D9CFE6FFE1CFD9FF81E952E80101068305
:1007B000036A0C6A8C80E66A010EE66EE66AAAECB1
:1007C00012F043E98D829E0EF66E270EF76E08003A
:1007D000F5CFDCF19D0EF66E270EF76E0800F55092
:1007E0000101DC110209E66E86EC0EF041E96AECCB
:1007F0000EF0016E6AEC0EF0026E0CDC9E0EF66ED0
:10080000270EF76E0800F5CFDCF19C0EF66E270E72
:10081000F76E0800F5500101DC110209E66E86EC66
:100820000EF041E9E66A86EC0EF041E9E66A86ECF4
:100830000EF041E90AEC00F09F0EF66E270EF76EFF
:100840000800F5CFDCF19D0EF66E270EF76E08005E
:10085000F5500101DC11E66E86EC0EF041E96AEC20
:100860000EF0046E6AEC0EF0056E6AEC0EF0066E89
:100870006AEC0EF0076E6AEC0EF0086E6AEC0EF091
:100880000A6E6AEC0EF00B6E01B41AD00AEC00F09E
:10089000A20EF66E270EF76E0800F5CFDCF19D0E66
:1008A000F66E270EF76E0800F5500101DC11E66EBA
:1008B00086EC0EF041E96AEC0EF00C6E3C0E0C5E1C
:1008C000180E011403E1200E021402E0010E036E63
:1008D0008D920101010ECF6F0804010104E0CF47A2
:1008E000CF91E806FCE10101C96BCA6BCB6B06EB4B
:1008F000C9F10101CA6BCB6BCAC1CBF1C9C1CAF145
:10090000C9C1CAF10101C96B05EBDCF10101DD6B65
:10091000DE6B0101DC510101C9130101DD5101014F
:10092000CA130101DE510101CB13CAC1CBF1C9C108
:10093000CAF1C9C1CAF10101C96B04EBDCF10101C3
:10094000DD6BDE6B0101DC510101C9130101DD51D9
:100950000101CA130101DE510101CB130101CC6B6E
:10096000CD6BCE6B0BEBCCF10101CD6BCE6BCDC162
:10097000CEF1CCC1CDF1CCC1CDF10101CC6B0AEBF4
:10098000DCF10101DD6BDE6B0101DC510101CC13F7
:100990000101DD510101CD130101DE510101CE1331
:1009A000CDC1CEF1CCC1CDF1CCC1CDF10101CC6B2B
:1009B00007EBDCF10101DD6BDE6B0101DC510101B4
:1009C000CC130101DD510101CD130101DE51010103
:1009D000CE138C90C69A010E0101FC15E66EE66AF4
:1009E0000CEBDCF10101DD6BDCBFDD69DCC1E6FF96
:1009F000DDC1E6FF0101CF51E66EE66A0450E66E06
:100A0000E66A0550E66EE66A0650E66EE66A07504C
:100A1000E66EE66A0A50E66EE66A0B50E66EE66A35
:100A2000DA0EE66E220EE66EE66A290EE66E010E1C
:100A3000E66ED5EC11F057E9010EE66E290EE66E72
:100A4000010EE66E33EC0BF043E90101FC2B0000D4
:100A5000000001010693035000D053E9E7CFD9FF0E
:100A60001200D9CFE6FFE1CFD9FF81E953E8016A4F
:100A7000010E026E020E036E040E046E080E056E69
:100A8000100E066E200E076E400E086E01010683E2
:100A90000B6A136AE66A030EE66EE66AAAEC12F0C7
:100AA00043E98D829E0EF66E270EF76E0800F5CF95
:100AB000DCF19D0EF66E270EF76E0800F550010171
:100AC000DC110209E66E86EC0EF041E96AEC0EF0EC
:100AD000096E6AEC0EF00A6E0AEC00F09E0EF66EDD
:100AE000270EF76E0800F5CFDCF19C0EF66E270E90
:100AF000F76E0800F5500101DC110209E66E86EC84
:100B00000EF041E9E66A86EC0EF041E9E66A86EC11
:100B10000EF041E90AEC00F0180E091403E1200E72
:100B20000A1403E0010E0B6E44D09F0EF66E270EE2
:100B3000F76E0800F5CFDCF19D0EF66E270EF76E0E
:100B40000800F5500101DC11E66E86EC0EF041E97B
:100B50006AEC0EF00C6E6AEC0EF00D6E6AEC0EF0A4
:100B60000E6E6AEC0EF00F6E6AEC0EF0106E6AEC10
:100B70000EF0116E6AEC0EF0126E09B41AD00AEC87
:100B800000F0A20EF66E270EF76E0800F5CFDCF12E
:100B90009D0EF66E270EF76E0800F5500101DC1170
:100BA000E66E86EC0EF041E96AEC0EF0136E3C0E38
:100BB000135E8D92C69A0101D950010FDC6FDACF16
:100BC000DDF110500101EA6ADC25E96EDD51EA220F
:100BD000EFCFCFF10101C96BCA6BCB6B0EEBC9F143
:100BE0000101CA6BCB6BCAC1CBF1C9C1CAF1C9C182
:100BF000CAF10101C96B0DEBDCF10101DD6BDE6BAC
:100C00000101DC510101C9130101DD510101CA13C8
:100C10000101DE510101CB13CAC1CBF1C9C1CAF137
:100C2000C9C1CAF10101C96B0CEBDCF10101DD6B3B
:100C3000DE6B0101DC510101C9130101DD5101012C
:100C4000CA130101DE510101CB130101CC6BCD6B45
:100C5000CE6B12EBCCF10101CD6BCE6BCDC1CEF1E1
:100C6000CCC1CDF1CCC1CDF10101CC6B11EBDCF1EC
:100C70000101DD6BDE6B0101DC510101CC130101CF
:100C8000DD510101CD130101DE510101CE13CDC1B2
:100C9000CEF1CCC1CDF1CCC1CDF10101CC6B0FEBCC
:100CA000DCF10101DD6BDE6B0101DC510101CC13D4
:100CB0000101DD510101CD130101DE510101CE130E
:100CC0008C9013EBDCF10101DD6BDCBFDD69DCC175
:100CD000E6FFDDC1E6FF0101CF51E66EE66A0C508A
:100CE000E66EE66A0D50E66EE66A0E50E66EE66A5D
:100CF0000F50E66EE66A1150E66EE66A1250E66E36
:100D0000E66AA50EE66E220EE66EE66A290EE66E2D
:100D1000010EE66ED5EC11F055E9010EE66E290ED6
:100D2000E66E010EE66E33EC0BF043E90101FD2B9C
:100D300000000000010106930B5000D054E9E7CFFA
:100D4000D9FF1200D9CFE6FFE1CFD9FF81E941E811
:100D500001010683E66A030EE66EE66AAAEC12F06B
:100D600043E98D829E0EF66E270EF76E0800F5CFD2
:100D7000DCF19D0EF66E270EF76E0800F5500101AE
:100D8000DC110309E66E86EC0EF041E96AEC0EF028
:100D9000016EC69A000000000101069342E9E7CF08
:100DA000D9FF1200D9CFE6FFE1CFD9FF81E943E8AF
:100DB00001010683E66A030EE66EE66AAAEC12F00B
:100DC00043E98D829E0EF66E270EF76E0800F5CF72
:100DD000DCF19D0EF66E270EF76E0800F55001014E
:100DE000DC110209E66E86EC0EF041E96AEC0EF0C9
:100DF000026E6AEC0EF0036E000000000AEC00F0D8
:100E00009E0EF66E270EF76E0800F5CFDCF19C0EF5
:100E1000F66E270EF76E0800F5500101DC1102098D
:100E2000E66E86EC0EF041E9E66A86EC0EF041E9EA
:100E3000E66A86EC0EF041E9000000008D92C69A49
:100E4000000000000101069344E9E7CFD9FF12003A
:100E500090DB86E90150010600090CE002EBE6FF99
:100E600003EBE6FF00EBE6FF69DBF4E1DD1DF2E1F9
:100E7000010E01D0000E41E9E5CFDAFFE7CFD9FF3F
:100E8000120077DB89E97BE80A6A0B6A02EBF6FF5E
:100E900003EBF7FF04EBF8FF0800F550096E09506B
:100EA00001E12DD3250E095C01E01BD30C6A0D6A0C
:100EB0000E6A0F6A106A2DDB2D0E095C0CE02B0EFA
:100EC000095C09E0200E095C06E0230E095C03E0E2
:100ED000300E095C15E10950300A10E0130A0CE0ED
:100EE000030A08E00B0A04E0060AE5E10C80E3D7F8
:100EF0000C82E1D70C84DFD70C86DDD70C88DBD7DA
:100F00002A0E095C13E1A5DB0DE30C801CEBDCF180
:100F10001DEBDDF10101DC6DDD1F000EDD23DC5179
:100F20000D6E02D09CEB0DF0F4DA07D0126A3FDBB5
:100F300002E06BDBFCD792EB0DF00CB00C982E0EA0
:100F4000095C15E1E6DA2A0E095C08E182DB04E2BD
:100F50009CEB0EF0010E0F6EDCDA09D0126A27DB73
:100F600002E053DBFCD792EB0EF0010E0F6E680E21
:100F7000095C07E1CEDA680E095C1DE1030E106E14
:100F800019D0740E095C16E07A0E095C13E0480E65
:100F9000095C06E0540E095C03E05A0E095C02E1AC
:100FA000020E07D06C0E095C03E06A0E095C03E1D7
:100FB000010E106EAEDA09506E0A01E16ED21E0A01
:100FC00001E128D1200A01E125D13F0A01E1FDD04C
:100FD0001A0A01E1FAD00D0A01E1F7D0200A01E175
:100FE000F4D03A0A01E1F1D0200A01E1EED0260A5C
:100FF00001E1EAD00D0A01E1E7D01A0A01E19ED031
:10100000200A3BE0300A1AE0460A0EE0250A01E019
:1010100072D2D950020FE96E000EDA20EA6E010E8C
:10102000EE5E000EEE5AEE5A0FDB250EE66E86DA05
:1010300003E1DD1D01E159D20A2A5BD2116A0D508C
:10104000010803E20D04116EF5DA115007E0010EFC
:101050000C1404E16DDA01E048D2116AD3DAEF50E2
:10106000096ECBDA03E1DD1D01E13FD20A2A000E51
:101070000B225EDA01E13FD238D2020E105C08E1A9
:10108000030E4EDAEE50176EEE50186EEF5007D08A
:10109000E7DADE6BDC51176EDD51186EDE51196E2A
:1010A00017EBE6FF18EBE6FF19EBE6FF52EC12F048
:1010B00043E9F8C1DCF1F9C1DDF1FAC1DEF101016A
:1010C000DC511C6EDD511D6E0F5006E01C500E5C95
:1010D00003E20E501C6E1D6A1C500D5C02E29CEB7C
:1010E0000DF050DA05E00D500E5C02E28EEB0DF0D3
:1010F0000CB004D01DDA01E0F8D1116A126A17EBC6
:10110000F6FF18EBF7FF19EBF8FF0800F550096E32
:10111000095010E00D50125C0DE26FDA03E1DD1DA5
:1011200001E1E3D10A2A000E0B22122AD950170F2F
:1011300055DAEBD7FDD901E1DED1D7D163DAEE5034
:101140001A6EED501B6E1AEBE6FF1BEBE6FF44EC4C
:1011500012F042E9F3501C6EF4501D6E0F5006E081
:101160001C500E5C03E20E501C6E1D6A1C500D5C80
:1011700002E29CEB0DF006DA05E00D500E5C02E297
:101180008EEB0DF00CB004D0D3D901E0AED1116AD2
:10119000126A1AEBE9FF1BEBEAFFEF50096E0950E8
:1011A0000FE00D50125C0CE228DA03E1DD1D01E1D5
:1011B0009CD10A2A000E0B22122A1A2A1B22E9D7D6
:1011C000B7D901E198D191D10C8E10040AE1040E37
:1011D000A7D9EE50136EEE50146EEE50156EEF5010
:1011E00032D0030E105C16E10CAE0CD00BDAEFCF50
:1011F000DCF10101DD6BDE6BDF6BDCAF23D0DD6981
:10120000DE691FD0FFD9EFCFDCF10101DC51136E95
:10121000146A20D0020E105C0CE10CAE06D0030E56
:101220007FD9B6D9DEAF0ED00CD0030E79D9B0D9A4
:1012300009D00CAE0AD014DADE6BDF6BDDAF02D062
:10124000DE69DF69BCD9166E07D00ADADC51136E8D
:10125000DD51146E156A166A0F5002E1010E0E6E12
:101260001E6A1F6AD950400FE66E000EDA20E66E45
:10127000E552E550436EE750426E416A116A0A0E2C
:10128000106E0950780A12E0200A10E0280A0CE0DB
:10129000200A0AE03F0A06E00D0A02E0200A08E1FF
:1012A000020E05D0080E03D0080E0926100E106E8F
:1012B0000CBE02D00C920C94800E0C1417E0163465
:1012C00015E3E668E668E668E66842D916EC10F0D1
:1012D000E552E5CFDFF1E5CFDEF1E5CFDDF1E7CF98
:1012E000DCF101016CD9166E2D0E07D00CA202D0D4
:1012F0002B0E03D00CA404D0200E206E1E2A01D089
:10130000206A0E5005E1135014101510161061E0FC
:101310000101880EDC6F270EDD6F000EDE6F83D9B2
:10132000D3EC0FF0E552E5CFE2F1E5CFE1F1E5CF07
:10133000E0F1E7CFDFF10101DC51DF25F36EDD5194
:10134000E021F46EDE51E121F86EF4CFF7FFF3CF28
:10135000F6FF0800F550126E580E095C05E1610EAB
:10136000125C02E3200E125E5ED9D0EC0FF0E55263
:10137000E550166EE550156EE550146EE750136E8D
:1013800042EBE9FF43EBEAFF4206000E435A12EB41
:10139000EFFF1E2A1350141015101610B9E10CA6F9
:1013A00019D06F0E095C06E10E501E5C13E31E2877
:1013B0000E6E10D0780E095C09E0580E095C06E04C
:1013C000620E095C03E0420E095C04E1020E1F6E2E
:1013D00001D01E6A100E0C1407E00D500E5C04E2E2
:1013E0000F5002E18DEB0EF00E501E5C03E21E501A
:1013F0000E5E01D00E6A0E501E241F24D8800D549C
:1014000007E20E500D5CD8801E54D8801F54116E18
:10141000010E0C1406E1115004E08AD866E10AD9E5
:10142000116A205007E010D920EBE6FF87D802E1CF
:10143000DD1D5BE01F500BE007D9300EE66E7ED855
:1014400002E1DD1D52E0D9D802E1DD1D4EE00E5073
:101450001F5C02E21F500E5E300EE66E0EEBE6FFE2
:10146000DCD843E1422A000E432242EBE9FF43EB82
:10147000EAFFEF50126E125008E0E6D812EBE6FFDA
:101480005DD8F0E1DD1DEEE130D052D82EE10E50F6
:101490001E2411241F240A262CD01050030A1CE0FD
:1014A000010A14E0030A07E0ADD8C9D80AEBEEFF41
:1014B0000BEBEDFF20D08BD8DF6BDDAF02D0DE6908
:1014C000DF69A0D84ED8DFC1EEFF15D080D8DDBFD0
:1014D000DE6998D846D80FD095D8B1D80AEBEFFF7F
:1014E0000AD08BD805E1DD1D03E1F368F4680BD069
:1014F0000A2A000E0B22D950020F70D8CDD40AEB65
:10150000F3FF0BEBF4FF7CE9E5CFDAFFE7CFD9FF80
:101510001200D950020F62D80800F550096E12006F
:10152000005E000E015A00EBE9FF01EBEAFF12003A
:10153000200EE66E11EBE6FF0DEF0BF077EC12F0EC
:1015400043E9F3CFDCF1F4CFDDF10101F31C12002C
:1015500013EBE6FF14EBE6FF15EBE6FF16EBE6FFF9
:1015600012006DD8DCC1EEFFDDC1EEFFDEC1EEFF83
:101570001200D9CFE6FFDACFE6FFE1CFD9FFE2CF05
:10158000DAFF12001C500D5C116E54D80F5012007F
:10159000EECFDCF1EECFDDF1EFCFDEF10101DF6B5D
:1015A0001200EECFDCF1EFCFDDF1010112000950A6
:1015B000E66EE66A77EC13F042E9F3501200DC5174
:1015C000136EDD51146EDE51156EDF5112000AEB01
:1015D000DCF10BEBDDF10101DE6B1200E96E000EB8
:1015E000DA20EA6EEF2AEECFF6FF000EEF22EECF02
:1015F000F7FFEF22EECFF8FF120026D809EBE6FF47
:101600009EEF0AF0020E90EF0AF00A0E1202F3505B
:101610000924D00F126E89EF0AF016D828EC07F0D3
:1016200044E90009120010EBE6FFE66AE66AE66AA2
:10163000A8EF0AF011500A26000E0B221200EE50FD
:10164000EFCFEAFFE96E120005EBE6FF06EBE6FFDF
:101650001200D8DFEE501C6EED501D6E1D341200CE
:06166000D1DFD1EF0AF01A
:0A166600D9CFE6FFE1CFD9FF84E9F8
:1016700042E8046A056A00041FE101500424E96E8F
:1016800002500520EA6EEF5016E001500424E96E86
:1016900002500520EA6EEFCFE6FF60EC13F041E95F
:1016A000ACA2FED7050EE66E89EC13F041E9042AE0
:1016B000000E0522E2D71ED001500424E96E02502C
:1016C0000520EA6EEF5016E001500424E96E025046
:1016D0000520EA6EEFCFE6FF49EC13F041E972A274
:1016E000FED7050EE66E89EC13F041E9042A000EE0
:1016F0000522E2D743E9E7CFD9FF1200D9CFE6FFB1
:10170000E1CFD9FF81E968E8266A276A01010591DE
:1017100046EC0DF08D92640EE66EE66AA3EC0EF0D8
:1017200042E9F29E948E949C2A0EE66EE66A7C0E46
:10173000E66E0EEC12F043E9B88601010597000051
:101740008D82640EE66EE66AA3EC0EF042E98D929D
:10175000640EE66EE66AA3EC0EF042E9E66AE66A1B
:10176000010EE66EAAEC12F043E98D90020EE66ED1
:1017700086EC0EF041E9E66A86EC0EF041E9E66A95
:1017800086EC0EF041E9010EE66E86EC0EF041E9C2
:10179000C90EE66E86EC0EF041E9C30EE66E86ECED
:1017A0000EF041E9800EE66E86EC0EF041E9640E23
:1017B000E66EE66AA3EC0EF042E96AEC0EF00F6EFC
:1017C0006AEC0EF0106E8D80C69A26EBE6FF27EBD2
:1017D000E6FF1050E66EE66A0F50E66EE66A790E96
:1017E000E66E220EE66EE66A290EE66E010EE66EE3
:1017F000D5EC11F04BE9010EE66E290EE66E010EF6
:10180000E66E31DF43E9C3EC0EF0262A000E2722F4
:1018100097D7760EE66E220EE66EE66A290EE66E23
:10182000010EE66ED5EC11F045E9010EE66E290ECB
:10183000E66E010EE66E17DF43E91D3404E21C502C
:101840000008000E1D5420E2086A0850F36E23348D
:1018500004E22250F35C000E235416E2740EE66E8E
:10186000220EE66EE66A290EE66E010EE66ED5ECF5
:1018700011F045E9010EE66E290EE66E010EE66EE8
:10188000F2DE43E9082AE1D7760EE66E220EE66E16
:10189000E66A290EE66E010EE66ED5EC11F045E91A
:1018A000010EE66E290EE66E010EE66EDCDE43E901
:1018B0001F3404E21E500008000E1F5420E2086A84
:1018C0000850F36E253404E22450F35C000E2554D6
:1018D00016E2720EE66E220EE66EE66A290EE66EDD
:1018E000010EE66ED5EC11F045E9010EE66E290E0B
:1018F000E66E010EE66EB7DE43E9082AE1D7E80E90
:10190000E66E030EE66EA3EC0EF042E98C80E80E64
:10191000E66E030EE66EA3EC0EF042E98C92E80E42
:10192000E66E030EE66EA3EC0EF042E917EC03F050
:1019300031EC05F0036E035003E0000010EC00F002
:101940000000080E0C6E0CEBE6FF6FEC02F041E9B4
:101950000101300ED06F300ED16F130ED26F010126
:10196000080ED36F030ED46F180ED56F0000000061
:1019700000EC01F031EC05F0036EE80EE66E030EAC
:10198000E66EA3EC0EF042E931EC05F0036E0101C6
:101990000591016A020E0C6E010105A169D08C80CF
:1019A00001010591012A050EE66E01EBE6FF69ECE7
:1019B0000FF041E9E75000090DE1016A0CEBE6FF89
:1019C0006FEC02F041E9020E0C260C500C0802E20A
:1019D000020E0C6E6DEC10F0F8C1DCF1F9C1DDF116
:1019E000FAC1DEF1FBC1DFF10101DC51286EA8EB89
:1019F0000BF0A8EB0AF0A8EB09F001010551100B60
:101A000001E0010EE66EE66A09EBDCF10101DD6B37
:101A1000DCBFDD69DCC1E6FFDDC1E6FF0AEBDEF11C
:101A20000101DF6BDEBFDF69DEC1E6FFDFC1E6FF7C
:101A30000BEBE0F10101E16BE0BFE169E0C1E6FF22
:101A4000E1C1E6FF5E0EE66E220EE66EE66A290E44
:101A5000E66E010EE66ED5EC11F04DE9010EE66E74
:101A6000290EE66E010EE66EFEDD43E90101057901
:101A700000000000E80EE66E030EE66EA3EC0EF02A
:0C1A800042E98C8869E9E7CFD9FF120029
:041A8C000F01386BA3
:101A9000396B3A6B3B6B8B908B9294909492806AEB
:101AA000E30E926E180E896E816A1B0E936E030E02
:101AB0008D6E966A8C6A956AFE0EE66E17EC13F0D0
:101AC00041E9BC6ABB689E92000EE66EE66A31ECA4
:101AD00013F042E90101006B0101016B0101026B8E
:101AE0000101036BF8EC12F0D9EC12F0F19E010148
:101AF00005930101026B0101006B0101096B0101FA
:101B000005950101036B0101016B0101A96B120035
:101B1000D9CFE6FFE1CFD9FF87E95AE8076A086A1B
:101B2000030E096E0A6A020E0B6E0C6A050E0D6E2C
:101B30000E6A0F6A106A030E116E126A050E136E9A
:101B4000146A010E156E166A040E176E186A060ED8
:101B5000196E1A6A020E1B6E1C6A040E1D6E1E6A36
:101B6000030ED89003BE03D0025C000E035802E3BC
:101B7000000E01D0010E045E000E055A070EE66E3F
:101B8000E66A040EE66EE66A04EBE6FF05EBE6FFA6
:101B90001EEC0FF00101FE0EE3500424E46F41E956
:101BA000E5500520E56F640EE66EE66A04EBE6FF9D
:101BB00005EBE6FF1EEC0FF0E552E5CFE7F1E7CFCE
:101BC000E6F10101E6510101E45D0101E26F01016D
:101BD000E7510101E5590101E36F900EE66E010E38
:101BE000E66E04EBE6FF05EBE6FF1EEC0FF0E552B8
:101BF000E5CFE9F1E7CFE8F101010101E25101018F
:101C0000E8250101E06F01010101E3510101E92132
:101C10000101E16F0101D950070FEA6FDACFEBF153
:101C200001010204EC6F000E0358ED6F0101D89022
:101C3000EC37ED3701010101EA510101EC25E96EB4
:101C400001010101EB510101ED21EA6E01010101E8
:101C5000E051EE240101DE6F01010101E151EE20AE
:101C60000101DF6F00500101DE250101DC6F015031
:101C70000101DF210101DD6FDCC1E6FFDDC1E6FF0F
:101C800097EC0FF0E552E550206EE7501F6E000014
:101C90001FEBF3FF20EBF4FF00D05BE9E7CFD9FFA8
:101CA0001200D9CFE6FFE1CFD9FF82E941E8F00E7B
:101CB0000014026E02380F0B026E0A0E0202F3507D
:101CC000026E0F0E00140226025000D042E9E7CF48
:101CD000D9FF1200C96AD66AC750010B04E1140E7D
:101CE000D65C01E2F9D7C95000D01200D9CFE6FF87
:101CF000E1CFD9FF82E9C69E00EBC9FFC7A0FED79E
:101D0000C95000D041E9E7CFD9FF1200D9CFE6FF93
:101D1000E1CFD9FF82E941E800EBC9FFC6AE03D0AD
:101D2000FF0E0DD008D0D66AC750010B04E1140E87
:101D3000D65C01E2F9D7C950026E025000D042E9E8
:101D4000E7CFD9FF1200D9CFE6FFE1CFD9FF83E972
:101D500044E8036A046A0050035C015004580FE22F
:101D6000056A066A630E055C000E065804E2052A41
:101D7000000E0622F7D7032A000E0422ECD745E90D
:101D8000E7CFD9FF12008C80F40EE66E010EE66EEE
:101D9000DADF42E98C82F40EE66E010EE66ED3DFE6
:101DA00042E98C84F40EE66E010EE66ECCDF42E969
:101DB0008C86F40EE66E010EE66EC5DF42E98C8875
:101DC000F40EE66E010EE66EBEDF42E98C8AF40E7A
:101DD000E66E010EE66EB7DF42E98C90F40EE66E19
:101DE000010EE66EB0DF42E98C92F40EE66E010E53
:101DF000E66EA9DF42E98C94F40EE66E010EE66E03
:101E0000A2DF42E98C96F40EE66E010EE66E9BDFD1
:101E100042E98C98F40EE66E010EE66E94DF42E91C
:041E20008C9A120086
:0C1E240043E8D9CFE6FFDACFE6FFE1CFBC
:101E3000D9FFE2CFDAFF89E9066A1200F3DF0680F4
:101E400001D0F0DF01AE2BEF0FF0006C011EE86A4D
:101E5000012206B0067E03AE33EF0FF0026C031EC4
:101E6000E86A0322067E99EC0FF003BE55EF0FF0EF
:101E700006AE08D0026C031EE86A0322046C051E3D
:101E8000E86A052206B006D084EB00F085EB01F08D
:101E900006A004D082EB00F083EB01F0E552E5CF21
:101EA000DAFFE7CFD9FF45E9000C06BE3AEF0FF0A5
:101EB000E9DFFF0C42E8D9CFE6FFDACFE6FFE1CF5A
:101EC000D9FFE2CFDAFF86E9036A1200F3DF03806D
:101ED00003D0F0DF01D00382026A080EE76ED890CB
:101EE000013602360050025C02E3026E012AE72E40
:101EF000F7D703B2120003B081EB00F003A082EB2E
:101F000000F0E552E5CFDAFFE7CFD9FF43E9120051
:101F100043E8D9CFE6FFDACFE6FFE1CFD9FFE2CF42
:101F2000DAFF89E9066A1200F3DF068003D0F0DFEA
:101F300001D00682056A046A100EE76ED890023658
:101F40000336043605360050045C0150055805E39D
:101F50000050045E0150055A022AE72EF0D706B25F
:101F6000120006B006D084EB00F085EB01F006A06D
:101F700004D082EB00F083EB01F0E552E5CFDAFF0D
:101F8000E7CFD9FF45E9120045E8D9CFE6FFDACF20
:101F9000E6FFE1CFD9FFE2CFDAFF8FE90C6A12004A
:101FA000F3DF0C8003D0F0DF01D00C820B6A0A6AE9
:101FB000096A086A200EE76ED890043605360636A0
:101FC0000736083609360A360B360050085C0150D1
:101FD000095802500A5803500B5809E30050085E94
:101FE0000150095A02500A5A03500B5A042AE72E8C
:101FF000E4D70CB212000CB00AD088EB00F089EBE9
:1020000001F08AEB02F08BEB03F00CA008D084EB1C
:1020100000F085EB01F086EB02F087EB03F0E55270
:10202000E5CFDAFFE7CFD9FF49E9120044E8D9CF7D
:10203000E6FFDACFE6FFE1CFD9FFE2CFDAFF8EE9A4
:1020400080EB08F081EB09F082EB0AF083EB0BF0F8
:1020500004500802F350006EF450016E045009025F
:10206000F3500126000EF420026E04500A02F350D1
:102070000226000EF420036E04500B02F3500326D8
:1020800005500802F3500126F4500222000E0322EC
:1020900005500902F3500226F450032205500A02AB
:1020A000F350032606500802F3500226F450032290
:1020B00006500902F350032607500802F350032686
:0E20C000E552E5CFDAFFE7CFD9FF48E9000C83
:0220CE008D8003
:1020D0000000000000008D901200D9CFE6FFE1CF94
:1020E000D9FF81E947E801010683E66A030EE66E3F
:1020F000010EE66EAAEC12F043E98D90000000009C
:1021000000008F0EE66E86EC0EF041E96AEC0EF0F0
:10211000016E6AEC0EF0026E6AEC0EF0036E8D80BA
:10212000C69A03EBDCF10101DC51046E056A066A14
:10213000076AD950040FE96EDACFEAFFEF50EE6A72
:10214000EFCFF4FFEE6EEF50F4CFEEFFEF6E02EB49
:10215000DCF10101DD6BDE6BDF6BD950040FE96E42
:10216000DACFEAFF0101DC51EE120101DD51EE127E
:102170000101DE51EE120101DF51EE12D950040FC0
:10218000E96EDACFEAFFEF50EE6AEFCFF4FFEE6EC2
:10219000EF50F4CFEEFFEF6E01EBDCF10101DD6BF0
:1021A000DE6BDF6BD950040FE96EDACFEAFF010175
:1021B000DC51EE120101DD51EE120101DE51EE1291
:1021C0000101DF51EE120101069304EBF8F105EB7A
:1021D000F9F106EBFAF107EBFBF100D048E9E7CFA4
:1021E000D9FF1200D9CFE6FFE1CFD9FF81E941E85D
:1021F000010106838B82010EE66EE66AA3EC0EF007
:1022000042E98B80E80EE66E030EE66EA3EC0EF05C
:1022100042E9E66A030EE66EE66AAAEC12F043E9CA
:102220008D90200EE66E86EC0EF041E9980EE66E7B
:1022300086EC0EF041E94BDF8F0EE66E86EC0EF079
:1022400041E96AEC0EF0016E8D80C69A0000010132
:0E2250000693015000D042E9E7CFD9FF1200FB
:02225E00202539
:10226000336409253364092533640925640D0A0D97
:102270000A005A0059000D0A000D0A2054657374B3
:102280002031202D20253032582C205465737420A5
:1022900032202D202530325820436F756E746572C0
:1022A0003A202564000C0D0A20253032582D2530A7
:1022B00032582D253032582020253032583A2530DA
:1022C00032583A2530325820307825303258202084
:1022D000252B6427430D0A0D0A0009253032582D9D
:1022E000253032582D2530325820253032583A25A5
:1022F0003032583A25303258203078253032582044
:0B23000020252B6427430925640900F9
:04230C00060EF66E55
:10231000000EF76E000EF86E01010900F550F36F24
:102320000900F550F46F03E1F36701D03DD00900D7
:10233000F550EE6F0900F550EF6F0900F550F06FA2
:1023400009000900F550E96E0900F550EA6E090030
:1023500009000900F550F16F0900F550F26F09000E
:102360000900F6CFF5F1F7CFF6F1F8CFF7F1EEC1AE
:10237000F6FFEFC1F7FFF0C1F8FF0101F15302E1F1
:10238000F25307E00900F550EE6EF107F8E2F207AC
:10239000F9D7F5C1F6FFF6C1F7FFF7C1F8FF010164
:0A23A000F307000EF45BBFD7120034
:0623AA00D9CFE6FFDACFF7
:1023B000E6FFE1CFD9FFE2CFDAFF87E944E8D9CFE2
:1023C000E6FFDACFE6FFE552E5500A6EE750096E08
:1023D00009EBE6FF0AEBE6FF00EBE6FF01EBE6FFA9
:1023E00002EBE6FFD950030FE66E000EDA20E66E30
:1023F00041EC07F047E9F350076EF450086E03EB29
:10240000E9FF04EBEAFFEF6A07EBF3FF08EBF4FFE9
:0C24100045E9E5CFDAFFE7CFD9FF120065
:04241C00D9CFE6FF2F
:10242000DACFE6FFE1CFD9FFE2CFDAFF85E9AC6A88
:10243000AB6A02B0AC8802A202D0AC8CAB8C02B406
:10244000AC8E02A602D0AB8801D0AB8A02B8AC84B5
:1024500002BAAB8602AC02D09D8A01D09D9A02AE30
:1024600002D09D8801D09D9800EBAFFF010101EBE8
:10247000DCF1DD6BDCC1B0FFAC8AAB8E41E9E5CFAE
:08248000DAFFE7CFD9FF1200DB
:08248800FE0EE3CFE9FFFF0E99
:10249000E3CFEAFFF36AF46AEE5203E0F34AF42A68
:1024A000FBD71200FF0EE3CFF8FFE552FF0EE3CF9C
:1024B000F7FFE552FF0EE3CFF6FFE552E66AE66A64
:1024C000E66A0900F55209E0FD0EE32A05E1FE0E79
:1024D000E32A02E1FF0EE32AF4D7FD0EE3CFF8F181
:0E24E000FE0EE3CFF9F1FF0EE3CFFAF112008A
:0224EE00D9CF44
:1024F000E6FFDACFE6FFE1CFD9FFE2CFDAFF85E9E9
:10250000013415E200EBE9FF01EBEAFFEECFF3FF48
:10251000EDCFF4FFEE2A000EEF22F3CFE9FFF4CF68
:10252000EAFF02EBEFFFEF50F36EF46A0DD0FE0E00
:10253000005C05E102EBE6FFA9EC13F004D002EB2E
:10254000E6FFD3EC13F041E941E9E5CFDAFFE7CF4D
:04255000D9FF12009D
:0C255400D9CFE6FFDACFE6FFE1CFD9FFD8
:10256000E2CFDAFF85E93F0EC716C66A0250C612EF
:102570000050C7120150030A09E0010A04E0020AF0
:1025800006E1C78C04D0C78CC68801D0C68802502B
:10259000050A03E0010A03E1928A948601D0949629
:1025A0009488949AC68A41E9E5CFDAFFE7CFD9FF4C
:0225B000120017
:0E25B200D9CFE6FFDACFE6FFE1CFD9FFE2CFC7
:1025C000DAFF82E941E8F20E0101FF1771AC03D096
:1025D000FF9171B0FF8171B4FF8571B2FF877450B4
:1025E000026E025042E9E5CFDAFFE7CFD9FF1200D1
:1025F000D9CFE6FFDACFE6FFE1CFD9FFE2CFDAFFAE
:1026000082E941E8F20E00010017ABAC03D0009163
:10261000ABB00081ABB40085ABB20087AE50026EA8
:0E262000025042E9E5CFDAFFE7CFD9FF120002
:02262E00D9CF02
:10263000E6FFDACFE6FFE1CFD9FFE2CFDAFF83E9A9
:10264000FB0E0014BA6EBC6A9E9200AE02D09D8250
:1026500001D09D92BA8441E9E5CFDAFFE7CFD9FFF7
:02266000120066
:0E266200D9CFE6FFDACFE6FFE1CFD9FFE2CF16
:10267000DAFF84E942E880EB04F081EB05F005EB3A
:10268000B3FF04EBB2FF43E9E5CFDAFFE7CFD9FFB1
:02269000120036
:0E269200D9CFE6FFDACFE6FFE1CFD9FFE2CFE6
:1026A000DAFF83E972AC04D072900101FFB372804B
:1026B00000EB73FF41E9E5CFDAFFE7CFD9FF120066
:1026C000D9CFE6FFDACFE6FFE1CFD9FFE2CFDAFFDD
:1026D00083E9ACAC04D0AC90000100B3AC8000EB5B
:0E26E000ADFF41E9E5CFDAFFE7CFD9FF1200E9
:0226EE00F36A8D
:1026F000F46AFF0EE124E96EFF0EE220EA6EED6659
:1027000007D02F0EEF6404D03A0EEF6001D0F32A09
:022710001200B5
:0E271200FF0EE3500101FE6F1A0E00D000D042
:1027200001D0200EE76EE72EFED7FE2FFAD700D09D
:02273000120095
:0E273200000EF36E00EE00F0060E01D812004D
:10274000EA6002D0EE6AFCD7F350E9601200EE6A4C
:02275000FCD7B4
:0E275200FF0EE350ACBA04D0AF6AAB8EAC8A77
:0E276000949CACA2FED7AD6EF36EF46A12002C
:02276E0015EE66
:1027700000F025EE00F0F86A86EC11F0D4EC13F0CE
:082780007EEC0BF0FBD7120008
:082788003031323334353637AD
:092790003839616263646566007A
:072799000A0B0D008000088F
:0627A0001018202830385B
:0227A60012001F
:0227A80012001D
:0227AA0000002D
:020000040030CA
:0100010021DD
:0100030014E8
:0100060045B4
:010008000FE8
:00000001FF
