:020000040000FA
:06000000FAEF0FF0120000
:020006000000F8
:0800080090DB86E901500106BE
:1000100000090CE002EBE6FF03EBE6FF00EBE6FF76
:1000200069DBF4E1CA1DF2E1010E01D0000E41E9E5
:10003000E5CFDAFFE7CFD9FF120077DB89E97BE86C
:100040000A6A0B6A02EBF6FF03EBF7FF04EBF8FF1B
:100050000800F550096E095001E12DD3250E095C09
:1000600001E01BD30C6A0D6A0E6A0F6A106A2DDB61
:100070002D0E095C0CE02B0E095C09E0200E095CDA
:1000800006E0230E095C03E0300E095C15E109501F
:10009000300A10E0130A0CE0030A08E00B0A04E03F
:1000A000060AE5E10C80E3D70C82E1D70C84DFD7A8
:1000B0000C86DDD70C88DBD72A0E095C13E1A5DBA3
:1000C0000DE30C801CEBC9F11DEBCAF10101C96DF8
:1000D000CA1F000ECA23C9510D6E02D09CEB0DF051
:1000E000F4DA07D0126A3FDB02E06BDBFCD792EB5D
:1000F0000DF00CB00C982E0E095C15E1E6DA2A0E14
:10010000095C08E182DB04E29CEB0EF0010E0F6E4D
:10011000DCDA09D0126A27DB02E053DBFCD792EB72
:100120000EF0010E0F6E680E095C07E1CEDA680E64
:10013000095C1DE1030E106E19D0740E095C16E007
:100140007A0E095C13E0480E095C06E0540E095C67
:1001500003E05A0E095C02E1020E07D06C0E095C46
:1001600003E06A0E095C03E1010E106EAEDA09507D
:100170006E0A01E16ED21E0A01E128D1200A01E1D6
:1001800025D13F0A01E1FDD01A0A01E1FAD00D0A9A
:1001900001E1F7D0200A01E1F4D03A0A01E1F1D0FF
:1001A000200A01E1EED0260A01E1EAD00D0A01E1C0
:1001B000E7D01A0A01E19ED0200A3BE0300A1AE09B
:1001C000460A0EE0250A01E072D2D950020FE96E0C
:1001D000000EDA20EA6E010EEE5E000EEE5AEE5AC6
:1001E0000FDB250EE66E86DA03E1CA1D01E159D266
:1001F0000A2A5BD2116A0D50010803E20D04116E48
:10020000F5DA115007E0010E0C1404E16DDA01E09B
:1002100048D2116AD3DAEF50096ECBDA03E1CA1D76
:1002200001E13FD20A2A000E0B225EDA01E13FD241
:1002300038D2020E105C08E1030E4EDAEE50176E53
:10024000EE50186EEF5007D0E7DACB6BC951176E3E
:10025000CA51186ECB51196E17EBE6FF18EBE6FF8B
:1002600019EBE6FF48EC0EF043E9E5C1C9F1E6C140
:10027000CAF1E7C1CBF10101C9511C6ECA511D6E13
:100280000F5006E01C500E5C03E20E501C6E1D6AFF
:100290001C500D5C02E29CEB0DF050DA05E00D50B5
:1002A0000E5C02E28EEB0DF00CB004D01DDA01E022
:1002B000F8D1116A126A17EBF6FF18EBF7FF19EB8A
:1002C000F8FF0800F550096E095010E00D50125C5F
:1002D0000DE26FDA03E1CA1D01E1E3D10A2A000E43
:1002E0000B22122AD950170F55DAEBD7FDD901E1AD
:1002F000DED1D7D163DAEE501A6EED501B6E1AEBD9
:10030000E6FF1BEBE6FF3AEC0EF042E9F3501C6E01
:10031000F4501D6E0F5006E01C500E5C03E20E50B0
:100320001C6E1D6A1C500D5C02E29CEB0DF006DA9F
:1003300005E00D500E5C02E28EEB0DF00CB004D027
:10034000D3D901E0AED1116A126A1AEBE9FF1BEBB7
:10035000EAFFEF50096E09500FE00D50125C0CE2FD
:1003600028DA03E1CA1D01E19CD10A2A000E0B2202
:10037000122A1A2A1B22E9D7B7D901E198D191D1C3
:100380000C8E10040AE1040EA7D9EE50136EEE5045
:10039000146EEE50156EEF5032D0030E105C16E165
:1003A0000CAE0CD00BDAEFCFC9F10101CA6BCB6BED
:1003B000CC6BC9AF23D0CA69CB691FD0FFD9EFCFAF
:1003C000C9F10101C951136E146A20D0020E105CEC
:1003D0000CE10CAE06D0030E7FD9B6D9CBAF0ED050
:1003E0000CD0030E79D9B0D909D00CAE0AD014DAEA
:1003F000CB6BCC6BCAAF02D0CB69CC69BCD9166EC3
:1004000007D00ADAC951136ECA51146E156A166AFA
:100410000F5002E1010E0E6E1E6A1F6AD950400F86
:10042000E66E000EDA20E66EE552E550436EE750C8
:10043000426E416A116A0A0E106E0950780A12E083
:10044000200A10E0280A0CE0200A0AE03F0A06E031
:100450000D0A02E0200A08E1020E05D0080E03D0C2
:10046000080E0926100E106E0CBE02D00C920C94D1
:10047000800E0C1417E0163415E3E668E668E668AB
:10048000E66842D9C9EC0AF0E552E5CFCCF1E5CFF8
:10049000CBF1E5CFCAF1E7CFC9F101016CD9166EF6
:1004A0002D0E07D00CA202D02B0E03D00CA404D02A
:1004B000200E206E1E2A01D0206A0E5005E1135036
:1004C00014101510161061E00101280EC96F200EDE
:1004D000CA6F000ECB6F83D986EC0AF0E552E5CFE8
:1004E000CFF1E5CFCEF1E5CFCDF1E7CFCCF10101F2
:1004F000C951CC25F36ECA51CD21F46ECB51CE211A
:10050000F86EF4CFF7FFF3CFF6FF0800F550126E48
:10051000580E095C05E1610E125C02E3200E125ECA
:100520005ED983EC0AF0E552E550166EE550156E83
:10053000E550146EE750136E42EBE9FF43EBEAFF20
:100540004206000E435A12EBEFFF1E2A13501410FE
:1005500015101610B9E10CA619D06F0E095C06E152
:100560000E501E5C13E31E280E6E10D0780E095C30
:1005700009E0580E095C06E0620E095C03E0420ED9
:10058000095C04E1020E1F6E01D01E6A100E0C14ED
:1005900007E00D500E5C04E20F5002E18DEB0EF00F
:1005A0000E501E5C03E21E500E5E01D00E6A0E500D
:1005B0001E241F24D8800D5407E20E500D5CD880F5
:1005C0001E54D8801F54116E010E0C1406E11150F8
:1005D00004E08AD866E10AD9116A205007E010D9F0
:1005E00020EBE6FF87D802E1CA1D5BE01F500BE05D
:1005F00007D9300EE66E7ED802E1CA1D52E0D9D886
:1006000002E1CA1D4EE00E501F5C02E21F500E5E5A
:10061000300EE66E0EEBE6FFDCD843E1422A000E18
:10062000432242EBE9FF43EBEAFFEF50126E125018
:1006300008E0E6D812EBE6FF5DD8F0E1CA1DEEE176
:1006400030D052D82EE10E501E2411241F240A2629
:100650002CD01050030A1CE0010A14E0030A07E042
:10066000ADD8C9D80AEBEEFF0BEBEDFF20D08BD84D
:10067000CC6BCAAF02D0CB69CC69A0D84ED8CCC164
:10068000EEFF15D080D8CABFCB6998D846D80FD016
:1006900095D8B1D80AEBEFFF0AD08BD805E1CA1D77
:1006A00003E1F368F4680BD00A2A000E0B22D9503C
:1006B000020F70D8CDD40AEBF3FF0BEBF4FF7CE90B
:1006C000E5CFDAFFE7CFD9FF1200D950020F62D889
:1006D0000800F550096E1200005E000E015A00EB92
:1006E000E9FF01EBEAFF1200200EE66E11EBE6FFD8
:1006F000E9EF03F06DEC0EF043E9F3CFC9F1F4CF6D
:10070000CAF10101F31C120013EBE6FF14EBE6FF44
:1007100015EBE6FF16EBE6FF12006DD8C9C1EEFF40
:10072000CAC1EEFFCBC1EEFF1200D9CFE6FFDACF90
:10073000E6FFE1CFD9FFE2CFDAFF12001C500D5CDB
:10074000116E54D80F501200EECFC9F1EECFCAF19E
:10075000EFCFCBF10101CC6B1200EECFC9F1EFCF9F
:10076000CAF1010112000950E66EE66ABAEC0FF018
:1007700042E9F3501200C951136ECA51146ECB51A5
:10078000156ECC5112000AEBC9F10BEBCAF1010155
:10079000CB6B1200E96E000EDA20EA6EEF2AEECF84
:1007A000F6FF000EEF22EECFF7FFEF22EECFF8FFBD
:1007B000120026D809EBE6FF7AEF03F0020E6CEF89
:1007C00003F00A0E1202F3500924D00F126E65EFE7
:1007D00003F016D804EC00F044E90009120010EB15
:1007E000E6FFE66AE66AE66A84EF03F011500A263D
:1007F000000E0B221200EE50EFCFEAFFE96E12005E
:1008000005EBE6FF06EBE6FF1200D8DFEE501C6EAC
:0E081000ED501D6E1D341200D1DFADEF03F070
:02081E000F01C8
:10082000386B396B3A6B3B6B3C6B926AA80E896EE6
:10083000816A9368946A210E8B6EC80E8C6E956ADD
:10084000800E8D6E966AFE0EE66E2AEC0FF041E980
:10085000BC6ABB689E921200300ED36E040ED26E3C
:100860009B6A1200D9CFE6FFE1CFD9FF87E95AE8AA
:10087000076A086A030E096E0A6A020E0B6E0C6A9A
:10088000050E0D6E0E6A0F6A106A030E116E126A63
:10089000050E136E146A010E156E166A040E176E9D
:1008A000186A060E196E1A6A020E1B6E1C6A040E76
:1008B0001D6E1E6A030ED89003BE03D0025C000EAC
:1008C000035802E3000E01D0010E045E000E055A2B
:1008D000070EE66EE66A040EE66EE66A04EBE6FFD5
:1008E00005EBE6FFCBEC09F00101FE0EE35004241A
:1008F000D16F41E9E5500520D26F640EE66EE66ADD
:1009000004EBE6FF05EBE6FFCBEC09F0E552E5CFA3
:10091000D4F1E7CFD3F10101D3510101D15D010140
:10092000CF6F0101D4510101D2590101D06F900E56
:10093000E66E010EE66E04EBE6FF05EBE6FFCBECA0
:1009400009F0E552E5CFD6F1E7CFD5F1010101017C
:10095000CF510101D5250101CD6F01010101D05118
:100960000101D6210101CE6F0101D950070FD76FC8
:10097000DACFD8F101010204D96F000E0358DA6F03
:100980000101D890D937DA3701010101D7510101AE
:10099000D925E96E01010101D8510101DA21EA6E80
:1009A00001010101CD51EE240101CB6F01010101D3
:1009B000CE51EE200101CC6F00500101CB25010189
:1009C000C96F01500101CC210101CA6FC9C1E6FF05
:1009D000CAC1E6FF16EC0AF0E552E550206EE7507A
:1009E0001F6E00001FEBF3FF20EBF4FF00D05BE96C
:1009F000E7CFD9FF1200D9CFE6FFE1CFD9FF82E9D7
:100A000041E8F00E0014026E02380F0B026E0A0E5F
:100A10000202F350026E0F0E00140226025000D0A4
:100A200042E9E7CFD9FF1200C96AD66AC750010B65
:100A300004E1140ED65C01E2F9D7C95000D01200CF
:100A4000D9CFE6FFE1CFD9FF82E9C69E00EBC9FF0F
:100A5000C7A0FED7C95000D041E9E7CFD9FF1200A7
:100A6000D9CFE6FFE1CFD9FF82E941E800EBC9FF2A
:100A7000C6AE03D0FF0E0DD008D0D66AC750010B0A
:100A800004E1140ED65C01E2F9D7C950026E02509F
:100A900000D042E9E7CFD9FF1200D9CFE6FFE1CF7E
:100AA000D9FF83E944E8036A046A0050035C0150FB
:100AB00004580FE2056A066A180E055C000E065817
:100AC00004E2052A000E0622F7D7032A000E0422AC
:100AD000ECD745E9E7CFD9FF1200D9CFE6FFE1CF48
:100AE000D9FF83E942E80050036E046A83EB04F007
:100AF000036A0150031204340DE3E668E66803EB71
:100B0000E6FF04EBE6FF43EC0AF0E552E550046E25
:100B1000E750036E03EBF3FF04EBF4FF00D043E96F
:100B2000E7CFD9FF12008C80640EE66EE66AB5DF6F
:100B300042E98C82640EE66EE66AAFDF42E98C849D
:100B4000640EE66EE66AA9DF42E98C86640EE66E04
:100B5000E66AA3DF42E98C88640EE66EE66A9DDFF2
:100B600042E98C8A640EE66EE66A97DF42E98C8C75
:100B7000640EE66EE66A91DF42E98C8E640EE66EE4
:100B8000E66A8BDF42E98C90640EE66EE66A85DFEA
:100B900042E98C92640EE66EE66A7FDF42E98C944D
:100BA000640EE66EE66A79DF42E98C96640EE66EC4
:100BB000E66A73DF42E98C98640EE66EE66A6DDFE2
:100BC00042E98C9A640EE66EE66A67DF42E98C9C25
:100BD000640EE66EE66A61DF42E98C9E1200898A45
:100BE0002A0EE66EE66A59DF42E98D802A0EE66E2D
:100BF000E66A53DF42E9899A2A0EE66EE66A4DDF1D
:100C000042E98D90520EE66EE66A47DF42E98D803A
:100C10002A0EE66EE66A41DF42E9898A2A0EE66E0E
:100C2000E66A3BDF42E98D902A0EE66EE66A35DF22
:100C300042E9899A820EE66EE66A2FDF42E9898AE6
:100C40002A0EE66EE66A29DF42E98D802A0EE66EFC
:100C5000E66A23DF42E9899A2A0EE66EE66A1DDF1C
:100C600042E98D90520EE66EE66A17DF42E98D800A
:100C70002A0EE66EE66A11DF42E9898A2A0EE66EDE
:100C8000E66A0BDF42E98D902A0EE66EE66A05DF22
:100C900042E9899A480EE66EE66AFFDE42E91200F2
:100CA000898089928984898AD00EE66E070EE66E65
:100CB000F4DE42E9899A8990899289848D80D00EE8
:100CC000E66E070EE66EE9DE42E98D90320EE66EC4
:100CD000E66AE3DE42E98D80320EE66EE66ADDDE2C
:100CE00042E98D90898089828984898AD00EE66E56
:100CF000070EE66ED2DE42E9899A320EE66EE66AA9
:100D0000CCDE42E9898A320EE66EE66AC6DE42E948
:100D1000899A320EE66EE66AC0DE42E9898A320EB0
:100D2000E66EE66ABADE42E9899A89908982898408
:100D30008D80D00EE66E070EE66EAFDE42E98D9036
:100D4000320EE66EE66AA9DE42E98D80320EE66E6C
:100D5000E66AA3DE42E98D90320EE66EE66A9DDE1B
:100D600042E98D80320EE66EE66A97DE42E98D90AA
:100D7000320EE66EE66A91DE42E98D80320EE66E54
:100D8000E66A8BDE42E98D90898089928994898A0E
:100D9000D00EE66E070EE66E80DE42E9899A320ECC
:100DA000E66EE66A7ADE42E9898A320EE66EE66A25
:100DB00074DE42E9899A320EE66EE66A6EDE42E938
:100DC000898A320EE66EE66A68DE42E9899A320E58
:100DD000E66EE66A62DE42E9898A320EE66EE66A0D
:100DE0005CDE42E9899A320EE66EE66A56DE42E938
:100DF000898A320EE66EE66A50DE42E9899A899067
:100E0000899289948D80D00EE66E070EE66E45DEDF
:060E100042E98D90120082
:0A0E1600D9CFE6FFE1CFD9FF84E950
:100E200042E8046A056A00041FE101500424E96EE7
:100E300002500520EA6EEF5016E001500424E96EDE
:100E400002500520EA6EEFCFE6FFA3EC0FF041E978
:100E5000ACA2FED7050EE66ECCEC0FF041E9042AF9
:100E6000000E0522E2D71ED001500424E96E025084
:100E70000520EA6EEF5016E001500424E96E02509E
:100E80000520EA6EEFCFE6FF8CEC0FF041E972A28D
:100E9000FED7050EE66ECCEC0FF041E9042A000EF9
:100EA0000522E2D743E9E7CFD9FF1200D9CFE6FF09
:100EB000E1CFD9FF81E95CE8196A1A6A0FEC04F006
:100EC0002CEC04F0000EE66EE66A44EC0FF042E90A
:100ED0000101006B016B026B036BEEEC0EF0CFECCB
:100EE0000EF0F19E01010593026B006B096B0595F5
:100EF000036B016BA96B948E948C0C0EE66EE66A04
:100F00007C0EE66E04EC0EF043E9B88670868980AC
:100F10008984898A640EE66EE66A4DEC05F042E942
:100F2000899A8D80640EE66EE66A4DEC05F042E922
:100F30008D908B8E800EE66EE66A010EE66EA0EC5A
:100F40000EF043E923EC0BF0BBEC0BF032EC0BF0B2
:100F5000BBEC0BF0C69AE66A030EE66EE66AA0ECFE
:100F60000EF043E972EC0CF0026EC69A0250E66E87
:100F7000E66A920EE66E190EE66EE66A290EE66ED7
:100F8000010EE66ECBEC0DF047E9010EE66E290E80
:100F9000E66E010EE66E3FDF43E90A0EE66EE66A94
:100FA0004DEC05F042E9E66A030EE66EE66AA0EC57
:100FB0000EF043E98998A80EE66E0DEC0FF041E9BA
:100FC00014EC05F0076E14EC05F0086E14EC05F057
:100FD000096E14EC05F00A6E14EC05F00B6E14ECBF
:100FE00005F00C6E8988C69A08EBE6FF07EBE6FF72
:100FF0006DEC05F042E9F3500D6EF4500E6E0AEB05
:10100000E6FF09EBE6FF6DEC05F042E9F3500F6EE9
:10101000F450106E0CEBE6FF0BEBE6FF6DEC05F009
:1010200042E9F350116EF450126E640EE66EE66AF9
:101030000DEBE6FF0EEBE6FFCBEC09F0E552E550D9
:10104000146EE750136E640EE66EE66A0FEBE6FF71
:1010500010EBE6FFCBEC09F0E552E550166EE750D9
:10106000156E640EE66EE66A11EBE6FF12EBE6FF24
:10107000CBEC09F0E552E550186EE750176E17EB10
:10108000E6FF18EBE6FF15EBE6FF16EBE6FF13EBCA
:10109000E6FF14EBE6FF610EE66E190EE66EE66AF9
:1010A000290EE66E010EE66ECBEC0DF04BE9010E5B
:1010B000E66E290EE66E010EE66EADDE43E9010E28
:1010C000E66EE66A4DEC05F042E91B6A1C6A1434D0
:1010D0001C50141804E613501B5C14501C580CE2EE
:1010E000898A0A0EE66EE66A4DEC05F042E9899AB5
:1010F0001B2A000E1C22EBD7640EE66EE66A4DEC4E
:1011000005F042E91B6A1C6A16341C50161804E6E6
:1011100015501B5C16501C580CE28D800A0EE66EB2
:10112000E66A4DEC05F042E98D901B2A000E1C2268
:10113000EBD7640EE66EE66A4DEC05F042E91B6AF9
:101140001C6A18341C50181804E617501B5C185001
:101150001C580CE2898A0A0EE66EE66A4DEC05F030
:1011600042E9899A1B2A000E1C22EBD78150200BE2
:1011700001E0010E196E1A6A19501A1018E119EBE4
:10118000E6FF1AEBE6FF3C0EE66E190EE66EE66A27
:10119000290EE66E010EE66ECBEC0DF047E9010E6E
:1011A000E66E290EE66E010EE66E35DE43E9800E30
:1011B000E66EE66A010EE66EA0EC0EF043E9050E5F
:1011C000E66E010EE66E5EEC0BF042E9C69AEBD6D7
:1011D000180E6E6EE66A080EE66E5CEC0FF042E9E1
:1011E0006B806BB0FED7640EE66E8DEC0DF041E9BE
:1011F0006B9A6B886BB8FED7EFEC05F0220EE66EAB
:101200008DEC0DF041E96B9A6B886BB8FED76B8261
:101210006BB2FED7D40EE66E8DEC0DF041E96B9A01
:101220006B886BB8FED7810EE66E8DEC0DF041E950
:101230006B9A6B886BB8FED76B846BB4FED76C9AD5
:10124000E66A080EE66E74EC0FF042E9C580C5B0A0
:10125000FED7C750040B01E0010E0101C96F1F0E3C
:10126000C514C91101E0F5D7D40EE66E4CEC0DF0B3
:1012700041E9026EC750040B01E0010E0101C96F84
:101280001F0EC514C91101E0F5D7C59AC588C5B8A8
:10129000FED7C750040B01E0010E0101C96F1F0EFC
:1012A000C514C91101E0F5D7220EE66E4CEC0DF025
:1012B00041E9026EC750040B01E0010E0101C96F44
:1012C0001F0EC514C91101E0F5D7C59AC588C5B868
:1012D000FED7C750040B01E0010E0101C96F1F0EBC
:1012E000C514C91101E0F5D7C582C5B2FED7C750F4
:1012F000040B01E0010E0101C96F1F0EC514C911D5
:1013000001E0F5D7D50EE66E4CEC0DF041E9026E2A
:10131000C750040B01E0010E0101C96F1F0EC51477
:10132000C91101E0F5D7C59AC588C5B8FED7C75021
:10133000040B01E0010E0101C96F1F0EC514C91194
:1013400001E0F5D707EC10F0026EC750040B01E086
:10135000010E0101C96F1F0EC514C91101E0F5D7B7
:10136000C58AC588C5B8FED7C584C5B4FED7C69A98
:0E137000EFEC05F02DD75DE9E7CFD9FF1200B5
:02137E0043E842
:10138000D9CFE6FFDACFE6FFE1CFD9FFE2CFDAFF30
:1013900089E9066A1200F3DF068001D0F0DF01AEB2
:1013A000D8EF09F0006C011EE86A012206B0067E43
:1013B00003AEE0EF09F0026C031EE86A0322067E2A
:1013C00018EC0AF003BE02EF0AF006AE08D0026C79
:1013D000031EE86A0322046C051EE86A052206B0B3
:1013E00006D084EB00F085EB01F006A004D082EB80
:1013F00000F083EB01F0E552E5CFDAFFE7CFD9FF4C
:1014000045E9000C06BEE7EF09F0E9DFFF0C43E811
:10141000D9CFE6FFDACFE6FFE1CFD9FFE2CFDAFF9F
:1014200089E9066A1200F3DF068003D0F0DF01D0FD
:101430000682056A046A100EE76ED89002360336FB
:10144000043605360050045C0150055805E3005091
:10145000045E0150055A022AE72EF0D706B21200A8
:1014600006B006D084EB00F085EB01F006A004D0B6
:1014700082EB00F083EB01F0E552E5CFDAFFE7CF36
:10148000D9FF45E9120044E8D9CFE6FFDACFE6FFFD
:10149000E1CFD9FFE2CFDAFF8AE980EB04F081EBFC
:1014A00005F082EB06F002500402F450016EF35096
:1014B000006E0350076E0502F450036EF350026E87
:1014C00007500402F3500126F4500222E86A032276
:1014D00006500502F3500126F4500222E86A032266
:1014E000E552E5CFDAFFE7CFD9FF46E9000C45E842
:1014F000D9CFE6FFDACFE6FFE1CFD9FFE2CFDAFFBF
:101500008FE90C6A1200F3DF0C8003D0F0DF01D00A
:101510000C820B6A0A6A096A086A200EE76ED89084
:101520000436053606360736083609360A360B36CF
:101530000050085C0150095802500A5803500B58DB
:1015400009E30050085E0150095A02500A5A03503C
:101550000B5A042AE72EE4D70CB212000CB00AD0C2
:1015600088EB00F089EB01F08AEB02F08BEB03F0E3
:101570000CA008D084EB00F085EB01F086EB02F0C4
:1015800087EB03F0E552E5CFDAFFE7CFD9FF49E972
:10159000120044E8D9CFE6FFDACFE6FFE1CFD9FF6A
:1015A000E2CFDAFF8EE980EB08F081EB09F082EB05
:1015B0000AF083EB0BF004500802F350006EF45075
:1015C000016E04500902F3500126000EF420026E51
:1015D00004500A02F3500226000EF420036E045059
:1015E0000B02F350032605500802F3500126F45075
:1015F0000222000E032205500902F3500226F45085
:10160000032205500A02F350032606500802F35045
:101610000226F450032206500902F3500326075015
:101620000802F3500326E552E5CFDAFFE7CFD9FFF2
:0416300048E9000C79
:0C1634008C88010EE66EE66A4DEC05F0B5
:1016400042E98C9812008B84010EE66EE66A4DEC3E
:1016500005F042E98B940A0EE66EE66A4DEC05F061
:1016600042E912008C98020EE66E30EC05F041E97A
:10167000010EE66E30EC05F041E9010EE66E30EC4D
:1016800005F041E9010EE66E30EC05F041E98C0E03
:10169000E66E30EC05F041E9BA0EE66E30EC05F08E
:1016A00041E9800EE66E30EC05F041E9140EE66E7D
:1016B000E66A4DEC05F042E98C881200D9CFE6FFCE
:1016C000E1CFD9FF83E946E88C9801EBE6FF30ECE7
:1016D00005F041E9AFDF440EE66E30EC05F041E97C
:1016E00014EC05F0036E046AFF0E035C0FE00A0EB3
:1016F000045C0CE28C98440EE66E30EC05F041E997
:1017000014EC05F0036E8C88042AEED78C98FF0E3B
:10171000035C2AE1010E056E066A076A086A8C9866
:10172000046A0050045C20E214EC05F0036E0350E0
:10173000E66EE66A0450E66EE66ACC0EE66E190EB8
:10174000E66EE66A290EE66E010EE66ECBEC0DF053
:1017500049E9010EE66E290EE66E010EE66E0BEC0F
:1017600007F043E9042ADDD78C88055000D047E90B
:10177000E7CFD9FF1200D9CFE6FFE1CFD9FF81E94A
:1017800042E8010EE66EE66A4DEC05F042E9440ED1
:10179000E66E30EC05F041E914EC05F0016E026AEA
:1017A000FF0E015C10E00A0E025C0DE2022A8C883A
:1017B00000008C98440EE66E30EC05F041E914EC24
:1017C00005F0016EEDD7015000D043E9E7CFD9FF16
:0217D000120005
:0E17D2008988000000000000000089981200C5
:1017E000D9CFE6FFE1CFD9FF81E947E801010683C0
:1017F000E66A030EE66EE66AA0EC0EF043E900002E
:10180000000000008F0EE66E30EC05F041E914ECAC
:1018100005F0016E14EC05F0026E14EC05F0036E99
:10182000C69A03EBC9F10101C951046E056A066A43
:10183000076AD950040FE96EDACFEAFFEF50EE6A7B
:10184000EFCFF4FFEE6EEF50F4CFEEFFEF6E02EB52
:10185000C9F10101CA6BCB6BCC6BD950040FE96E97
:10186000DACFEAFF0101C951EE120101CA51EE12AD
:101870000101CB51EE120101CC51EE12D950040FEF
:10188000E96EDACFEAFFEF50EE6AEFCFF4FFEE6ECB
:10189000EF50F4CFEEFFEF6E01EBC9F10101CA6B1F
:1018A000CB6BCC6BD950040FE96EDACFEAFF0101A4
:1018B000C951EE120101CA51EE120101CB51EE12D3
:1018C0000101CC51EE120101069304EBE5F105EBA9
:1018D000E6F106EBE7F107EBE8F100D048E9E7CFE6
:1018E000D9FF1200D9CFE6FFE1CFD9FF81E941E866
:1018F0008998240EE66E30EC05F041E9800EE66E24
:1019000030EC05F041E965DF200EE66E0DEC0FF0DE
:1019100041E9770EE66E0DEC0FF041E95ADF8F0ECC
:10192000E66E0DEC0FF041E914EC05F0016E8988CC
:0C193000015000D042E9E7CFD9FF1200BF
:04193C000C0D0A2064
:1019400048616C6C737769746368656E20E472201B
:10195000616B7469763A2009202564200D0A0D0A0E
:10196000000C0D0A20582056414C3A2009202564CD
:10197000200D0A20592056414C3A20092025642088
:101980000D0A205A2056414C3A2009202564200D8A
:101990000A000C0D0A204C49533244573132204979
:1019A0004E4954494552494E473A0D0A0D0A2057AF
:1019B000484F5F414D5F493F20093058253032582C
:1019C000202830583434290D0A0D0A000C0D0A2045
:1019D0004E554D3A202564200D0A205245414420A1
:1019E00046524F4D20524144494F3A200930582524
:0919F000303258200D0A0D0A00E6
:0619FA00060EF66E000E61
:101A0000F76E000EF86E01010900F550E06F090055
:101A1000F550E16F03E1E06701D03DD00900F550DA
:101A2000DB6F0900F550DC6F0900F550DD6F090030
:101A30000900F550E96E0900F550EA6E0900090049
:101A40000900F550DE6F0900F550DF6F090009004D
:101A5000F6CFE2F1F7CFE3F1F8CFE4F1DBC1F6FF27
:101A6000DCC1F7FFDDC1F8FF0101DE5302E1DF5306
:101A700007E00900F550EE6EDE07F8E2DF07F9D760
:101A8000E2C1F6FFE3C1F7FFE4C1F8FF0101E0079F
:081A9000000EE15BBFD712005C
:081A9800D9CFE6FFDACFE6FF2B
:101AA000E1CFD9FFE2CFDAFF83E900EBC9FFC6AE91
:101AB00002D0FF0E2CD00F0EC61408080FE00F0E38
:101AC000C6140B080BE0C6889EA6FED7C750040BB1
:101AD00003E1C750010B18E0000E19D00F0EC61419
:101AE000080804E00F0EC6140B0811E1C7B0FED7BA
:101AF000C750040B01E0010E0101C96F1F0EC51490
:101B0000C911F6E1C5AC02D0FE0E01D0000E41E9CC
:0A1B1000E5CFDAFFE7CFD9FF12009E
:061B1A00D9CFE6FFDACF8F
:101B2000E6FFE1CFD9FFE2CFDAFF83E900EB6FFFF9
:101B30006CAE02D0FF0E29D00F0E6C1408080CE01A
:101B40000F0E6C140B0808E06D50040B03E16D5090
:101B5000010B18E0000E19D00F0E6C14080804E0F9
:101B60000F0E6C140B0811E16DB0FED76D50040B15
:101B700001E0010E0101C96F1F0E6B14C911F6E1DE
:101B80006BAC02D0FE0E01D0000E41E9E5CFDAFFCA
:061B9000E7CFD9FF1200AF
:0A1B9600D9CFE6FFDACFE6FFE1CF7A
:101BA000D9FFE2CFDAFF87E944E8D9CFE6FFDACF01
:101BB000E6FFE552E5500A6EE750096E09EBE6FFD5
:101BC0000AEBE6FF00EBE6FF01EBE6FF02EBE6FFC8
:101BD000D950030FE66E000EDA20E66E1DEC00F021
:101BE00047E9F350076EF450086E03EBE9FF04EB8E
:101BF000EAFFEF6A07EBF3FF08EBF4FF45E9E5CFF7
:081C0000DAFFE7CFD9FF120063
:081C0800D9CFE6FFDACFE6FFB9
:101C1000E1CFD9FFE2CFDAFF85E9AC6AAB6A02B067
:101C2000AC8802A202D0AC8CAB8C02B4AC8E02A603
:101C300002D0AB8801D0AB8A02B8AC8402BAAB86C2
:101C400002AC02D09D8A01D09D9A02AE02D09D883E
:101C500001D09D9800EBAFFF010101EBC9F1CA6B08
:101C6000C9C1B0FFAC8AAB8E41E9E5CFDAFFE7CF5F
:041C7000D9FF120086
:0C1C7400FE0EE3CFE9FFFF0EE3CFEAFF16
:101C8000F36AF46AEE5203E0F34AF42AFBD7120037
:101C9000FF0EE3CFF8FFE552FF0EE3CFF7FFE5526B
:101CA000FF0EE3CFF6FFE552E66AE66AE66A090050
:101CB000F55209E0FD0EE32A05E1FE0EE32A02E1FA
:101CC000FF0EE32AF4D7FD0EE3CFE5F1FE0EE3CFDE
:0A1CD000E6F1FF0EE3CFE7F112008A
:061CDA00D9CFE6FFDACFCE
:101CE000E6FFE1CFD9FFE2CFDAFF85E9013415E263
:101CF00000EBE9FF01EBEAFFEECFF3FFEDCFF4FFDE
:101D0000EE2A000EEF22F3CFE9FFF4CFEAFF02EB59
:101D1000EFFFEF50F36EF46A0DD0FE0E005C05E1AC
:101D200002EBE6FFECEC0FF004D002EBE6FF1DEC5B
:101D300010F041E941E9E5CFDAFFE7CFD9FF120022
:101D4000D9CFE6FFDACFE6FFE1CFD9FFE2CFDAFF66
:101D500085E93F0EC716C66A0250C6120050C71268
:101D60000150030A09E0010A04E0020A06E1C78CF7
:101D700004D0C78CC68801D0C6880250050A03E08B
:101D8000010A03E1928A948601D094969488949AE9
:0E1D9000C68A41E9E5CFDAFFE7CFD9FF12009E
:021D9E00D9CF9B
:101DA000E6FFDACFE6FFE1CFD9FFE2CFDAFF82E943
:101DB00041E8F20E0101EA1771AC03D0EA9171B06B
:101DC000EA8171B4EA8571B2EA877450026E0250FA
:0C1DD00042E9E5CFDAFFE7CFD9FF1200AF
:041DDC00D9CFE6FF76
:101DE000DACFE6FFE1CFD9FFE2CFDAFF82E941E8BF
:101DF000F20E0101EB17ABAC03D0EB91ABB0EB8172
:101E0000ABB4EB85ABB2EB87AE50026E025042E949
:0A1E1000E5CFDAFFE7CFD9FF12009B
:061E1A00D9CFE6FFDACF8C
:101E2000E6FFE1CFD9FFE2CFDAFF83E941E8C9500D
:101E3000036E9E96C69E00EBC9FFC6AE02D0FF0E93
:101E400003D09EA6FED7000E42E9E5CFDAFFE7CF2A
:041E5000D9FF1200A4
:0C1E5400D9CFE6FFDACFE6FFE1CFD9FFDF
:101E6000E2CFDAFF83E9FB0E0014BA6EBC6A9E92E1
:101E700000AE02D09D8201D09D92BA8441E9E5CFA7
:081E8000DAFFE7CFD9FF1200E1
:081E8800D9CFE6FFDACFE6FF37
:101E9000E1CFD9FFE2CFDAFF84E942E880EB04F03A
:101EA00081EB05F005EBB3FF04EBB2FF43E9E5CFAF
:081EB000DAFFE7CFD9FF1200B1
:081EB800D9CFE6FFDACFE6FF07
:101EC000E1CFD9FFE2CFDAFF84E93F0E6D166C6AED
:101ED0006B6A01506C1200506D126C8A41E9E5CFBB
:081EE000DAFFE7CFD9FF120081
:081EE800D9CFE6FFDACFE6FFD7
:101EF000E1CFD9FFE2CFDAFF84E93F0EC716C66A09
:101F0000C56A0150C6120050C712C68A41E9E5CF22
:081F1000DAFFE7CFD9FF120050
:081F1800D9CFE6FFDACFE6FFA6
:101F2000E1CFD9FFE2CFDAFF83E972AC04D072903F
:101F30000101EAB3728000EB73FF41E9E5CFDAFFFC
:061F4000E7CFD9FF1200FB
:0A1F4600D9CFE6FFDACFE6FFE1CFC6
:101F5000D9FFE2CFDAFF83E9ACAC04D0AC90010149
:101F6000EBB3AC8000EBADFF41E9E5CFDAFFE7CFA3
:041F7000D9FF120083
:0C1F7400F36AF46AFF0EE124E96EFF0E30
:101F8000E220EA6EED6607D02F0EEF6404D03A0E21
:081F9000EF6001D0F32A1200FA
:081F9800FF0EE3500101E96FA7
:101FA0001A0E00D000D001D0200EE76EE72EFED72B
:081FB000E92FFAD700D012005E
:081FB800380EF36E00EE00F09C
:101FC0000F0E01D81200EA6002D0EE6AFCD7F3507F
:081FD000E9601200EE6AFCD783
:081FD800FF0EE350ACBA04D087
:101FE000AF6AAB8EAC8A949CACA2FED7AD6EF36E9A
:041FF000F46A12007D
:0C1FF4001EEE00F02EEE00F0F86AFDEC8E
:0E2000000CF01EEC10F056EC07F0FBD71200AF
:02200E000F0EB3
:10201000C614080804E00F0EC6140B0801E1C586BB
:08202000C7A0FED7C950120051
:08202800303132333435363714
:09203000383961626364656600E1
:02203A00120092
:02203C00120090
:020000040030CA
:0100010028D6
:01000500BF3B
:0100060045B4
:00000001FF
