:020000040000FA
:060000000DEF17F01200E5
:0A0006000100702E0000FC01000054
:0400100002000000EA
:0C0014008D920000000000008D821200A0
:1000200001010683E66A010EE66EE66ACBEC15F086
:1000300043E98D82640EF66E2E0EF76E0800F5CF42
:10004000DCF1620EF66E2E0EF76E0800F55001011F
:10005000DC110409E66E09EC10F041E9100EE66EC1
:1000600009EC10F041E900008D92F40EE66E010EED
:10007000E66E26EC10F042E98D82640EF66E2E0ECE
:10008000F76E0800F5CFDCF1620EF66E2E0EF76EFD
:100090000800F5500101DC110309E66E09EC10F0CF
:1000A00041E9E66A09EC10F041E90000B3DF640EB3
:1000B000F66E2E0EF76E0800F5CFDCF1620EF66ECE
:1000C0002E0EF76E0800F5500101DC11E66E09EC0A
:1000D00010F041E9B80EE66E09EC10F041E91E0E91
:1000E000E66E09EC10F041E9E66A09EC10F041E92E
:1000F000E66A09EC10F041E98DDF670EF66E2E0E10
:10010000F76E0800F5CFDCF1620EF66E2E0EF76E7C
:100110000800F5500101DC11E66E09EC10F041E930
:10012000070EE66E09EC10F041E9E66A09EC10F002
:1001300041E970DF640EF66E2E0EF76E0800F5CF03
:10014000DCF1620EF66E2E0EF76E0800F55001011E
:10015000DC11E66E09EC10F041E9BF0EE66E09EC29
:1001600010F041E957DF640EF66E2E0EF76E0800B0
:10017000F5CFDCF1620EF66E2E0EF76E0800F5502C
:100180000101DC110209E66E09EC10F041E9E66AB2
:1001900009EC10F041E93EDF660EF66E2E0EF76EAA
:1001A0000800F5CFDCF1620EF66E2E0EF76E080039
:1001B000F5500101DC11E66E09EC10F041E9E66A48
:1001C00009EC10F041E9E66A09EC10F041E9E66A51
:1001D00009EC10F041E9E66A09EC10F041E9E66A41
:1001E00009EC10F041E9E66A09EC10F041E9E66A31
:1001F00009EC10F041E98D92C69A010106931200B4
:10020000D9CFE6FFE1CFD9FF81E94FE801010683AD
:10021000D3C1DFF1D4C1E0F1D5C1E1F10101DF6B60
:100220000101E06B100E1F0BDFC1DCF1E0C1DDF15D
:10023000E1C1DEF107E00101D890DE33DD33DC33CC
:10024000E806FAE1DCC1E6FFD4EC0FF041E90A6E02
:100250000B6AD00E0A26070E0B22D3C1DFF1D4C1E0
:10026000E0F1D5C1E1F10101DF6B0101E16B080EA5
:100270001F0BDFC1DCF1E0C1DDF1E1C1DEF107E020
:100280000101D890DE33DD33DC33E806FAE1DCC16E
:10029000E6FFD4EC0FF041E90C6E0D6AD3C1DCF13E
:1002A000D4C1DDF1D5C1DEF10101DD6B0101DE6BF1
:1002B000DCC1E6FFD4EC0FF041E90E6E0F6A0EEBE5
:1002C000E6FF0FEBE6FF0CEBE6FF0DEBE6FF0AEBBC
:1002D000E6FF0BEBE6FF0BEC0FF046E9F350016E87
:1002E000012AD0C1DCF1D1C1DDF1D2C1DEF10101C1
:1002F000DD6B0101DE6B0101DC51036ED0C1DFF16A
:10030000D1C1E0F1D2C1E1F10101DF6B0101E16B8B
:10031000080E1F0BDFC1DCF1E0C1DDF1E1C1DEF150
:1003200007E00101D890DE33DD33DC33E806FAE183
:100330000101DC51046ED0C1DFF1D1C1E0F1D2C1C5
:10034000E1F10101DF6B0101E06B100E1F0BDFC15A
:10035000DCF1E0C1DDF1E1C1DEF107E00101D8909F
:10036000DE33DD33DC33E806FAE10101DC51056EF2
:10037000D3C1DCF1D4C1DDF1D5C1DEF10101DD6B0A
:100380000101DE6B0101DC51066E81EB07F0D3C188
:10039000DFF1D4C1E0F1D5C1E1F10101DF6B010171
:1003A000E16B080E1F0BDFC1DCF1E0C1DDF1E1C143
:1003B000DEF107E00101D890DE33DD33DC33E806FF
:1003C000FAE10101DC51086ED3C1DFF1D4C1E0F1E3
:1003D000D5C1E1F10101DF6B0101E06B100E1F0BD4
:1003E000DFC1DCF1E0C1DDF1E1C1DEF107E00101D7
:1003F000D890DE33DD33DC33E806FAE10101DC516D
:10040000096EE66A010EE66EE66ACBEC15F043E98A
:100410008D82640EF66E2E0EF76E0800F5CFDCF1BD
:10042000620EF66E2E0EF76E0800F5500101DC111B
:10043000E66E09EC10F041E9BE0EE66E09EC10F034
:1004400041E9E8DD650EF66E2E0EF76E0800F5CF79
:10045000DCF1620EF66E2E0EF76E0800F55001010B
:10046000DC11E66E09EC10F041E9026A070E025C4D
:1004700014E20101D950030FDC6FDACFDDF1025035
:100480000101EA6ADC25E96EDD51EA22EFCFE6FFE1
:1004900009EC10F041E9022AE9D7BCDD640EF66EE2
:1004A0002E0EF76E0800F5CFDCF1620EF66E2E0E02
:1004B000F76E0800F5500101DC11E66E09EC10F052
:1004C00041E9BF0EE66E09EC10F041E900000000C2
:1004D0008D920101069350E9E7CFD9FF1200D9CFE1
:1004E000E6FFE1CFD9FF82E901010683E66A010E4A
:1004F000E66EE66ACBEC15F043E98D820000670EEC
:10050000F66E2E0EF76E0800F5CFDCF1620EF66E79
:100510002E0EF76E0800F5500101DC11E66E09ECB5
:1005200010F041E900EBE6FF09EC10F041E9E66A62
:1005300009EC10F041E9000000008D92C69A01011B
:10054000069341E9E7CFD9FF120001010683E66A6D
:10055000010EE66EE66ACBEC15F043E98D82640E7F
:10056000F66E2E0EF76E0800F5CFDCF1620EF66E19
:100570002E0EF76E0800F5500101DC11E66E09EC55
:1005800010F041E9260EE66E09EC10F041E9020E8A
:10059000E66E09EC10F041E9E66A09EC10F041E979
:1005A000E66A09EC10F041E9E66A09EC10F041E96D
:1005B000000000002FDD670EF66E2E0EF76E0800AD
:1005C000F5CFDCF1620EF66E2E0EF76E0800F550D8
:1005D0000101DC11E66E09EC10F041E9070EE66E50
:1005E00009EC10F041E9E66A09EC10F041E900007D
:1005F000000010DD640EF66E2E0EF76E0800F5CFCB
:10060000DCF1620EF66E2E0EF76E0800F550010159
:10061000DC11E66E09EC10F041E9270EE66E09ECFC
:1006200010F041E98D92C69A010106931200D9CFCC
:10063000E6FFE1CFD9FF81E942E801010683026AC2
:10064000210E025C09E20250EA6A290FE96E010EEE
:10065000EA22EF68022AF4D7E66A010EE66EE66A3D
:10066000CBEC15F043E98D82630EF66E2E0EF76E1D
:100670000800F550E66E09EC10F041E9026A050E3B
:10068000025C10E2EDEC0FF0E66E0250EA6A290F10
:10069000E96E010EEA22E552E750EF6E000000001D
:1006A000022AEDD7B7DC630EF66E2E0EF76E080049
:1006B000F5500809E66E09EC10F041E9080E026EEB
:1006C0000F0E025C10E2EDEC0FF0E66E0250EA6AEB
:1006D000290FE96E010EEA22E552E750EF6E0000A5
:1006E0000000022AEDD796DC630EF66E2E0EF76E32
:1006F0000800F5501009E66E09EC10F041E9100E03
:10070000026E170E025C10E2EDEC0FF0E66E025086
:10071000EA6A290FE96E010EEA22E552E750EF6E10
:1007200000000000022AEDD775DC630EF66E2E0E77
:10073000F76E0800F5501809E66E09EC10F041E973
:10074000180E026E1A0E025C10E2EDEC0FF0E66E6F
:100750000250EA6A290FE96E010EEA22E552E750DB
:10076000EF6E00000000022AEDD754DC630EF66E37
:100770002E0EF76E0800F5502009E66E09EC10F019
:1007800041E9EDEC0FF00101496F8D92C69A00002E
:10079000000000000101069343E9E7CFD9FF1200F2
:1007A000D9CFE6FFE1CFD9FF81E952E80101068305
:1007B000036A0C6A8C80E66A010EE66EE66ACBEC90
:1007C00015F043E98D82640EF66E2E0EF76E08006A
:1007D000F5CFDCF1630EF66E2E0EF76E0800F550C5
:1007E0000101DC110209E66E09EC10F041E9EDECC3
:1007F0000FF0016EEDEC0FF0026E0CDC640EF66E85
:100800002E0EF76E0800F5CFDCF1620EF66E2E0E9E
:10081000F76E0800F5500101DC110209E66E09ECE3
:1008200010F041E9E66A09EC10F041E9E66A09ECEA
:1008300010F041E90AEC00F0650EF66E2E0EF76E30
:100840000800F5CFDCF1630EF66E2E0EF76E080091
:10085000F5500101DC11E66E09EC10F041E9EDEC18
:100860000FF0046EEDEC0FF0056EEDEC0FF0066E80
:10087000EDEC0FF0076EEDEC0FF0086EEDEC0FF005
:100880000A6EEDEC0FF00B6E01B41AD00AEC00F01A
:10089000680EF66E2E0EF76E0800F5CFDCF1630ED3
:1008A000F66E2E0EF76E0800F5500101DC11E66EB3
:1008B00009EC10F041E9EDEC0FF00C6E3C0E0C5E13
:1008C000180E011403E1200E021402E0010E036E63
:1008D0008D920101010ECF6F0804010104E0CF47A2
:1008E000CF91E806FCE10101C96BCA6BCB6B06EB4B
:1008F000C9F10101CA6BCB6BCAC1CBF1C9C1CAF145
:10090000C9C1CAF10101C96B05EBDCF10101DD6B65
:10091000DE6B0101DC510101C9130101DD5101014F
:10092000CA130101DE510101CB13CAC1CBF1C9C108
:10093000CAF1C9C1CAF10101C96B04EBDCF10101C3
:10094000DD6BDE6B0101DC510101C9130101DD51D9
:100950000101CA130101DE510101CB130101CC6B6E
:10096000CD6BCE6B0BEBCCF10101CD6BCE6BCDC162
:10097000CEF1CCC1CDF1CCC1CDF10101CC6B0AEBF4
:10098000DCF10101DD6BDE6B0101DC510101CC13F7
:100990000101DD510101CD130101DE510101CE1331
:1009A000CDC1CEF1CCC1CDF1CCC1CDF10101CC6B2B
:1009B00007EBDCF10101DD6BDE6B0101DC510101B4
:1009C000CC130101DD510101CD130101DE51010103
:1009D000CE138C90C69A010E0101FC15E66EE66AF4
:1009E0000CEBDCF10101DD6BDCBFDD69DCC1E6FF96
:1009F000DDC1E6FF0101CF51E66EE66A0450E66E06
:100A0000E66A0550E66EE66A0650E66EE66A07504C
:100A1000E66EE66A0A50E66EE66A0B50E66EE66A35
:100A20009A0EE66E280EE66EE66A290EE66E010E56
:100A3000E66EF6EC14F057E9010EE66E290EE66E4E
:100A4000010EE66E33EC0BF043E90101FC2B0000D4
:100A5000000001010693035000D053E9E7CFD9FF0E
:100A60001200D9CFE6FFE1CFD9FF81E953E8016A4F
:100A7000010E026E020E036E040E046E080E056E69
:100A8000100E066E200E076E400E086E01010683E2
:100A90000B6A136AE66A030EE66EE66ACBEC15F0A3
:100AA00043E98D82640EF66E2E0EF76E0800F5CFC8
:100AB000DCF1630EF66E2E0EF76E0800F5500101A4
:100AC000DC110209E66E09EC10F041E9EDEC0FF0E3
:100AD000096EEDEC0FF00A6E0AEC00F0640EF66E93
:100AE0002E0EF76E0800F5CFDCF1620EF66E2E0EBC
:100AF000F76E0800F5500101DC110209E66E09EC01
:100B000010F041E9E66A09EC10F041E9E66A09EC07
:100B100010F041E90AEC00F0180E091403E1200E70
:100B20000A1403E0010E0B6E44D0650EF66E2E0E15
:100B3000F76E0800F5CFDCF1630EF66E2E0EF76E41
:100B40000800F5500101DC11E66E09EC10F041E9F6
:100B5000EDEC0FF00C6EEDEC0FF00D6EEDEC0FF018
:100B60000E6EEDEC0FF00F6EEDEC0FF0106EEDEC85
:100B70000FF0116EEDEC0FF0126E09B41AD00AEC02
:100B800000F0680EF66E2E0EF76E0800F5CFDCF161
:100B9000630EF66E2E0EF76E0800F5500101DC11A3
:100BA000E66E09EC10F041E9EDEC0FF0136E3C0E2F
:100BB000135E8D92C69A0101D950010FDC6FDACF16
:100BC000DDF110500101EA6ADC25E96EDD51EA220F
:100BD000EFCFCFF10101C96BCA6BCB6B0EEBC9F143
:100BE0000101CA6BCB6BCAC1CBF1C9C1CAF1C9C182
:100BF000CAF10101C96B0DEBDCF10101DD6BDE6BAC
:100C00000101DC510101C9130101DD510101CA13C8
:100C10000101DE510101CB13CAC1CBF1C9C1CAF137
:100C2000C9C1CAF10101C96B0CEBDCF10101DD6B3B
:100C3000DE6B0101DC510101C9130101DD5101012C
:100C4000CA130101DE510101CB130101CC6BCD6B45
:100C5000CE6B12EBCCF10101CD6BCE6BCDC1CEF1E1
:100C6000CCC1CDF1CCC1CDF10101CC6B11EBDCF1EC
:100C70000101DD6BDE6B0101DC510101CC130101CF
:100C8000DD510101CD130101DE510101CE13CDC1B2
:100C9000CEF1CCC1CDF1CCC1CDF10101CC6B0FEBCC
:100CA000DCF10101DD6BDE6B0101DC510101CC13D4
:100CB0000101DD510101CD130101DE510101CE130E
:100CC0008C9013EBDCF10101DD6BDCBFDD69DCC175
:100CD000E6FFDDC1E6FF0101CF51E66EE66A0C508A
:100CE000E66EE66A0D50E66EE66A0E50E66EE66A5D
:100CF0000F50E66EE66A1150E66EE66A1250E66E36
:100D0000E66A650EE66E280EE66EE66A290EE66E67
:100D1000010EE66EF6EC14F055E9010EE66E290EB2
:100D2000E66E010EE66E33EC0BF043E90101FD2B9C
:100D300000000000010106930B5000D054E9E7CFFA
:100D4000D9FF1200D9CFE6FFE1CFD9FF81E941E811
:100D500001010683E66A030EE66EE66ACBEC15F047
:100D600043E98D82640EF66E2E0EF76E0800F5CF05
:100D7000DCF1630EF66E2E0EF76E0800F5500101E1
:100D8000DC110309E66E09EC10F041E9EDEC0FF01F
:100D9000016EC69A000000000101069342E9E7CF08
:100DA000D9FF1200D9CFE6FFE1CFD9FF81E943E8AF
:100DB00001010683E66A030EE66EE66ACBEC15F0E7
:100DC00043E98D82640EF66E2E0EF76E0800F5CFA5
:100DD000DCF1630EF66E2E0EF76E0800F550010181
:100DE000DC110209E66E09EC10F041E9EDEC0FF0C0
:100DF000026EEDEC0FF0036E000000000AEC00F054
:100E0000640EF66E2E0EF76E0800F5CFDCF1620E62
:100E1000F66E2E0EF76E0800F5500101DC11020986
:100E2000E66E09EC10F041E9E66A09EC10F041E9E0
:100E3000E66A09EC10F041E9000000008D92C69AC4
:100E4000000000000101069344E9E7CFD9FF12003A
:100E500090DB86E90150010600090CE002EBE6FF99
:100E600003EBE6FF00EBE6FF69DBF4E1DD1DF2E1F9
:100E7000010E01D0000E41E9E5CFDAFFE7CFD9FF3F
:100E8000120077DB89E97BE80A6A0B6A02EBF6FF5E
:100E900003EBF7FF04EBF8FF0800F550096E09506B
:100EA00001E12DD3250E095C01E01BD30C6A0D6A0C
:100EB0000E6A0F6A106A2DDB2D0E095C0CE02B0EFA
:100EC000095C09E0200E095C06E0230E095C03E0E2
:100ED000300E095C15E10950300A10E0130A0CE0ED
:100EE000030A08E00B0A04E0060AE5E10C80E3D7F8
:100EF0000C82E1D70C84DFD70C86DDD70C88DBD7DA
:100F00002A0E095C13E1A5DB0DE30C801CEBDCF180
:100F10001DEBDDF10101DC6DDD1F000EDD23DC5179
:100F20000D6E02D09CEB0DF0F4DA07D0126A3FDBB5
:100F300002E06BDBFCD792EB0DF00CB00C982E0EA0
:100F4000095C15E1E6DA2A0E095C08E182DB04E2BD
:100F50009CEB0EF0010E0F6EDCDA09D0126A27DB73
:100F600002E053DBFCD792EB0EF0010E0F6E680E21
:100F7000095C07E1CEDA680E095C1DE1030E106E14
:100F800019D0740E095C16E07A0E095C13E0480E65
:100F9000095C06E0540E095C03E05A0E095C02E1AC
:100FA000020E07D06C0E095C03E06A0E095C03E1D7
:100FB000010E106EAEDA09506E0A01E16ED21E0A01
:100FC00001E128D1200A01E125D13F0A01E1FDD04C
:100FD0001A0A01E1FAD00D0A01E1F7D0200A01E175
:100FE000F4D03A0A01E1F1D0200A01E1EED0260A5C
:100FF00001E1EAD00D0A01E1E7D01A0A01E19ED031
:10100000200A3BE0300A1AE0460A0EE0250A01E019
:1010100072D2D950020FE96E000EDA20EA6E010E8C
:10102000EE5E000EEE5AEE5A0FDB250EE66E86DA05
:1010300003E1DD1D01E159D20A2A5BD2116A0D508C
:10104000010803E20D04116EF5DA115007E0010EFC
:101050000C1404E16DDA01E048D2116AD3DAEF50E2
:10106000096ECBDA03E1DD1D01E13FD20A2A000E51
:101070000B225EDA01E13FD238D2020E105C08E1A9
:10108000030E4EDAEE50176EEE50186EEF5007D08A
:10109000E7DADE6BDC51176EDD51186EDE51196E2A
:1010A00017EBE6FF18EBE6FF19EBE6FF73EC15F024
:1010B00043E9F8C1DCF1F9C1DDF1FAC1DEF101016A
:1010C000DC511C6EDD511D6E0F5006E01C500E5C95
:1010D00003E20E501C6E1D6A1C500D5C02E29CEB7C
:1010E0000DF050DA05E00D500E5C02E28EEB0DF0D3
:1010F0000CB004D01DDA01E0F8D1116A126A17EBC6
:10110000F6FF18EBF7FF19EBF8FF0800F550096E32
:10111000095010E00D50125C0DE26FDA03E1DD1DA5
:1011200001E1E3D10A2A000E0B22122AD950170F2F
:1011300055DAEBD7FDD901E1DED1D7D163DAEE5034
:101140001A6EED501B6E1AEBE6FF1BEBE6FF65EC2B
:1011500015F042E9F3501C6EF4501D6E0F5006E07E
:101160001C500E5C03E20E501C6E1D6A1C500D5C80
:1011700002E29CEB0DF006DA05E00D500E5C02E297
:101180008EEB0DF00CB004D0D3D901E0AED1116AD2
:10119000126A1AEBE9FF1BEBEAFFEF50096E0950E8
:1011A0000FE00D50125C0CE228DA03E1DD1D01E1D5
:1011B0009CD10A2A000E0B22122A1A2A1B22E9D7D6
:1011C000B7D901E198D191D10C8E10040AE1040E37
:1011D000A7D9EE50136EEE50146EEE50156EEF5010
:1011E00032D0030E105C16E10CAE0CD00BDAEFCF50
:1011F000DCF10101DD6BDE6BDF6BDCAF23D0DD6981
:10120000DE691FD0FFD9EFCFDCF10101DC51136E95
:10121000146A20D0020E105C0CE10CAE06D0030E56
:101220007FD9B6D9DEAF0ED00CD0030E79D9B0D9A4
:1012300009D00CAE0AD014DADE6BDF6BDDAF02D062
:10124000DE69DF69BCD9166E07D00ADADC51136E8D
:10125000DD51146E156A166A0F5002E1010E0E6E12
:101260001E6A1F6AD950400FE66E000EDA20E66E45
:10127000E552E550436EE750426E416A116A0A0E2C
:10128000106E0950780A12E0200A10E0280A0CE0DB
:10129000200A0AE03F0A06E00D0A02E0200A08E1FF
:1012A000020E05D0080E03D0080E0926100E106E8F
:1012B0000CBE02D00C920C94800E0C1417E0163465
:1012C00015E3E668E668E668E66842D900EC12F0E5
:1012D000E552E5CFDFF1E5CFDEF1E5CFDDF1E7CF98
:1012E000DCF101016CD9166E2D0E07D00CA202D0D4
:1012F0002B0E03D00CA404D0200E206E1E2A01D089
:10130000206A0E5005E1135014101510161061E0FC
:1013100001014E0EDC6F2E0EDD6F000EDE6F83D9E5
:10132000BDEC11F0E552E5CFE2F1E5CFE1F1E5CF1B
:10133000E0F1E7CFDFF10101DC51DF25F36EDD5194
:10134000E021F46EDE51E121F86EF4CFF7FFF3CF28
:10135000F6FF0800F550126E580E095C05E1610EAB
:10136000125C02E3200E125E5ED9BAEC11F0E55277
:10137000E550166EE550156EE550146EE750136E8D
:1013800042EBE9FF43EBEAFF4206000E435A12EB41
:10139000EFFF1E2A1350141015101610B9E10CA6F9
:1013A00019D06F0E095C06E10E501E5C13E31E2877
:1013B0000E6E10D0780E095C09E0580E095C06E04C
:1013C000620E095C03E0420E095C04E1020E1F6E2E
:1013D00001D01E6A100E0C1407E00D500E5C04E2E2
:1013E0000F5002E18DEB0EF00E501E5C03E21E501A
:1013F0000E5E01D00E6A0E501E241F24D8800D549C
:1014000007E20E500D5CD8801E54D8801F54116E18
:10141000010E0C1406E1115004E08AD866E10AD9E5
:10142000116A205007E010D920EBE6FF87D802E1CF
:10143000DD1D5BE01F500BE007D9300EE66E7ED855
:1014400002E1DD1D52E0D9D802E1DD1D4EE00E5073
:101450001F5C02E21F500E5E300EE66E0EEBE6FFE2
:10146000DCD843E1422A000E432242EBE9FF43EB82
:10147000EAFFEF50126E125008E0E6D812EBE6FFDA
:101480005DD8F0E1DD1DEEE130D052D82EE10E50F6
:101490001E2411241F240A262CD01050030A1CE0FD
:1014A000010A14E0030A07E0ADD8C9D80AEBEEFF41
:1014B0000BEBEDFF20D08BD8DF6BDDAF02D0DE6908
:1014C000DF69A0D84ED8DFC1EEFF15D080D8DDBFD0
:1014D000DE6998D846D80FD095D8B1D80AEBEFFF7F
:1014E0000AD08BD805E1DD1D03E1F368F4680BD069
:1014F0000A2A000E0B22D950020F70D8CDD40AEB65
:10150000F3FF0BEBF4FF7CE9E5CFDAFFE7CFD9FF80
:101510001200D950020F62D80800F550096E12006F
:10152000005E000E015A00EBE9FF01EBEAFF12003A
:10153000200EE66E11EBE6FF0DEF0BF098EC15F0C8
:1015400043E9F3CFDCF1F4CFDDF10101F31C12002C
:1015500013EBE6FF14EBE6FF15EBE6FF16EBE6FFF9
:1015600012006DD8DCC1EEFFDDC1EEFFDEC1EEFF83
:101570001200D9CFE6FFDACFE6FFE1CFD9FFE2CF05
:10158000DAFF12001C500D5C116E54D80F5012007F
:10159000EECFDCF1EECFDDF1EFCFDEF10101DF6B5D
:1015A0001200EECFDCF1EFCFDDF1010112000950A6
:1015B000E66EE66ACDEC16F042E9F3501200DC511B
:1015C000136EDD51146EDE51156EDF5112000AEB01
:1015D000DCF10BEBDDF10101DE6B1200E96E000EB8
:1015E000DA20EA6EEF2AEECFF6FF000EEF22EECF02
:1015F000F7FFEF22EECFF8FF120026D809EBE6FF47
:101600009EEF0AF0020E90EF0AF00A0E1202F3505B
:101610000924D00F126E89EF0AF016D828EC07F0D3
:1016200044E90009120010EBE6FFE66AE66AE66AA2
:10163000A8EF0AF011500A26000E0B221200EE50FD
:10164000EFCFEAFFE96E120005EBE6FF06EBE6FFDF
:101650001200D8DFEE501C6EED501D6E1D341200CE
:06166000D1DFD1EF0AF01A
:0A166600D9CFE6FFE1CFD9FF84E9F8
:1016700042E8046A056A00041FE101500424E96E8F
:1016800002500520EA6EEF5016E001500424E96E86
:1016900002500520EA6EEFCFE6FFB6EC16F041E906
:1016A000ACA2FED7050EE66EDFEC16F041E9042A87
:1016B000000E0522E2D71ED001500424E96E02502C
:1016C0000520EA6EEF5016E001500424E96E025046
:1016D0000520EA6EEFCFE6FF9FEC16F041E972A21B
:1016E000FED7050EE66EDFEC16F041E9042A000E87
:1016F0000522E2D743E9E7CFD9FF1200D9CFE6FFB1
:10170000E1CFD9FF81E96BE8296A2A6A01010591D5
:10171000C9EC0EF0F29E948E949C2A0EE66EE66A58
:101720007C0EE66E2FEC15F043E9B88601010597B3
:10173000000040D1E66A030EE66EE66ACBEC15F0D7
:1017400043E9DCEC12F02B6E00002B50E66EE66AEB
:101750002C0EE66E280EE66EE66A290EE66E010E87
:10176000E66EF6EC14F047E9010EE66E290EE66E21
:10177000010EE66E78DF43E9010EE66EE66A26ECBE
:1017800010F042E98D90010EE66EE66A26EC10F04C
:1017900042E9A80EE66E09EC10F041E9EDEC0FF01D
:1017A000146EEDEC0FF0156EEDEC0FF0166EEDEC27
:1017B0000FF0176EEDEC0FF0186EEDEC0FF0196EE8
:1017C0008D80C69A15EBE6FF14EBE6FF46EC10F0B1
:1017D00042E9F3501D6EF4501E6E17EBE6FF16EB58
:1017E000E6FF46EC10F042E9F3501F6EF450206E15
:1017F00019EBE6FF18EBE6FF46EC10F042E9F35078
:10180000216EF450226E640EE66EE66A1DEBE6FF72
:101810001EEBE6FFD4EC10F0E552E550246EE750E5
:10182000236E640EE66EE66A1FEBE6FF20EBE6FF32
:10183000D4EC10F0E552E550266EE750256E640EAC
:10184000E66EE66A21EBE6FF22EBE6FFD4EC10F051
:10185000E552E550286EE750276E21EBE6FF22EBBC
:10186000E6FF1FEBE6FF20EBE6FF1DEBE6FF1EEBBE
:10187000E6FF020EE66E280EE66EE66A290EE66EBA
:10188000010EE66EF6EC14F04BE9010EE66E290E41
:10189000E66E010EE66EE7DE43E9C69AE66AE66AA0
:1018A000E66ACBEC15F043E920EC13F09FEC13F063
:1018B0002FEC13F09FEC13F017EC13F0010EE66E13
:1018C00038EC16F041E98D84010EE66EE66A26ECEE
:1018D00010F042E99FEC13F0046EFF0E045C1BE174
:1018E000010E126E016A080E015C15E2EDEC0FF0BC
:1018F000E66E0101D950130FDC6FDACFDDF1015034
:101900000101EA6ADC25E96EDD51EA22E552E75081
:10191000EF6E012AE8D78D84C69A296A2A6A015097
:10192000D8902ABE03D0295C000E2A582CE2D95048
:10193000130FE66EDACFE6FFFE0EE3502924E96EC0
:1019400041E9E5502A20EA6EEF50E66EE66A29EB9F
:10195000E6FF2AEBE6FFEE0EE66E270EE66EE66A7F
:10196000290EE66E010EE66EF6EC14F049E9010E62
:10197000E66E290EE66E010EE66E75DE43E9292A53
:10198000000E2A22CCD7EB0EE66E270EE66EE66A34
:10199000290EE66E010EE66EF6EC14F045E9010E36
:1019A000E66E290EE66E010EE66E5DDE43E96CEC36
:1019B00010F0BFD6296A2A6A180EC86E8D82E66AB0
:1019C000080EE66E87EC16F042E9C580C5B0FED77A
:1019D000D40EE66EB5EC14F041E9C59AC588C5B8D9
:1019E000FED7220EE66EB5EC14F041E9C59AC58823
:1019F000C5B8FED7C582C5B2FED7D40EE66EB5EC2B
:101A000014F041E9C59AC588C5B8FED7810EE66EC7
:101A1000B5EC14F041E9C59AC588C5B8FED7C584B0
:101A2000C5B4FED7C69AE66A080EE66E87EC16F0D5
:101A300042E9C580C5B0FED7C750040B01E0010ED6
:101A40000101DC6F1F0EC5140101DC1101E0F4D7A8
:101A5000D40EE66EB5EC14F041E9046E0450E66E67
:101A6000E66ADD0EE66E270EE66EE66A290EE66E83
:101A7000010EE66EF6EC14F047E9010EE66E290E53
:101A8000E66E010EE66EEFDD43E9C750040B01E0A0
:101A9000010E0101DC6F1F0EC5140101DC1101E014
:101AA000F4D7C59AC588C5B8FED7C750040B01E066
:101AB000010E0101DC6F1F0EC5140101DC1101E0F4
:101AC000F4D7220EE66EB5EC14F041E9046E045032
:101AD000E66EE66ACF0EE66E270EE66EE66A290E21
:101AE000E66E010EE66EF6EC14F047E9010EE66EC6
:101AF000290EE66E010EE66EB6DD43E9C750040B13
:101B000001E0010E0101DC6F1F0EC5140101DC11A3
:101B100001E0F4D7C59AC588C5B8FED7C750040BF5
:101B200001E0010E0101DC6F1F0EC5140101DC1183
:101B300001E0F4D7C582C5B2FED7C750040B01E05F
:101B4000010E0101DC6F1F0EC5140101DC1101E063
:101B5000F4D7D50EE66EB5EC14F041E9046E0450EE
:101B6000E66EE66AC10EE66E270EE66EE66A290E9E
:101B7000E66E010EE66EF6EC14F047E9010EE66E35
:101B8000290EE66E010EE66E6EDD43E9C750040BCA
:101B900001E0010E0101DC6F1F0EC5140101DC1113
:101BA00001E0F4D7C59AC588C5B8FED7C750040B65
:101BB00001E0010E0101DC6F1F0EC5140101DC11F3
:101BC00001E0F4D71AEC17F0046EC750040B01E0E3
:101BD000010E0101DC6F1F0EC5140101DC1101E0D3
:101BE000F4D7C58AC588C5B8FED7C584C5B4FED7A5
:101BF000C69A8D9229EBE6FF2AEBE6FF0450E66ECB
:101C0000E66AA40EE66E270EE66EE66A290EE66E1A
:101C1000010EE66EF6EC14F049E9010EE66E290EAF
:101C2000E66E010EE66E1FDD43E96CEC10F0292A2A
:101C3000000E2A22C1D631EC05F0046E045003E0F8
:101C4000000010EC00F00000080E0E6E0EEBE6FF38
:101C50006FEC02F041E90101300ED06F300ED16F10
:101C6000130ED26F0101080ED36F030ED46F180E3E
:101C7000D56F0000000000EC01F031EC05F0046EBF
:101C8000E80EE66E030EE66E26EC10F042E931EC4B
:101C900005F0046E01010591016A020E0E6E01014C
:101CA00005A169D08C8001010591012A050EE66E1F
:101CB00001EBE6FF1FEC11F041E9E75000090DE1EF
:101CC000016A0EEBE6FF6FEC02F041E9020E0E2610
:101CD0000E500C0802E2020E0E6E57EC12F0F8C124
:101CE000DCF1F9C1DDF1FAC1DEF1FBC1DFF1010187
:101CF000DC512B6EABEB0DF0ABEB0CF0ABEB0BF068
:101D000001010551100B01E0010EE66EE66A0BEBD6
:101D1000DCF10101DD6BDCBFDD69DCC1E6FFDDC1AB
:101D2000E6FF0CEBDEF10101DF6BDEBFDF69DEC138
:101D3000E6FFDFC1E6FF0DEBE0F10101E16BE0BF83
:101D4000E169E0C1E6FFE1C1E6FF900EE66E270E15
:101D5000E66EE66A290EE66E010EE66EF6EC14F00B
:101D60004DE9010EE66E290EE66E010EE66E7BDC95
:101D700043E90101057900000000E80EE66E030E5C
:101D8000E66E26EC10F042E98C886CE9E7CFD9FFCB
:021D900012003F
:0E1D92000F01386B396B3A6B3B6B8B908B9269
:101DA00094909492806AE30E926E180E896E816A06
:101DB0001B0E936E070E8D6E966A8C6A956AFE0EE8
:101DC000E66E55EC16F041E9BC6ABB689E92000EC7
:101DD000E66EE66A6FEC16F042E90101006B010164
:101DE000016B0101026B0101036B19EC16F0FAECB7
:101DF00015F0F19E010105930101026B0101006BD9
:101E00000101096B010105950101036B0101016BE2
:101E10000101A96B1200D9CFE6FFE1CFD9FF87E915
:101E20005AE8076A086A030E096E0A6A020E0B6E08
:101E30000C6A050E0D6E0E6A0F6A106A030E116EA3
:101E4000126A050E136E146A010E156E166A040EE0
:101E5000176E186A060E196E1A6A020E1B6E1C6A3D
:101E6000040E1D6E1E6A030ED89003BE03D0025CE2
:101E7000000E035802E3000E01D0010E045E000EB6
:101E8000055A070EE66EE66A040EE66EE66A04EB95
:101E9000E6FF05EBE6FFD4EC10F00101FE0EE35087
:101EA0000424E46F41E9E5500520E56F640EE66E19
:101EB000E66A04EBE6FF05EBE6FFD4EC10F0E55232
:101EC000E5CFE7F1E7CFE6F10101E6510101E45D7D
:101ED0000101E26F0101E7510101E5590101E36FE1
:101EE000900EE66E010EE66E04EBE6FF05EBE6FFF4
:101EF000D4EC10F0E552E5CFE9F1E7CFE8F10101CC
:101F00000101E2510101E8250101E06F0101010138
:101F1000E3510101E9210101E16F0101D950070FEE
:101F2000EA6FDACFEBF101010204EC6F000E035807
:101F3000ED6F0101D890EC37ED3701010101EA5155
:101F40000101EC25E96E01010101EB510101ED21D7
:101F5000EA6E01010101E051EE240101DE6F010191
:101F60000101E151EE200101DF6F00500101DE258A
:101F70000101DC6F01500101DF210101DD6FDCC1D6
:101F8000E6FFDDC1E6FF4DEC11F0E552E550206EB5
:101F9000E7501F6E00001FEBF3FF20EBF4FF00D0B3
:101FA0005BE9E7CFD9FF1200D9CFE6FFE1CFD9FF38
:101FB00082E941E8F00E0014026E02380F0B026E47
:101FC0000A0E0202F350026E0F0E00140226025097
:101FD00000D042E9E7CFD9FF1200C96AD66AC750DC
:101FE000010B04E1140ED65C01E2F9D7C95000D010
:101FF0001200D9CFE6FFE1CFD9FF82E9C69E00EB00
:10200000C9FFC7A0FED7C95000D041E9E7CFD9FF2B
:102010001200D9CFE6FFE1CFD9FF82E941E800EB1A
:10202000C9FFC6AE03D0FF0E0DD008D0D66AC75088
:10203000010B04E1140ED65C01E2F9D7C950026E1F
:10204000025000D042E9E7CFD9FF1200D9CFE6FF16
:10205000E1CFD9FF83E944E8036A046A0050035CD6
:10206000015004580FE2056A066AFA0E055C000E7C
:10207000065804E2052A000E0622F7D7032A000EAE
:102080000422ECD745E9E7CFD9FF1200D9CFE6FF0C
:10209000E1CFD9FF83E942E80050036E046A83EB85
:1020A00004F0036A0150031204340DE3E668E668A5
:1020B00003EBE6FF04EBE6FF7AEC11F0E552E550A6
:1020C000046EE750036E03EBF3FF04EBF4FF00D064
:1020D00043E9E7CFD9FF12008C80640EE66EE66A12
:1020E000B5DF42E98C82640EE66EE66AAFDF42E954
:1020F0008C84640EE66EE66AA9DF42E98C86640E83
:10210000E66EE66AA3DF42E98C88640EE66EE66A54
:102110009DDF42E98C8A640EE66EE66A97DF42E94B
:102120008C8C640EE66EE66A91DF42E98C8E640E5A
:10213000E66EE66A8BDF42E98C90640EE66EE66A34
:1021400085DF42E98C92640EE66EE66A7FDF42E943
:102150008C94640EE66EE66A79DF42E98C96640E32
:10216000E66EE66A73DF42E98C98640EE66EE66A14
:102170006DDF42E98C9A640EE66EE66A67DF42E93B
:102180008C9C640EE66EE66A61DF42E98C9E12006A
:1021900043E8D9CFE6FFDACFE6FFE1CFD9FFE2CFC0
:1021A000DAFF89E9066A1200F3DF068001D0F0DF6A
:1021B00001AEE1EF10F0006C011EE86A012206B0EA
:1021C000067E03AEE9EF10F0026C031EE86A0322FC
:1021D000067E4FEC11F003BE0BEF11F006AE08D0F7
:1021E000026C031EE86A0322046C051EE86A0522DD
:1021F00006B006D084EB00F085EB01F006A004D019
:1022000082EB00F083EB01F0E552E5CFDAFFE7CF98
:10221000D9FF45E9000C06BEF0EF10F0E9DFFF0C36
:1022200042E8D9CFE6FFDACFE6FFE1CFD9FFE2CF30
:10223000DAFF86E9036A1200F3DF038003D0F0DFE0
:1022400001D00382026A080EE76ED890013602368A
:102250000050025C02E3026E012AE72EF7D703B2B8
:10226000120003B081EB00F003A082EB00F0E55216
:10227000E5CFDAFFE7CFD9FF43E9120043E8D9CF32
:10228000E6FFDACFE6FFE1CFD9FFE2CFDAFF89E957
:10229000066A1200F3DF068003D0F0DF01D0068269
:1022A000056A046A100EE76ED890023603360436CB
:1022B00005360050045C0150055805E30050045EEB
:1022C0000150055A022AE72EF0D706B2120006B0D6
:1022D00006D084EB00F085EB01F006A004D082EB81
:1022E00000F083EB01F0E552E5CFDAFFE7CFD9FF4D
:1022F00045E9120044E8D9CFE6FFDACFE6FFE1CFA7
:10230000D9FFE2CFDAFF8AE980EB04F081EB05F038
:1023100082EB06F002500402F450016EF350006E9E
:102320000350076E0502F450036EF350026E07501F
:102330000402F3500126F4500222E86A03220650F8
:102340000502F3500126F4500222E86A0322E55206
:10235000E5CFDAFFE7CFD9FF46E9000C45E8D9CF52
:10236000E6FFDACFE6FFE1CFD9FFE2CFDAFF8FE970
:102370000C6A1200F3DF0C8003D0F0DF01D00C8276
:102380000B6A0A6A096A086A200EE76ED89004365A
:10239000053606360736083609360A360B3600503B
:1023A000085C0150095802500A5803500B5809E3C1
:1023B0000050085E0150095A02500A5A03500B5A45
:1023C000042AE72EE4D70CB212000CB00AD088EB36
:1023D00000F089EB01F08AEB02F08BEB03F00CA02C
:1023E00008D084EB00F085EB01F086EB02F087EB80
:1023F00003F0E552E5CFDAFFE7CFD9FF49E9120054
:1024000044E8D9CFE6FFDACFE6FFE1CFD9FFE2CF4C
:10241000DAFF8EE980EB08F081EB09F082EB0AF03D
:1024200083EB0BF004500802F350006EF450016E81
:1024300004500902F3500126000EF420026E0450ED
:102440000A02F3500226000EF420036E04500B0221
:10245000F350032605500802F3500126F4500222DF
:10246000000E032205500902F3500226F450032205
:1024700005500A02F350032606500802F3500226C4
:10248000F450032206500902F350032607500802B5
:10249000F3500326E552E5CFDAFFE7CFD9FF48E94D
:0224A000000C2E
:0E24A2008D800000000000008D901200D9CF48
:1024B000E6FFE1CFD9FF81E947E801010683E66A3B
:1024C000030EE66E010EE66ECBEC15F043E98D903F
:1024D0000000000000008F0EE66E09EC10F041E9EC
:1024E000EDEC0FF0016EEDEC0FF0026EEDEC0FF085
:1024F000036E8D80C69A03EBDCF10101DC51046EA2
:10250000056A066A076AD950040FE96EDACFEAFF56
:10251000EF50EE6AEFCFF4FFEE6EEF50F4CFEEFF28
:10252000EF6E02EBDCF10101DD6BDE6BDF6BD9508E
:10253000040FE96EDACFEAFF0101DC51EE1201016E
:10254000DD51EE120101DE51EE120101DF51EE12FA
:10255000D950040FE96EDACFEAFFEF50EE6AEFCF01
:10256000F4FFEE6EEF50F4CFEEFFEF6E01EBDCF117
:102570000101DD6BDE6BDF6BD950040FE96EDACF42
:10258000EAFF0101DC51EE120101DD51EE12010101
:10259000DE51EE120101DF51EE120101069304EB50
:1025A000F8F105EBF9F106EBFAF107EBFBF100D0DE
:1025B00048E9E7CFD9FF1200D9CFE6FFE1CFD9FF35
:1025C00081E941E88D90220EE66E09EC10F041E9B8
:1025D000810EE66E09EC10F041E9010EE66EE66A46
:1025E00026EC10F042E98D802C0EE66E010EE66EB0
:1025F00026EC10F042E98D90200EE66E38EC16F0D5
:1026000041E9980EE66E38EC16F041E94ADF8F0E8C
:10261000E66E38EC16F041E9EDEC0FF0016E8D80BE
:0E2620000000015000D042E9E7CFD9FF1200C0
:02262E008D8499
:10263000010EE66EE66A26EC10F042E98D94120077
:102640008B80010EE66EE66A26EC10F042E98B9074
:10265000060EE66EE66A26EC10F042E912008D9452
:10266000020EE66E09EC10F041E9810EE66E09EC0F
:1026700010F041E9010EE66E09EC10F041E9010E9F
:10268000E66E09EC10F041E98C0EE66E09EC10F0F4
:1026900041E9BA0EE66E09EC10F041E9800EE66EF3
:1026A00009EC10F041E90F0EE66EE66A26EC10F038
:1026B00042E98D841200D9CFE6FFE1CFD9FF83E94B
:1026C00046E88D94010EE66E09EC10F041E98D8428
:1026D000010EE66EE66A26EC10F042E98D94440E97
:1026E000E66E09EC10F041E9EDEC0FF0036E046AC0
:1026F000FF0E035C0FE00A0E045C0CE28D94440EA6
:10270000E66E09EC10F041E9EDEC0FF0036E8D84FC
:10271000042AEED7FF0E035C0BE1010E056E066A7C
:10272000076A086A046A0050045C02E2042AFBD7C4
:102730008D84055000D047E9E7CFD9FF1200D9CFEB
:10274000E6FFE1CFD9FF81E942E88D94440EE66EC1
:1027500009EC10F041E9EDEC0FF0016E026AFF0E9A
:10276000015C10E00A0E025C0DE2022A8D8400007A
:102770008D94440EE66E09EC10F041E9EDEC0FF09B
:10278000016EEDD7015000D043E9E7CFD9FF120029
:102790002025336409253364092533640925640D34
:1027A0000A0D0A002056616C75653A2025303258B2
:1027B0002C20436F756E7465723A202564200D0AD3
:1027C0000020307844353A20253032580D0A002058
:1027D000307832323A20253032580D0A00203078D5
:1027E00044343A20253032580D0A000D0A00496E53
:1027F000646578202564202D2025303258200D0A6C
:1028000020000C0D0A205820092025303464200DAA
:102810000A205920092025303464200A0D205A202E
:10282000092025303464200D0A0D0A000C0D0A2001
:102830004C534D3944533120496E6974696572694E
:102840006E673A0D0A0D0A2057484F20414D204926
:102850003F20093078253032582028307836382902
:102860000D0A0D0A000C0D0A20253032582D253096
:1028700032582D253032582020253032583A253014
:1028800032583A25303258203078253032582020BE
:10289000252B6427430D0A0D0A0009253032582DD7
:1028A000253032582D2530325820253032583A25DF
:1028B0003032583A2530325820307825303258207E
:0B28C00020252B642743092564090034
:0428CC00060EF66E90
:1028D000000EF76E000EF86E01010900F550F36F5F
:1028E0000900F550F46F03E1F36701D03DD0090012
:1028F000F550EE6F0900F550EF6F0900F550F06FDD
:1029000009000900F550E96E0900F550EA6E09006A
:1029100009000900F550F16F0900F550F26F090048
:102920000900F6CFF5F1F7CFF6F1F8CFF7F1EEC1E8
:10293000F6FFEFC1F7FFF0C1F8FF0101F15302E12B
:10294000F25307E00900F550EE6EF107F8E2F207E6
:10295000F9D7F5C1F6FFF6C1F7FFF7C1F8FF01019E
:0A296000F307000EF45BBFD712006E
:06296A00D9CFE6FFDACF31
:10297000E6FFE1CFD9FFE2CFDAFF83E900EBC9FF41
:10298000C6AE02D0FF0E2CD00F0EC61408080FE002
:102990000F0EC6140B080BE0C6889EA6FED7C750C4
:1029A000040B03E1C750010B18E0000E19D00F0E05
:1029B000C614080804E00F0EC6140B0811E1C7B0D6
:1029C000FED7C750040B01E0010E0101DC6F1F0EA2
:1029D000C514DC11F6E1C5AC02D0FE0E01D0000E2C
:0C29E00041E9E5CFDAFFE7CFD9FF120094
:0429EC00D9CFE6FF5A
:1029F000DACFE6FFE1CFD9FFE2CFDAFF87E944E89B
:102A0000D9CFE6FFDACFE6FFE552E5500A6EE75090
:102A1000096E09EBE6FF0AEBE6FF00EBE6FF01EBD0
:102A2000E6FF02EBE6FFD950030FE66E000EDA2058
:102A3000E66E41EC07F047E9F350076EF450086E7C
:102A400003EBE9FF04EBEAFFEF6A07EBF3FF08EBA8
:0E2A5000F4FF45E9E5CFDAFFE7CFD9FF12002A
:022A5E00D9CFCE
:102A6000E6FFDACFE6FFE1CFD9FFE2CFDAFF85E973
:102A7000AC6AAB6A02B0AC8802A202D0AC8CAB8C60
:102A800002B4AC8E02A602D0AB8801D0AB8A02B8E9
:102A9000AC8402BAAB8602AC02D09D8A01D09D9A6A
:102AA00002AE02D09D8801D09D9800EBAFFF0101DE
:102AB00001EBDCF1DD6BDCC1B0FFAC8AAB8E41E930
:0A2AC000E5CFDAFFE7CFD9FF1200DF
:062ACA00FE0EE3CFE9FF60
:102AD000FF0EE3CFEAFFF36AF46AEE5203E0F34A33
:102AE000F42AFBD71200FF0EE3CFF8FFE552FF0EEA
:102AF000E3CFF7FFE552FF0EE3CFF6FFE552E66ABC
:102B0000E66AE66A0900F55209E0FD0EE32A05E1EE
:102B1000FE0EE32A02E1FF0EE32AF4D7FD0EE3CF17
:102B2000F8F1FE0EE3CFF9F1FF0EE3CFFAF1120058
:102B3000D9CFE6FFDACFE6FFE1CFD9FFE2CFDAFF68
:102B400085E9013415E200EBE9FF01EBEAFFEECF86
:102B5000F3FFEDCFF4FFEE2A000EEF22F3CFE9FFF3
:102B6000F4CFEAFF02EBEFFFEF50F36EF46A0DD003
:102B7000FE0E005C05E102EBE6FFFFEC16F004D070
:102B800002EBE6FF36EC17F041E941E9E5CFDAFF69
:062B9000E7CFD9FF12009F
:0A2B9600D9CFE6FFDACFE6FFE1CF6A
:102BA000D9FFE2CFDAFF85E93F0EC716C66A0250A9
:102BB000C6120050C7120150030A09E0010A04E0DE
:102BC000020A06E1C78C04D0C78CC68801D0C6882B
:102BD0000250050A03E0010A03E1928A948601D0BB
:102BE00094969488949AC68A41E9E5CFDAFFE7CFB4
:042BF000D9FF1200F7
:0C2BF400D9CFE6FFDACFE6FFE1CFD9FF32
:102C0000E2CFDAFF82E941E8F20E0101FF1771AC71
:102C100003D0FF9171B0FF8171B4FF8571B2FF875E
:102C20007450026E025042E9E5CFDAFFE7CFD9FFD8
:022C3000120090
:0E2C3200D9CFE6FFDACFE6FFE1CFD9FFE2CF40
:102C4000DAFF82E941E8F20E00010017ABAC03D0D5
:102C50000091ABB00081ABB40085ABB20087AE5041
:102C6000026E025042E9E5CFDAFFE7CFD9FF12004A
:102C7000D9CFE6FFDACFE6FFE1CFD9FFE2CFDAFF27
:102C800083E941E8C950036E9E96C69E00EBC9FFDA
:102C9000C6AE02D0FF0E03D09EA6FED7000E42E9BC
:0A2CA000E5CFDAFFE7CFD9FF1200FD
:062CAA00D9CFE6FFDACFEE
:102CB000E6FFE1CFD9FFE2CFDAFF83E9FB0E001494
:102CC000BA6EBC6A9E9200AE02D09D8201D09D92E7
:0E2CD000BA8441E9E5CFDAFFE7CFD9FF120061
:022CDE00D9CF4C
:102CE000E6FFDACFE6FFE1CFD9FFE2CFDAFF84E9F2
:102CF00042E880EB04F081EB05F005EBB3FF04EB59
:0E2D0000B2FF43E9E5CFDAFFE7CFD9FF1200BB
:022D0E00D9CF1B
:102D1000E6FFDACFE6FFE1CFD9FFE2CFDAFF84E9C1
:102D20003F0EC716C66AC56A0150C6120050C712C8
:0E2D3000C68A41E9E5CFDAFFE7CFD9FF1200EE
:022D3E00D9CFEB
:102D4000E6FFDACFE6FFE1CFD9FFE2CFDAFF83E992
:102D500072AC04D072900101FFB3728000EB73FF7C
:0C2D600041E9E5CFDAFFE7CFD9FF120010
:042D6C00D9CFE6FFD6
:102D7000DACFE6FFE1CFD9FFE2CFDAFF83E9ACACEF
:102D800004D0AC90000100B3AC8000EBADFF41E992
:0A2D9000E5CFDAFFE7CFD9FF12000C
:062D9A00F36AF46AFF0E6B
:102DA000E124E96EFF0EE220EA6EED6607D02F0EF9
:0E2DB000EF6404D03A0EEF6001D0F32A120057
:022DBE00FF0E06
:102DC000E3500101FE6F1A0E00D000D001D0200E9A
:0E2DD000E76EE72EFED7FE2FFAD700D01200D6
:022DDE00000EE5
:102DE000F36E00EE00F0060E01D81200EA6002D089
:0E2DF000EE6AFCD7F350E9601200EE6AFCD7E1
:022DFE00FF0EC6
:102E0000E350ACBA04D0AF6AAB8EAC8A949CACA24F
:0A2E1000FED7AD6EF36EF46A1200F7
:062E1A0015EE00F025EEAC
:102E200000F0F86A66EC14F037EC17F07EEC0BF06B
:042E3000FBD71200BA
:0C2E34000F0EC614080804E00F0EC614B0
:0E2E40000B0801E1C586C7A0FED7C9501200DD
:022E4E00303121
:0F2E500032333435363738396162636465660072
:012E5F000A68
:0C2E60000B0D00800008101820283038EE
:022E6C00120052
:022E6E00120050
:022E7000000060
:020000040030CA
:0100010021DD
:0100030014E8
:0100060045B4
:010008000FE8
:00000001FF
