:020000040000FA
:06000000B0EF14F0120045
:0A0006000100B6290000FC01000013
:0400100002000000EA
:0C00140000000000000012000101068343
:10002000E66A010EE66EE66AC4EC13F043E9AA0E36
:10003000F66E290EF76E0800F5CFDCF1A80EF66E0D
:10004000290EF76E0800F5500101DC110409E66E77
:10005000A2EC0EF041E9100EE66EA2EC0EF041E9C2
:100060000000F40EE66E010EE66EBFEC0EF042E903
:10007000AA0EF66E290EF76E0800F5CFDCF1A80E79
:10008000F66E290EF76E0800F5500101DC11030928
:10009000E66EA2EC0EF041E9E66AA2EC0EF041E950
:1000A0000000B8DFAA0EF66E290EF76E0800F5CF35
:1000B000DCF1A80EF66E290EF76E0800F55001016E
:1000C000DC11E66EA2EC0EF041E9B80EE66EA2EC91
:1000D0000EF041E91E0EE66EA2EC0EF041E9E66A72
:1000E000A2EC0EF041E9E66AA2EC0EF041E992DFE3
:1000F000AD0EF66E290EF76E0800F5CFDCF1A80EF6
:10010000F66E290EF76E0800F5500101DC11E66E5F
:10011000A2EC0EF041E9070EE66EA2EC0EF041E90A
:10012000E66AA2EC0EF041E975DFAA0EF66E290E22
:10013000F76E0800F5CFDCF1A80EF66E290EF76E0B
:100140000800F5500101DC11E66EA2EC0EF041E969
:10015000BF0EE66EA2EC0EF041E95CDFAA0EF66E71
:10016000290EF76E0800F5CFDCF1A80EF66E290E09
:10017000F76E0800F5500101DC110209E66EA2ECF1
:100180000EF041E9E66AA2EC0EF041E943DFAC0E65
:10019000F66E290EF76E0800F5CFDCF1A80EF66EAC
:1001A000290EF76E0800F5500101DC11E66EA2EC95
:1001B0000EF041E9E66AA2EC0EF041E9E66AA2EC33
:1001C0000EF041E9E66AA2EC0EF041E9E66AA2EC23
:1001D0000EF041E9E66AA2EC0EF041E9E66AA2EC13
:1001E0000EF041E9E66AA2EC0EF041E9C69A01017F
:1001F00006931200D9CFE6FFE1CFD9FF81E94FE89E
:1002000001010683D3C1DFF1D4C1E0F1D5C1E1F131
:100210000101DF6B0101E06B100E1F0BDFC1DCF190
:10022000E0C1DDF1E1C1DEF107E00101D890DE338C
:10023000DD33DC33E806FAE1DCC1E6FF6DEC0EF0FD
:1002400041E90A6E0B6AD00E0A26070E0B22D3C1B3
:10025000DFF1D4C1E0F1D5C1E1F10101DF6B0101B2
:10026000E16B080E1F0BDFC1DCF1E0C1DDF1E1C184
:10027000DEF107E00101D890DE33DD33DC33E80640
:10028000FAE1DCC1E6FF6DEC0EF041E90C6E0D6A9F
:10029000D3C1DCF1D4C1DDF1D5C1DEF10101DD6BEB
:1002A0000101DE6BDCC1E6FF6DEC0EF041E90E6E84
:1002B0000F6A0EEBE6FF0FEBE6FF0CEBE6FF0DEB34
:1002C000E6FF0AEBE6FF0BEBE6FFA4EC0DF046E9D8
:1002D000F350016E012AD0C1DCF1D1C1DDF1D2C1F0
:1002E000DEF10101DD6B0101DE6B0101DC51036E0A
:1002F000D0C1DFF1D1C1E0F1D2C1E1F10101DF6B89
:100300000101E16B080E1F0BDFC1DCF1E0C1DDF183
:10031000E1C1DEF107E00101D890DE33DD33DC33EB
:10032000E806FAE10101DC51046ED0C1DFF1D1C170
:10033000E0F1D2C1E1F10101DF6B0101E06B100ED0
:100340001F0BDFC1DCF1E0C1DDF1E1C1DEF107E04F
:100350000101D890DE33DD33DC33E806FAE1010138
:10036000DC51056ED3C1DCF1D4C1DDF1D5C1DEF1C4
:100370000101DD6B0101DE6B0101DC51066E81EBD9
:1003800007F0D3C1DFF1D4C1E0F1D5C1E1F1010142
:10039000DF6B0101E16B080E1F0BDFC1DCF1E0C177
:1003A000DDF1E1C1DEF107E00101D890DE33DD339C
:1003B000DC33E806FAE10101DC51086ED3C1DFF15C
:1003C000D4C1E0F1D5C1E1F10101DF6B0101E06BC6
:1003D000100E1F0BDFC1DCF1E0C1DDF1E1C1DEF188
:1003E00007E00101D890DE33DD33DC33E806FAE1C3
:1003F0000101DC51096EE66A010EE66EE66AC4ECA4
:1004000013F043E9AA0EF66E290EF76E0800F5CF39
:10041000DCF1A80EF66E290EF76E0800F55001010A
:10042000DC11E66EA2EC0EF041E9BE0EE66EA2EC27
:100430000EF041E9EFDDAB0EF66E290EF76E080007
:10044000F5CFDCF1A80EF66E290EF76E0800F55018
:100450000101DC11E66EA2EC0EF041E9026A070E22
:10046000025C14E20101D950030FDC6FDACFDDF139
:1004700002500101EA6ADC25E96EDD51EA22EFCF84
:10048000E6FFA2EC0EF041E9022AE9D7C3DDAA0E8D
:10049000F66E290EF76E0800F5CFDCF1A80EF66EA9
:1004A000290EF76E0800F5500101DC11E66EA2EC92
:1004B0000EF041E9BF0EE66EA2EC0EF041E900003D
:1004C00000000101069350E9E7CFD9FF1200D9CF10
:1004D000E6FFE1CFD9FF82E901010683E66A010E5A
:1004E000E66EE66AC4EC13F043E90000AD0EF66E6A
:1004F000290EF76E0800F5CFDCF1A80EF66E290E76
:10050000F76E0800F5500101DC11E66EA2EC0EF06A
:1005100041E900EBE6FFA2EC0EF041E9E66AA2EC4D
:100520000EF041E900000000C69A0101069341E97E
:10053000E7CFD9FF120001010683E66A010EE66EDD
:10054000E66AC4EC13F043E9AA0EF66E290EF76EC4
:100550000800F5CFDCF1A80EF66E290EF76E080044
:10056000F5500101DC11E66EA2EC0EF041E9260E19
:10057000E66EA2EC0EF041E9020EE66EA2EC0EF081
:1005800041E9E66AA2EC0EF041E9E66AA2EC0EF05F
:1005900041E9E66AA2EC0EF041E9000000003ADD14
:1005A000AD0EF66E290EF76E0800F5CFDCF1A80E41
:1005B000F66E290EF76E0800F5500101DC11E66EAB
:1005C000A2EC0EF041E9070EE66EA2EC0EF041E956
:1005D000E66AA2EC0EF041E9000000001BDDAA0E65
:1005E000F66E290EF76E0800F5CFDCF1A80EF66E58
:1005F000290EF76E0800F5500101DC11E66EA2EC41
:100600000EF041E9270EE66EA2EC0EF041E9C69A23
:10061000010106931200D9CFE6FFE1CFD9FF81E9AE
:1006200042E801010683026A210E025C09E20250DF
:10063000EA6A290FE96E010EEA22EF68022AF4D76E
:10064000E66A010EE66EE66AC4EC13F043E98B80BD
:10065000A90EF66E290EF76E0800F550E66EA2ECB4
:100660000EF041E9026A050E025C10E286EC0EF023
:10067000E66E0250EA6A290FE96E010EEA22E5529F
:10068000E750EF6E00000000022AEDD7C3DCA90E90
:10069000F66E290EF76E0800F5500809E66EA2EC1A
:1006A0000EF041E9080E026E0F0E025C10E286ECBD
:1006B0000EF0E66E0250EA6A290FE96E010EEA2298
:1006C000E552E750EF6E00000000022AEDD7A2DCF1
:1006D000A90EF66E290EF76E0800F5501009E66EA9
:1006E000A2EC0EF041E9100E026E170E025C10E251
:1006F00086EC0EF0E66E0250EA6A290FE96E010EF2
:10070000EA22E552E750EF6E00000000022AEDD722
:1007100081DCA90EF66E290EF76E0800F550180957
:10072000E66EA2EC0EF041E9180E026E1A0E025CA3
:1007300010E286EC0EF0E66E0250EA6A290FE96ECE
:10074000010EEA22E552E750EF6E00000000022A97
:10075000EDD760DCA90EF66E290EF76E0800F55095
:100760002009E66EA2EC0EF041E986EC0EF00101E4
:10077000496F8B90C69A00000000000001010693AB
:1007800043E9E7CFD9FF1200D9CFE6FFE1CFD9FF88
:1007900081E952E801010683036A0C6AE66A010EE8
:1007A000E66EE66AC4EC13F043E98B80AA0EF66E9F
:1007B000290EF76E0800F5CFDCF1A90EF66E290EB2
:1007C000F76E0800F5500101DC110209E66EA2EC9B
:1007D0000EF041E986EC0EF0016E86EC0EF0026E32
:1007E00019DCAA0EF66E290EF76E0800F5CFDCF1C3
:1007F000A80EF66E290EF76E0800F5500101DC1107
:100800000209E66EA2EC0EF041E9E66AA2EC0EF0F7
:1008100041E9E66AA2EC0EF041E90AEC00F0AB0E09
:10082000F66E290EF76E0800F5CFDCF1A90EF66E14
:10083000290EF76E0800F5500101DC11E66EA2ECFE
:100840000EF041E986EC0EF0046E86EC0EF0056EBB
:1008500086EC0EF0066E86EC0EF0076E86EC0EF05F
:10086000086E86EC0EF00A6E86EC0EF00B6E01B48C
:100870001AD00AEC00F0AE0EF66E290EF76E0800E4
:10088000F5CFDCF1A90EF66E290EF76E0800F550D3
:100890000101DC11E66EA2EC0EF041E986EC0EF0EF
:1008A0000C6E3C0E0C5E180E011403E1200E0214B7
:1008B00002E0010E036E8B900101010ECF6F080460
:1008C000010104E0CF47CF91E806FCE10101C96BCB
:1008D000CA6BCB6B06EBC9F10101CA6BCB6BCAC10A
:1008E000CBF1C9C1CAF1C9C1CAF10101C96B05EB9C
:1008F000DCF10101DD6BDE6B0101DC510101C9138B
:100900000101DD510101CA130101DE510101CB13C7
:10091000CAC1CBF1C9C1CAF1C9C1CAF10101C96BD0
:1009200004EBDCF10101DD6BDE6B0101DC51010147
:10093000C9130101DD510101CA130101DE51010199
:10094000CB130101CC6BCD6BCE6B0BEBCCF101016A
:10095000CD6BCE6BCDC1CEF1CCC1CDF1CCC1CDF143
:100960000101CC6B0AEBDCF10101DD6BDE6B0101F7
:10097000DC510101CC130101DD510101CD13010155
:10098000DE510101CE13CDC1CEF1CCC1CDF1CCC130
:10099000CDF10101CC6B07EBDCF10101DD6BDE6B0E
:1009A0000101DC510101CC130101DD510101CD1325
:1009B0000101DE510101CE13C69A010E0101FC15A1
:1009C000E66EE66A0CEBDCF10101DD6BDCBFDD6994
:1009D000DCC1E6FFDDC1E6FF0101CF51E66EE66A4C
:1009E0000450E66EE66A0550E66EE66A0650E66E6C
:1009F000E66A0750E66EE66A0A50E66EE66A0B5053
:100A0000E66EE66AF10EE66E260EE66EE66A290EE0
:100A1000E66E010EE66EF2EC12F057E9010EE66E9C
:100A2000290EE66E010EE66E24EC0BF043E901019F
:100A3000FC2B0000000001010693035000D053E995
:100A4000E7CFD9FF1200D9CFE6FFE1CFD9FF81E987
:100A500053E8016A010E026E020E036E040E046E6C
:100A6000080E056E100E066E200E076E400E086E04
:100A7000010106830B6A136AE66A030EE66EE66AF4
:100A8000C4EC13F043E98B80AA0EF66E290EF76EC4
:100A90000800F5CFDCF1A90EF66E290EF76E0800FE
:100AA000F5500101DC110209E66EA2EC0EF041E9FD
:100AB00086EC0EF0096E86EC0EF00A6E0AEC00F081
:100AC000AA0EF66E290EF76E0800F5CFDCF1A80E1F
:100AD000F66E290EF76E0800F5500101DC110209CF
:100AE000E66EA2EC0EF041E9E66AA2EC0EF041E9F6
:100AF000E66AA2EC0EF041E90AEC00F0180E0914C7
:100B000003E1200E0A1403E0010E0B6E44D0AB0E7D
:100B1000F66E290EF76E0800F5CFDCF1A90EF66E21
:100B2000290EF76E0800F5500101DC11E66EA2EC0B
:100B30000EF041E986EC0EF00C6E86EC0EF00D6EB8
:100B400086EC0EF00E6E86EC0EF00F6E86EC0EF05C
:100B5000106E86EC0EF0116E86EC0EF0126E09B47B
:100B60001AD00AEC00F0AE0EF66E290EF76E0800F1
:100B7000F5CFDCF1A90EF66E290EF76E0800F550E0
:100B80000101DC11E66EA2EC0EF041E986EC0EF0FC
:100B9000136E3C0E135E8B90C69A0101D950010F63
:100BA000DC6FDACFDDF110500101EA6ADC25E96E75
:100BB000DD51EA22EFCFCFF10101C96BCA6BCB6BDC
:100BC0000EEBC9F10101CA6BCB6BCAC1CBF1C9C134
:100BD000CAF1C9C1CAF10101C96B0DEBDCF1010118
:100BE000DD6BDE6B0101DC510101C9130101DD5137
:100BF0000101CA130101DE510101CB13CAC1CBF1BE
:100C0000C9C1CAF1C9C1CAF10101C96B0CEBDCF160
:100C10000101DD6BDE6B0101DC510101C913010132
:100C2000DD510101CA130101DE510101CB130101A4
:100C3000CC6BCD6BCE6B12EBCCF10101CD6BCE6BDF
:100C4000CDC1CEF1CCC1CDF1CCC1CDF10101CC6B88
:100C500011EBDCF10101DD6BDE6B0101DC51010107
:100C6000CC130101DD510101CD130101DE51010160
:100C7000CE13CDC1CEF1CCC1CDF1CCC1CDF10101AE
:100C8000CC6B0FEBDCF10101DD6BDE6B0101DC51A4
:100C90000101CC130101DD510101CD130101DE5130
:100CA0000101CE1313EBDCF10101DD6BDCBFDD696B
:100CB000DCC1E6FFDDC1E6FF0101CF51E66EE66A69
:100CC0000C50E66EE66A0D50E66EE66A0E50E66E71
:100CD000E66A0F50E66EE66A1150E66EE66A12505A
:100CE000E66EE66ABC0EE66E260EE66EE66A290E33
:100CF000E66E010EE66EF2EC12F055E9010EE66EBC
:100D0000290EE66E010EE66E24EC0BF043E90101BC
:100D1000FD2B00000000010106930B5000D054E9A8
:100D2000E7CFD9FF1200D9CFE6FFE1CFD9FF81E9A4
:100D300041E801010683E66A030EE66EE66AC4EC4A
:100D400013F043E98B80AA0EF66E290EF76E0800A9
:100D5000F5CFDCF1A90EF66E290EF76E0800F550FE
:100D60000101DC110309E66EA2EC0EF041E986EC0C
:100D70000EF0016EC69A000000000101069342E9E0
:100D8000E7CFD9FF1200D9CFE6FFE1CFD9FF81E944
:100D900043E801010683E66A030EE66EE66AC4ECE8
:100DA00013F043E98B80AA0EF66E290EF76E080049
:100DB000F5CFDCF1A90EF66E290EF76E0800F5509E
:100DC0000101DC110209E66EA2EC0EF041E986ECAD
:100DD0000EF0026E86EC0EF0036E000000000AECCE
:100DE00000F0AA0EF66E290EF76E0800F5CFDCF1C2
:100DF000A80EF66E290EF76E0800F5500101DC1101
:100E00000209E66EA2EC0EF041E9E66AA2EC0EF0F1
:100E100041E9E66AA2EC0EF041E9000000008B9087
:100E2000C69A000000000101069344E9E7CFD9FF0C
:020E30001200AE
:0E0E320090DB86E90150010600090CE002EB9E
:100E4000E6FF03EBE6FF00EBE6FF69DBF4E1DD1D07
:100E5000F2E1010E01D0000E41E9E5CFDAFFE7CF64
:100E6000D9FF120077DB89E97BE80A6A0B6A02EB9B
:100E7000F6FF03EBF7FF04EBF8FF0800F550096EEF
:100E8000095001E12DD3250E095C01E01BD30C6A4A
:100E90000D6A0E6A0F6A106A2DDB2D0E095C0CE0DC
:100EA0002B0E095C09E0200E095C06E0230E095CAC
:100EB00003E0300E095C15E10950300A10E0130A16
:100EC0000CE0030A08E00B0A04E0060AE5E10C80E6
:100ED000E3D70C82E1D70C84DFD70C86DDD70C88F2
:100EE000DBD72A0E095C13E1A5DB0DE30C801CEBBC
:100EF000DCF11DEBDDF10101DC6DDD1F000EDD23FA
:100F0000DC510D6E02D09CEB0DF0F4DA07D0126AC2
:100F10003FDB02E06BDBFCD792EB0DF00CB00C98E2
:100F20002E0E095C15E1E6DA2A0E095C08E182DB87
:100F300004E29CEB0EF0010E0F6EDCDA09D0126AAF
:100F400027DB02E053DBFCD792EB0EF0010E0F6EB5
:100F5000680E095C07E1CEDA680E095C1DE1030E3C
:100F6000106E19D0740E095C16E07A0E095C13E05D
:100F7000480E095C06E0540E095C03E05A0E095C59
:100F800002E1020E07D06C0E095C03E06A0E095CF8
:100F900003E1010E106EAEDA09506E0A01E16ED265
:100FA0001E0A01E128D1200A01E125D13F0A01E111
:100FB000FDD01A0A01E1FAD00D0A01E1F7D0200AAA
:100FC00001E1F4D03A0A01E1F1D0200A01E1EED0CA
:100FD000260A01E1EAD00D0A01E1E7D01A0A01E18F
:100FE0009ED0200A3BE0300A1AE0460A0EE0250AAD
:100FF00001E072D2D950020FE96E000EDA20EA6EDB
:10100000010EEE5E000EEE5AEE5A0FDB250EE66E76
:1010100086DA03E1DD1D01E159D20A2A5BD2116AA9
:101020000D50010803E20D04116EF5DA115007E0CE
:10103000010E0C1404E16DDA01E048D2116AD3DA32
:10104000EF50096ECBDA03E1DD1D01E13FD20A2A40
:10105000000E0B225EDA01E13FD238D2020E105CA4
:1010600008E1030E4EDAEE50176EEE50186EEF5098
:1010700007D0E7DADE6BDC51176EDD51186EDE51FA
:10108000196E17EBE6FF18EBE6FF19EBE6FF39ECFC
:1010900013F043E9F8C1DCF1F9C1DDF1FAC1DEF189
:1010A0000101DC511C6EDD511D6E0F5006E01C501D
:1010B0000E5C03E20E501C6E1D6A1C500D5C02E2B9
:1010C0009CEB0DF050DA05E00D500E5C02E28EEB69
:1010D0000DF00CB004D01DDA01E0F8D1116A126AEB
:1010E00017EBF6FF18EBF7FF19EBF8FF0800F550C8
:1010F000096E095010E00D50125C0DE26FDA03E149
:10110000DD1D01E1E3D10A2A000E0B22122AD9507B
:10111000170F55DAEBD7FDD901E1DED1D7D163DA6C
:10112000EE501A6EED501B6E1AEBE6FF1BEBE6FF5E
:101130002BEC13F042E9F3501C6EF4501D6E0F506F
:1011400006E01C500E5C03E20E501C6E1D6A1C5023
:101150000D5C02E29CEB0DF006DA05E00D500E5C32
:1011600002E28EEB0DF00CB004D0D3D901E0AED189
:10117000116A126A1AEBE9FF1BEBEAFFEF50096EE6
:1011800009500FE00D50125C0CE228DA03E1DD1D7E
:1011900001E19CD10A2A000E0B22122A1A2A1B22D4
:1011A000E9D7B7D901E198D191D10C8E10040AE1A9
:1011B000040EA7D9EE50136EEE50146EEE50156E5D
:1011C000EF5032D0030E105C16E10CAE0CD00BDAEF
:1011D000EFCFDCF10101DD6BDE6BDF6BDCAF23D029
:1011E000DD69DE691FD0FFD9EFCFDCF10101DC51F1
:1011F000136E146A20D0020E105C0CE10CAE06D007
:10120000030E7FD9B6D9DEAF0ED00CD0030E79D93C
:10121000B0D909D00CAE0AD014DADE6BDF6BDDAFCB
:1012200002D0DE69DF69BCD9166E07D00ADADC515C
:10123000136EDD51146E156A166A0F5002E1010E2D
:101240000E6E1E6A1F6AD950400FE66E000EDA203D
:10125000E66EE552E550436EE750426E416A116A10
:101260000A0E106E0950780A12E0200A10E0280ACF
:101270000CE0200A0AE03F0A06E00D0A02E0200A1C
:1012800008E1020E05D0080E03D0080E0926100E44
:10129000106E0CBE02D00C920C94800E0C1417E051
:1012A000163415E3E668E668E668E66842D99CEC21
:1012B00010F0E552E5CFDFF1E5CFDEF1E5CFDDF16E
:1012C000E7CFDCF101016CD9166E2D0E07D00CA210
:1012D00002D02B0E03D00CA404D0200E206E1E2AA8
:1012E00001D0206A0E5005E113501410151016108D
:1012F00061E00101940EDC6F290EDD6F000EDE6FE0
:1013000083D959EC10F0E552E5CFE2F1E5CFE1F1F8
:10131000E5CFE0F1E7CFDFF10101DC51DF25F36E2E
:10132000DD51E021F46EDE51E121F86EF4CFF7FFDC
:10133000F3CFF6FF0800F550126E580E095C05E178
:10134000610E125C02E3200E125E5ED956EC10F0C4
:10135000E552E550166EE550156EE550146EE750F7
:10136000136E42EBE9FF43EBEAFF4206000E435ADD
:1013700012EBEFFF1E2A1350141015101610B9E1CE
:101380000CA619D06F0E095C06E10E501E5C13E32B
:101390001E280E6E10D0780E095C09E0580E095C0C
:1013A00006E0620E095C03E0420E095C04E1020EF5
:1013B0001F6E01D01E6A100E0C1407E00D500E5C5B
:1013C00004E20F5002E18DEB0EF00E501E5C03E2C2
:1013D0001E500E5E01D00E6A0E501E241F24D880AF
:1013E0000D5407E20E500D5CD8801E54D8801F5457
:1013F000116E010E0C1406E1115004E08AD866E16A
:101400000AD9116A205007E010D920EBE6FF87D8EF
:1014100002E1DD1D5BE01F500BE007D9300EE66EE8
:101420007ED802E1DD1D52E0D9D802E1DD1D4EE09B
:101430000E501F5C02E21F500E5E300EE66E0EEB89
:10144000E6FFDCD843E1422A000E432242EBE9FFEB
:1014500043EBEAFFEF50126E125008E0E6D812EBB1
:10146000E6FF5DD8F0E1DD1DEEE130D052D82EE18F
:101470000E501E2411241F240A262CD01050030ABB
:101480001CE0010A14E0030A07E0ADD8C9D80AEB52
:10149000EEFF0BEBEDFF20D08BD8DF6BDDAF02D082
:1014A000DE69DF69A0D84ED8DFC1EEFF15D080D845
:1014B000DDBFDE6998D846D80FD095D8B1D80AEBF1
:1014C000EFFF0AD08BD805E1DD1D03E1F368F46876
:1014D0000BD00A2A000E0B22D950020F70D8CDD49F
:1014E0000AEBF3FF0BEBF4FF7CE9E5CFDAFFE7CF84
:1014F000D9FF1200D950020F62D80800F550096ECA
:101500001200005E000E015A00EBE9FF01EBEAFF5A
:101510001200200EE66E11EBE6FFFEEF0AF091ECF2
:1015200013F043E9F3CFDCF1F4CFDDF10101F31C5B
:10153000120013EBE6FF14EBE6FF15EBE6FF16EBEC
:10154000E6FF12006DD8DCC1EEFFDDC1EEFFDEC1AB
:10155000EEFF1200D9CFE6FFDACFE6FFE1CFD9FFE9
:10156000E2CFDAFF12001C500D5C116E54D80F5000
:101570001200EECFDCF1EECFDDF1EFCFDEF10101B5
:10158000DF6B1200EECFDCF1EFCFDDF101011200D5
:101590000950E66EE66A70EC14F042E9F35012006E
:1015A000DC51136EDD51146EDE51156EDF511200E9
:1015B0000AEBDCF10BEBDDF10101DE6B1200E96EF1
:1015C000000EDA20EA6EEF2AEECFF6FF000EEF22D1
:1015D000EECFF7FFEF22EECFF8FF120026D809EB8F
:1015E000E6FF8FEF0AF0020E81EF0AF00A0E1202F8
:1015F000F3500924D00F126E7AEF0AF016D819ECC6
:1016000007F044E90009120010EBE6FFE66AE66A1B
:10161000E66A99EF0AF011500A26000E0B2212001A
:10162000EE50EFCFEAFFE96E120005EBE6FF06EBA6
:10163000E6FF1200D8DFEE501C6EED501D6E1D341B
:081640001200D1DFC2EF0AF035
:08164800D9CFE6FFE1CFD9FF85
:1016500084E942E8046A056A00041FE10150042499
:10166000E96E02500520EA6EEF5016E001500424A6
:10167000E96E02500520EA6EEFCFE6FF59EC14F058
:1016800041E9ACA2FED7050EE66E82EC14F041E90A
:10169000042A000E0522E2D71ED001500424E96E70
:1016A00002500520EA6EEF5016E001500424E96E66
:1016B00002500520EA6EEFCFE6FF42EC14F041E95C
:1016C00072A2FED7050EE66E82EC14F041E9042A00
:1016D000000E0522E2D743E9E7CFD9FF1200D9CFA8
:1016E000E6FFE1CFD9FF81E96BE8296A2A6A0101A7
:1016F000059181EC0DF09EEC0DF08984948E949C04
:10170000E66A030EE66E010EE66EC4EC13F043E9E2
:101710008998240EE66EF3EC13F041E9800EE66E34
:10172000F3EC13F041E9640EE66EE66ABFEC0EF0EE
:1017300042E9EDEC10F0200EE66EF3EC13F041E917
:10174000970EE66EF3EC13F041E9640EE66EE66A7E
:10175000BFEC0EF042E9EDEC10F08F0EE66EF3EC0C
:1017600013F041E986EC0EF0046E8988C69A8D80EC
:101770002C0EE66E010EE66EBFEC0EF042E98D9087
:101780004BD08998E66A030EE66E010EE66EC4EC55
:1017900013F043E9010EE66EE66ABFEC0EF042E993
:1017A000A80EE66EF3EC13F041E986EC0EF0146E31
:1017B0008D80050EE66EE66ABFEC0EF042E98D9074
:1017C000A90EE66EF3EC13F041E986EC0EF0156E0F
:1017D0008988C69A15EBE6FF14EBE6FFDFEC0EF006
:1017E00042E9F3501D6EF4501E6E640EE66EE66A1A
:1017F0001DEBE6FF1EEBE6FF9EEC0FF0E552E55019
:10180000246EE750236E898A050EE66EE66ABFEC09
:101810000EF042E9899AB4D78B82030EE66EE66A2F
:10182000BFEC0EF042E9800EE66EE66AE66AC4ECB2
:1018300013F043E9BAEC11F039EC12F0C9EC11F0F5
:1018400039EC12F0B1EC11F0010EE66EF3EC13F08E
:1018500041E98C88010EE66EE66ABFEC0EF042E9C3
:1018600039EC12F0046EFF0E045C1AE1010E126EE8
:10187000016A080E015C14E286EC0EF0E66E0101CE
:10188000D950130FDC6FDACFDDF10150EA6ADC25A5
:10189000E96EDD51EA22E552E750EF6E012AE9D701
:1018A0008C88C69A8D800A0EE66EE66ABFEC0EF052
:1018B00042E98D90B1D7E66AE66AE66AC4EC13F0B5
:1018C00043E9BAEC11F039EC12F0C9EC11F039EC43
:1018D00012F0B1EC11F0010EE66EF3EC13F041E9F9
:1018E0008C88010EE66EE66ABFEC0EF042E939EC38
:1018F00012F0046EFF0E045C1AE1010E126E016A12
:10190000080E015C14E286EC0EF0E66E0101D9507F
:10191000130FDC6FDACFDDF10150EA6ADC25E96EE6
:10192000DD51EA22E552E750EF6E012AE9D78C88B3
:10193000C69A296A2A6A0150D8902ABE03D0295C27
:10194000000E2A5804E2292A000E2A22F4D7296A16
:101950002A6A180EC86EE66A080EE66E2AEC14F0C3
:1019600042E9C580C5B0FED7D40EE66EB1EC12F0E8
:1019700041E9C59AC588C5B8FED7220EE66EB1EC1E
:1019800012F041E9C59AC588C5B8FED7C582C5B26F
:10199000FED7D40EE66EB1EC12F041E9C59AC588C7
:1019A000C5B8FED7810EE66EB1EC12F041E9C59ADA
:1019B000C588C5B8FED7C584C5B4FED7C69AE66A41
:1019C000080EE66E2AEC14F042E9C580C5B0FED7D9
:1019D000C750040B01E0010E0101DC6F1F0EC5149E
:1019E000DC1101E0F5D7D40EE66EB1EC12F041E95E
:1019F000046EC750040B01E0010E0101DC6F1F0EE5
:101A0000C514DC1101E0F5D7C59AC588C5B8FED765
:101A1000C750040B01E0010E0101DC6F1F0EC5145D
:101A2000DC1101E0F5D7220EE66EB1EC12F041E9CF
:101A3000046EC750040B01E0010E0101DC6F1F0EA4
:101A4000C514DC1101E0F5D7C59AC588C5B8FED725
:101A5000C750040B01E0010E0101DC6F1F0EC5141D
:101A6000DC1101E0F5D7C582C5B2FED7C750040B23
:101A700001E0010E0101DC6F1F0EC514DC1101E055
:101A8000F5D7D50EE66EB1EC12F041E9046EC75001
:101A9000040B01E0010E0101DC6F1F0EC514DC1107
:101AA00001E0F5D7C59AC588C5B8FED7C750040B65
:101AB00001E0010E0101DC6F1F0EC514DC1101E015
:101AC000F5D7BDEC14F0046EC750040B01E0010E15
:101AD0000101DC6F1F0EC514DC1101E0F5D7C58ACA
:101AE000C588C5B8FED7C584C5B4FED7C69A05EC6F
:101AF0000FF0292A000E2A222CD76CE9E7CFD9FF54
:021B00001200D1
:0E1B02000F01386B396B3A6B3B6B3C6B926A90
:101B1000E00E896E816A1B0E936E010E946E8B6AC5
:101B2000800E8D6E966A8C6A956AFE0EE66E10ECDB
:101B300014F041E9BC6ABB689E921200300ED36E6D
:101B4000040ED26E9B6A1200D9CFE6FFE1CFD9FF17
:101B500087E95AE8076A086A030E096E0A6A020EE4
:101B60000B6E0C6A050E0D6E0E6A0F6A106A030E7C
:101B7000116E126A050E136E146A010E156E166A46
:101B8000040E176E186A060E196E1A6A020E1B6E84
:101B90001C6A040E1D6E1E6A030ED89003BE03D08D
:101BA000025C000E035802E3000E01D0010E045E39
:101BB000000E055A070EE66EE66A040EE66EE66A49
:101BC00004EBE6FF05EBE6FF9EEC0FF00101FE0ED5
:101BD000E3500424E46F41E9E5500520E56F640E0D
:101BE000E66EE66A04EBE6FF05EBE6FF9EEC0FF01F
:101BF000E552E5CFE7F1E7CFE6F10101E65101015A
:101C0000E45D0101E26F0101E7510101E5590101C4
:101C1000E36F900EE66E010EE66E04EBE6FF05EB59
:101C2000E6FF9EEC0FF0E552E5CFE9F1E7CFE8F1F2
:101C300001010101E2510101E8250101E06F01010B
:101C40000101E3510101E9210101E16F0101D950D5
:101C5000070FEA6FDACFEBF101010204EC6F000E1F
:101C60000358ED6F0101D890EC37ED370101010108
:101C7000EA510101EC25E96E01010101EB5101017D
:101C8000ED21EA6E01010101E051EE240101DE6F58
:101C900001010101E151EE200101DF6F005001015E
:101CA000DE250101DC6F01500101DF210101DD6F43
:101CB000DCC1E6FFDDC1E6FFE9EC0FF0E552E550DF
:101CC000206EE7501F6E00001FEBF3FF20EBF4FFC8
:101CD00000D05BE9E7CFD9FF1200D9CFE6FFE1CF13
:101CE000D9FF82E941E8F00E0014026E02380F0BB2
:101CF000026E0A0E0202F350026E0F0E001402264C
:101D0000025000D042E9E7CFD9FF1200C96AD66A73
:101D1000C750010B04E1140ED65C01E2F9D7C9509B
:101D200000D01200D9CFE6FFE1CFD9FF82E9C69EED
:101D300000EBC9FFC7A0FED7C95000D041E9E7CFEB
:101D4000D9FF1200D9CFE6FFE1CFD9FF82E941E800
:101D500000EBC9FFC6AE03D0FF0E0DD008D0D66A87
:101D6000C750010B04E1140ED65C01E2F9D7C9504B
:101D7000026E025000D042E9E7CFD9FF1200D9CF5E
:101D8000E6FFE1CFD9FF83E944E8036A046A005023
:101D9000035C015004580FE2056A066A630E055C95
:101DA000000E065804E2052A000E0622F7D7032A81
:101DB000000E0422ECD745E9E7CFD9FF1200D9CFB6
:101DC000E6FFE1CFD9FF83E942E80050036E046AE1
:101DD00083EB04F0036A0150031204340DE3E66858
:101DE000E66803EBE6FF04EBE6FF16EC10F0E552C5
:101DF000E550046EE750036E03EBF3FF04EBF4FFD2
:101E000000D043E9E7CFD9FF12008C80640EE66E64
:101E1000E66AB5DF42E98C82640EE66EE66AAFDF01
:101E200042E98C84640EE66EE66AA9DF42E98C869C
:101E3000640EE66EE66AA3DF42E98C88640EE66E05
:101E4000E66A9DDF42E98C8A640EE66EE66A97DFF9
:101E500042E98C8C640EE66EE66A91DF42E98C8E74
:101E6000640EE66EE66A8BDF42E98C90640EE66EE5
:101E7000E66A85DF42E98C92640EE66EE66A7FDFF1
:101E800042E98C94640EE66EE66A79DF42E98C964C
:101E9000640EE66EE66A73DF42E98C98640EE66EC5
:101EA000E66A6DDF42E98C9A640EE66EE66A67DFE9
:101EB00042E98C9C640EE66EE66A61DF42E98C9E24
:101EC0001200898A0C0EE66EE66A59DF42E98D80BF
:101ED0000C0EE66EE66A53DF42E9899A0C0EE66E56
:101EE000E66A4DDF42E98D90200EE66EE66A47DF36
:101EF00042E98D800C0EE66EE66A41DF42E9898A8E
:101F00000C0EE66EE66A3BDF42E98D900C0EE66E43
:101F1000E66A35DF42E9899A480EE66EE66A2FDF07
:041F200042E9120080
:0C1F240043E8D9CFE6FFDACFE6FFE1CFBB
:101F3000D9FFE2CFDAFF89E9066A1200F3DF0680F3
:101F400001D0F0DF01AEABEF0FF0006C011EE86ACC
:101F5000012206B0067E03AEB3EF0FF0026C031E43
:101F6000E86A0322067EEBEC0FF003BED5EF0FF01C
:101F700006AE08D0026C031EE86A0322046C051E3C
:101F8000E86A052206B006D084EB00F085EB01F08C
:101F900006A004D082EB00F083EB01F0E552E5CF20
:101FA000DAFFE7CFD9FF45E9000C06BEBAEF0FF024
:101FB000E9DFFF0C43E8D9CFE6FFDACFE6FFE1CF58
:101FC000D9FFE2CFDAFF89E9066A1200F3DF068063
:101FD00003D0F0DF01D00682056A046A100EE76EB6
:101FE000D89002360336043605360050045C0150A2
:101FF000055805E30050045E0150055A022AE72EF9
:10200000F0D706B2120006B006D084EB00F085EBE4
:1020100001F006A004D082EB00F083EB01F0E55262
:10202000E5CFDAFFE7CFD9FF45E9120044E8D9CF81
:10203000E6FFDACFE6FFE1CFD9FFE2CFDAFF8AE9A8
:1020400080EB04F081EB05F082EB06F00250040215
:10205000F450016EF350006E0350076E0502F45009
:10206000036EF350026E07500402F3500126F45041
:102070000222E86A032206500502F3500126F450BA
:102080000222E86A0322E552E5CFDAFFE7CFD9FF63
:1020900046E9000C45E8D9CFE6FFDACFE6FFE1CF0D
:1020A000D9FFE2CFDAFF8FE90C6A1200F3DF0C8070
:1020B00003D0F0DF01D00C820B6A0A6A096A086A51
:1020C000200EE76ED89004360536063607360836F9
:1020D00009360A360B360050085C01500958025088
:1020E0000A5803500B5809E30050085E0150095A82
:1020F00002500A5A03500B5A042AE72EE4D70CB2B6
:1021000012000CB00AD088EB00F089EB01F08AEBEA
:1021100002F08BEB03F00CA008D084EB00F085EB11
:1021200001F086EB02F087EB03F0E552E5CFDAFF32
:10213000E7CFD9FF49E9120044E8D9CFE6FFDACF6B
:10214000E6FFE1CFD9FFE2CFDAFF8EE980EB08F0BE
:1021500081EB09F082EB0AF083EB0BF004500802EC
:10216000F350006EF450016E04500902F350012642
:10217000000EF420026E04500A02F3500226000EF4
:10218000F420036E04500B02F3500326055008029E
:10219000F3500126F4500222000E032205500902DA
:1021A000F3500226F450032205500A02F35003268E
:1021B00006500802F3500226F4500322065009028A
:1021C000F350032607500802F3500326E552E5CFEB
:0A21D000DAFFE7CFD9FF48E9000C61
:0621DA00898800000000EE
:1021E000000089981200D9CFE6FFE1CFD9FF81E93D
:1021F00047E801010683E66A030EE66E010EE66E0D
:10220000C4EC13F043E90000000000008F0EE66EFE
:10221000A2EC0EF041E986EC0EF0016E86EC0EF0B9
:10222000026E86EC0EF0036EC69A03EBDCF1010140
:10223000DC51046E056A066A076AD950040FE96E1C
:10224000DACFEAFFEF50EE6AEFCFF4FFEE6EEF5019
:10225000F4CFEEFFEF6E02EBDCF10101DD6BDE6B24
:10226000DF6BD950040FE96EDACFEAFF0101DC51D0
:10227000EE120101DD51EE120101DE51EE120101FB
:10228000DF51EE12D950040FE96EDACFEAFFEF50BA
:10229000EE6AEFCFF4FFEE6EEF50F4CFEEFFEF6E8D
:1022A00001EBDCF10101DD6BDE6BDF6BD950040F5C
:1022B000E96EDACFEAFF0101DC51EE120101DD51D6
:1022C000EE120101DE51EE120101DF51EE120101A9
:1022D000069304EBF8F105EBF9F106EBFAF107EBE5
:1022E000FBF100D048E9E7CFD9FF1200D9CFE6FFD4
:1022F000E1CFD9FF81E941E88998220EE66EA2EC90
:102300000EF041E9810EE66EA2EC0EF041E9010EFD
:10231000E66EE66ABFEC0EF042E989882C0EE66EA6
:10232000010EE66EBFEC0EF042E98998200EE66ED3
:10233000F3EC13F041E9980EE66EF3EC13F041E98B
:102340004CDF8F0EE66EF3EC13F041E986EC0EF0F5
:10235000016E89880000015000D042E9E7CFD9FF23
:02236000120069
:0E2362008C88010EE66EE66ABFEC0EF042E9D2
:102370008C9812008B84010EE66EE66ABFEC0EF0BC
:1023800042E98B94060EE66EE66ABFEC0EF042E977
:1023900012008C98020EE66EA2EC0EF041E9810E5E
:1023A000E66EA2EC0EF041E9010EE66EA2EC0EF034
:1023B00041E9010EE66EA2EC0EF041E98C0EE66EEC
:1023C000A2EC0EF041E9BA0EE66EA2EC0EF041E985
:1023D000800EE66EA2EC0EF041E93C0EE66EE66A77
:1023E000BFEC0EF042E98C881200D9CFE6FFE1CFB6
:1023F000D9FF83E946E88C98010EE66EA2EC0EF058
:1024000041E98C88010EE66EE66ABFEC0EF042E907
:102410008C98440EE66EA2EC0EF041E986EC0EF0CC
:10242000036E046AFF0E035C0FE00A0E045C0CE20C
:102430008C98440EE66EA2EC0EF041E986EC0EF0AC
:10244000036E8C88042AEED7FF0E035C0BE1010EAD
:10245000056E066A076A086A046A0050045C02E2B4
:10246000042AFBD78C88055000D047E9E7CFD9FF75
:102470001200D9CFE6FFE1CFD9FF81E942E88C987D
:10248000440EE66EA2EC0EF041E986EC0EF0016E11
:10249000026AFF0E015C10E00A0E025C0DE2022AE5
:1024A0008C8800008C98440EE66EA2EC0EF041E998
:1024B00086EC0EF0016EEDD7015000D043E9E7CF76
:0424C000D9FF12002E
:0C24C400060EF66E000EF76E000EF86EAD
:1024D00001010900F550F36F0900F550F46F03E1B5
:1024E000F36701D03DD00900F550EE6F0900F550BB
:1024F000EF6F0900F550F06F09000900F550E96E23
:102500000900F550EA6E090009000900F550F16F65
:102510000900F550F26F09000900F6CFF5F1F7CF89
:10252000F6F1F8CFF7F1EEC1F6FFEFC1F7FFF0C11A
:10253000F8FF0101F15302E1F25307E00900F55001
:10254000EE6EF107F8E2F207F9D7F5C1F6FFF6C132
:10255000F7FFF7C1F8FF0101F307000EF45BBFD7E7
:02256000120067
:0E256200D9CFE6FFDACFE6FFE1CFD9FFE2CF17
:10257000DAFF83E900EBC9FFC6AE02D0FF0E2CD014
:102580000F0EC61408080FE00F0EC6140B080BE060
:10259000C6889EA6FED7C750040B03E1C750010BA7
:1025A00018E0000E19D00F0EC614080804E00F0E34
:1025B000C6140B0811E1C7B0FED7C750040B01E0E9
:1025C000010E0101DC6F1F0EC514DC11F6E1C5AC74
:1025D00002D0FE0E01D0000E41E9E5CFDAFFE7CFD1
:0425E000D9FF12000D
:0C25E400D9CFE6FFDACFE6FFE1CFD9FF48
:1025F000E2CFDAFF87E944E8D9CFE6FFDACFE6FF9A
:10260000E552E5500A6EE750096E09EBE6FF0AEB6A
:10261000E6FF00EBE6FF01EBE6FF02EBE6FFD95039
:10262000030FE66E000EDA20E66E32EC07F047E9A3
:10263000F350076EF450086E03EBE9FF04EBEAFF7A
:10264000EF6A07EBF3FF08EBF4FF45E9E5CFDAFFAC
:06265000E7CFD9FF1200E4
:0A265600FE0EE3CFE9FFFF0EE3CF15
:10266000EAFFF36AF46AEE5203E0F34AF42AFBD776
:102670001200FF0EE3CFF8FFE552FF0EE3CFF7FFA6
:10268000E552FF0EE3CFF6FFE552E66AE66AE66A38
:102690000900F55209E0FD0EE32A05E1FE0EE32AEA
:1026A00002E1FF0EE32AF4D7FD0EE3CFF8F1FE0EB0
:0C26B000E3CFF9F1FF0EE3CFFAF11200C6
:0426BC000C0D0A20D7
:1026C000253032582D253032582D253032582020D3
:1026D000253032583A253032583A25303258203099
:1026E00078253032582020252B6427430D0A0D0A07
:1026F0000009253032582D253032582D25303258DA
:1027000020253032583A253032583A253032582078
:102710003078253032582020252B64274309256442
:022720000900AE
:0E272200D9CFE6FFDACFE6FFE1CFD9FFE2CF55
:10273000DAFF85E9013415E200EBE9FF01EBEAFF7E
:10274000EECFF3FFEDCFF4FFEE2A000EEF22F3CF32
:10275000E9FFF4CFEAFF02EBEFFFEF50F36EF46A0C
:102760000DD0FE0E005C05E102EBE6FFA2EC14F0DA
:1027700004D002EBE6FFD9EC14F041E941E9E5CFE2
:08278000DAFFE7CFD9FF1200D8
:08278800D9CFE6FFDACFE6FF2E
:10279000E1CFD9FFE2CFDAFF85E93F0EC716C66A5F
:1027A0000250C6120050C7120150030A09E0010A84
:1027B00004E0020A06E1C78C04D0C78CC68801D0A9
:1027C000C6880250050A03E0010A03E1928A948652
:1027D00001D094969488949AC68A41E9E5CFDAFFAD
:0627E000E7CFD9FF120053
:0A27E600D9CFE6FFDACFE6FFE1CF1E
:1027F000D9FFE2CFDAFF83E941E8C950036E9E9624
:10280000C69E00EBC9FFC6AE02D0FF0E03D09EA647
:10281000FED7000E42E9E5CFDAFFE7CFD9FF12007D
:10282000D9CFE6FFDACFE6FFE1CFD9FFE2CFDAFF7B
:1028300083E9FB0E0014BA6EBC6A9E9200AE02D011
:102840009D8201D09D92BA8441E9E5CFDAFFE7CFBE
:04285000D9FF12009A
:0C285400D9CFE6FFDACFE6FFE1CFD9FFD5
:10286000E2CFDAFF84E93F0EC716C66AC56A015097
:10287000C6120050C712C68A41E9E5CFDAFFE7CF9A
:04288000D9FF12006A
:0C288400D9CFE6FFDACFE6FFE1CFD9FFA5
:10289000E2CFDAFF83E972AC04D072900101FFB39A
:1028A000728000EB73FF41E9E5CFDAFFE7CFD9FF94
:0228B000120014
:0E28B200D9CFE6FFDACFE6FFE1CFD9FFE2CFC4
:1028C000DAFF83E9ACAC04D0AC900F0100B3AC806C
:1028D00000EBADFF41E9E5CFDAFFE7CFD9FF12000A
:1028E000F36AF46AFF0EE124E96EFF0EE220EA6E5D
:1028F000ED6607D02F0EEF6404D03A0EEF6001D0E2
:04290000F32A1200A4
:0C290400FF0EE3500101FE6F1A0E00D020
:1029100000D001D0200EE76EE72EFED7FE2FFAD7AB
:0429200000D01200D1
:0C292400380EF36E00EE00F00F0E01D82C
:102930001200EA6002D0EE6AFCD7F350E9601200A0
:04294000EE6AFCD768
:0C294400FF0EE350ACBA04D0AF6AAB8EBB
:10295000AC8A949CACA2FED7AD6EF36EF46A120002
:102960001EEE00F02EEE00F0F86A62EC12F0DAECE7
:0A29700014F06FEC0BF0FBD712001F
:06297A000F0EC614080850
:1029800004E00F0EC6140B0801E1C586C7A0FED7F0
:04299000C950120018
:0C29940030313233343536373839616267
:0529A0006364656600A0
:0B29A5000A0B0D00800008101820280D
:0229B0003038BD
:0229B200120011
:0229B40012000F
:0229B60000001F
:020000040030CA
:0100010028D6
:0100020019E4
:010003003CC0
:01000500BF3B
:01000600C534
:010008000FE8
:01000900C036
:01000A000FE6
:01000B00E014
:01000C000FE4
:01000D0040B2
:00000001FF
