:020000040000FA
:06000000F1EF14F0120004
:0A00060001001E2A0000DC010000CA
:0400100002000000EA
:0C0014008D920000000000008D821200A0
:1000200001010683E66A010EE66EE66AE4EC13F06F
:1000300043E98D82120EF66E2A0EF76E0800F5CF98
:10004000BCF1100EF66E2A0EF76E0800F550010195
:10005000BC110409E66E75EC10F041E9100EE66E75
:1000600075EC10F041E900008D92F40EE66E010E81
:10007000E66E92EC10F042E98D82120EF66E2A0EB8
:10008000F76E0800F5CFBCF1100EF66E2A0EF76E73
:100090000800F5500101BC110309E66E75EC10F083
:1000A00041E9E66A75EC10F041E90000B3DF120E99
:1000B000F66E2A0EF76E0800F5CFBCF1100EF66E44
:1000C0002A0EF76E0800F5500101BC11E66E75ECC2
:1000D00010F041E9B80EE66E75EC10F041E91E0E25
:1000E000E66E75EC10F041E9E66A75EC10F041E956
:1000F000E66A75EC10F041E98DDF150EF66E2A0EFA
:10010000F76E0800F5CFBCF1100EF66E2A0EF76EF2
:100110000800F5500101BC11E66E75EC10F041E9E4
:10012000070EE66E75EC10F041E9E66A75EC10F02A
:1001300041E970DF120EF66E2A0EF76E0800F5CF59
:10014000BCF1100EF66E2A0EF76E0800F550010194
:10015000BC11E66E75EC10F041E9BF0EE66E75EC71
:1001600010F041E957DF120EF66E2A0EF76E080006
:10017000F5CFBCF1100EF66E2A0EF76E0800F550A2
:100180000101BC110209E66E75EC10F041E9E66A66
:1001900075EC10F041E93EDF140EF66E2A0EF76E94
:1001A0000800F5CFBCF1100EF66E2A0EF76E0800AF
:1001B000F5500101BC11E66E75EC10F041E9E66AFC
:1001C00075EC10F041E9E66A75EC10F041E9E66A79
:1001D00075EC10F041E9E66A75EC10F041E9E66A69
:1001E00075EC10F041E9E66A75EC10F041E9E66A59
:1001F00075EC10F041E98D92C69A01010693120048
:10020000D9CFE6FFE1CFD9FF81E94FE801010683AD
:10021000B3C1BFF1B4C1C0F1B5C1C1F10101BF6B40
:100220000101C06B100E1F0BBFC1BCF1C0C1BDF1FD
:10023000C1C1BEF107E00101D890BE33BD33BC336C
:10024000E806FAE1BCC1E6FF50EC10F041E90A6EA5
:100250000B6AD00E0A26070E0B22B3C1BFF1B4C140
:10026000C0F1B5C1C1F10101BF6B0101C16B080E45
:100270001F0BBFC1BCF1C0C1BDF1C1C1BEF107E0E0
:100280000101D890BE33BD33BC33E806FAE1BCC1EE
:10029000E6FF50EC10F041E90C6E0D6AB3C1BCF101
:1002A000B4C1BDF1B5C1BEF10101BD6B0101BE6BB1
:1002B000BCC1E6FF50EC10F041E90E6E0F6A0EEB88
:1002C000E6FF0FEBE6FF0CEBE6FF0DEBE6FF0AEBBC
:1002D000E6FF0BEBE6FF87EC0FF046E9F350016E0B
:1002E000012AB0C1BCF1B1C1BDF1B2C1BEF1010181
:1002F000BD6B0101BE6B0101BC51036EB0C1BFF10A
:10030000B1C1C0F1B2C1C1F10101BF6B0101C16B4B
:10031000080E1F0BBFC1BCF1C0C1BDF1C1C1BEF110
:1003200007E00101D890BE33BD33BC33E806FAE1E3
:100330000101BC51046EB0C1BFF1B1C1C0F1B2C185
:10034000C1F10101BF6B0101C06B100E1F0BBFC1DA
:10035000BCF1C0C1BDF1C1C1BEF107E00101D8903F
:10036000BE33BD33BC33E806FAE10101BC51056E72
:10037000B3C1BCF1B4C1BDF1B5C1BEF10101BD6BEA
:100380000101BE6B0101BC51066E81EB07F0B3C1E8
:10039000BFF1B4C1C0F1B5C1C1F10101BF6B010131
:1003A000C16B080E1F0BBFC1BCF1C0C1BDF1C1C103
:1003B000BEF107E00101D890BE33BD33BC33E8067F
:1003C000FAE10101BC51086EB3C1BFF1B4C1C0F183
:1003D000B5C1C1F10101BF6B0101C06B100E1F0B54
:1003E000BFC1BCF1C0C1BDF1C1C1BEF107E0010197
:1003F000D890BE33BD33BC33E806FAE10101BC51ED
:10040000096EE66A010EE66EE66AE4EC13F043E973
:100410008D82120EF66E2A0EF76E0800F5CFBCF133
:10042000100EF66E2A0EF76E0800F5500101BC1191
:10043000E66E75EC10F041E9BE0EE66E75EC10F05C
:1004400041E9E8DD130EF66E2A0EF76E0800F5CFCF
:10045000BCF1100EF66E2A0EF76E0800F550010181
:10046000BC11E66E75EC10F041E9026A070E025C01
:1004700014E20101D950030FBC6FDACFBDF1025075
:100480000101EA6ABC25E96EBD51EA22EFCFE6FF21
:1004900075EC10F041E9022AE9D7BCDD120EF66EC8
:1004A0002A0EF76E0800F5CFBCF1100EF66E2A0E7C
:1004B000F76E0800F5500101BC11E66E75EC10F006
:1004C00041E9BF0EE66E75EC10F041E90000000056
:1004D0008D920101069350E9E7CFD9FF1200D9CFE1
:1004E000E6FFE1CFD9FF82E901010683E66A010E4A
:1004F000E66EE66AE4EC13F043E98D820000150E27
:10050000F66E2A0EF76E0800F5CFBCF1100EF66EEF
:100510002A0EF76E0800F5500101BC11E66E75EC6D
:1005200010F041E900EBE6FF75EC10F041E9E66AF6
:1005300075EC10F041E9000000008D92C69A0101AF
:10054000069341E9E7CFD9FF120001010683E66A6D
:10055000010EE66EE66AE4EC13F043E98D82120EBA
:10056000F66E2A0EF76E0800F5CFBCF1100EF66E8F
:100570002A0EF76E0800F5500101BC11E66E75EC0D
:1005800010F041E9260EE66E75EC10F041E9020E1E
:10059000E66E75EC10F041E9E66A75EC10F041E9A1
:1005A000E66A75EC10F041E9E66A75EC10F041E995
:1005B000000000002FDD150EF66E2A0EF76E080003
:1005C000F5CFBCF1100EF66E2A0EF76E0800F5504E
:1005D0000101BC11E66E75EC10F041E9070EE66E04
:1005E00075EC10F041E9E66A75EC10F041E90000A5
:1005F000000010DD120EF66E2A0EF76E0800F5CF21
:10060000BCF1100EF66E2A0EF76E0800F5500101CF
:10061000BC11E66E75EC10F041E9270EE66E75EC44
:1006200010F041E98D92C69A010106931200D9CFCC
:10063000E6FFE1CFD9FF81E942E801010683026AC2
:10064000210E025C09E20250EA6A190FE96E010EFE
:10065000EA22EF68022AF4D7E66A010EE66EE66A3D
:10066000E4EC13F043E98D82110EF66E2A0EF76E5C
:100670000800F550E66E75EC10F041E9026A050ECF
:10068000025C10E269EC10F0E66E0250EA6A190FA3
:10069000E96E010EEA22E552E750EF6E000000001D
:1006A000022AEDD7B7DC110EF66E2A0EF76E08009F
:1006B000F5500809E66E75EC10F041E9080E026E7F
:1006C0000F0E025C10E269EC10F0E66E0250EA6A6E
:1006D000190FE96E010EEA22E552E750EF6E0000B5
:1006E0000000022AEDD796DC110EF66E2A0EF76E88
:1006F0000800F5501009E66E75EC10F041E9100E97
:10070000026E170E025C10E269EC10F0E66E025009
:10071000EA6A190FE96E010EEA22E552E750EF6E20
:1007200000000000022AEDD775DC110EF66E2A0ECD
:10073000F76E0800F5501809E66E75EC10F041E907
:10074000180E026E1A0E025C10E269EC10F0E66EF2
:100750000250EA6A190FE96E010EEA22E552E750EB
:10076000EF6E00000000022AEDD754DC110EF66E89
:100770002A0EF76E0800F5502009E66E75EC10F0B1
:1007800041E969EC10F00101396F8D92C69A0000C1
:10079000000000000101069343E9E7CFD9FF1200F2
:1007A000D9CFE6FFE1CFD9FF81E952E80101068305
:1007B000036A0C6A8C80E66A010EE66EE66AE4EC77
:1007C00013F043E98D82120EF66E2A0EF76E0800C2
:1007D000F5CFBCF1110EF66E2A0EF76E0800F5503B
:1007E0000101BC110209E66E75EC10F041E969ECFB
:1007F00010F0016E69EC10F0026E0CDC120EF66E59
:100800002A0EF76E0800F5CFBCF1100EF66E2A0E18
:10081000F76E0800F5500101BC110209E66E75EC97
:1008200010F041E9E66A75EC10F041E9E66A75EC12
:1008300010F041E90AEC00F0130EF66E2A0EF76E86
:100840000800F5CFBCF1110EF66E2A0EF76E080007
:10085000F5500101BC11E66E75EC10F041E969EC50
:1008600010F0046E69EC10F0056E69EC10F0066E85
:1008700069EC10F0076E69EC10F0086E69EC10F08E
:100880000A6E69EC10F00B6E01B41AD00AEC00F09D
:10089000160EF66E2A0EF76E0800F5CFBCF1110E9B
:1008A000F66E2A0EF76E0800F5500101BC11E66ED7
:1008B00075EC10F041E969EC10F00C6E3C0E0C5E2A
:1008C000180E011403E1200E021402E0010E036E63
:1008D0008D920101010EAF6F0804010104E0AF47E2
:1008E000AF91E806FCE10101A96BAA6BAB6B06EBCB
:1008F000A9F10101AA6BAB6BAAC1ABF1A9C1AAF125
:10090000A9C1AAF10101A96B05EBBCF10101BD6B05
:10091000BE6B0101BC510101A9130101BD510101CF
:10092000AA130101BE510101AB13AAC1ABF1A9C1C8
:10093000AAF1A9C1AAF10101A96B04EBBCF1010163
:10094000BD6BBE6B0101BC510101A9130101BD5179
:100950000101AA130101BE510101AB130101AC6BEE
:10096000AD6BAE6B0BEBACF10101AD6BAE6BADC122
:10097000AEF1ACC1ADF1ACC1ADF10101AC6B0AEBB4
:10098000BCF10101BD6BBE6B0101BC510101AC1397
:100990000101BD510101AD130101BE510101AE13B1
:1009A000ADC1AEF1ACC1ADF1ACC1ADF10101AC6B0B
:1009B00007EBBCF10101BD6BBE6B0101BC51010134
:1009C000AC130101BD510101AD130101BE51010183
:1009D000AE138C90C69A010E0101DC15E66EE66A34
:1009E0000CEBBCF10101BD6BBCBFBD69BCC1E6FF36
:1009F000BDC1E6FF0101AF51E66EE66A0450E66E46
:100A0000E66A0550E66EE66A0650E66EE66A07504C
:100A1000E66EE66A0A50E66EE66A0B50E66EE66A35
:100A2000AA0EE66E240EE66EE66A190EE66E010E5A
:100A3000E66E42EC13F057E9010EE66E190EE66E13
:100A4000010EE66E33EC0BF043E90101DC2B0000F4
:100A5000000001010693035000D053E9E7CFD9FF0E
:100A60001200D9CFE6FFE1CFD9FF81E954E8016A4E
:100A7000010E026E020E036E040E046E080E056E69
:100A8000100E066E200E076E400E086E01010683E2
:100A90000B6A146AE66A010EE66EE66AE4EC13F08D
:100AA00043E98D82120EF66E2A0EF76E0800F5CF1E
:100AB000BCF1110EF66E2A0EF76E0800F55001011A
:100AC000BC110209E66E75EC10F041E969EC10F01A
:100AD000096E69EC10F00A6E0AEC00F0120EF66E68
:100AE0002A0EF76E0800F5CFBCF1100EF66E2A0E36
:100AF000F76E0800F5500101BC110209E66E75ECB5
:100B000010F041E9E66A75EC10F041E9E66A75EC2F
:100B100010F041E90AEC00F0180E091403E1200E70
:100B20000A1403E0010E0B6E44D0130EF66E2A0E6B
:100B3000F76E0800F5CFBCF1110EF66E2A0EF76EB7
:100B40000800F5500101BC11E66E75EC10F041E9AA
:100B500069EC10F00C6E69EC10F00D6E69EC10F0A1
:100B60000E6E69EC10F00F6E69EC10F0106E69EC0F
:100B700010F0126E69EC10F0136E09B41AD00AEC82
:100B800000F0160EF66E2A0EF76E0800F5CFBCF1D7
:100B9000110EF66E2A0EF76E0800F5500101BC1119
:100BA000E66E75EC10F041E969EC10F0146E3C0E45
:100BB000145E8D92C69A0101D950010FBC6FDACF35
:100BC000BDF110500101EA6ABC25E96EBD51EA226F
:100BD000EFCFAFF10101A96BAA6BAB6B0EEBA9F1E3
:100BE0000101AA6BAB6BAAC1ABF1A9C1AAF1A9C162
:100BF000AAF10101A96B0DEBBCF10101BD6BBE6B4C
:100C00000101BC510101A9130101BD510101AA1348
:100C10000101BE510101AB13AAC1ABF1A9C1AAF1F7
:100C2000A9C1AAF10101A96B0CEBBCF10101BD6BDB
:100C3000BE6B0101BC510101A9130101BD510101AC
:100C4000AA130101BE510101AB130101AC6BAD6BE5
:100C5000AE6B13EBACF10101AD6BAE6BADC1AEF1A0
:100C6000ACC1ADF1ACC1ADF10101AC6B12EBBCF1AB
:100C70000101BD6BBE6B0101BC510101AC1301014F
:100C8000BD510101AD130101BE510101AE13ADC152
:100C9000AEF1ACC1ADF1ACC1ADF10101AC6B0FEB8C
:100CA000BCF10101BD6BBE6B0101BC510101AC1374
:100CB0000101BD510101AD130101BE510101AE138E
:100CC0008C9014EBBCF10101BD6BBCBFBD69BCC114
:100CD000E6FFBDC1E6FF0101AF51E66EE66A0C50CA
:100CE000E66EE66A0D50E66EE66A0E50E66EE66A5D
:100CF0000F50E66EE66A1250E66EE66A1350E66E34
:100D0000E66A6D0EE66E240EE66EE66A190EE66E73
:100D1000010EE66E42EC13F055E9010EE66E190E77
:100D2000E66E010EE66E33EC0BF043E90101DD2BBC
:100D300000000000010106930B5000D055E9E7CFF9
:100D4000D9FF1200D9CFE6FFE1CFD9FF81E941E811
:100D500001010683E66A030EE66EE66AE4EC13F030
:100D600043E98D82120EF66E2A0EF76E0800F5CF5B
:100D7000BCF1110EF66E2A0EF76E0800F550010157
:100D8000BC110309E66E75EC10F041E969EC10F056
:100D9000016EC69A000000000101069342E9E7CF08
:100DA000D9FF1200D9CFE6FFE1CFD9FF81E943E8AF
:100DB00001010683E66A030EE66EE66AE4EC13F0D0
:100DC00043E98D82120EF66E2A0EF76E0800F5CFFB
:100DD000BCF1110EF66E2A0EF76E0800F5500101F7
:100DE000BC110209E66E75EC10F041E969EC10F0F7
:100DF000026E69EC10F0036E000000000AEC00F0D7
:100E0000120EF66E2A0EF76E0800F5CFBCF1100E2A
:100E1000F66E2A0EF76E0800F5500101BC110209AA
:100E2000E66E75EC10F041E9E66A75EC10F041E908
:100E3000E66A75EC10F041E9000000008D92C69A58
:100E4000000000000101069344E9E7CFD9FF12003A
:100E500090DB86E90150010600090CE002EBE6FF99
:100E600003EBE6FF00EBE6FF69DBF4E1BD1DF2E119
:100E7000010E01D0000E41E9E5CFDAFFE7CFD9FF3F
:100E8000120077DB89E97BE80A6A0B6A02EBF6FF5E
:100E900003EBF7FF04EBF8FF0800F550096E09506B
:100EA00001E12DD3250E095C01E01BD30C6A0D6A0C
:100EB0000E6A0F6A106A2DDB2D0E095C0CE02B0EFA
:100EC000095C09E0200E095C06E0230E095C03E0E2
:100ED000300E095C15E10950300A10E0130A0CE0ED
:100EE000030A08E00B0A04E0060AE5E10C80E3D7F8
:100EF0000C82E1D70C84DFD70C86DDD70C88DBD7DA
:100F00002A0E095C13E1A5DB0DE30C801CEBBCF1A0
:100F10001DEBBDF10101BC6DBD1F000EBD23BC5119
:100F20000D6E02D09CEB0DF0F4DA07D0126A3FDBB5
:100F300002E06BDBFCD792EB0DF00CB00C982E0EA0
:100F4000095C15E1E6DA2A0E095C08E182DB04E2BD
:100F50009CEB0EF0010E0F6EDCDA09D0126A27DB73
:100F600002E053DBFCD792EB0EF0010E0F6E680E21
:100F7000095C07E1CEDA680E095C1DE1030E106E14
:100F800019D0740E095C16E07A0E095C13E0480E65
:100F9000095C06E0540E095C03E05A0E095C02E1AC
:100FA000020E07D06C0E095C03E06A0E095C03E1D7
:100FB000010E106EAEDA09506E0A01E16ED21E0A01
:100FC00001E128D1200A01E125D13F0A01E1FDD04C
:100FD0001A0A01E1FAD00D0A01E1F7D0200A01E175
:100FE000F4D03A0A01E1F1D0200A01E1EED0260A5C
:100FF00001E1EAD00D0A01E1E7D01A0A01E19ED031
:10100000200A3BE0300A1AE0460A0EE0250A01E019
:1010100072D2D950020FE96E000EDA20EA6E010E8C
:10102000EE5E000EEE5AEE5A0FDB250EE66E86DA05
:1010300003E1BD1D01E159D20A2A5BD2116A0D50AC
:10104000010803E20D04116EF5DA115007E0010EFC
:101050000C1404E16DDA01E048D2116AD3DAEF50E2
:10106000096ECBDA03E1BD1D01E13FD20A2A000E71
:101070000B225EDA01E13FD238D2020E105C08E1A9
:10108000030E4EDAEE50176EEE50186EEF5007D08A
:10109000E7DABE6BBC51176EBD51186EBE51196EAA
:1010A00017EBE6FF18EBE6FF19EBE6FFE4EC12F0B6
:1010B00043E9D8C1BCF1D9C1BDF1DAC1BEF101012A
:1010C000BC511C6EBD511D6E0F5006E01C500E5CD5
:1010D00003E20E501C6E1D6A1C500D5C02E29CEB7C
:1010E0000DF050DA05E00D500E5C02E28EEB0DF0D3
:1010F0000CB004D01DDA01E0F8D1116A126A17EBC6
:10110000F6FF18EBF7FF19EBF8FF0800F550096E32
:10111000095010E00D50125C0DE26FDA03E1BD1DC5
:1011200001E1E3D10A2A000E0B22122AD950170F2F
:1011300055DAEBD7FDD901E1DED1D7D163DAEE5034
:101140001A6EED501B6E1AEBE6FF1BEBE6FFD6ECBA
:1011500012F042E9F3501C6EF4501D6E0F5006E081
:101160001C500E5C03E20E501C6E1D6A1C500D5C80
:1011700002E29CEB0DF006DA05E00D500E5C02E297
:101180008EEB0DF00CB004D0D3D901E0AED1116AD2
:10119000126A1AEBE9FF1BEBEAFFEF50096E0950E8
:1011A0000FE00D50125C0CE228DA03E1BD1D01E1F5
:1011B0009CD10A2A000E0B22122A1A2A1B22E9D7D6
:1011C000B7D901E198D191D10C8E10040AE1040E37
:1011D000A7D9EE50136EEE50146EEE50156EEF5010
:1011E00032D0030E105C16E10CAE0CD00BDAEFCF50
:1011F000BCF10101BD6BBE6BBF6BBCAF23D0BD6941
:10120000BE691FD0FFD9EFCFBCF10101BC51136EF5
:10121000146A20D0020E105C0CE10CAE06D0030E56
:101220007FD9B6D9BEAF0ED00CD0030E79D9B0D9C4
:1012300009D00CAE0AD014DABE6BBF6BBDAF02D0C2
:10124000BE69BF69BCD9166E07D00ADABC51136EED
:10125000BD51146E156A166A0F5002E1010E0E6E32
:101260001E6A1F6AD950400FE66E000EDA20E66E45
:10127000E552E550436EE750426E416A116A0A0E2C
:10128000106E0950780A12E0200A10E0280A0CE0DB
:10129000200A0AE03F0A06E00D0A02E0200A08E1FF
:1012A000020E05D0080E03D0080E0926100E106E8F
:1012B0000CBE02D00C920C94800E0C1417E0163465
:1012C00015E3E668E668E668E66842D988EC11F05E
:1012D000E552E5CFBFF1E5CFBEF1E5CFBDF1E7CFF8
:1012E000BCF101016CD9166E2D0E07D00CA202D0F4
:1012F0002B0E03D00CA404D0200E206E1E2A01D089
:10130000206A0E5005E1135014101510161061E0FC
:101310000101FC0EBC6F290EBD6F000EBE6F83D99C
:1013200045EC11F0E552E5CFC2F1E5CFC1F1E5CFD3
:10133000C0F1E7CFBFF10101BC51BF25F36EBD5134
:10134000C021F46EBE51C121F86EF4CFF7FFF3CF88
:10135000F6FF0800F550126E580E095C05E1610EAB
:10136000125C02E3200E125E5ED942EC11F0E552EF
:10137000E550166EE550156EE550146EE750136E8D
:1013800042EBE9FF43EBEAFF4206000E435A12EB41
:10139000EFFF1E2A1350141015101610B9E10CA6F9
:1013A00019D06F0E095C06E10E501E5C13E31E2877
:1013B0000E6E10D0780E095C09E0580E095C06E04C
:1013C000620E095C03E0420E095C04E1020E1F6E2E
:1013D00001D01E6A100E0C1407E00D500E5C04E2E2
:1013E0000F5002E18DEB0EF00E501E5C03E21E501A
:1013F0000E5E01D00E6A0E501E241F24D8800D549C
:1014000007E20E500D5CD8801E54D8801F54116E18
:10141000010E0C1406E1115004E08AD866E10AD9E5
:10142000116A205007E010D920EBE6FF87D802E1CF
:10143000BD1D5BE01F500BE007D9300EE66E7ED875
:1014400002E1BD1D52E0D9D802E1BD1D4EE00E50B3
:101450001F5C02E21F500E5E300EE66E0EEBE6FFE2
:10146000DCD843E1422A000E432242EBE9FF43EB82
:10147000EAFFEF50126E125008E0E6D812EBE6FFDA
:101480005DD8F0E1BD1DEEE130D052D82EE10E5016
:101490001E2411241F240A262CD01050030A1CE0FD
:1014A000010A14E0030A07E0ADD8C9D80AEBEEFF41
:1014B0000BEBEDFF20D08BD8BF6BBDAF02D0BE6968
:1014C000BF69A0D84ED8BFC1EEFF15D080D8BDBF30
:1014D000BE6998D846D80FD095D8B1D80AEBEFFF9F
:1014E0000AD08BD805E1BD1D03E1F368F4680BD089
:1014F0000A2A000E0B22D950020F70D8CDD40AEB65
:10150000F3FF0BEBF4FF7CE9E5CFDAFFE7CFD9FF80
:101510001200D950020F62D80800F550096E12006F
:10152000005E000E015A00EBE9FF01EBEAFF12003A
:10153000200EE66E11EBE6FF0DEF0BF0B1EC13F0B1
:1015400043E9F3CFBCF1F4CFBDF10101F31C12006C
:1015500013EBE6FF14EBE6FF15EBE6FF16EBE6FFF9
:1015600012006DD8BCC1EEFFBDC1EEFFBEC1EEFFE3
:101570001200D9CFE6FFDACFE6FFE1CFD9FFE2CF05
:10158000DAFF12001C500D5C116E54D80F5012007F
:10159000EECFBCF1EECFBDF1EFCFBEF10101BF6BDD
:1015A0001200EECFBCF1EFCFBDF1010112000950E6
:1015B000E66EE66AB1EC14F042E9F3501200BC5159
:1015C000136EBD51146EBE51156EBF5112000AEB61
:1015D000BCF10BEBBDF10101BE6B1200E96E000E18
:1015E000DA20EA6EEF2AEECFF6FF000EEF22EECF02
:1015F000F7FFEF22EECFF8FF120026D809EBE6FF47
:101600009EEF0AF0020E90EF0AF00A0E1202F3505B
:101610000924D00F126E89EF0AF016D828EC07F0D3
:1016200044E90009120010EBE6FFE66AE66AE66AA2
:10163000A8EF0AF011500A26000E0B221200EE50FD
:10164000EFCFEAFFE96E120005EBE6FF06EBE6FFDF
:101650001200D8DFEE501C6EED501D6E1D341200CE
:06166000D1DFD1EF0AF01A
:0A166600D9CFE6FFE1CFD9FF84E9F8
:1016700042E8046A056A00041FE101500424E96E8F
:1016800002500520EA6EEF5016E001500424E96E86
:1016900002500520EA6EEFCFE6FF9AEC14F041E924
:1016A000ACA2FED7050EE66EC3EC14F041E9042AA5
:1016B000000E0522E2D71ED001500424E96E02502C
:1016C0000520EA6EEF5016E001500424E96E025046
:1016D0000520EA6EEFCFE6FF83EC14F041E972A239
:1016E000FED7050EE66EC3EC14F041E9042A000EA5
:1016F0000522E2D743E9E7CFD9FF1200D9CFE6FFB1
:10170000E1CFD9FF81E952E80101059149EC0FF0E1
:101710008D808D92640EE66EE66A92EC10F042E9DE
:10172000F29E948E949C2A0EE66EE66A7C0EE66E1D
:101730007BEC13F043E9B886030EE66E010EE66E0D
:101740007C0EE66E09EC13F043E970868C84E80E9B
:10175000E66E030EE66E92EC10F042E98C82E80E23
:10176000E66E030EE66E92EC10F042E98C80E80E15
:10177000E66E030EE66E92EC10F042E98C94E80EF1
:10178000E66E030EE66E92EC10F042E98C9225ECC8
:101790000EF0D8C1BCF1D9C1BDF1DAC1BEF1DBC1D7
:1017A000BFF10101BC510F6EBD51106EBE51116EE3
:1017B000BF51126E0FEBBCF110EBBDF111EBBEF19E
:1017C00012EBBFF10101BC510A6ED9500F0FE96E47
:1017D000DACFEAFF080EE76ED890030EEB32020E66
:1017E000EB32010EEB32EF32E706F6E10FEBBCF124
:1017F00010EBBDF111EBBEF112EBBFF10101BC51D9
:10180000096ED9500F0FE96EDACFEAFF080EE76EC6
:10181000D890030EEB32020EEB32010EEB32EF32B8
:10182000E706F6E10FEBBCF110EBBDF111EBBEF1F9
:1018300012EBBFF10101BC51086ED9500F0FE96ED8
:10184000DACFEAFF080EE76ED890030EEB32020EF5
:10185000EB32010EEB32EF32E706F6E10FEBBCF1B3
:1018600010EBBDF111EBBEF112EBBFF10101BC5168
:10187000076E00000A50E66EE66A0950E66EE66AF8
:101880000850E66EE66A0750E66EE66AEE0EE66E11
:10189000230EE66EE66A190EE66E010EE66E42EC67
:1018A00013F04DE9010EE66E190EE66E010EE66EBE
:1018B000DADE43E901010597D50EE66E230EE66EEA
:1018C000E66A190EE66E010EE66EBDEC12F045E911
:1018D000010EE66E190EE66E010EE66EC4DE43E9F9
:1018E000F28EC60EE66E230EE66EE66A190EE66E00
:1018F000010EE66EBDEC12F045E9010EE66E190E22
:10190000E66E010EE66EAFDE43E90101B66B220E14
:10191000B76F110EB86F0101140EB96F040EBA6FD4
:10192000160EBB6FA2EC06F0036E0000000003AAC7
:1019300010D010EC00F0B6C1B0F1B7C1B1F1B8C130
:10194000B2F1B9C1B3F1BAC1B4F1BBC1B5F100ECA8
:1019500001F031EC05F0D2EC06F001010591010136
:1019600005A104D031EC05F0010105910000000053
:10197000F6D717EC03F031EC05F0036E035003E0EB
:10198000000010EC00F00000080E0B6E0BEBE6FF01
:101990006FEC02F041E90101B06B470EB16F140E1C
:1019A000B26F0101080EB36F040EB46F160EB56F5F
:1019B0000000000031EC05F0036EE80EE66E030E49
:1019C000E66E92EC10F042E931EC05F0036E010195
:1019D0000591016A020E0B6E010105A194D08C8065
:1019E0000101059197EC0DF0D8C1BCF1D9C1BDF151
:1019F000DAC1BEF1DBC1BFF10101BC510F6EBD51B7
:101A0000106EBE51116EBF51126E0FEBBCF110EB98
:101A1000BDF111EBBEF112EBBFF10101BC510A6E39
:101A2000D9500F0FE96EDACFEAFF080EE76ED890B3
:101A3000030EEB32020EEB32010EEB32EF32E70611
:101A4000F6E10FEBBCF110EBBDF111EBBEF112EBC7
:101A5000BFF10101BC51096ED9500F0FE96EDACF09
:101A6000EAFF080EE76ED890030EEB32020EEB325F
:101A7000010EEB32EF32E706F6E10FEBBCF110EBB3
:101A8000BDF111EBBEF112EBBFF10101BC51086ECB
:101A900001010551100B01E0010EE66EE66A08EB4C
:101AA000BCF10101BD6BBCBFBD69BCC1E6FFBDC1DE
:101AB000E6FF09EBBEF10101BF6BBEBFBF69BEC14E
:101AC000E6FFBFC1E6FF0AEBC0F10101C16BC0BF79
:101AD000C169C0C1E6FFC1C1E6FFB20EE66E230ECA
:101AE000E66EE66A190EE66E010EE66E42EC13F043
:101AF0004DE9010EE66E190EE66E010EE66EB3DDDF
:101B000043E9010105790000000066D7E80EE66EA2
:101B1000030EE66E92EC10F042E953E9E7CFD9FFED
:021B20001200B1
:0E1B22008D800000000000008D901200D9CFD1
:101B3000E6FFE1CFD9FF81E947E801010683E66AC4
:101B4000030EE66EE66AE4EC13F043E98D900000C4
:101B5000000000000E0EF66E2A0EF76E0800F5CF9C
:101B6000E6FF75EC10F041E9080EE66E75EC10F03A
:101B700041E969EC10F0016E69EC10F0026E69EC5D
:101B800010F0036E8D80C69A03EBBCF10101BC51CD
:101B9000046E056A066A076AD950040FE96EDACF47
:101BA000EAFFEF50EE6AEFCFF4FFEE6EEF50F4CFA6
:101BB000EEFFEF6E02EBBCF10101BD6BBE6BBF6BC4
:101BC000D950040FE96EDACFEAFF0101BC51EE12E1
:101BD0000101BD51EE120101BE51EE120101BF51D2
:101BE000EE12D950040FE96EDACFEAFFEF50EE6A39
:101BF000EFCFF4FFEE6EEF50F4CFEEFFEF6E01EBA0
:101C0000BCF10101BD6BBE6BBF6BD950040FE96E17
:101C1000DACFEAFF0101BC51EE120101BD51EE1213
:101C20000101BE51EE120101BF51EE1201010693F6
:101C300004EBD8F105EBD9F106EBDAF107EBDBF1B8
:101C400000D048E9E7CFD9FF1200D9CFE6FFE1CFB6
:101C5000D9FF81E948E801010683E66A030EE66ED2
:101C6000E66AE4EC13F043E98D900D0EF66E2A0E51
:101C7000F76E0800F5CFE6FF75EC10F041E91F0E96
:101C8000E66E75EC10F041E9520EE66E75EC10F060
:101C900041E9010EE66EE66A92EC10F042E941DF9E
:101CA000010EE66EE66A92EC10F042E90D0EF66E59
:101CB0002A0EF76E0800F5CFE6FF75EC10F041E94B
:101CC000200EE66E75EC10F041E97A0EE66E75ECCA
:101CD00010F041E9E66A75EC10F041E9010EE66E9C
:101CE00075EC10F041E9960EE66E75EC10F041E9E6
:101CF000E66A75EC10F041E9E66A75EC10F041E92E
:101D0000E66A75EC10F041E93F0EE66E75EC10F0F6
:101D100041E9E66A75EC10F041E9800EE66E75EC7B
:101D200010F041E9900EE66E75EC10F041E9E66ABC
:101D300075EC10F041E9500EE66E75EC10F041E9DB
:101D40000A0EE66E75EC10F041E9EBDE0E0EF66E53
:101D50002A0EF76E0800F5CFE6FF75EC10F041E9AA
:101D6000E66A75EC10F041E969EC10F0016E69EC7F
:101D700010F0026E69EC10F0036E69EC10F0046E66
:101D80008D80C69A01EBBCF10101BC51056E066A5B
:101D9000076A086AD950050FE96EDACFEAFFEF50FB
:101DA000EE6AEFCFF4FFEE6EEF50F4CFEEFFEF6E82
:101DB00002EBBCF10101BD6BBE6BBF6BD950050FCF
:101DC000E96EDACFEAFF0101BC51EE120101BD510B
:101DD000EE120101BE51EE120101BF51EE12D950B7
:101DE000050FE96EDACFEAFFEF50EE6AEFCFF4FFAE
:101DF000EE6EEF50F4CFEEFFEF6E03EBBCF101019E
:101E0000BD6BBE6BBF6BD950050FE96EDACFEAFF31
:101E10000101BC51EE120101BD51EE120101BE5192
:101E2000EE120101BF51EE12D950050FE96EDACF63
:101E3000EAFFEF50EE6AEFCFF4FFEE6EEF50F4CF13
:101E4000EEFFEF6E04EBBCF10101BD6BBE6BBF6B2F
:101E5000D950050FE96EDACFEAFF0101BC51EE124D
:101E60000101BD51EE120101BE51EE120101BF513F
:101E7000EE1200000101069305EBD8F106EBD9F153
:101E800007EBDAF108EBDBF100D049E9E7CFD9FF46
:021E900012003E
:0E1E92000F01386B396B3A6B3B6B806AE30EC5
:101EA000926E180E896E816A1B0E936E8C6A956A0B
:101EB000010E8D6E966AFE0EE66E51EC14F041E94D
:101EC000BC6ABB689E92000EE66EE66A6BEC14F08C
:101ED00042E90101006B0101016B0101026B01018B
:101EE000036B32EC14F013EC14F0F19E0101059336
:101EF0000101026B0101006B0101096B01010595F4
:101F00000101036B0101016B0101996B1200D9CF33
:101F1000E6FFE1CFD9FF87E95AE8076A086A030EAE
:101F2000096E0A6A020E0B6E0C6A050E0D6E0E6AC1
:101F30000F6A106A030E116E126A050E136E146A90
:101F4000010E156E166A040E176E186A060E196ECB
:101F50001A6A020E1B6E1C6A040E1D6E1E6A030EA8
:101F6000D89003BE03D0025C000E035802E3000EBB
:101F700001D0010E045E000E055A070EE66EE66AF9
:101F8000040EE66EE66A04EBE6FF05EBE6FFBEEC48
:101F900010F00101FE0EE3500424C46F41E9E55046
:101FA0000520C56F640EE66EE66A04EBE6FF05EBFE
:101FB000E6FFBEEC10F0E552E5CFC7F1E7CFC6F182
:101FC0000101C6510101C45D0101C26F0101C75188
:101FD0000101C5590101C36F900EE66E010EE66E58
:101FE00004EBE6FF05EBE6FFBEEC10F0E552E5CFB3
:101FF000C9F1E7CFC8F101010101C2510101C825B2
:102000000101C06F01010101C3510101C921010199
:10201000C16F0101D950070FCA6FDACFCBF10101AF
:102020000204CC6F000E0358CD6F0101D890CC375D
:10203000CD3701010101CA510101CC25E96E010131
:102040000101CB510101CD21EA6E01010101C05115
:10205000EE240101BE6F01010101C151EE20010119
:10206000BF6F00500101BE250101BC6F015001018D
:10207000BF210101BD6FBCC1E6FFBDC1E6FF09EC98
:1020800011F0E552E550206EE7501F6E00001FEB87
:10209000F3FF20EBF4FF00D05BE9E7CFD9FF12009C
:1020A000D9CFE6FFE1CFD9FF82E941E8F00E001475
:1020B000026E02380F0B026E0A0E0202F350026E1D
:1020C0000F0E00140226025000D042E9E7CFD9FFDC
:1020D0001200C96AD66AC750010B04E1140ED65C1F
:1020E00001E2F9D7C95000D01200D9CFE6FFE1CF05
:1020F000D9FF82E941E800EBC9FFC6AE03D0FF0E6D
:102100000DD008D0D66AC750010B04E1140ED65C7E
:1021100001E2F9D7C950026E025000D042E9E7CF80
:10212000D9FF1200D9CFE6FFE1CFD9FF83E944E818
:10213000036A046A0050035C015004580FE2056A08
:10214000066A630E055C000E065804E2052A000EBE
:102150000622F7D7032A000E0422ECD745E9E7CF81
:04216000D9FF120091
:0C21640043E8D9CFE6FFDACFE6FFE1CF79
:10217000D9FFE2CFDAFF89E9066A1200F3DF0680B1
:1021800001D0F0DF01AECBEF10F0006C011EE86A69
:10219000012206B0067E03AED3EF10F0026C031EE0
:1021A000E86A0322067E0BEC11F003BEF5EF10F097
:1021B00006AE08D0026C031EE86A0322046C051EFA
:1021C000E86A052206B006D084EB00F085EB01F04A
:1021D00006A004D082EB00F083EB01F0E552E5CFDE
:1021E000DAFFE7CFD9FF45E9000C06BEDAEF10F0C1
:1021F000E9DFFF0C43E8D9CFE6FFDACFE6FFE1CF16
:10220000D9FFE2CFDAFF89E9066A1200F3DF068020
:1022100003D0F0DF01D00682056A046A100EE76E73
:10222000D89002360336043605360050045C01505F
:10223000055805E30050045E0150055A022AE72EB6
:10224000F0D706B2120006B006D084EB00F085EBA2
:1022500001F006A004D082EB00F083EB01F0E55220
:10226000E5CFDAFFE7CFD9FF45E9120045E8D9CF3E
:10227000E6FFDACFE6FFE1CFD9FFE2CFDAFF8FE961
:102280000C6A1200F3DF0C8003D0F0DF01D00C8267
:102290000B6A0A6A096A086A200EE76ED89004364B
:1022A000053606360736083609360A360B3600502C
:1022B000085C0150095802500A5803500B5809E3B2
:1022C0000050085E0150095A02500A5A03500B5A36
:1022D000042AE72EE4D70CB212000CB00AD088EB27
:1022E00000F089EB01F08AEB02F08BEB03F00CA01D
:1022F00008D084EB00F085EB01F086EB02F087EB71
:1023000003F0E552E5CFDAFFE7CFD9FF49E9120044
:1023100044E8D9CFE6FFDACFE6FFE1CFD9FFE2CF3D
:10232000DAFF8EE980EB08F081EB09F082EB0AF02E
:1023300083EB0BF004500802F350006EF450016E72
:1023400004500902F3500126000EF420026E0450DE
:102350000A02F3500226000EF420036E04500B0212
:10236000F350032605500802F3500126F4500222D0
:10237000000E032205500902F3500226F4500322F6
:1023800005500A02F350032606500802F3500226B5
:10239000F450032206500902F350032607500802A6
:1023A000F3500326E552E5CFDAFFE7CFD9FF48E93E
:0223B000000C1F
:0E23B200202533640925336409253364092589
:1023C000640D0A0D0A000D0A205256333034393A92
:1023D0000D0A0D0A00204E4D45412047656E65727D
:1023E00061746F72200D0A0D0A0D0A0D0A000C0DA2
:1023F0000A204144584C33363220496E69743A0DF4
:102400000A0D0A2044455649445F41440930782565
:10241000303258202830784144290D0A204445564E
:1024200049445F4D535409307825303258202830C4
:10243000783144290D0A2050415254494409093049
:102440007825303258202830784632290D0A20521B
:1024500045564944090930782530325820283078CB
:1024600030312F30783032290D0A0D0A000C0D0A58
:1024700020253032582D253032582D253032582025
:1024800046756E676172617220253032583A253088
:1024900032583A25303258203078253032582020B2
:1024A000252B6427430D0A0D0A0009253032582DCB
:1024B000253032582D2530325820253032583A25D3
:1024C0003032583A25303258203078253032582072
:0B24D00020252B642743092564090028
:0424DC00060EF66E84
:1024E000000EF76E000EF86E01010900F550D36F73
:1024F0000900F550D46F03E1D36701D03DD0090046
:10250000F550CE6F0900F550CF6F0900F550D06F30
:1025100009000900F550E96E0900F550EA6E09005E
:1025200009000900F550D16F0900F550D26F09007C
:102530000900F6CFD5F1F7CFD6F1F8CFD7F1CEC15C
:10254000F6FFCFC1F7FFD0C1F8FF0101D15302E17F
:10255000D25307E00900F550EE6ED107F8E2D2073A
:10256000F9D7D5C1F6FFD6C1F7FFD7C1F8FF0101F2
:0A257000D307000ED45BBFD71200A2
:06257A00FB0EE3CFF6FFAB
:10258000FC0EE3CFF7FFFD0EE3CFF8FFFE0EE3CF27
:10259000E9FFFF0EE3CFEAFFE9CFF3FFEACFF4FF55
:1025A0000900F5CFEFFFEE66FBD71200FE0EE3CF7A
:1025B000E9FFFF0EE3CFEAFFF36AF46AEE5203E0AD
:1025C000F34AF42AFBD71200FF0EE3CFF8FFE552DF
:1025D000FF0EE3CFF7FFE552FF0EE3CFF6FFE55224
:1025E000E66AE66AE66A0900F55209E0FD0EE32AAA
:1025F00005E1FE0EE32A02E1FF0EE32AF4D7FD0E09
:10260000E3CFD8F1FE0EE3CFD9F1FF0EE3CFDAF13D
:022610001200B6
:0E261200D9CFE6FFDACFE6FFE1CFD9FFE2CF66
:10262000DAFF85E9726A716A02B0728802A202D08A
:10263000728C718C02B4728E02A602D0718801D0A5
:10264000718A02A802D0728401D0729402BA718693
:1026500002AC02D0A38A01D0A39A02AE02D0A38812
:1026600001D0A39800EB75FF010101EBBCF1BD6B3C
:10267000BCC176FF728A718E41E9E5CFDAFFE7CF00
:04268000D9FF12006C
:0C268400D9CFE6FFDACFE6FFE1CFD9FFA7
:10269000E2CFDAFF87E944E8D9CFE6FFDACFE6FFF9
:1026A000E552E5500A6EE750096E09EBE6FF0AEBCA
:1026B000E6FF00EBE6FF01EBE6FF02EBE6FFD95099
:1026C000030FE66E000EDA20E66E41EC07F047E9F4
:1026D000F350076EF450086E03EBE9FF04EBEAFFDA
:1026E000EF6A07EBF3FF08EBF4FF45E9E5CFDAFF0C
:0626F000E7CFD9FF120044
:0A26F600D9CFE6FFDACFE6FFE1CF0F
:10270000D9FFE2CFDAFF85E9AC6AAB6A02B0AC88E8
:1027100002A202D0AC8CAB8C02B4AC8E02A602D06A
:10272000AB8801D0AB8A02B8AC8402BAAB8602ACEB
:1027300002D09D8A01D09D9A02AE02D09D8801D020
:102740009D9800EBAFFF010101EBBCF1BD6BBCC17B
:10275000B0FFAC8AAB8E41E9E5CFDAFFE7CFD9FF16
:02276000120065
:0E276200D9CFE6FFDACFE6FFE1CFD9FFE2CF15
:10277000DAFF85E9013415E200EBE9FF01EBEAFF3E
:10278000EECFF3FFEDCFF4FFEE2A000EEF22F3CFF2
:10279000E9FFF4CFEAFF02EBEFFFEF50F36EF46ACC
:1027A0000DD0FE0E005C05E102EBE6FFE3EC14F059
:1027B00004D002EBE6FF0DEC15F041E941E9E5CF6D
:0827C000DAFFE7CFD9FF120098
:0827C800D9CFE6FFDACFE6FFEE
:1027D000E1CFD9FFE2CFDAFF85E93F0EC716C66A1F
:1027E0000250C6120050C7120150030A09E0010A44
:1027F00004E0020A06E1C78C04D0C78CC68801D069
:10280000C6880250050A03E0010A03E1928A948611
:1028100001D094969488949AC68A41E9E5CFDAFF6C
:06282000E7CFD9FF120012
:0A282600D9CFE6FFDACFE6FFE1CFDD
:10283000D9FFE2CFDAFF82E941E8F20E0101DF17AA
:1028400071AC03D0DF9171B0DF8171B4DF8571B2FB
:10285000DF877450026E025042E9E5CFDAFFE7CF1E
:04286000D9FF12008A
:0C286400D9CFE6FFDACFE6FFE1CFD9FFC5
:10287000E2CFDAFF82E941E8F20E0101E017ABACEA
:1028800003D0E091ABB0E081ABB4E085ABB2E087C0
:10289000AE50026E025042E9E5CFDAFFE7CFD9FF32
:0228A000120024
:0E28A200D9CFE6FFDACFE6FFE1CFD9FFE2CFD4
:1028B000DAFF83E9FB0E0014BA6EBC6A9E9200AE8A
:1028C00002D09D8201D09D92BA8441E9E5CFDAFF22
:0628D000E7CFD9FF120062
:0A28D600D9CFE6FFDACFE6FFE1CF2D
:1028E000D9FFE2CFDAFF84E942E880EB04F081EB24
:1028F00005F005EBB3FF04EBB2FF43E9E5CFDAFFE8
:06290000E7CFD9FF120031
:0A290600D9CFE6FFDACFE6FFE1CFFC
:10291000D9FFE2CFDAFF83E972AC04D072900101F3
:10292000DFB3728000EB73FF41E9E5CFDAFFE7CF59
:04293000D9FF1200B9
:0C293400D9CFE6FFDACFE6FFE1CFD9FFF4
:10294000E2CFDAFF83E9ACAC04D0AC900101E0B394
:10295000AC8000EBADFF41E9E5CFDAFFE7CFD9FF6F
:02296000120063
:0E296200F36AF46AFF0EE124E96EFF0EE22034
:10297000EA6EED6607D02F0EEF6404D03A0EEF60DA
:0629800001D0F32A120051
:0A298600FF0EE3500101DE6F1A0E90
:1029900000D000D001D0200EE76EE72EFED7DE2F4C
:0629A000FAD700D012007E
:0A29A600000EF36E00EE00F0060EC6
:1029B00001D81200EA6002D0EE6AFCD7F350E96059
:0629C0001200EE6AFCD7D4
:0A29C600FF0EE350ACBA04D0AF6A74
:1029D000AB8EAC8A949CACA2FED7AD6EF36EF46A5B
:0229E0001200E3
:0E29E20015EE00F025EE00F0F86A6EEC12F033
:0C29F0000EEC15F07EEC0BF0FBD7120093
:0429FC003031323311
:0D2A0000343536373839616263646566002D
:032A0D000A0B0DA4
:0A2A1000008000081018202830385C
:022A1A001200A8
:022A1C001200A6
:022A1E000000B6
:020000040030CA
:0100010021DD
:0100030014E8
:0100060045B4
:010008000FE8
:00000001FF
