:020000040000FA
:060000009FEF15F0120055
:0A00060001007A2B0000DC0100006D
:0400100002000000EA
:0C0014008D920000000000008D821200A0
:1000200001010683E66A010EE66EE66A92EC14F0C0
:1000300043E98D826E0EF66E2B0EF76E0800F5CF3B
:10004000BCF16C0EF66E2B0EF76E0800F550010138
:10005000BC110409E66E02EC11F041E9100EE66EE7
:1000600002EC11F041E900008D92F40EE66E010EF3
:10007000E66E1FEC11F042E98D826E0EF66E2B0ECD
:10008000F76E0800F5CFBCF16C0EF66E2B0EF76E16
:100090000800F5500101BC110309E66E02EC11F0F5
:1000A00041E9E66A02EC11F041E90000B3DF6E0EAF
:1000B000F66E2B0EF76E0800F5CFBCF16C0EF66EE7
:1000C0002B0EF76E0800F5500101BC11E66E02EC34
:1000D00011F041E9B80EE66E02EC11F041E91E0E96
:1000E000E66E02EC11F041E9E66A02EC11F041E93A
:1000F000E66A02EC11F041E98DDF710EF66E2B0E0F
:10010000F76E0800F5CFBCF16C0EF66E2B0EF76E95
:100110000800F5500101BC11E66E02EC11F041E956
:10012000070EE66E02EC11F041E9E66A02EC11F00E
:1001300041E970DF6E0EF66E2B0EF76E0800F5CFFC
:10014000BCF16C0EF66E2B0EF76E0800F550010137
:10015000BC11E66E02EC11F041E9BF0EE66E02EC56
:1001600011F041E957DF6E0EF66E2B0EF76E0800A8
:10017000F5CFBCF16C0EF66E2B0EF76E0800F55045
:100180000101BC110209E66E02EC11F041E9E66AD8
:1001900002EC11F041E93EDF700EF66E2B0EF76EA9
:1001A0000800F5CFBCF16C0EF66E2B0EF76E080052
:1001B000F5500101BC11E66E02EC11F041E9E66A6E
:1001C00002EC11F041E9E66A02EC11F041E9E66A5D
:1001D00002EC11F041E9E66A02EC11F041E9E66A4D
:1001E00002EC11F041E9E66A02EC11F041E9E66A3D
:1001F00002EC11F041E98D92C69A010106931200BA
:10020000D9CFE6FFE1CFD9FF81E94FE801010683AD
:10021000B3C1BFF1B4C1C0F1B5C1C1F10101BF6B40
:100220000101C06B100E1F0BBFC1BCF1C0C1BDF1FD
:10023000C1C1BEF107E00101D890BE33BD33BC336C
:10024000E806FAE1BCC1E6FFDDEC10F041E90A6E18
:100250000B6AD00E0A26070E0B22B3C1BFF1B4C140
:10026000C0F1B5C1C1F10101BF6B0101C16B080E45
:100270001F0BBFC1BCF1C0C1BDF1C1C1BEF107E0E0
:100280000101D890BE33BD33BC33E806FAE1BCC1EE
:10029000E6FFDDEC10F041E90C6E0D6AB3C1BCF174
:1002A000B4C1BDF1B5C1BEF10101BD6B0101BE6BB1
:1002B000BCC1E6FFDDEC10F041E90E6E0F6A0EEBFB
:1002C000E6FF0FEBE6FF0CEBE6FF0DEBE6FF0AEBBC
:1002D000E6FF0BEBE6FF14EC10F046E9F350016E7D
:1002E000012AB0C1BCF1B1C1BDF1B2C1BEF1010181
:1002F000BD6B0101BE6B0101BC51036EB0C1BFF10A
:10030000B1C1C0F1B2C1C1F10101BF6B0101C16B4B
:10031000080E1F0BBFC1BCF1C0C1BDF1C1C1BEF110
:1003200007E00101D890BE33BD33BC33E806FAE1E3
:100330000101BC51046EB0C1BFF1B1C1C0F1B2C185
:10034000C1F10101BF6B0101C06B100E1F0BBFC1DA
:10035000BCF1C0C1BDF1C1C1BEF107E00101D8903F
:10036000BE33BD33BC33E806FAE10101BC51056E72
:10037000B3C1BCF1B4C1BDF1B5C1BEF10101BD6BEA
:100380000101BE6B0101BC51066E81EB07F0B3C1E8
:10039000BFF1B4C1C0F1B5C1C1F10101BF6B010131
:1003A000C16B080E1F0BBFC1BCF1C0C1BDF1C1C103
:1003B000BEF107E00101D890BE33BD33BC33E8067F
:1003C000FAE10101BC51086EB3C1BFF1B4C1C0F183
:1003D000B5C1C1F10101BF6B0101C06B100E1F0B54
:1003E000BFC1BCF1C0C1BDF1C1C1BEF107E0010197
:1003F000D890BE33BD33BC33E806FAE10101BC51ED
:10040000096EE66A010EE66EE66A92EC14F043E9C4
:100410008D826E0EF66E2B0EF76E0800F5CFBCF1D6
:100420006C0EF66E2B0EF76E0800F5500101BC1134
:10043000E66E02EC11F041E9BE0EE66E02EC11F040
:1004400041E9E8DD6F0EF66E2B0EF76E0800F5CF72
:10045000BCF16C0EF66E2B0EF76E0800F550010124
:10046000BC11E66E02EC11F041E9026A070E025C73
:1004700014E20101D950030FBC6FDACFBDF1025075
:100480000101EA6ABC25E96EBD51EA22EFCFE6FF21
:1004900002EC11F041E9022AE9D7BCDD6E0EF66EDE
:1004A0002B0EF76E0800F5CFBCF16C0EF66E2B0E1E
:1004B000F76E0800F5500101BC11E66E02EC11F078
:1004C00041E9BF0EE66E02EC11F041E900000000C8
:1004D0008D920101069350E9E7CFD9FF1200D9CFE1
:1004E000E6FFE1CFD9FF82E901010683E66A010E4A
:1004F000E66EE66A92EC14F043E98D820000710E1C
:10050000F66E2B0EF76E0800F5CFBCF16C0EF66E92
:100510002B0EF76E0800F5500101BC11E66E02ECDF
:1005200011F041E900EBE6FF02EC11F041E9E66A67
:1005300002EC11F041E9000000008D92C69A010121
:10054000069341E9E7CFD9FF120001010683E66A6D
:10055000010EE66EE66A92EC14F043E98D826E0EAF
:10056000F66E2B0EF76E0800F5CFBCF16C0EF66E32
:100570002B0EF76E0800F5500101BC11E66E02EC7F
:1005800011F041E9260EE66E02EC11F041E9020E8F
:10059000E66E02EC11F041E9E66A02EC11F041E985
:1005A000E66A02EC11F041E9E66A02EC11F041E979
:1005B000000000002FDD710EF66E2B0EF76E0800A6
:1005C000F5CFBCF16C0EF66E2B0EF76E0800F550F1
:1005D0000101BC11E66E02EC11F041E9070EE66E76
:1005E00002EC11F041E9E66A02EC11F041E9000089
:1005F000000010DD6E0EF66E2B0EF76E0800F5CFC4
:10060000BCF16C0EF66E2B0EF76E0800F550010172
:10061000BC11E66E02EC11F041E9270EE66E02EC29
:1006200011F041E98D92C69A010106931200D9CFCB
:10063000E6FFE1CFD9FF81E942E801010683026AC2
:10064000210E025C09E20250EA6A190FE96E010EFE
:10065000EA22EF68022AF4D7E66A010EE66EE66A3D
:1006600092EC14F043E98D826D0EF66E2B0EF76E50
:100670000800F550E66E02EC11F041E9026A050E41
:10068000025C10E2F6EC10F0E66E0250EA6A190F16
:10069000E96E010EEA22E552E750EF6E000000001D
:1006A000022AEDD7B7DC6D0EF66E2B0EF76E080042
:1006B000F5500809E66E02EC11F041E9080E026EF1
:1006C0000F0E025C10E2F6EC10F0E66E0250EA6AE1
:1006D000190FE96E010EEA22E552E750EF6E0000B5
:1006E0000000022AEDD796DC6D0EF66E2B0EF76E2B
:1006F0000800F5501009E66E02EC11F041E9100E09
:10070000026E170E025C10E2F6EC10F0E66E02507C
:10071000EA6A190FE96E010EEA22E552E750EF6E20
:1007200000000000022AEDD775DC6D0EF66E2B0E70
:10073000F76E0800F5501809E66E02EC11F041E979
:10074000180E026E1A0E025C10E2F6EC10F0E66E65
:100750000250EA6A190FE96E010EEA22E552E750EB
:10076000EF6E00000000022AEDD754DC6D0EF66E2D
:100770002B0EF76E0800F5502009E66E02EC11F022
:1007800041E9F6EC10F00101396F8D92C69A000034
:10079000000000000101069343E9E7CFD9FF1200F2
:1007A000D9CFE6FFE1CFD9FF81E952E80101068305
:1007B000036A0C6A8C80E66A010EE66EE66A92ECC9
:1007C00014F043E98D826E0EF66E2B0EF76E080064
:1007D000F5CFBCF16D0EF66E2B0EF76E0800F550DE
:1007E0000101BC110209E66E02EC11F041E9F6ECE0
:1007F00010F0016EF6EC10F0026E0CDC6E0EF66E70
:100800002B0EF76E0800F5CFBCF16C0EF66E2B0EBA
:10081000F76E0800F5500101BC110209E66E02EC0A
:1008200011F041E9E66A02EC11F041E9E66A02ECF6
:1008300011F041E90AEC00F06F0EF66E2B0EF76E28
:100840000800F5CFBCF16D0EF66E2B0EF76E0800AA
:10085000F5500101BC11E66E02EC11F041E9F6EC35
:1008600010F0046EF6EC10F0056EF6EC10F0066E6B
:10087000F6EC10F0076EF6EC10F0086EF6EC10F0E7
:100880000A6EF6EC10F00B6E01B41AD00AEC00F010
:10089000720EF66E2B0EF76E0800F5CFBCF16D0EE2
:1008A000F66E2B0EF76E0800F5500101BC11E66ED6
:1008B00002EC11F041E9F6EC10F00C6E3C0E0C5E0F
:1008C000180E011403E1200E021402E0010E036E63
:1008D0008D920101010EAF6F0804010104E0AF47E2
:1008E000AF91E806FCE10101A96BAA6BAB6B06EBCB
:1008F000A9F10101AA6BAB6BAAC1ABF1A9C1AAF125
:10090000A9C1AAF10101A96B05EBBCF10101BD6B05
:10091000BE6B0101BC510101A9130101BD510101CF
:10092000AA130101BE510101AB13AAC1ABF1A9C1C8
:10093000AAF1A9C1AAF10101A96B04EBBCF1010163
:10094000BD6BBE6B0101BC510101A9130101BD5179
:100950000101AA130101BE510101AB130101AC6BEE
:10096000AD6BAE6B0BEBACF10101AD6BAE6BADC122
:10097000AEF1ACC1ADF1ACC1ADF10101AC6B0AEBB4
:10098000BCF10101BD6BBE6B0101BC510101AC1397
:100990000101BD510101AD130101BE510101AE13B1
:1009A000ADC1AEF1ACC1ADF1ACC1ADF10101AC6B0B
:1009B00007EBBCF10101BD6BBE6B0101BC51010134
:1009C000AC130101BD510101AD130101BE51010183
:1009D000AE138C90C69A010E0101DC15E66EE66A34
:1009E0000CEBBCF10101BD6BBCBFBD69BCC1E6FF36
:1009F000BDC1E6FF0101AF51E66EE66A0450E66E46
:100A0000E66A0550E66EE66A0650E66EE66A07504C
:100A1000E66EE66A0A50E66EE66A0B50E66EE66A35
:100A2000070EE66E260EE66EE66A190EE66E010EFB
:100A3000E66EF0EC13F057E9010EE66E190EE66E65
:100A4000010EE66E33EC0BF043E90101DC2B0000F4
:100A5000000001010693035000D053E9E7CFD9FF0E
:100A60001200D9CFE6FFE1CFD9FF81E954E8016A4E
:100A7000010E026E020E036E040E046E080E056E69
:100A8000100E066E200E076E400E086E01010683E2
:100A90000B6A146AE66A010EE66EE66A92EC14F0DE
:100AA00043E98D826E0EF66E2B0EF76E0800F5CFC1
:100AB000BCF16D0EF66E2B0EF76E0800F5500101BD
:100AC000BC110209E66E02EC11F041E9F6EC10F0FF
:100AD000096EF6EC10F00A6E0AEC00F06E0EF66E7F
:100AE0002B0EF76E0800F5CFBCF16C0EF66E2B0ED8
:100AF000F76E0800F5500101BC110209E66E02EC28
:100B000011F041E9E66A02EC11F041E9E66A02EC13
:100B100011F041E90AEC00F0180E091403E1200E6F
:100B20000A1403E0010E0B6E44D06F0EF66E2B0E0E
:100B3000F76E0800F5CFBCF16D0EF66E2B0EF76E5A
:100B40000800F5500101BC11E66E02EC11F041E91C
:100B5000F6EC10F00C6EF6EC10F00D6EF6EC10F0FA
:100B60000E6EF6EC10F00F6EF6EC10F0106EF6EC68
:100B700010F0126EF6EC10F0136E09B41AD00AECF5
:100B800000F0720EF66E2B0EF76E0800F5CFBCF17A
:100B90006D0EF66E2B0EF76E0800F5500101BC11BC
:100BA000E66E02EC11F041E9F6EC10F0146E3C0E2A
:100BB000145E8D92C69A0101D950010FBC6FDACF35
:100BC000BDF110500101EA6ABC25E96EBD51EA226F
:100BD000EFCFAFF10101A96BAA6BAB6B0EEBA9F1E3
:100BE0000101AA6BAB6BAAC1ABF1A9C1AAF1A9C162
:100BF000AAF10101A96B0DEBBCF10101BD6BBE6B4C
:100C00000101BC510101A9130101BD510101AA1348
:100C10000101BE510101AB13AAC1ABF1A9C1AAF1F7
:100C2000A9C1AAF10101A96B0CEBBCF10101BD6BDB
:100C3000BE6B0101BC510101A9130101BD510101AC
:100C4000AA130101BE510101AB130101AC6BAD6BE5
:100C5000AE6B13EBACF10101AD6BAE6BADC1AEF1A0
:100C6000ACC1ADF1ACC1ADF10101AC6B12EBBCF1AB
:100C70000101BD6BBE6B0101BC510101AC1301014F
:100C8000BD510101AD130101BE510101AE13ADC152
:100C9000AEF1ACC1ADF1ACC1ADF10101AC6B0FEB8C
:100CA000BCF10101BD6BBE6B0101BC510101AC1374
:100CB0000101BD510101AD130101BE510101AE138E
:100CC0008C9014EBBCF10101BD6BBCBFBD69BCC114
:100CD000E6FFBDC1E6FF0101AF51E66EE66A0C50CA
:100CE000E66EE66A0D50E66EE66A0E50E66EE66A5D
:100CF0000F50E66EE66A1250E66EE66A1350E66E34
:100D0000E66ACA0EE66E250EE66EE66A190EE66E15
:100D1000010EE66EF0EC13F055E9010EE66E190EC9
:100D2000E66E010EE66E33EC0BF043E90101DD2BBC
:100D300000000000010106930B5000D055E9E7CFF9
:100D4000D9FF1200D9CFE6FFE1CFD9FF81E941E811
:100D500001010683E66A030EE66EE66A92EC14F081
:100D600043E98D826E0EF66E2B0EF76E0800F5CFFE
:100D7000BCF16D0EF66E2B0EF76E0800F5500101FA
:100D8000BC110309E66E02EC11F041E9F6EC10F03B
:100D9000016EC69A000000000101069342E9E7CF08
:100DA000D9FF1200D9CFE6FFE1CFD9FF81E943E8AF
:100DB00001010683E66A030EE66EE66A92EC14F021
:100DC00043E98D826E0EF66E2B0EF76E0800F5CF9E
:100DD000BCF16D0EF66E2B0EF76E0800F55001019A
:100DE000BC110209E66E02EC11F041E9F6EC10F0DC
:100DF000026EF6EC10F0036E000000000AEC00F04A
:100E00006E0EF66E2B0EF76E0800F5CFBCF16C0E71
:100E1000F66E2B0EF76E0800F5500101BC110209A9
:100E2000E66E02EC11F041E9E66A02EC11F041E9EC
:100E3000E66A02EC11F041E9000000008D92C69ACA
:100E4000000000000101069344E9E7CFD9FF12003A
:100E500090DB86E90150010600090CE002EBE6FF99
:100E600003EBE6FF00EBE6FF69DBF4E1BD1DF2E119
:100E7000010E01D0000E41E9E5CFDAFFE7CFD9FF3F
:100E8000120077DB89E97BE80A6A0B6A02EBF6FF5E
:100E900003EBF7FF04EBF8FF0800F550096E09506B
:100EA00001E12DD3250E095C01E01BD30C6A0D6A0C
:100EB0000E6A0F6A106A2DDB2D0E095C0CE02B0EFA
:100EC000095C09E0200E095C06E0230E095C03E0E2
:100ED000300E095C15E10950300A10E0130A0CE0ED
:100EE000030A08E00B0A04E0060AE5E10C80E3D7F8
:100EF0000C82E1D70C84DFD70C86DDD70C88DBD7DA
:100F00002A0E095C13E1A5DB0DE30C801CEBBCF1A0
:100F10001DEBBDF10101BC6DBD1F000EBD23BC5119
:100F20000D6E02D09CEB0DF0F4DA07D0126A3FDBB5
:100F300002E06BDBFCD792EB0DF00CB00C982E0EA0
:100F4000095C15E1E6DA2A0E095C08E182DB04E2BD
:100F50009CEB0EF0010E0F6EDCDA09D0126A27DB73
:100F600002E053DBFCD792EB0EF0010E0F6E680E21
:100F7000095C07E1CEDA680E095C1DE1030E106E14
:100F800019D0740E095C16E07A0E095C13E0480E65
:100F9000095C06E0540E095C03E05A0E095C02E1AC
:100FA000020E07D06C0E095C03E06A0E095C03E1D7
:100FB000010E106EAEDA09506E0A01E16ED21E0A01
:100FC00001E128D1200A01E125D13F0A01E1FDD04C
:100FD0001A0A01E1FAD00D0A01E1F7D0200A01E175
:100FE000F4D03A0A01E1F1D0200A01E1EED0260A5C
:100FF00001E1EAD00D0A01E1E7D01A0A01E19ED031
:10100000200A3BE0300A1AE0460A0EE0250A01E019
:1010100072D2D950020FE96E000EDA20EA6E010E8C
:10102000EE5E000EEE5AEE5A0FDB250EE66E86DA05
:1010300003E1BD1D01E159D20A2A5BD2116A0D50AC
:10104000010803E20D04116EF5DA115007E0010EFC
:101050000C1404E16DDA01E048D2116AD3DAEF50E2
:10106000096ECBDA03E1BD1D01E13FD20A2A000E71
:101070000B225EDA01E13FD238D2020E105C08E1A9
:10108000030E4EDAEE50176EEE50186EEF5007D08A
:10109000E7DABE6BBC51176EBD51186EBE51196EAA
:1010A00017EBE6FF18EBE6FF19EBE6FF92EC13F007
:1010B00043E9D8C1BCF1D9C1BDF1DAC1BEF101012A
:1010C000BC511C6EBD511D6E0F5006E01C500E5CD5
:1010D00003E20E501C6E1D6A1C500D5C02E29CEB7C
:1010E0000DF050DA05E00D500E5C02E28EEB0DF0D3
:1010F0000CB004D01DDA01E0F8D1116A126A17EBC6
:10110000F6FF18EBF7FF19EBF8FF0800F550096E32
:10111000095010E00D50125C0DE26FDA03E1BD1DC5
:1011200001E1E3D10A2A000E0B22122AD950170F2F
:1011300055DAEBD7FDD901E1DED1D7D163DAEE5034
:101140001A6EED501B6E1AEBE6FF1BEBE6FF84EC0C
:1011500013F042E9F3501C6EF4501D6E0F5006E080
:101160001C500E5C03E20E501C6E1D6A1C500D5C80
:1011700002E29CEB0DF006DA05E00D500E5C02E297
:101180008EEB0DF00CB004D0D3D901E0AED1116AD2
:10119000126A1AEBE9FF1BEBEAFFEF50096E0950E8
:1011A0000FE00D50125C0CE228DA03E1BD1D01E1F5
:1011B0009CD10A2A000E0B22122A1A2A1B22E9D7D6
:1011C000B7D901E198D191D10C8E10040AE1040E37
:1011D000A7D9EE50136EEE50146EEE50156EEF5010
:1011E00032D0030E105C16E10CAE0CD00BDAEFCF50
:1011F000BCF10101BD6BBE6BBF6BBCAF23D0BD6941
:10120000BE691FD0FFD9EFCFBCF10101BC51136EF5
:10121000146A20D0020E105C0CE10CAE06D0030E56
:101220007FD9B6D9BEAF0ED00CD0030E79D9B0D9C4
:1012300009D00CAE0AD014DABE6BBF6BBDAF02D0C2
:10124000BE69BF69BCD9166E07D00ADABC51136EED
:10125000BD51146E156A166A0F5002E1010E0E6E32
:101260001E6A1F6AD950400FE66E000EDA20E66E45
:10127000E552E550436EE750426E416A116A0A0E2C
:10128000106E0950780A12E0200A10E0280A0CE0DB
:10129000200A0AE03F0A06E00D0A02E0200A08E1FF
:1012A000020E05D0080E03D0080E0926100E106E8F
:1012B0000CBE02D00C920C94800E0C1417E0163465
:1012C00015E3E668E668E668E66842D915EC12F0D0
:1012D000E552E5CFBFF1E5CFBEF1E5CFBDF1E7CFF8
:1012E000BCF101016CD9166E2D0E07D00CA202D0F4
:1012F0002B0E03D00CA404D0200E206E1E2A01D089
:10130000206A0E5005E1135014101510161061E0FC
:101310000101580EBC6F2B0EBD6F000EBE6F83D93E
:10132000D2EC11F0E552E5CFC2F1E5CFC1F1E5CF46
:10133000C0F1E7CFBFF10101BC51BF25F36EBD5134
:10134000C021F46EBE51C121F86EF4CFF7FFF3CF88
:10135000F6FF0800F550126E580E095C05E1610EAB
:10136000125C02E3200E125E5ED9CFEC11F0E55262
:10137000E550166EE550156EE550146EE750136E8D
:1013800042EBE9FF43EBEAFF4206000E435A12EB41
:10139000EFFF1E2A1350141015101610B9E10CA6F9
:1013A00019D06F0E095C06E10E501E5C13E31E2877
:1013B0000E6E10D0780E095C09E0580E095C06E04C
:1013C000620E095C03E0420E095C04E1020E1F6E2E
:1013D00001D01E6A100E0C1407E00D500E5C04E2E2
:1013E0000F5002E18DEB0EF00E501E5C03E21E501A
:1013F0000E5E01D00E6A0E501E241F24D8800D549C
:1014000007E20E500D5CD8801E54D8801F54116E18
:10141000010E0C1406E1115004E08AD866E10AD9E5
:10142000116A205007E010D920EBE6FF87D802E1CF
:10143000BD1D5BE01F500BE007D9300EE66E7ED875
:1014400002E1BD1D52E0D9D802E1BD1D4EE00E50B3
:101450001F5C02E21F500E5E300EE66E0EEBE6FFE2
:10146000DCD843E1422A000E432242EBE9FF43EB82
:10147000EAFFEF50126E125008E0E6D812EBE6FFDA
:101480005DD8F0E1BD1DEEE130D052D82EE10E5016
:101490001E2411241F240A262CD01050030A1CE0FD
:1014A000010A14E0030A07E0ADD8C9D80AEBEEFF41
:1014B0000BEBEDFF20D08BD8BF6BBDAF02D0BE6968
:1014C000BF69A0D84ED8BFC1EEFF15D080D8BDBF30
:1014D000BE6998D846D80FD095D8B1D80AEBEFFF9F
:1014E0000AD08BD805E1BD1D03E1F368F4680BD089
:1014F0000A2A000E0B22D950020F70D8CDD40AEB65
:10150000F3FF0BEBF4FF7CE9E5CFDAFFE7CFD9FF80
:101510001200D950020F62D80800F550096E12006F
:10152000005E000E015A00EBE9FF01EBEAFF12003A
:10153000200EE66E11EBE6FF0DEF0BF05FEC14F002
:1015400043E9F3CFBCF1F4CFBDF10101F31C12006C
:1015500013EBE6FF14EBE6FF15EBE6FF16EBE6FFF9
:1015600012006DD8BCC1EEFFBDC1EEFFBEC1EEFFE3
:101570001200D9CFE6FFDACFE6FFE1CFD9FFE2CF05
:10158000DAFF12001C500D5C116E54D80F5012007F
:10159000EECFBCF1EECFBDF1EFCFBEF10101BF6BDD
:1015A0001200EECFBCF1EFCFBDF1010112000950E6
:1015B000E66EE66A5FEC15F042E9F3501200BC51AA
:1015C000136EBD51146EBE51156EBF5112000AEB61
:1015D000BCF10BEBBDF10101BE6B1200E96E000E18
:1015E000DA20EA6EEF2AEECFF6FF000EEF22EECF02
:1015F000F7FFEF22EECFF8FF120026D809EBE6FF47
:101600009EEF0AF0020E90EF0AF00A0E1202F3505B
:101610000924D00F126E89EF0AF016D828EC07F0D3
:1016200044E90009120010EBE6FFE66AE66AE66AA2
:10163000A8EF0AF011500A26000E0B221200EE50FD
:10164000EFCFEAFFE96E120005EBE6FF06EBE6FFDF
:101650001200D8DFEE501C6EED501D6E1D341200CE
:06166000D1DFD1EF0AF01A
:0A166600D9CFE6FFE1CFD9FF84E9F8
:1016700042E8046A056A00041FE101500424E96E8F
:1016800002500520EA6EEF5016E001500424E96E86
:1016900002500520EA6EEFCFE6FF48EC15F041E975
:1016A000ACA2FED7050EE66E71EC15F041E9042AF6
:1016B000000E0522E2D71ED001500424E96E02502C
:1016C0000520EA6EEF5016E001500424E96E025046
:1016D0000520EA6EEFCFE6FF31EC15F041E972A28A
:1016E000FED7050EE66E71EC15F041E9042A000EF6
:1016F0000522E2D743E9E7CFD9FF1200D9CFE6FFB1
:10170000E1CFD9FF81E955E801010591D6EC0FF051
:101710008D808D92640EE66EE66A1FEC11F042E950
:10172000F29E948E949C2A0EE66EE66A7C0EE66E1D
:1017300029EC14F043E9B886030EE66E010EE66E5E
:101740007C0EE66EB7EC13F043E970868C80E80EF1
:10175000E66E030EE66E1FEC11F042E98C82E80E95
:10176000E66E030EE66E1FEC11F042E98C84E80E83
:10177000E66E030EE66E1FEC11F042E98C86E80E71
:10178000E66E030EE66E1FEC11F042E98C88E80E5F
:10179000E66E030EE66E1FEC11F042E98C8AE80E4D
:1017A000E66E030EE66E1FEC11F042E98C90E80E37
:1017B000E66E030EE66E1FEC11F042E98C92E80E25
:1017C000E66E030EE66E1FEC11F042E98C94E80E13
:1017D000E66E030EE66E1FEC11F042E98C96E80E01
:1017E000E66E030EE66E1FEC11F042E98C98E80EEF
:1017F000E66E030EE66E1FEC11F042E98C9AB2EC35
:101800000EF0D8C1BCF1D9C1BDF1DAC1BEF1DBC166
:10181000BFF10101BC510F6EBD51106EBE51116E72
:10182000BF51126E0FEBBCF110EBBDF111EBBEF12D
:1018300012EBBFF10101BC510A6ED9500F0FE96ED6
:10184000DACFEAFF080EE76ED890030EEB32020EF5
:10185000EB32010EEB32EF32E706F6E10FEBBCF1B3
:1018600010EBBDF111EBBEF112EBBFF10101BC5168
:10187000096ED9500F0FE96EDACFEAFF080EE76E56
:10188000D890030EEB32020EEB32010EEB32EF3248
:10189000E706F6E10FEBBCF110EBBDF111EBBEF189
:1018A00012EBBFF10101BC51086ED9500F0FE96E68
:1018B000DACFEAFF080EE76ED890030EEB32020E85
:1018C000EB32010EEB32EF32E706F6E10FEBBCF143
:1018D00010EBBDF111EBBEF112EBBFF10101BC51F8
:1018E000076E00000A50E66EE66A0950E66EE66A88
:1018F0000850E66EE66A0750E66EE66A4B0EE66E44
:10190000250EE66EE66A190EE66E010EE66EF0EC46
:1019100013F04DE9010EE66E190EE66E010EE66E4D
:10192000A2DE43E901010597320EE66E250EE66E52
:10193000E66A190EE66E010EE66E6BEC13F045E9F1
:10194000010EE66E190EE66E010EE66E8CDE43E9C0
:10195000F28E230EE66E250EE66EE66A190EE66E30
:10196000010EE66E6BEC13F045E9010EE66E190E02
:10197000E66E010EE66E77DE43E90101B66B300ECE
:10198000B76F140EB86F0101020EB96F030EBA6F74
:10199000180EBB6FA2EC06F0036E0000000010EC06
:1019A00000F0B6C1B0F1B7C1B1F1B8C1B2F1B9C17F
:1019B000B3F1BAC1B4F1BBC1B5F100EC01F031EC47
:1019C00005F0D2EC06F00101059100008D90010EAA
:1019D000E66EE66A1FEC11F042E96A0EF66E2B0E17
:1019E000F76E0800F5CFE6FF02EC11F041E9080EB2
:1019F000E66E02EC11F041E9F6EC10F0136EF6EC35
:101A000010F0146EF6EC10F0156E1550E66EE66AE6
:101A10001450E66EE66A1350E66EE66AE00EE66E75
:101A2000240EE66EE66A190EE66E010EE66EF0EC26
:101A300013F04BE9010EE66E190EE66E010EE66E2E
:101A400012DE43E98C80E80EE66E030EE66E1FECB4
:101A500011F042E98C92E80EE66E030EE66E1FEC82
:101A600011F042E98D8000000000B0D78C80E80EB4
:101A7000E66E030EE66E1FEC11F042E98C92E80E62
:101A8000E66E030EE66E1FEC11F042E917EC03F070
:101A900031EC05F0036E035003E0000010EC00F0A1
:101AA0000000080E0B6E0BEBE6FF6FEC02F041E955
:101AB0000101B06B470EB16F140EB26F0101080E39
:101AC000B36F040EB46F160EB56F0000000031EC5A
:101AD00005F0036EE80EE66E030EE66E1FEC11F0E5
:101AE00042E931EC05F0036E01010591016A020E35
:101AF0000B6E010105A194D08C800101059124ECAD
:101B00000EF0D8C1BCF1D9C1BDF1DAC1BEF1DBC163
:101B1000BFF10101BC510F6EBD51106EBE51116E6F
:101B2000BF51126E0FEBBCF110EBBDF111EBBEF12A
:101B300012EBBFF10101BC510A6ED9500F0FE96ED3
:101B4000DACFEAFF080EE76ED890030EEB32020EF2
:101B5000EB32010EEB32EF32E706F6E10FEBBCF1B0
:101B600010EBBDF111EBBEF112EBBFF10101BC5165
:101B7000096ED9500F0FE96EDACFEAFF080EE76E53
:101B8000D890030EEB32020EEB32010EEB32EF3245
:101B9000E706F6E10FEBBCF110EBBDF111EBBEF186
:101BA00012EBBFF10101BC51086E01010551100B90
:101BB00001E0010EE66EE66A08EBBCF10101BD6BC7
:101BC000BCBFBD69BCC1E6FFBDC1E6FF09EBBEF10C
:101BD0000101BF6BBEBFBF69BEC1E6FFBFC1E6FF6B
:101BE0000AEBC0F10101C16BC0BFC169C0C1E6FF12
:101BF000C1C1E6FFCC0EE66E240EE66EE66A190E53
:101C0000E66E010EE66EF0EC13F04DE9010EE66EA5
:101C1000190EE66E010EE66E26DD43E90101057937
:101C20000000000066D7E80EE66E030EE66E1FECBD
:0C1C300011F042E956E9E7CFD9FF12009D
:041C3C008D80000097
:101C4000000000008D901200D9CFE6FFE1CFD9FF50
:101C500081E947E801010683E66A030EE66EE66A5B
:101C600092EC14F043E98D900000000000006A0E31
:101C7000F66E2B0EF76E0800F5CFE6FF02EC11F0C2
:101C800041E9080EE66E02EC11F041E9F6EC10F0C5
:101C9000016EF6EC10F0026EF6EC10F0036E8D8023
:101CA000C69A03EBBCF10101BC51046E056A066AD9
:101CB000076AD950040FE96EDACFEAFFEF50EE6AF7
:101CC000EFCFF4FFEE6EEF50F4CFEEFFEF6E02EBCE
:101CD000BCF10101BD6BBE6BBF6BD950040FE96E47
:101CE000DACFEAFF0101BC51EE120101BD51EE1243
:101CF0000101BE51EE120101BF51EE12D950040F85
:101D0000E96EDACFEAFFEF50EE6AEFCFF4FFEE6E46
:101D1000EF50F4CFEEFFEF6E01EBBCF10101BD6BB4
:101D2000BE6BBF6BD950040FE96EDACFEAFF010139
:101D3000BC51EE120101BD51EE120101BE51EE1275
:101D40000101BF51EE120101069304EBD8F105EB3E
:101D5000D9F106EBDAF107EBDBF100D048E9E7CF88
:101D6000D9FF1200D9CFE6FFE1CFD9FF81E948E8DA
:101D700001010683E66A030EE66EE66A92EC14F051
:101D800043E98D90690EF66E2B0EF76E0800F5CFC5
:101D9000E6FF02EC11F041E91F0EE66E02EC11F0D5
:101DA00041E9520EE66E02EC11F041E9010EE66ED9
:101DB000E66A1FEC11F042E941DF010EE66EE66AC9
:101DC0001FEC11F042E9690EF66E2B0EF76E08005B
:101DD000F5CFE6FF02EC11F041E9200EE66E02ECD1
:101DE00011F041E97A0EE66E02EC11F041E9E66A83
:101DF00002EC11F041E9010EE66E02EC11F041E94E
:101E0000960EE66E02EC11F041E9E66A02EC11F082
:101E100041E9E66A02EC11F041E9E66A02EC11F0F0
:101E200041E93F0EE66E02EC11F041E9E66A02EC90
:101E300011F041E9800EE66E02EC11F041E9900EDE
:101E4000E66E02EC11F041E9E66A02EC11F041E9BC
:101E5000500EE66E02EC11F041E90A0EE66E02EC5D
:101E600011F041E9EBDE6A0EF66E2B0EF76E0800FC
:101E7000F5CFE6FF02EC11F041E9E66A02EC11F061
:101E800041E9F6EC10F0016EF6EC10F0026EF6ECA3
:101E900010F0036EF6EC10F0046E8D80C69A01EB24
:101EA000BCF10101BC51056E066A076A086AD95087
:101EB000050FE96EDACFEAFFEF50EE6AEFCFF4FFDD
:101EC000EE6EEF50F4CFEEFFEF6E02EBBCF10101CE
:101ED000BD6BBE6BBF6BD950050FE96EDACFEAFF61
:101EE0000101BC51EE120101BD51EE120101BE51C2
:101EF000EE120101BF51EE12D950050FE96EDACF93
:101F0000EAFFEF50EE6AEFCFF4FFEE6EEF50F4CF42
:101F1000EEFFEF6E03EBBCF10101BD6BBE6BBF6B5F
:101F2000D950050FE96EDACFEAFF0101BC51EE127C
:101F30000101BD51EE120101BE51EE120101BF516E
:101F4000EE12D950050FE96EDACFEAFFEF50EE6AD4
:101F5000EFCFF4FFEE6EEF50F4CFEEFFEF6E04EB39
:101F6000BCF10101BD6BBE6BBF6BD950050FE96EB3
:101F7000DACFEAFF0101BC51EE120101BD51EE12B0
:101F80000101BE51EE120101BF51EE12000001012C
:101F9000069305EBD8F106EBD9F107EBDAF108EB84
:0C1FA000DBF100D049E9E7CFD9FF1200C7
:041FAC000F01386B7E
:101FB000396B3A6B3B6B806AE30E926E180E896E3A
:101FC000816A1B0E936E8C6A956A010E8D6E966AFD
:101FD000FE0EE66EFFEC14F041E9BC6ABB689E920F
:101FE000000EE66EE66A19EC15F042E90101006B9D
:101FF0000101016B0101026B0101036BE0EC14F0C4
:10200000C1EC14F0F19E010105930101026B010185
:10201000006B0101096B010105950101036B0101D1
:10202000016B0101996B1200D9CFE6FFE1CFD9FF17
:1020300087E95AE8076A086A030E096E0A6A020EFF
:102040000B6E0C6A050E0D6E0E6A0F6A106A030E97
:10205000116E126A050E136E146A010E156E166A61
:10206000040E176E186A060E196E1A6A020E1B6E9F
:102070001C6A040E1D6E1E6A030ED89003BE03D0A8
:10208000025C000E035802E3000E01D0010E045E54
:10209000000E055A070EE66EE66A040EE66EE66A64
:1020A00004EBE6FF05EBE6FF4BEC11F00101FE0E41
:1020B000E3500424C46F41E9E5500520C56F640E68
:1020C000E66EE66A04EBE6FF05EBE6FF4BEC11F08B
:1020D000E552E5CFC7F1E7CFC6F10101C6510101D5
:1020E000C45D0101C26F0101C7510101C559010160
:1020F000C36F900EE66E010EE66E04EBE6FF05EB95
:10210000E6FF4BEC11F0E552E5CFC9F1E7CFC8F19E
:1021100001010101C2510101C8250101C06F010186
:102120000101C3510101C9210101C16F0101D95050
:10213000070FCA6FDACFCBF101010204CC6F000E9A
:102140000358CD6F0101D890CC37CD370101010183
:10215000CA510101CC25E96E01010101CB510101F8
:10216000CD21EA6E01010101C051EE240101BE6FD3
:1021700001010101C151EE200101BF6F00500101B9
:10218000BE250101BC6F01500101BF210101BD6FDE
:10219000BCC1E6FFBDC1E6FF96EC11F0E552E5508B
:1021A000206EE7501F6E00001FEBF3FF20EBF4FFE3
:1021B00000D05BE9E7CFD9FF1200D9CFE6FFE1CF2E
:1021C000D9FF82E941E8F00E0014026E02380F0BCD
:1021D000026E0A0E0202F350026E0F0E0014022667
:1021E000025000D042E9E7CFD9FF1200C96AD66A8F
:1021F000C750010B04E1140ED65C01E2F9D7C950B7
:1022000000D01200D9CFE6FFE1CFD9FF82E941E843
:1022100000EBC9FFC6AE03D0FF0E0DD008D0D66AC2
:10222000C750010B04E1140ED65C01E2F9D7C95086
:10223000026E025000D042E9E7CFD9FF1200D9CF99
:10224000E6FFE1CFD9FF83E944E8036A046A00505E
:10225000035C015004580FE2056A066A630E055CD0
:10226000000E065804E2052A000E0622F7D7032ABC
:0E227000000E0422ECD745E9E7CFD9FF12009B
:02227E0043E833
:10228000D9CFE6FFDACFE6FFE1CFD9FFE2CFDAFF21
:1022900089E9066A1200F3DF068001D0F0DF01AEA3
:1022A00058EF11F0006C011EE86A012206B0067EAC
:1022B00003AE60EF11F0026C031EE86A0322067E93
:1022C00098EC11F003BE82EF11F006AE08D0026C5C
:1022D000031EE86A0322046C051EE86A052206B0A4
:1022E00006D084EB00F085EB01F006A004D082EB71
:1022F00000F083EB01F0E552E5CFDAFFE7CFD9FF3D
:1023000045E9000C06BE67EF11F0E9DFFF0C43E87A
:10231000D9CFE6FFDACFE6FFE1CFD9FFE2CFDAFF90
:1023200089E9066A1200F3DF068003D0F0DF01D0EE
:102330000682056A046A100EE76ED89002360336EC
:10234000043605360050045C0150055805E3005082
:10235000045E0150055A022AE72EF0D706B2120099
:1023600006B006D084EB00F085EB01F006A004D0A7
:1023700082EB00F083EB01F0E552E5CFDAFFE7CF27
:10238000D9FF45E9120045E8D9CFE6FFDACFE6FFED
:10239000E1CFD9FFE2CFDAFF8FE90C6A1200F3DF59
:1023A0000C8003D0F0DF01D00C820B6A0A6A096A44
:1023B000086A200EE76ED8900436053606360736D2
:1023C000083609360A360B360050085C01500958A9
:1023D00002500A5803500B5809E30050085E0150A0
:1023E000095A02500A5A03500B5A042AE72EE4D71E
:1023F0000CB212000CB00AD088EB00F089EB01F0AF
:102400008AEB02F08BEB03F00CA008D084EB00F019
:1024100085EB01F086EB02F087EB03F0E552E5CFA8
:10242000DAFFE7CFD9FF49E9120044E8D9CFE6FF48
:10243000DACFE6FFE1CFD9FFE2CFDAFF8EE980EB1A
:1024400008F081EB09F082EB0AF083EB0BF004500B
:102450000802F350006EF450016E04500902F3506C
:102460000126000EF420026E04500A02F3500226E8
:10247000000EF420036E04500B02F35003260550A7
:102480000802F3500126F4500222000E03220550E8
:102490000902F3500226F450032205500A02F350B9
:1024A000032606500802F3500226F4500322065079
:1024B0000902F350032607500802F3500326E552A1
:0C24C000E5CFDAFFE7CFD9FF48E9000CB8
:0424CC002025336430
:1024D00009253364092533640925640D0A0D0A00B2
:1024E0000C0D0A2055746CE4736E696E672061767A
:1024F00020782C792C7A200D0A0D0A205809307882
:1025000025303258200D0A205909307825303258AC
:10251000200D0A205A0909307825303258200D0A3A
:102520000D0A000D0A205256333034393A0D0A0D87
:102530000A00204E4D45412047656E657261746FFB
:1025400072200D0A0D0A0D0A0D0A000C0D0A204119
:1025500044584C33363220496E69743A0D0A0D0ADC
:102560002044455649445F4144093078253032586B
:10257000202830784144290D0A2044455649445FBB
:102580004D53540930782530325820283078314462
:10259000290D0A2050415254494409093078253008
:1025A0003258202830784632290D0A2052455649A3
:1025B0004409093078253032582028307830312FBE
:1025C00030783032290D0A0D0A000C0D0A20253012
:1025D00032582D253032582D253032582046756E10
:1025E000676172617220253032583A253032583A8C
:1025F00025303258203078253032582020252B6461
:1026000027430D0A0D0A0009253032582D25303296
:10261000582D2530325820253032583A253032583E
:102620003A25303258203078253032582020252B5A
:08263000642743092564090039
:08263800060EF66E000EF76EAF
:10264000000EF86E01010900F550D36F0900F55036
:10265000D46F03E1D36701D03DD00900F550CE6FB0
:102660000900F550CF6F0900F550D06F090009003F
:10267000F550E96E0900F550EA6E090009000900FD
:10268000F550D16F0900F550D26F09000900F6CF5F
:10269000D5F1F7CFD6F1F8CFD7F1CEC1F6FFCFC144
:1026A000F7FFD0C1F8FF0101D15302E1D25307E097
:1026B0000900F550EE6ED107F8E2D207F9D7D5C17F
:1026C000F6FFD6C1F7FFD7C1F8FF0101D307000E0F
:0626D000D45BBFD712002D
:0A26D600FB0EE3CFF6FFFC0EE3CF8E
:1026E000F7FFFD0EE3CFF8FFFE0EE3CFE9FFFF0E8D
:1026F000E3CFEAFFE9CFF3FFEACFF4FF0900F5CF1C
:10270000EFFFEE66FBD71200FE0EE3CFE9FFFF0EF0
:10271000E3CFEAFFF36AF46AEE5203E0F34AF42AE5
:10272000FBD71200FF0EE3CFF8FFE552FF0EE3CF19
:10273000F7FFE552FF0EE3CFF6FFE552E66AE66AE1
:10274000E66A0900F55209E0FD0EE32A05E1FE0EF6
:10275000E32A02E1FF0EE32AF4D7FD0EE3CFD8F11E
:0E276000FE0EE3CFD9F1FF0EE3CFDAF1120047
:02276E00D9CFC1
:10277000E6FFDACFE6FFE1CFD9FFE2CFDAFF85E966
:10278000726A716A02B0728802A202D0728C718C75
:1027900002B4728E02A602D0718801D0718A02A89A
:1027A00002D0728401D0729402BA718602AC02D057
:1027B000A38A01D0A39A02AE02D0A38801D0A39825
:1027C00000EB75FF010101EBBCF1BD6BBCC176FFF5
:1027D000728A718E41E9E5CFDAFFE7CFD9FF1200A7
:1027E000D9CFE6FFDACFE6FFE1CFD9FFE2CFDAFFBC
:1027F00087E944E8D9CFE6FFDACFE6FFE552E550B6
:102800000A6EE750096E09EBE6FF0AEBE6FF00EB04
:10281000E6FF01EBE6FF02EBE6FFD950030FE66EA1
:10282000000EDA20E66E41EC07F047E9F350076E40
:10283000F450086E03EBE9FF04EBEAFFEF6A07EBE5
:10284000F3FF08EBF4FF45E9E5CFDAFFE7CFD9FF67
:02285000120074
:0E285200D9CFE6FFDACFE6FFE1CFD9FFE2CF24
:10286000DAFF85E9AC6AAB6A02B0AC8802A202D09A
:10287000AC8CAB8C02B4AC8E02A602D0AB8801D07B
:10288000AB8A02B8AC8402BAAB8602AC02D09D8A95
:1028900001D09D9A02AE02D09D8801D09D9800EB98
:1028A000AFFF010101EBBCF1BD6BBCC1B0FFAC8A55
:0E28B000AB8E41E9E5CFDAFFE7CFD9FF12008A
:0228BE00D9CF70
:1028C000E6FFDACFE6FFE1CFD9FFE2CFDAFF85E915
:1028D000013415E200EBE9FF01EBEAFFEECFF3FF75
:1028E000EDCFF4FFEE2A000EEF22F3CFE9FFF4CF95
:1028F000EAFF02EBEFFFEF50F36EF46A0DD0FE0E2D
:10290000005C05E102EBE6FF91EC15F004D002EB70
:10291000E6FFBBEC15F041E941E9E5CFDAFFE7CF8F
:04292000D9FF1200C9
:0C292400D9CFE6FFDACFE6FFE1CFD9FF04
:10293000E2CFDAFF85E93F0EC716C66A0250C6121B
:102940000050C7120150030A09E0010A04E0020A1C
:1029500006E1C78C04D0C78CC68801D0C688025057
:10296000050A03E0010A03E1928A948601D0949655
:102970009488949AC68A41E9E5CFDAFFE7CFD9FF78
:02298000120043
:0E298200D9CFE6FFDACFE6FFE1CFD9FFE2CFF3
:10299000DAFF82E941E8F20E0101DF1771AC03D0E2
:1029A000DF9171B0DF8171B4DF8571B2DF87745060
:1029B000026E025042E9E5CFDAFFE7CFD9FF1200FD
:1029C000D9CFE6FFDACFE6FFE1CFD9FFE2CFDAFFDA
:1029D00082E941E8F20E0101E017ABAC03D0E091CF
:1029E000ABB0E081ABB4E085ABB2E087AE50026E35
:0E29F000025042E9E5CFDAFFE7CFD9FF12002F
:0229FE00D9CF2F
:102A0000E6FFDACFE6FFE1CFD9FFE2CFDAFF83E9D5
:102A1000FB0E0014BA6EBC6A9E9200AE02D09D827C
:102A200001D09D92BA8441E9E5CFDAFFE7CFD9FF23
:022A3000120092
:0E2A3200D9CFE6FFDACFE6FFE1CFD9FFE2CF42
:102A4000DAFF84E942E880EB04F081EB05F005EB66
:102A5000B3FF04EBB2FF43E9E5CFDAFFE7CFD9FFDD
:022A6000120062
:0E2A6200D9CFE6FFDACFE6FFE1CFD9FFE2CF12
:102A7000DAFF83E972AC04D072900101DFB3728097
:102A800000EB73FF41E9E5CFDAFFE7CFD9FF120092
:102A9000D9CFE6FFDACFE6FFE1CFD9FFE2CFDAFF09
:102AA00083E9ACAC04D0AC900101E0B3AC8000EBA6
:0E2AB000ADFF41E9E5CFDAFFE7CFD9FF120015
:022ABE00F36AB9
:102AC000F46AFF0EE124E96EFF0EE220EA6EED6685
:102AD00007D02F0EEF6404D03A0EEF6001D0F32A36
:022AE0001200E2
:0E2AE200FF0EE3500101DE6F1A0E00D000D08F
:102AF00001D0200EE76EE72EFED7DE2FFAD700D0EA
:022B00001200C1
:0E2B0200000EF36E00EE00F0060E01D8120079
:102B1000EA6002D0EE6AFCD7F350E9601200EE6A78
:022B2000FCD7E0
:0E2B2200FF0EE350ACBA04D0AF6AAB8EAC8AA3
:0E2B3000949CACA2FED7AD6EF36EF46A120058
:022B3E0015EE92
:102B400000F025EE00F0F86A1CEC13F0BCEC15F078
:082B50007EEC0BF0FBD7120034
:082B58003031323334353637D9
:092B6000383961626364656600A6
:072B69000A0B0D00800008BB
:062B700010182028303887
:022B760012004B
:022B7800120049
:022B7A00000059
:020000040030CA
:0100010021DD
:0100030014E8
:0100060045B4
:010008000FE8
:00000001FF
