:020000040000FA
:060000003DEF10F01200BC
:020006000000F8
:0800080090DB86E901500106BE
:1000100000090CE002EBE6FF03EBE6FF00EBE6FF76
:1000200069DBF4E1DD1DF2E1010E01D0000E41E9D2
:10003000E5CFDAFFE7CFD9FF120077DB89E97BE86C
:100040000A6A0B6A02EBF6FF03EBF7FF04EBF8FF1B
:100050000800F550096E095001E12DD3250E095C09
:1000600001E01BD30C6A0D6A0E6A0F6A106A2DDB61
:100070002D0E095C0CE02B0E095C09E0200E095CDA
:1000800006E0230E095C03E0300E095C15E109501F
:10009000300A10E0130A0CE0030A08E00B0A04E03F
:1000A000060AE5E10C80E3D70C82E1D70C84DFD7A8
:1000B0000C86DDD70C88DBD72A0E095C13E1A5DBA3
:1000C0000DE30C801CEBDCF11DEBDDF10101DC6DBF
:1000D000DD1F000EDD23DC510D6E02D09CEB0DF018
:1000E000F4DA07D0126A3FDB02E06BDBFCD792EB5D
:1000F0000DF00CB00C982E0E095C15E1E6DA2A0E14
:10010000095C08E182DB04E29CEB0EF0010E0F6E4D
:10011000DCDA09D0126A27DB02E053DBFCD792EB72
:100120000EF0010E0F6E680E095C07E1CEDA680E64
:10013000095C1DE1030E106E19D0740E095C16E007
:100140007A0E095C13E0480E095C06E0540E095C67
:1001500003E05A0E095C02E1020E07D06C0E095C46
:1001600003E06A0E095C03E1010E106EAEDA09507D
:100170006E0A01E16ED21E0A01E128D1200A01E1D6
:1001800025D13F0A01E1FDD01A0A01E1FAD00D0A9A
:1001900001E1F7D0200A01E1F4D03A0A01E1F1D0FF
:1001A000200A01E1EED0260A01E1EAD00D0A01E1C0
:1001B000E7D01A0A01E19ED0200A3BE0300A1AE09B
:1001C000460A0EE0250A01E072D2D950020FE96E0C
:1001D000000EDA20EA6E010EEE5E000EEE5AEE5AC6
:1001E0000FDB250EE66E86DA03E1DD1D01E159D253
:1001F0000A2A5BD2116A0D50010803E20D04116E48
:10020000F5DA115007E0010E0C1404E16DDA01E09B
:1002100048D2116AD3DAEF50096ECBDA03E1DD1D63
:1002200001E13FD20A2A000E0B225EDA01E13FD241
:1002300038D2020E105C08E1030E4EDAEE50176E53
:10024000EE50186EEF5007D0E7DADE6BDC51176E18
:10025000DD51186EDE51196E17EBE6FF18EBE6FF65
:1002600019EBE6FF8BEC0EF043E9F8C1DCF1F9C1C4
:10027000DDF1FAC1DEF10101DC511C6EDD511D6EB4
:100280000F5006E01C500E5C03E20E501C6E1D6AFF
:100290001C500D5C02E29CEB0DF050DA05E00D50B5
:1002A0000E5C02E28EEB0DF00CB004D01DDA01E022
:1002B000F8D1116A126A17EBF6FF18EBF7FF19EB8A
:1002C000F8FF0800F550096E095010E00D50125C5F
:1002D0000DE26FDA03E1DD1D01E1E3D10A2A000E30
:1002E0000B22122AD950170F55DAEBD7FDD901E1AD
:1002F000DED1D7D163DAEE501A6EED501B6E1AEBD9
:10030000E6FF1BEBE6FF7DEC0EF042E9F3501C6EBE
:10031000F4501D6E0F5006E01C500E5C03E20E50B0
:100320001C6E1D6A1C500D5C02E29CEB0DF006DA9F
:1003300005E00D500E5C02E28EEB0DF00CB004D027
:10034000D3D901E0AED1116A126A1AEBE9FF1BEBB7
:10035000EAFFEF50096E09500FE00D50125C0CE2FD
:1003600028DA03E1DD1D01E19CD10A2A000E0B22EF
:10037000122A1A2A1B22E9D7B7D901E198D191D1C3
:100380000C8E10040AE1040EA7D9EE50136EEE5045
:10039000146EEE50156EEF5032D0030E105C16E165
:1003A0000CAE0CD00BDAEFCFDCF10101DD6BDE6BB4
:1003B000DF6BDCAF23D0DD69DE691FD0FFD9EFCF63
:1003C000DCF10101DC51136E146A20D0020E105CC6
:1003D0000CE10CAE06D0030E7FD9B6D9DEAF0ED03D
:1003E0000CD0030E79D9B0D909D00CAE0AD014DAEA
:1003F000DE6BDF6BDDAF02D0DE69DF69BCD9166E64
:1004000007D00ADADC51136EDD51146E156A166AD4
:100410000F5002E1010E0E6E1E6A1F6AD950400F86
:10042000E66E000EDA20E66EE552E550436EE750C8
:10043000426E416A116A0A0E106E0950780A12E083
:10044000200A10E0280A0CE0200A0AE03F0A06E031
:100450000D0A02E0200A08E1020E05D0080E03D0C2
:10046000080E0926100E106E0CBE02D00C920C94D1
:10047000800E0C1417E0163415E3E668E668E668AB
:10048000E66842D9CBEC0AF0E552E5CFDFF1E5CFE3
:10049000DEF1E5CFDDF1E7CFDCF101016CD9166EBD
:1004A0002D0E07D00CA202D02B0E03D00CA404D02A
:1004B000200E206E1E2A01D0206A0E5005E1135036
:1004C00014101510161061E00101AE0EDC6F200E45
:1004D000DD6F000EDE6F83D988EC0AF0E552E5CFC0
:1004E000E2F1E5CFE1F1E5CFE0F1E7CFDFF10101A6
:1004F000DC51DF25F36EDD51E021F46EDE51E121A8
:10050000F86EF4CFF7FFF3CFF6FF0800F550126E48
:10051000580E095C05E1610E125C02E3200E125ECA
:100520005ED985EC0AF0E552E550166EE550156E81
:10053000E550146EE750136E42EBE9FF43EBEAFF20
:100540004206000E435A12EBEFFF1E2A13501410FE
:1005500015101610B9E10CA619D06F0E095C06E152
:100560000E501E5C13E31E280E6E10D0780E095C30
:1005700009E0580E095C06E0620E095C03E0420ED9
:10058000095C04E1020E1F6E01D01E6A100E0C14ED
:1005900007E00D500E5C04E20F5002E18DEB0EF00F
:1005A0000E501E5C03E21E500E5E01D00E6A0E500D
:1005B0001E241F24D8800D5407E20E500D5CD880F5
:1005C0001E54D8801F54116E010E0C1406E11150F8
:1005D00004E08AD866E10AD9116A205007E010D9F0
:1005E00020EBE6FF87D802E1DD1D5BE01F500BE04A
:1005F00007D9300EE66E7ED802E1DD1D52E0D9D873
:1006000002E1DD1D4EE00E501F5C02E21F500E5E47
:10061000300EE66E0EEBE6FFDCD843E1422A000E18
:10062000432242EBE9FF43EBEAFFEF50126E125018
:1006300008E0E6D812EBE6FF5DD8F0E1DD1DEEE163
:1006400030D052D82EE10E501E2411241F240A2629
:100650002CD01050030A1CE0010A14E0030A07E042
:10066000ADD8C9D80AEBEEFF0BEBEDFF20D08BD84D
:10067000DF6BDDAF02D0DE69DF69A0D84ED8DFC105
:10068000EEFF15D080D8DDBFDE6998D846D80FD0F0
:1006900095D8B1D80AEBEFFF0AD08BD805E1DD1D64
:1006A00003E1F368F4680BD00A2A000E0B22D9503C
:1006B000020F70D8CDD40AEBF3FF0BEBF4FF7CE90B
:1006C000E5CFDAFFE7CFD9FF1200D950020F62D889
:1006D0000800F550096E1200005E000E015A00EB92
:1006E000E9FF01EBEAFF1200200EE66E11EBE6FFD8
:1006F000E9EF03F0B0EC0EF043E9F3CFDCF1F4CF17
:10070000DDF10101F31C120013EBE6FF14EBE6FF31
:1007100015EBE6FF16EBE6FF12006DD8DCC1EEFF2D
:10072000DDC1EEFFDEC1EEFF1200D9CFE6FFDACF6A
:10073000E6FFE1CFD9FFE2CFDAFF12001C500D5CDB
:10074000116E54D80F501200EECFDCF1EECFDDF178
:10075000EFCFDEF10101DF6B1200EECFDCF1EFCF66
:10076000DDF1010112000950E66EE66AFDEC0FF0C2
:1007700042E9F3501200DC51136EDD51146EDE516C
:10078000156EDF5112000AEBDCF10BEBDDF101011C
:10079000DE6B1200E96E000EDA20EA6EEF2AEECF71
:1007A000F6FF000EEF22EECFF7FFEF22EECFF8FFBD
:1007B000120026D809EBE6FF7AEF03F0020E6CEF89
:1007C00003F00A0E1202F3500924D00F126E65EFE7
:1007D00003F016D804EC00F044E90009120010EB15
:1007E000E6FFE66AE66AE66A84EF03F011500A263D
:1007F000000E0B221200EE50EFCFEAFFE96E12005E
:1008000005EBE6FF06EBE6FF1200D8DFEE501C6EAC
:0E081000ED501D6E1D341200D1DFADEF03F070
:02081E00D9CF30
:10082000E6FFE1CFD9FF84E942E8046A056A0004E3
:100830001FE101500424E96E02500520EA6EEF50DA
:1008400016E001500424E96E02500520EA6EEFCF55
:10085000E6FFE6EC0FF041E9ACA2FED7050EE66E2E
:100860000FEC10F041E9042A000E0522E2D71ED059
:1008700001500424E96E02500520EA6EEF5016E0A4
:1008800001500424E96E02500520EA6EEFCFE6FF26
:10089000CFEC0FF041E972A2FED7050EE66E0FEC29
:1008A00010F041E9042A000E0522E2D743E9E7CF20
:1008B000D9FF1200D9CFE6FFE1CFD9FF81E95AE88D
:1008C000196A1A6AF5EC06F012EC07F0000EE66EF3
:1008D000E66A87EC0FF042E90101006B0101016B50
:1008E0000101026B0101036B31EC0FF012EC0FF010
:1008F000F19E010105930101026B0101006B0101F1
:10090000096B010105950101036B0101016B0101F7
:10091000A96B948E949C0C0EE66EE66A7C0EE66ED5
:1009200047EC0EF043E9B88670868984898A010E07
:10093000E66EE66A33EC08F042E9899AE66A030E4D
:10094000E66EE66AE3EC0EF043E989980000240EB7
:10095000E66E50EC0FF041E9800EE66E50EC0FF0C1
:1009600041E90A0EE66EE66A33EC08F042E909EC6A
:100970000CF0200EE66E50EC0FF041E9770EE66EBB
:1009800050EC0FF041E90A0EE66EE66A33EC08F02F
:1009900042E909EC0CF08F0EE66E50EC0FF041E9E5
:1009A000FAEC07F0026E8988C69A8D800A0EE66E10
:1009B000E66A33EC08F042E98D900250E66EE66A92
:1009C000150EE66E1A0EE66EE66A290EE66E010E4A
:1009D000E66E0EEC0EF047E9010EE66E290EE66EAD
:1009E000010EE66E1CDF43E90A0EE66EE66A33ECA2
:1009F00008F042E9E66A030EE66EE66AE3EC0EF002
:100A000043E989980000A80EE66E50EC0FF041E92A
:100A1000FAEC07F0076EFAEC07F0086EFAEC07F054
:100A2000096EFAEC07F00A6EFAEC07F00B6EFAECBE
:100A300007F00C6E8988C69A08EBE6FF07EBE6FF25
:100A400053EC08F042E9F3500D6EF4500E6E0AEBD1
:100A5000E6FF09EBE6FF53EC08F042E9F3500F6EB6
:100A6000F450106E0CEBE6FF0BEBE6FF53EC08F0D6
:100A700042E9F350116EF450126E640EE66EE66AAF
:100A80000DEBE6FF0EEBE6FFCDEC09F0E552E5508D
:100A9000146EE750136E640EE66EE66A0FEBE6FF27
:100AA00010EBE6FFCDEC09F0E552E550166EE7508D
:100AB000156E640EE66EE66A11EBE6FF12EBE6FFDA
:100AC000CDEC09F0E552E550186EE750176E17EBC4
:100AD000E6FF18EBE6FF15EBE6FF16EBE6FF13EB80
:100AE000E6FF14EBE6FFE40EE66E190EE66EE66A2C
:100AF000290EE66E010EE66E0EEC0EF04BE9010ECD
:100B0000E66E290EE66E010EE66E89DE43E9010E01
:100B1000E66EE66A33EC08F042E9640EE66EE66AD9
:100B200033EC08F042E98B8E8150200B01E0010E7E
:100B3000196E1A6A19501A1018E119EBE6FF1AEB30
:100B4000E6FFBF0EE66E190EE66EE66A290EE66E49
:100B5000010EE66E0EEC0EF047E9010EE66E290E70
:100B6000E66E010EE66E5BDE43E9E66AE66A010EBA
:100B7000E66EE3EC0EF043E925EC0BF0DAEC0BF05B
:100B800034EC0BF0DAEC0BF01CEC0BF0010EE66E23
:100B900050EC0FF041E98C88010EE66EE66A33EC0A
:100BA00008F042E9DAEC0BF0026EFF0E025C33E172
:100BB000016A040E015C15E2FAEC07F0E66E010131
:100BC000D950060FDC6FDACFDDF101500101EA6A7E
:100BD000DC25E96EDD51EA22E552E750EF6E012A8D
:100BE000E8D70950E66EE66A0850E66EE66A9C0EA3
:100BF000E66E190EE66EE66A290EE66E010EE66EE8
:100C00000EEC0EF049E9010EE66E290EE66E010EBD
:100C1000E66E05DE43E98C88C69AE80EE66E030EA2
:100C2000E66E33EC08F042E9E5D6180E6E6EE66A21
:100C3000080EE66E9FEC0FF042E96B806BB0FED7BA
:100C4000640EE66ED0EC0DF041E96B9A6B886BB8E0
:100C5000FED7D5EC08F0220EE66ED0EC0DF041E99F
:100C60006B9A6B886BB8FED76B826BB2FED7D40ED3
:100C7000E66ED0EC0DF041E96B9A6B886BB8FED74D
:100C8000810EE66ED0EC0DF041E96B9A6B886BB883
:100C9000FED76B846BB4FED76C9AE66A080EE66EDC
:100CA000B7EC0FF042E9C580C5B0FED7C750040BC2
:100CB00001E0010E0101DC6F1F0EC5140101DC1102
:100CC00001E0F4D7D40EE66E8FEC0DF041E9026E30
:100CD000C750040B01E0010E0101DC6F1F0EC514AB
:100CE0000101DC1101E0F4D7C59AC588C5B8FED76B
:100CF000C750040B01E0010E0101DC6F1F0EC5148B
:100D00000101DC1101E0F4D7220EE66E8FEC0DF04C
:100D100041E9026EC750040B01E0010E0101DC6FD6
:100D20001F0EC5140101DC1101E0F4D7C59AC58876
:100D3000C5B8FED7C750040B01E0010E0101DC6FFE
:100D40001F0EC5140101DC1101E0F4D7C582C5B244
:100D5000FED7C750040B01E0010E0101DC6F1F0E2E
:100D6000C5140101DC1101E0F4D7D50EE66E8FEC5D
:100D70000DF041E9026EC750040B01E0010E0101C4
:100D8000DC6F1F0EC5140101DC1101E0F4D7C59A18
:100D9000C588C5B8FED7C750040B01E0010E01019C
:100DA000DC6F1F0EC5140101DC1101E0F4D74AEC21
:100DB00010F0026EC750040B01E0010E0101DC6F60
:100DC0001F0EC5140101DC1101E0F4D7C58AC588E6
:100DD000C5B8FED7C584C5B4FED7C69AD5EC08F011
:0A0DE00024D75BE9E7CFD9FF12002A
:060DEA000F01386B396BAC
:100DF0003A6B3B6B3C6B926AA80E896E816A936872
:100E0000946A210E8B6E800E8D6E966AC80E8C6E63
:100E1000956AFE0EE66E6DEC0FF041E9BC6ABB68A8
:100E20009E921200300ED36E040ED26E9B6A120098
:100E3000D9CFE6FFE1CFD9FF87E95AE8076A086A08
:100E4000030E096E0A6A020E0B6E0C6A050E0D6E19
:100E50000E6A0F6A106A030E116E126A050E136E87
:100E6000146A010E156E166A040E176E186A060EC5
:100E7000196E1A6A020E1B6E1C6A040E1D6E1E6A23
:100E8000030ED89003BE03D0025C000E035802E3A9
:100E9000000E01D0010E045E000E055A070EE66E2C
:100EA000E66A040EE66EE66A04EBE6FF05EBE6FF93
:100EB000CDEC09F00101FE0EE3500424E46F41E99A
:100EC000E5500520E56F640EE66EE66A04EBE6FF8A
:100ED00005EBE6FFCDEC09F0E552E5CFE7F1E7CF12
:100EE000E6F10101E6510101E45D0101E26F01015A
:100EF000E7510101E5590101E36F900EE66E010E25
:100F0000E66E04EBE6FF05EBE6FFCDEC09F0E552FB
:100F1000E5CFE9F1E7CFE8F101010101E25101017B
:100F2000E8250101E06F01010101E3510101E9211F
:100F30000101E16F0101D950070FEA6FDACFEBF140
:100F400001010204EC6F000E0358ED6F0101D8900F
:100F5000EC37ED3701010101EA510101EC25E96EA1
:100F600001010101EB510101ED21EA6E01010101D5
:100F7000E051EE240101DE6F01010101E151EE209B
:100F80000101DF6F00500101DE250101DC6F01501E
:100F90000101DF210101DD6FDCC1E6FFDDC1E6FFFC
:100FA00018EC0AF0E552E550206EE7501F6E000085
:100FB0001FEBF3FF20EBF4FF00D05BE9E7CFD9FF95
:100FC0001200D9CFE6FFE1CFD9FF82E941E8F00E68
:100FD0000014026E02380F0B026E0A0E0202F3506A
:100FE000026E0F0E00140226025000D042E9E7CF35
:100FF000D9FF1200C96AD66AC750010B04E1140E6A
:10100000D65C01E2F9D7C95000D01200D9CFE6FF73
:10101000E1CFD9FF82E9C69E00EBC9FFC7A0FED78A
:10102000C95000D041E9E7CFD9FF1200D9CFE6FF80
:10103000E1CFD9FF82E941E800EBC9FFC6AE03D09A
:10104000FF0E0DD008D0D66AC750010B04E1140E74
:10105000D65C01E2F9D7C950026E025000D042E9D5
:10106000E7CFD9FF1200D9CFE6FFE1CFD9FF83E95F
:1010700044E8036A046A0050035C015004580FE21C
:10108000056A066A180E055C000E065804E2052A79
:10109000000E0622F7D7032A000E0422ECD745E9FA
:1010A000E7CFD9FF1200D9CFE6FFE1CFD9FF83E91F
:1010B00042E80050036E046A83EB04F0036A0150B7
:1010C000031204340DE3E668E66803EBE6FF04EB85
:1010D000E6FF45EC0AF0E552E550046EE750036E7A
:1010E00003EBF3FF04EBF4FF00D043E9E7CFD9FFB4
:1010F00012008C80640EE66EE66AB5DF42E98C82EF
:10110000640EE66EE66AAFDF42E98C84640EE66E3A
:10111000E66AA9DF42E98C86640EE66EE66AA3DF22
:1011200042E98C88640EE66EE66A9DDF42E98C8AAD
:10113000640EE66EE66A97DF42E98C8C640EE66E1A
:10114000E66A91DF42E98C8E640EE66EE66A8BDF1A
:1011500042E98C90640EE66EE66A85DF42E98C9285
:10116000640EE66EE66A7FDF42E98C94640EE66EFA
:10117000E66A79DF42E98C96640EE66EE66A73DF12
:1011800042E98C98640EE66EE66A6DDF42E98C9A5D
:10119000640EE66EE66A67DF42E98C9C640EE66EDA
:1011A000E66A61DF42E98C9E1200898A0C0EE66EC7
:1011B000E66A59DF42E98D800C0EE66EE66A53DF7F
:1011C00042E9899A0C0EE66EE66A4DDF42E98D909F
:1011D000200EE66EE66A47DF42E98D800C0EE66E71
:1011E000E66A41DF42E9898A0C0EE66EE66A3BDF79
:1011F00042E98D900C0EE66EE66A35DF42E9899A87
:10120000480EE66EE66A2FDF42E912008980899275
:101210008984898AD00EE66E070EE66E24DF42E9E5
:10122000899A8990899289848D80D00EE66E070E06
:10123000E66E19DF42E98D90320EE66EE66A13DF44
:1012400042E98D80320EE66EE66A0DDF42E98D904E
:10125000898089828984898AD00EE66E070EE66EBF
:1012600002DF42E9899A320EE66EE66AFCDE42E966
:10127000898A320EE66EE66AF6DE42E9899A320E15
:10128000E66EE66AF0DE42E9898A320EE66EE66ACA
:10129000EADE42E9899A8990898289848D80D00E1C
:1012A000E66E070EE66EDFDE42E98D90320EE66EE8
:1012B000E66AD9DE42E98D80320EE66EE66AD3DE5A
:1012C00042E98D90320EE66EE66ACDDE42E98D800F
:1012D000320EE66EE66AC7DE42E98D90320EE66EA9
:1012E000E66AC1DE42E98D80320EE66EE66ABBDE5A
:1012F00042E98D90898089928994898AD00EE66E20
:10130000070EE66EB0DE42E9899A320EE66EE66AB4
:10131000AADE42E9898A320EE66EE66AA4DE42E976
:10132000899A320EE66EE66A9EDE42E9898A320EBC
:10133000E66EE66A98DE42E9899A320EE66EE66A61
:1013400092DE42E9898A320EE66EE66A8CDE42E976
:10135000899A320EE66EE66A86DE42E9898A320EA4
:10136000E66EE66A80DE42E9899A899089928994DC
:101370008D80D00EE66E070EE66E75DE42E98D902A
:02138000120059
:0E13820043E8D9CFE6FFDACFE6FFE1CFD9FF8F
:10139000E2CFDAFF89E9066A1200F3DF068001D0A6
:1013A000F0DF01AEDAEF09F0006C011EE86A0122FD
:1013B00006B0067E03AEE2EF09F0026C031EE86A97
:1013C0000322067E1AEC0AF003BE04EF0AF006AE12
:1013D00008D0026C031EE86A0322046C051EE86A4A
:1013E000052206B006D084EB00F085EB01F006A0E4
:1013F00004D082EB00F083EB01F0E552E5CFDAFF99
:10140000E7CFD9FF45E9000C06BEE9EF09F0E9DFB7
:10141000FF0C43E8D9CFE6FFDACFE6FFE1CFD9FFF3
:10142000E2CFDAFF89E9066A1200F3DF068003D013
:10143000F0DF01D00682056A046A100EE76ED890CC
:1014400002360336043605360050045C0150055858
:1014500005E30050045E0150055A022AE72EF0D73A
:1014600006B2120006B006D084EB00F085EB01F066
:1014700006A004D082EB00F083EB01F0E552E5CF4B
:10148000DAFFE7CFD9FF45E9120044E8D9CFE6FFFC
:10149000DACFE6FFE1CFD9FFE2CFDAFF8AE980EBCE
:1014A00004F081EB05F082EB06F002500402F450E8
:1014B000016EF350006E0350076E0502F450036E88
:1014C000F350026E07500402F3500126F45002223A
:1014D000E86A032206500502F3500126F450022266
:1014E000E86A0322E552E5CFDAFFE7CFD9FF46E904
:1014F000000C45E8D9CFE6FFDACFE6FFE1CFD9FF10
:10150000E2CFDAFF8FE90C6A1200F3DF0C8003D020
:10151000F0DF01D00C820B6A0A6A096A086A200EA1
:10152000E76ED89004360536063607360836093693
:101530000A360B360050085C0150095802500A5810
:1015400003500B5809E30050085E0150095A02503D
:101550000A5A03500B5A042AE72EE4D70CB21200A1
:101560000CB00AD088EB00F089EB01F08AEB02F0B6
:101570008BEB03F00CA008D084EB00F085EB01F0BE
:1015800086EB02F087EB03F0E552E5CFDAFFE7CF19
:10159000D9FF49E9120044E8D9CFE6FFDACFE6FFE8
:1015A000E1CFD9FFE2CFDAFF8EE980EB08F081EBE3
:1015B00009F082EB0AF083EB0BF004500802F350C1
:1015C000006EF450016E04500902F3500126000E23
:1015D000F420026E04500A02F3500226000EF4209A
:1015E000036E04500B02F350032605500802F3501B
:1015F0000126F4500222000E032205500902F35086
:101600000226F450032205500A02F3500326065026
:101610000802F3500226F450032206500902F35048
:10162000032607500802F3500326E552E5CFDAFF00
:08163000E7CFD9FF48E9000CE7
:081638008C88010EE66EE66AE3
:1016400033EC08F042E98C9812008B84020EE66EAF
:10165000E66A33EC08F042E98B940A0EE66EE66A1D
:1016600033EC08F042E912008C98010EE66EE66A4F
:1016700033EC08F042E9020EE66E16EC08F041E9A0
:10168000010EE66E16EC08F041E9010EE66E16EC6E
:1016900008F041E9010EE66E16EC08F041E98C0E07
:1016A000E66E16EC08F041E9BA0EE66E16EC08F0AC
:1016B00041E9800EE66E16EC08F041E9140EE66E84
:1016C000E66A33EC08F042E98C881200D9CFE6FFD5
:1016D000E1CFD9FF83E946E88C98010EE66EE66A11
:1016E00033EC08F042E9010EE66E16EC08F041E931
:1016F0008C88010EE66EE66A33EC08F042E98C98BD
:10170000010EE66EE66A33EC08F042E9440EE66E3E
:1017100016EC08F041E9FAEC07F0036E046AFF0EDC
:10172000035C15E00A0E045C12E28C98010EE66E72
:10173000E66A33EC08F042E9440EE66E16EC08F077
:1017400041E9FAEC07F0036E8C88042AE8D7FF0E13
:10175000035C29E1010E056E066A076A086A046ADD
:101760000050045C20E2FAEC07F0036E0350E66ED2
:10177000E66A0450E66EE66A4F0EE66E1A0EE66EF4
:10178000E66A290EE66E010EE66E0EEC0EF049E9F1
:10179000010EE66E290EE66E010EE66E0FEC04F009
:1017A00043E9042ADDD78C88055000D047E9E7CF0C
:1017B000D9FF1200D9CFE6FFE1CFD9FF81E942E896
:1017C0008C98010EE66EE66A33EC08F042E9440EAE
:1017D000E66E16EC08F041E9FAEC07F0016E026AD9
:1017E000FF0E015C10E00A0E025C0DE2022A8C88FA
:1017F00000008C98440EE66E16EC08F041E9FAEC15
:1018000007F0016EEDD7015000D043E9E7CFD9FFD3
:021810001200C4
:0E181200898800000000000000008998120084
:10182000D9CFE6FFE1CFD9FF81E947E8010106837F
:10183000E66A030EE66E010EE66EE3EC0EF043E997
:101840000000000000008F0EE66E16EC08F041E983
:10185000FAEC07F0016EFAEC07F0026EFAEC07F012
:10186000036EC69A03EBDCF10101DC51046E056ADC
:10187000066A076AD950040FE96EDACFEAFFEF5023
:10188000EE6AEFCFF4FFEE6EEF50F4CFEEFFEF6EA7
:1018900002EBDCF10101DD6BDE6BDF6BD950040F75
:1018A000E96EDACFEAFF0101DC51EE120101DD51F0
:1018B000EE120101DE51EE120101DF51EE12D9509C
:1018C000040FE96EDACFEAFFEF50EE6AEFCFF4FFD4
:1018D000EE6EEF50F4CFEEFFEF6E01EBDCF10101A5
:1018E000DD6BDE6BDF6BD950040FE96EDACFEAFFF8
:1018F0000101DC51EE120101DD51EE120101DE5158
:10190000EE120101DF51EE120101069304EBF8F132
:1019100005EBF9F106EBFAF107EBFBF100D048E932
:10192000E7CFD9FF1200D9CFE6FFE1CFD9FF81E998
:1019300041E88998220EE66E16EC08F041E9810E26
:10194000E66E16EC08F041E9010EE66EE66A33EC4D
:1019500008F042E989882C0EE66E010EE66E33EC43
:1019600008F042E98998200EE66E50EC0FF041E94C
:10197000980EE66E50EC0FF041E94BDF8F0EE66EED
:1019800050EC0FF041E9FAEC07F0016E8988000095
:0C199000015000D042E9E7CFD9FF12005F
:04199C000C0D0A2004
:1019A000504152545F49445F524144494F3A202DBF
:1019B00025303258253032582D200D0A0D0A000CE2
:1019C0000D0A2048616C6C737769746368656E20DA
:1019D000E47220616B7469763A2009202564200D39
:1019E0000A0D0A000C0D0A20582056414C3A2009D5
:1019F000202564200D0A20592056414C3A20092008
:101A00002564200D0A205A2056414C3A20092025F1
:101A100064200D0A000C0D0A204C49533244483111
:101A20003220496E6974696572696E673A0D0A0DF4
:101A30000A2057484F20414D20493F200930782542
:101A4000303258202830783434290D0A0D0A000C21
:101A50000D0A204CE4736E696E673A202564200DF0
:101A60000A20526561642066726F6D20726164693C
:101A70006F3A2009307825303258200D0A0D0A00BF
:101A8000060EF66E000EF76E000EF86E01010900EC
:101A9000F550F36F0900F550F46F03E1F36701D0DF
:101AA0003DD00900F550EE6F0900F550EF6F0900C9
:101AB000F550F06F09000900F550E96E0900F55086
:101AC000EA6E090009000900F550F16F0900F550B0
:101AD000F26F09000900F6CFF5F1F7CFF6F1F8CF74
:101AE000F7F1EEC1F6FFEFC1F7FFF0C1F8FF01011A
:101AF000F15302E1F25307E00900F550EE6EF107F1
:101B0000F8E2F207F9D7F5C1F6FFF6C1F7FFF7C122
:0E1B1000F8FF0101F307000EF45BBFD71200CF
:021B1E00D9CF1D
:101B2000E6FFDACFE6FFE1CFD9FFE2CFDAFF83E9C4
:101B300000EBC9FFC6AE02D0FF0E2CD00F0EC614AC
:101B400008080FE00F0EC6140B080BE0C6889EA60F
:101B5000FED7C750040B03E1C750010B18E0000E7D
:101B600019D00F0EC614080804E00F0EC6140B0897
:101B700011E1C7B0FED7C750040B01E0010E01010F
:101B8000DC6F1F0EC514DC11F6E1C5AC02D0FE0EF1
:101B900001D0000E41E9E5CFDAFFE7CFD9FF12000F
:101BA000D9CFE6FFDACFE6FFE1CFD9FFE2CFDAFF08
:101BB00083E900EB6FFF6CAE02D0FF0E29D00F0E51
:101BC0006C1408080CE00F0E6C140B0808E06D5044
:101BD000040B03E16D50010B18E0000E19D00F0E3D
:101BE0006C14080804E00F0E6C140B0811E16DB0C2
:101BF000FED76D50040B01E0010E0101DC6F1F0EDA
:101C00006B14DC11F6E16BAC02D0FE0E01D0000EBD
:0C1C100041E9E5CFDAFFE7CFD9FF120071
:041C1C00D9CFE6FF37
:101C2000DACFE6FFE1CFD9FFE2CFDAFF87E944E878
:101C3000D9CFE6FFDACFE6FFE552E5500A6EE7506E
:101C4000096E09EBE6FF0AEBE6FF00EBE6FF01EBAE
:101C5000E6FF02EBE6FFD950030FE66E000EDA2036
:101C6000E66E1DEC00F047E9F350076EF450086E85
:101C700003EBE9FF04EBEAFFEF6A07EBF3FF08EB86
:0E1C8000F4FF45E9E5CFDAFFE7CFD9FF120008
:021C8E00D9CFAC
:101C9000E6FFDACFE6FFE1CFD9FFE2CFDAFF85E951
:101CA000AC6AAB6A02B0AC8802A202D0AC8CAB8C3E
:101CB00002B4AC8E02A602D0AB8801D0AB8A02B8C7
:101CC000AC8402BAAB8602AC02D09D8A01D09D9A48
:101CD00002AE02D09D8801D09D9800EBAFFF0101BC
:101CE00001EBDCF1DD6BDCC1B0FFAC8AAB8E41E90E
:0A1CF000E5CFDAFFE7CFD9FF1200BD
:061CFA00FE0EE3CFE9FF3E
:101D0000FF0EE3CFEAFFF36AF46AEE5203E0F34A10
:101D1000F42AFBD71200FF0EE3CFF8FFE552FF0EC7
:101D2000E3CFF7FFE552FF0EE3CFF6FFE552E66A99
:101D3000E66AE66A0900F55209E0FD0EE32A05E1CC
:101D4000FE0EE32A02E1FF0EE32AF4D7FD0EE3CFF5
:101D5000F8F1FE0EE3CFF9F1FF0EE3CFFAF1120036
:101D6000D9CFE6FFDACFE6FFE1CFD9FFE2CFDAFF46
:101D700085E9013415E200EBE9FF01EBEAFFEECF64
:101D8000F3FFEDCFF4FFEE2A000EEF22F3CFE9FFD1
:101D9000F4CFEAFF02EBEFFFEF50F36EF46A0DD0E1
:101DA000FE0E005C05E102EBE6FF2FEC10F004D024
:101DB00002EBE6FF66EC10F041E941E9E5CFDAFF1E
:061DC000E7CFD9FF12007D
:0A1DC600D9CFE6FFDACFE6FFE1CF48
:101DD000D9FFE2CFDAFF85E93F0EC716C66A025087
:101DE000C6120050C7120150030A09E0010A04E0BC
:101DF000020A06E1C78C04D0C78CC68801D0C68809
:101E00000250050A03E0010A03E1928A948601D098
:101E100094969488949AC68A41E9E5CFDAFFE7CF91
:041E2000D9FF1200D4
:0C1E2400D9CFE6FFDACFE6FFE1CFD9FF0F
:101E3000E2CFDAFF82E941E8F20E0101FD1771AC51
:101E400003D0FD9171B0FD8171B4FD8571B2FD8744
:101E50007450026E025042E9E5CFDAFFE7CFD9FFB6
:021E600012006E
:0E1E6200D9CFE6FFDACFE6FFE1CFD9FFE2CF1E
:101E7000DAFF82E941E8F20E0101FE17ABAC03D0B4
:101E8000FE91ABB0FE81ABB4FE85ABB2FE87AE5027
:101E9000026E025042E9E5CFDAFFE7CFD9FF120028
:101EA000D9CFE6FFDACFE6FFE1CFD9FFE2CFDAFF05
:101EB00083E941E8C950036E9E96C69E00EBC9FFB8
:101EC000C6AE02D0FF0E03D09EA6FED7000E42E99A
:0A1ED000E5CFDAFFE7CFD9FF1200DB
:061EDA00D9CFE6FFDACFCC
:101EE000E6FFE1CFD9FFE2CFDAFF83E9FB0E001472
:101EF000BA6EBC6A9E9200AE02D09D8201D09D92C5
:0E1F0000BA8441E9E5CFDAFFE7CFD9FF12003E
:021F0E00D9CF29
:101F1000E6FFDACFE6FFE1CFD9FFE2CFDAFF84E9CF
:101F200042E880EB04F081EB05F005EBB3FF04EB36
:0E1F3000B2FF43E9E5CFDAFFE7CFD9FF120099
:021F3E00D9CFF9
:101F4000E6FFDACFE6FFE1CFD9FFE2CFDAFF84E99F
:101F50003F0E6D166C6A6B6A01506C1200506D1268
:0E1F60006C8A41E9E5CFDAFFE7CFD9FF120026
:021F6E00D9CFC9
:101F7000E6FFDACFE6FFE1CFD9FFE2CFDAFF84E96F
:101F80003F0EC716C66AC56A0150C6120050C71276
:0E1F9000C68A41E9E5CFDAFFE7CFD9FF12009C
:021F9E00D9CF99
:101FA000E6FFDACFE6FFE1CFD9FFE2CFDAFF83E940
:101FB00072AC04D072900101FDB3728000EB73FF2C
:0C1FC00041E9E5CFDAFFE7CFD9FF1200BE
:041FCC00D9CFE6FF84
:101FD000DACFE6FFE1CFD9FFE2CFDAFF83E9ACAC9D
:101FE00004D0AC900101FEB3AC8000EBADFF41E941
:0A1FF000E5CFDAFFE7CFD9FF1200BA
:061FFA00F36AF46AFF0E19
:10200000E124E96EFF0EE220EA6EED6607D02F0EA6
:0E201000EF6404D03A0EEF6001D0F32A120004
:02201E00FF0EB3
:10202000E3500101FC6F1A0E00D000D001D0200E49
:0E203000E76EE72EFED7FC2FFAD700D0120085
:02203E00380E5A
:10204000F36E00EE00F00F0E01D81200EA6002D02D
:0E205000EE6AFCD7F350E9601200EE6AFCD78E
:02205E00FF0E73
:10206000E350ACBA04D0AF6AAB8EAC8A949CACA2FD
:0A207000FED7AD6EF36EF46A1200A5
:06207A001EEE00F02EEE48
:1020800000F0F86A40EC0DF067EC10F05AEC04F048
:04209000FBD7120068
:0C2094000F0EC614080804E00F0EC6145E
:0E20A0000B0801E1C586C7A0FED7C95012008B
:0220AE003031CF
:0F20B00032333435363738396162636465660020
:0120BF000A16
:0C20C0000B0D008000081018202830389C
:0220CC00120000
:0220CE001200FE
:020000040030CA
:0100010028D6
:0100020019E4
:010003003CC0
:01000500BF3B
:01000600C534
:010008000FE8
:01000900C036
:01000A000FE6
:01000B00E014
:01000C000FE4
:01000D0040B2
:00000001FF
